:020000040800F2
:10000000E0230020B9020008AD2C0008892A00086E
:10001000A92C0008B1040008C94F00080000000026
:10002000000000000000000000000000C52C0008D7
:100030004D05000800000000C12C0008C92C000874
:10004000D3020008D3020008D3020008D30200083C
:10005000D3020008D3020008D3020008D30200082C
:10006000D3020008D3020008D3020008D30200081C
:10007000D3020008D3020008D3020008D30200080C
:10008000D3020008D3020008D3020008D3020008FC
:10009000D3020008D3020008D3020008D3020008EC
:1000A000D3020008D3020008D3020008D3020008DC
:1000B000D3020008D3020008D3020008D3020008CC
:1000C000D3020008D3020008D3020008D3020008BC
:1000D000D3020008D3020008D3020008D3020008AC
:1000E000D3020008D3020008D3020008D30200089C
:1000F000D3020008D3020008D3020008D30200088C
:10010000D3020008D3020008D3020008D30200087B
:10011000892D0008D3020008D3020008D30200088A
:10012000D3020008D3020008D3020008D30200085B
:10013000D3020008D3020008D3020008D30200084B
:10014000D3020008D3020008D3020008B52C00082F
:10015000D3020008D3020008D30200087D2F000854
:10016000D3020008D3020008D3020008D30200081B
:10017000D3020008D30200080000000000000000C5
:10018000D3020008D3020008D3020008D3020008FB
:10019000D3020008D302000800000000D3020008C8
:1001A000D3020008D3020008000000000000000095
:1001B000D30200080000000000000000D302000885
:1001C000D3020008D3020008D3020008D3020008BB
:1001D000D3020008D302000800F002F800F05CF837
:1001E0000AA090E8000C82448344AAF10107DA4592
:1001F00001D100F051F8AFF2090EBAE80F0013F088
:10020000010F18BFFB1A43F001031847804E00008E
:10021000A04E00000A444FF0000C10F8013B13F010
:10022000070408BF10F8014B1D1108BF10F8015B4F
:10023000641E05D010F8016B641E01F8016BF9D142
:1002400013F0080F1EBF10F8014BAD1C0C1B09D199
:100250006D1E58BF01F801CBFAD505E014F8016B0B
:1002600001F8016B6D1EF9D59142D6D3704700009D
:100270000023002400250026103A28BF78C1FBD8AF
:10028000520728BF30C148BF0B6070471FB504F04C
:10029000E4FE1FBD10B510BD00F0D0F81146FFF709
:1002A000F5FF04F093FE00F0EEF803B4FFF7F2FF61
:1002B00003BC00F0F5F800000948804709480047F2
:1002C000FEE7FEE7FEE7FEE7FEE7FEE7FEE7FEE706
:1002D000FEE7FEE704480549054A064B7047000063
:1002E000752D0008D9010008E01D0020E023002042
:1002F000E01F0020E01F002053EA020C00F069809C
:100300002DE9F04B4FF00006002B1FBFB3FA83F529
:1003100003FA05F424FA05F65E4012BF1643B2FA5A
:1003200082F502FA05F4C5F120051EBF22FA05FC8C
:1003300044EA0C04203556EA044C4FEA144418BF32
:10034000641C4FF000084FF00009904271EB030C61
:1003500039D3002919BFB1FA81F701FA07F6B0FACB
:1003600080F700FA07F6C7F120071EBF20FA07FC46
:1003700046EA0C062037B6FBF4FCA7EB0507103F56
:1003800007F01F0BCBF120062CFA06F60CFA0BFB3C
:1003900044BFB3460026202FA4BF5E464FF0000B9B
:1003A0005BEA060C08BF4FF0010B19EB0B0948EB99
:1003B0000608ABFB027C06FB02CC0BFB03CCC01B8C
:1003C00071EB0C01C1E70B46024641464846BDE8C9
:1003D000F08B13B5084318BF4FF0FF300146AFF361
:1003E0000080BDE81C4070474FF0000200B5134686
:1003F00094469646203922BFA0E80C50A0E80C5045
:10040000B1F12001BFF4F7AF090728BFA0E80C50F5
:1004100048BF0CC05DF804EB890028BF40F8042BEE
:1004200008BF704748BF20F8022B11F0804F18BF5B
:1004300000F8012B7047704770477047754600F011
:100440002BF8AE4605006946534620F00700854666
:1004500018B020B5FFF73EFFBDE820404FF0000682
:100460004FF000074FF000084FF0000BAC46ACE82F
:10047000C009ACE8C009ACE8C009ACE8C00921F08B
:1004800007018D46704710B50446AFF30080204643
:10049000BDE81040FFF709BF004870478001002009
:1004A00001491820ABBEFEE726000200704700009D
:1004B000FEE70000002070470020704710B541F2B1
:1004C0002064C2F2000440F61061C2F2000120462E
:1004D000002202F077FE40F21061C2F200012046D5
:1004E00002F066FE002010BD10B5014641F21C600E
:1004F00041F22064C2F200000122C2F20004027044
:10050000204602F055FE204602F034FE002010BDC9
:100510000020704710B541F22062C2F20002D2F80A
:10052000BC22D2F81432002B1CBF012010BD41F2B6
:100530002064C2F200040A460146204602F042FE50
:100540002046BDE8104002F0CFBE0000704700001A
:1005500072B600BFFEE7000070B5866D044600F07D
:100560004FF994F83510022920D105462068216CF6
:10057000026822F016020260426922F080024261A3
:1005800009B9A16C19B1016821F008010160016885
:1005900021F00101016000BF0068C0070AD000F02F
:1005A0002FF9401B05280FD82068F5E780206065EB
:1005B00001200EE0E06D3F2101FA00F0B060012063
:1005C00084F83500002004E020206065032084F8D2
:1005D0003500002184F8341070BD000090F835100B
:1005E000022909D1052180F835100068016821F041
:1005F00001010160002070478021416501207047A2
:10060000B0B5044600F0FCF8054640F27710C2F29F
:1006100000000078611C18BF044400BF00F0F0F82F
:10062000401BA042FAD3B0BD2DE9F04F82B000F1DB
:100630003E4241F6000502F1FF77C4F202050722AF
:100640004FEAB726A84208BF0622062E38BF4FEA57
:10065000B7224FF0010E002400274FF0000800924F
:1006600008E000BF023708F10108202F04F104045C
:1006700000F0B4800E680EFA08F916EA090FF1D0FE
:10068000D1F804A00AF0030BABF10106012E19D832
:100690000322866802FA07FECA6826EA0E06BA40F6
:1006A000324382604268CAF3001522EA090205FA61
:1006B00008F54FEA480C6FEA0E064FF0010E2A4388
:1006C00042600BE00322BA40D643BBF1030FBC46A5
:1006D00004D1BC464FF0030B24E000BFC2688D6814
:1006E000324005FA0CF52A43BBF1020FC26019D162
:1006F0006FF0030202EA5802024404F01C030F25C3
:10070000D2F820E005FA03FA0D692EEA0A0E05FA7E
:1007100003F343EA0E031362D1F804A04FF0010E75
:100720000AF0030B02680BFA0CF332401A431AF476
:10073000403F026096D0002243F644030192C4F287
:1007400002031A6843F6004C42F480421A601A68A9
:10075000C4F2010C02F480420192019A28F00302D3
:100760004FF6084A6244CFF6FF7A52F80A3004F096
:100770000C060F25B540AB43009D05FA06F6334342
:1007800042F80A30DCF800204B6842EA0906DD0333
:1007900058BF22EA0906CCF80060DCF804209D036B
:1007A00042EA090658BF22EA0906CCF80460DCF8E0
:1007B0000820DD0242EA090643F60C4558BF22EA4A
:1007C0000906CCF80860C4F201052A689B0242EAD7
:1007D000090658BF22EA09062E6043E702B0BDE8C9
:1007E000F08F0000426902EA0103914341EA0341AC
:1007F00081617047002A08BF0904816170470000C9
:1008000041F6DC50C2F200000068704740F27710F9
:1008100041F6DC51C2F20000C2F2000100780A6821
:10082000104408607047000080B543F60040C4F2F1
:100830000200016841F400710160016841F48061C7
:100840000160016841F480710160032000F088F8C4
:100850000F2000F005F800F02BF8002080BD00000C
:10086000B0B540F27712C2F2000240F21C011278D9
:10087000C2F200014FF47A730968B3FBF2F2044646
:10088000B1FBF2F1084601F0CFFC0F2C4FF001054F
:100890000CD858B94FF0FF3021460022002500F057
:1008A00033F840F27810C2F2000004602846B0BD70
:1008B00082B0002043F640010190C4F202014A6870
:1008C00042F480424A604A6802F480420192019AEE
:1008D0000090086840F080500860086800F0805080
:1008E0000090009802B07047002848BF704700F0A1
:1008F0001F01012202FA01F14EF200124009CEF26C
:10090000000242F82010704710B54EF60C5CCEF293
:10091000000CDCF80030C3F3022E8EF00704042C28
:1009200028BF0424BEF103034FF0FF3E0EFA04F487
:1009300038BF0023A14399400EFA03F39A431143B1
:1009400000F00F02043A624409010C3200F16043E6
:10095000B0F1FF3FC8BF03F56442117010BD000045
:100960004EF60C51CEF200010A684FF6FF031A4012
:1009700060F30A2242F0806040F0FD70086070472A
:1009800001220168C0F8FC23002280F8F423886962
:1009900040F000608861486D40F0805040F00302F4
:1009A00000204A6570470000704700000268002080
:1009B000516270472DE9F043D0F80080D8F8240048
:1009C000B9B1D8F82830B1F1010E00EB13435CD077
:1009D0005FFA8EF00121012898BF0846471EFFB23A
:1009E000032F00F0030C0BD20026BCF1000F31D115
:1009F0004BE040EA0240C8F828000020BDE8F08340
:100A000000F0FC0908F1F404002008F5827500BF2D
:100A100054F8106F074603EB164047F00103DBB2B2
:100A200047F0020655F82330F6B255F8266000EB81
:100A3000134000EB164347F00300C0B255F82010F6
:100A4000381DC6B24E4503EB1143E1D1791DBCF10F
:100A5000000F1AD008EB8600D0F80401BCF1010F9A
:100A600003EB104311D0C8B208EB8000D0F80401AA
:100A7000BCF1020F03EB104307D0481CC0B208EBD7
:100A80008000D0F8040103EB104343EA024008EB76
:100A90008E01C1F804010020BDE8F083D0F8040401
:100AA00002F0DEBEC1EBC102D0F8043400EB8200DC
:100AB000826C184602F04ABEC1EBC102D0F8043481
:100AC00000EB8200D0F80822184602F093BE000026
:100AD000D0F8040402F0C6BE10B50446080601F0C2
:100AE0000F00C0EBC00104EB810205D402F5FE71DA
:100AF000002382F8FD3104E0012302F13C0182F879
:100B00003D3094F8BC230870012A04BF022010BDB8
:100B10002068012284F8BC2303F046FC002084F8FE
:100B2000BC0310BDB0B54268044601F00F0090420E
:100B300084BF0120B0BD090609D4C0EBC00104EB9D
:100B4000810202F5FE71002382F8FD3108E0C0EB5E
:100B5000C00104EB8102012302F13C0182F83D3027
:100B600094F8BC230025012A8D70087004BF022070
:100B7000B0BD2068012284F8BC2303F00BFF284697
:100B800084F8BC53B0BD000001F00F01C1EBC101FE
:100B900000EB8100D0F8140270470000B0B50546A4
:100BA000080601F00F00C0EBC00105EB810C05D475
:100BB0000CF5FE7100248CF8FD4104E001240CF1D9
:100BC0003C018CF83D404C780870002C8A60CB705A
:100BD00018BFC880022B04BF0020087195F8BC0321
:100BE000012804BF0220B0BD2868012285F8BC237B
:100BF00003F0A6FA002085F8BC03B0BD10B501F0E3
:100C00000F0CCCEBCC0100EB81044FF0000EC4F8CC
:100C100014E284F8FDE1D0F810E0C4F80822C4F82A
:100C20001032BEF1010F84F8FCC108BFC4F80C22D9
:100C3000006804F5FE715FFA8EF2BCF1000F03D07C
:100C400003F0EEFE002010BD03F0FCFD002010BDFF
:100C5000B0B50446406801F00F05854284BF01200D
:100C6000B0BD080609D4C1EBC10004EB800000F55B
:100C7000FE71002280F8FD2108E0C5EBC50004EB01
:100C80008000012200F13C0180F83D2094F8BC0373
:100C9000012201288A700D7004BF0220B0BD2068B7
:100CA00084F8BC2303F09EFE2DB92068217C04F556
:100CB000717203F041FE002084F8BC03B0BD000057
:100CC000B0B501F00F0CCCEBCC0100EB810529464F
:100CD00001F83CCF0024D0F810E08C6101244C7066
:100CE000CA60BEF1010F4B6108BFEA6400685FFA99
:100CF0008EF2BCF1000F03D003F092FE0020B0BDD5
:100D000003F0A0FD0020B0BD2DE9F04F89B00768C9
:100D10008346384603F0C8FF10B109B0BDE8F08F34
:100D2000DBF8000003F0EEFF0028F6D0DBF800004F
:100D300003F0E8FF0146DBF80000890703D54169AD
:100D400001F00201416103F0DDFF0146DBF8000024
:100D5000C90604973BD5816921F0100181613D6A84
:100D6000C5F34340062805F00F0419D0022828D106
:100D700047F6F07015EA000623D0C4EBC4000BEB75
:100D80008007D7F80812350904982A4603F0BEFFF9
:100D9000D7F8080200EB1610C7F80802049F07E016
:100DA0000BF571713846082203F0B0FFC5F30A1540
:100DB000C4EBC4000BEB8000D0F814122944C0F837
:100DC0001412DBF80000816941F01001816103F029
:100DD00099FF000340F1D880DBF8000003F070FFBA
:100DE000002800F0D18006460BF571700BF50174F8
:100DF0004FF000084FF4306A08901EE05FEAC960C7
:100E000042BF07EB0A00102181605FEA896042BFA0
:100E100007EB0A00202181605FEA894042BF07EBAF
:100E20000A004FF40051816008F1010876080AF1C8
:100E3000200A04F11C0400F0A780F007F4D0DBF8CE
:100E400000005FFA88F5294603F054FF8146C00789
:100E50006DD007EB0A0001218160DBF800000AEB8E
:100E6000000C036CDCF80820DBF81070012F25D192
:100E7000170737D4970653D4049F12F0280F56D182
:100E800043F20B01C4F654718B4202D312F40042B8
:100E900032D1DCF81010D4E900236FF3DF41511A8E
:100EA00021619918B8F1000F616016D1DBF81012BA
:100EB00099B9089A012103F03FFD0EE043F20B07B8
:100EC000C4F65477FF37BB421BD110042AD4049FC9
:100ED000900644BF2020CCF8080058462946FFF76A
:100EE000EBFD24E043F20B00C4F65470049F8342F0
:100EF0001DD312F400401AD04FF40040CCF8080083
:100F000015E0B8F1000F06D1DBF8101219B9089AF4
:100F1000002103F011FD58462946FFF7CDFD05E0FD
:100F2000202001E04FF40040CCF80800049F5FEA65
:100F300009707FF563AF07EB0A0008218160DBF8D9
:100F4000000043F20B02056C5044C4F654728168F1
:100F5000571EBD4205D911F400411CBF4FF400419A
:100F60008160584600F0F0FBBD42049F7FF646AF1B
:100F7000DBF8100001287FF441AFDBF80000089A8D
:100F8000012103F0D9FC39E7DBF8000003F0BAFED9
:100F9000400340F1C980DBF8000003F089FE00281F
:100FA00000F0C280064607F5106A0BF57170002448
:100FB0000290CDF818B0CDF80CA010E0079B04F01B
:100FC0000F00D3F83418012202FA00F021EA0000E1
:100FD000C3F83408760804F1010400F0A580F00796
:100FE000F8D0DBF80000E1B2089103F071FE05468D
:100FF000C00727D004F00F00D7F83418012202FAF6
:1010000000F021EA0000C7F834080AEB44108260BF
:10101000DBF81000012811D1C4EBC4000BEB8000F9
:10102000D0E911121144816444B9DBF8500028B9A9
:10103000DBF80000029A012103F07EFC0899584673
:10104000FFF730FD280742BF0AEB441008218160FA
:10105000E80642BF0AEB441010218160680642BFD7
:101060000AEB441040218160A80742BF0AEB4410FC
:10107000022181602806ADD5C4EBC4000BEB8005CE
:10108000A94659F8502FC84658F8040F8242A1D3F8
:10109000DBF8007055F8443F111A994288BF194691
:1010A000079707EB441CDCF818790331BFB2B7EBA4
:1010B000910F28BF824204D8049F82423FF68AAF34
:1010C0007CE705F1040BDBF800100CF5106A0595C0
:1010D000151A06989D42077C88BF1D46DDE9070268
:1010E000ABB2009703F036FFDBF80000EB1C4119B0
:1010F000D8F80000CBF800102844C8F80000DAF84F
:10110000182097B2D9F80020B7EB930F28BF82427E
:1011100002D9059B1B68DBE7DDF818B0DDE903A702
:1011200082423FF657AF49E7DBF8000003F0EAFDE3
:10113000002802D4DBF800001AE0D7F8040820F0F9
:101140000100C7F804089BF8F403012807D1002028
:101150008BF8F40358460021FFF726FC02E05846BE
:1011600000F0D6FADBF80000416901F0004141616E
:1011700003F0C8FD000502D4DBF800000CE0D7F84E
:101180000808C00702D0584600F006FBDBF8000054
:10119000416901F40061416103F0B4FD000118D51B
:1011A000DBF80000416901F0006141619BF8F41334
:1011B00019B1584600F0F0FA0BE001218BF8F41356
:1011C000406D0121C0F38300CBF8F8035846FFF7C8
:1011D000EBFBDBF8000003F095FDC00402D4DBF864
:1011E000000014E1D7F80408102120F00100C7F82E
:1011F0000408DBF8000007F5006403F017FDDBF8D6
:101200000410002900F0D680481E032801F0030CCA
:1012100001D200217BE021F0030200214FF67F3351
:10122000049F043A0F44C7F80839D7F8006901F160
:10123000800126F40016C7F80069D7F8006946F067
:101240000066C7F80069C7F8083BD7F8006B26F4BA
:101250000016C7F8006BD7F8006B46F00066C7F8B9
:10126000006BC7F82839D7F8206926F40016C7F8AC
:101270002069D7F8206946F00066C7F82069C7F8EA
:10128000283BD7F8206B26F40016C7F8206BD7F858
:10129000206B46F00066C7F8206BC7F84839D7F8CE
:1012A000406926F40016C7F84069D7F8406946F04F
:1012B0000066C7F84069C7F8483BD7F8406B26F48A
:1012C0000016C7F8406BD7F8406B46F00066C7F8C9
:1012D000406BC7F86839D7F8606926F40016C7F87C
:1012E0006069D7F8606946F00066C7F86069C7F8BA
:1012F000683BD7F8606B26F40016C7F8606BD7F828
:10130000606B46F00066C7F8606B049F88D1BCF143
:10131000000F4FD007F5106253184FF67F309860DA
:101320005358BCF1010F23F400135350565807F5DE
:10133000306346F00066565003EB0106B0605E581D
:1013400026F400165E505E5846F000665E5031D0BE
:1013500001F120069519A8609559BCF1020F25F4FA
:1013600000159551955945F00065955103EB06051B
:10137000A8609F5927F400179F519F5947F00067B5
:101380009F5117D001F1400011184FF67F378F6041
:10139000115821F400111150115841F00061115001
:1013A00019188F60195821F400111950195841F07B
:1013B00000611950E06940F00110E061DBF8300095
:1013C00040B1D4F8840040F00B00C4F8840004F16C
:1013D000440006E0606942F22B010843606104F1B9
:1013E000100001680BF5717241F00B01016020687B
:1013F00020F4FE602060DBF800009BF8101003F082
:101400009BFADBF80000416901F48051416103F06F
:1014100079FC0146DBF8000089041AD502F0D6FEFB
:10142000DBF8000003F032FCDBF80050CBF80C00D6
:1014300000F042FC9BF80C200146284603F0FEFC1D
:10144000584600F053F9DBF80000416901F40051FF
:10145000416103F057FC000702D4DBF8000008E00C
:10146000584600F059F9DBF80000416901F0080125
:10147000416103F047FCC00202D4DBF8000009E040
:101480005846002100F03CF8DBF80000416901F407
:101490008011416103F036FC800202D4DBF80000C9
:1014A00009E05846002100F02FF8DBF80000416900
:1014B00001F40011416103F025FC400002D4DBF887
:1014C000000008E05846FFF7E9FADBF80000416940
:1014D00001F08041416103F015FC40077FF51DAC30
:1014E000DBF800004468610704D55846FFF7F0FABE
:1014F000DBF8000041682143416009B0BDE8F08F8E
:10150000D0F8040402F006BAD0F8040402F012BACB
:101510002DE9F04F8BB0002800F083800446056869
:1015200090F8BD0328B9002084F8BC03204600F0E1
:101530008FF8032084F8BD03E86BC0055CBF002072
:101540002061206803F076F9206804F11C0A0A90F3
:10155000D4E90C5004F1040E9AE8C0079EE80E5836
:10156000CDE9085003A880E8C0030A988DE8005828
:10157000CDF81CA002F03AFE00284FD120680021CF
:10158000002503F017FC616849B304F15000012203
:10159000012300BF5F1E00F8147C20F80E7CDFB230
:1015A00000F8132C00F8115C40E9035540F81C5B6F
:1015B0000133B942EED804F504700122002300BFC4
:1015C000571E00F8147CD7B200F8133C00F8113C09
:1015D00040E9033340F81C3B0132B942F0D8A0681F
:1015E00022680A90D4E90C5004F1140E04F1240A84
:1015F000D4E903379EE840589AE80007CDE908503F
:1016000002A880E8005810460A9ACDE90076CDE994
:101610000589CDF81CA002F029FF30B1022084F822
:10162000BD0301200BB0BDE8F08F002084F8380026
:10163000012084F8BD03606A012802D12046FFF72B
:101640009FF9206802F002FF00200BB0BDE8F08F88
:10165000B0B59CB0044601A804305421FEF7C4FE86
:101660002068B0F1A04F01D01CB0B0BD2020019087
:1016700001A800F0ABF8002818BFFEF769FF0025AD
:1016800043F630041795C4F20204206817A940F00D
:1016900001002060206800F00100179017984FF4B7
:1016A000C05017900220CDE9180503201A900A2097
:1016B0001B900020C4F20200FEF7B6FF6068002114
:1016C00040F08000606000956069002240F4804036
:1016D0006061606900F48040009000984320FFF74B
:1016E00013F94320FFF700F91CB0B0BD10B5044654
:1016F000C068022818BFFEF72BFFD4F804040121AC
:1017000002F09AF9D4F80404BDE8104002F048B998
:10171000D0F8040402F076B9D0F8040402F07CB9E1
:1017200010B5044690F8BC03012804BF022010BD88
:10173000012084F8BC0384F83810206803F06CFBA7
:10174000002084F8BC0310BDD0F8042400F57171AA
:10175000104602F087B9000010B5044690F8BC03AB
:10176000012804BF022010BDA16A206801220129BE
:1017700084F8BC2306D1A169012903D0816B41F40F
:101780008031816303F04AFA206802F04FFE0020A6
:1017900084F8BC0310BD000010B50446D0F8040462
:1017A00002F0B4F92068D0F8001E41F00101C0F841
:1017B000001E206A002808BF10BD4EF61050CEF261
:1017C0000000016841F00601016010BD2DE9F04103
:1017D00082B00446006843F68C06C107C4F20206D4
:1017E00004D14FF0000881070CD415E03168E2699C
:1017F00021F0C06111433160B2FA82F14FEA511811
:10180000810709D53168226A21F0C0511143316046
:10181000002A08BF4FF00108810417D53168A26C77
:1018200021F44011002A41EA020108BF4FF00108EB
:10183000B2F5001F316009D1316862696FF0FF03B2
:1018400021F4F85103EB022211433160410417D512
:101850003168E26C21F44001002A41EA020108BF2C
:101860004FF00108B2F5000F316009D131686269AB
:101870006FF0FF0321F4F85103EB022211433160B2
:10188000010759D50020019056F84C0C47F200078B
:1018900040F0805046F84C0C56F84C0CC4F200074F
:1018A00000F0805001900198386840F480703860F2
:1018B000FEF7A6FF054600BF3868C00505D4FEF751
:1018C0009FFF401B0228F7D9F5E056F81C0C10F4D6
:1018D000407017D0616A01F44071884212D056F806
:1018E0001C0C40F64061C4F24721012220F44070F4
:1018F0000A6000220A6046F81C0C56F81C0CC0074F
:1019000040F00F812068616A56F8842C4FF6FF473B
:1019100001F4407322F4F812C0F6FF770F40B3F5DC
:10192000407F08BF3A4346F8842C56F81C2C6FF3CE
:101930001F31114346F81C1C410709D4C10612D4BB
:10194000810618D4410623D4B8F1000F29D03DE018
:1019500094F8540040F64061C4F24721C1F8A00356
:101960002068C106ECD5B168E26A21F44001114358
:10197000B1608106E6D5B168226B21F000611143A8
:10198000B160B2F1006F08BF4FF001084106DBD52E
:10199000B168A26A21F080511143B160B8F1000F23
:1019A00014D1802812D0C10500F18D80810500F18D
:1019B0009380410500F19980010500F19F80C004EA
:1019C00000F1A580002002B0BDE8F08140F2680877
:1019D000C4F247280020C8F80000FEF711FF0546B2
:1019E00056F88C0C000105D5FEF70AFF401B0228B3
:1019F000F6D960E0206D40F64061C4F24721C1F89D
:101A000098022068C10701D0E16989B1810701D539
:101A1000216A69B1810603D5216BB1F1006F07D04E
:101A200041060FD5A16A69B9216BB1F1006F09D1E7
:101A3000251D2ECD41EA821141EA036141EA05717B
:101A400046F8081C810401D5A16C19B1410416D5D2
:101A5000E16CA1B956F8081CD4E9012301F07061CA
:101A60002569114341EA831141EA0571A76946F8E6
:101A7000081C31687A1E21F01F01114331600006F5
:101A800009D5231D0FCB40EA811040EA026040EAED
:101A9000037046F8080C0120C8F80000FEF7B0FEFD
:101AA000054600BF56F88C0C000108D4FEF7A8FECE
:101AB000401B0228F6D9032002B0BDE8F08120685F
:101AC000C1057FF573AF3168626B21F000411143AE
:101AD000316081057FF56DAF3168A26B21F4004163
:101AE0001143316041057FF567AF3168E26B21F04A
:101AF00000411143316001057FF561AF3168226C0F
:101B000021F4804111433160C0047FF55BAFB068C0
:101B1000616C20F040400843B060002002B0BDE896
:101B2000F081FEF76DFE054641F2883756F81C0C31
:101B300080073FF5E7AEFEF763FE401BB8424FF06B
:101B40000300F3D9EAE70000704700002DE9F041F7
:101B5000002800F08B8043F60808C4F2020804460F
:101B6000D8F8F8030D4600F00700884207D288F83D
:101B7000F853D8F8F80300F00700A84276D120689F
:101B8000810717D5410705D5D8F8001041F4E05179
:101B9000C8F80010010705D5D8F8001041F46041DD
:101BA000C8F80010D8F80010A26821F0F001114325
:101BB000C8F80010C0073FD1D8F8F80300F00700BC
:101BC000A84207D988F8F853D8F8F80300F00700BE
:101BD000A8424BD12068410707D5D8F80010E26829
:101BE00021F4E0511143C8F80010000708D5D8F8D7
:101BF0000000216920F4604040EAC100C8F80000FC
:101C000000F088F8D8F8001045F27402C1F303110F
:101C1000C0F60002515C40F21C0220FA01F140F2D1
:101C20007810C2F200000068C2F200021160FEF7F4
:101C300017FE0020BDE8F0816068811E022907D2EE
:101C400058F8081C89015CBF0120BDE8F08110E054
:101C5000012807D158F8081C89035CBF0120BDE8A2
:101C6000F08106E058F8081C890702D40120BDE87D
:101C7000F081D8F8001021F003010843C8F80000F3
:101C8000FEF7BEFD064641F2883700BFD8F80000D7
:101C9000616800F00C00B0EB810F8DD0FEF7B0FD55
:101CA000801BB842F2D90320BDE8F0814C20C4F279
:101CB000472001210160704740F21C00C2F2000081
:101CC0000068704740F21C0043F60801C2F20000B1
:101CD000C4F202010068096845F28402C1F382215E
:101CE000C0F60002515CC8407047000040F21C0082
:101CF00043F60801C2F20000C4F20201006809685C
:101D000045F28402C1F34231C0F60002515CC84082
:101D10007047000010B543F60404C4F20204606882
:101D200000F00C0008280AD0042819BF42F2004035
:101D3000C0F2F40041F60030C0F2B70010BD2068D8
:101D400021682368490241F60031C0F2B70100F072
:101D50003F02C3F388105CBF42F20041C0F2F401BD
:101D6000A1FB00010023FEF7C7FA21680222C1F39C
:101D7000014102EB4101B0FBF1F010BD10B543F69B
:101D80000C04C4F202042068000658BF10BDFFF71F
:101D9000DBFE8020A07010BD2DE9F04182B000284C
:101DA0006FD00446007843F60006C007C4F202066E
:101DB0000BD0B06800F00C00042840F0A28030681E
:101DC000800302D5606800285BD0207880071AD590
:101DD000B06810F00C0F09D0B06800F00C000828B3
:101DE00040F0A9807068400200F1A580306880074B
:101DF00002D5E068012844D13068216920F0F8005C
:101E000040EAC1003060207800073ED420784007C7
:101E100051D4A5698DB3B06800F00C00082840F0DB
:101E2000BD80012D2DD07068E16900F480028A42E6
:101E300027D1216A00F03F028A4222D147F6C071C1
:101E4000626A0140B1EB821F1BD1A26A0023CFF668
:101E5000FF7303EBC23200F440316FF30F02914283
:101E60000FD1E16A00F07062B2EB016F09D1216B12
:101E700000F0E040B0EB017F03D1002002B0BDE8EC
:101E8000F081012002B0BDE8F0816069002840F2D5
:101E90000000C4F2472071D00121C0F8801EFEF777
:101EA000AFFC0546706F8007B0D4FEF7A9FC401B5D
:101EB0000228F7D9D7E0306C10F080580AD1002002
:101EC0000190306C40F080503064306C00F08050F5
:101ED0000190019847F20007C4F200073868C00576
:101EE0003ED4386840F480703860FEF789FC0546BF
:101EF0003868C00534D4FEF783FC401B0228F7D9AC
:101F0000B1E0B06800F00C00082803D1706840020E
:101F10003FF555AF6068B0F5803F07D0B0F5A02F12
:101F200040F08B80306840F480203060306840F4AE
:101F3000803030608BE0E068002851D00020C4F28F
:101F4000472001210160FEF75BFC054630688007F1
:101F50003FF552AFFEF754FC401B0228F6D982E051
:101F6000A068012805D005284ED1306F40F004004C
:101F70003067306F40F0010030674FE00021C0F85B
:101F8000801EFEF73DFC0546706F80077FF53EAF73
:101F9000FEF736FC401B0228F6D964E00027C4F2A5
:101FA000472700203866FEF72BFC022D05460BD193
:101FB000306880015BD5FEF723FC401B02284FF000
:101FC0000300F5D95AE700BF306880017FF555AFAF
:101FD000FEF716FC401B02284FF00300F4D94DE732
:101FE0000020C4F2472000210160FEF709FC0546ED
:101FF000306880077FF507AFFEF702FC401B022820
:102000004FF00300F4D939E7316F002821F00101C6
:102010003167316F21F0040131674DD0FEF7F0FBDD
:10202000054641F2883700BF306F800755D4FEF770
:10203000E7FB401BB842F7D915E03168002821F4CE
:1020400080313160316821F4802131604ED0FEF75B
:10205000D7FB0546306880033FF5B7AEFEF7D0FBEF
:10206000401B6428F6D9032002B0BDE8F08104F1DA
:102070001C052FCD246B08430021CFF6FF7140EAE9
:10208000821001EBC3316FF30F0140EA0560084392
:1020900040EA0470706001203866FEF7B1FB044628
:1020A000306880013FF5E9AEFEF7AAFB001B02286D
:1020B0004FF00300F4D9E1E6FEF7A2FB054641F23A
:1020C000883700BF306F800707D5FEF799FB401BAC
:1020D000B8424FF00300F5D9D0E6B8F1000F7FF415
:1020E00098AE306C20F08050306492E6FEF788FBAA
:1020F000054600BF306880037FF567AEFEF780FBC2
:10210000401B64284FF00300F4D9B7E670B538B12E
:102110000446406A30B10020206104F1140007E059
:10212000012070BD6068B0F5827F03D004F11C000F
:10213000002101600026A66294F8510020B92046D3
:1021400084F8506000F03CF8022084F8510094E8D4
:102150000F0001F48271056802F4044225F0400585
:102160000560114403F400622369114403F0020284
:102170006369114403F00102A369E569114403F4A2
:102180000072114405F03802256A114405F08002FE
:10219000A56A114305F4005211430160626A0421EB
:1021A00001EA134102F0100211444160C16921F4B7
:1021B0000061C1610120666584F85100304670BD40
:1021C00080B586B0016843F20000C4F2010081428C
:1021D00001D006B080BD002143F630020191C4F267
:1021E0000202536900F5504043F480535361536930
:1021F00003F480530193019B0191136843F00103A1
:102200001360126802F001020192019AE022019229
:102210000222CDE90221032104910521059101A9A2
:10222000FEF702FA06B080BD411E0020B0EB116F30
:102230001CBF012070474EF21002CEF20002516026
:102240004EF62351CEF20001F0230B70072190606F
:102250001160704781B090F83E30202B0BD10029DF
:102260004FF0010318BF002A06D090F83C30012B34
:1022700005D1022300E00223184601B07047012374
:10228000036381624FF0000C22218285C285C0F871
:1022900040C080F83E10016880F83CC0CA6842F433
:1022A0008072CA604A6942F001024A61CA6842F01B
:1022B0002002CA60026B012ADED1CDF800C00A6894
:1022C00000924A680092009A51E8031F026841F0A8
:1022D000100142E803133BB3016851E8031F026891
:1022E00041F0100142E8031303B3016851E8031FF2
:1022F000026841F0100142E80313CBB1016851E8D4
:10230000031F026841F0100142E8031393B1016812
:1023100051E8031F026841F0100142E80313002B4B
:102320004FF00003D8D1A7E70023A5E70023A3E7D8
:102330000023A1E700239FE780B5006844F600432F
:1023400041F6D852C4F20003C2F200029842116072
:1023500018BF80BD40F2E01140F27612C2F20001D7
:10236000C2F2000208781278904213D041F2106055
:10237000C2F2000045F2FD520280D1F80220D1F8ED
:1023800006304989C0F8022041810C21C0F806308E
:10239000FEF7C0F841F6505040F2E011C2F20000E2
:1023A000C2F200010C22BDE88040FFF753BF0000DD
:1023B00070470000B0B582B0044600680168C36889
:1023C000426901F02F05202D03F0200506D12DB123
:1023D000204602B0BDE8B04000F0E2BC5FEA017CFC
:1023E0001EBF02F0010E03F4907212EB0E0255D1E3
:1023F000226B012A05D111F0100218BF13F0100250
:1024000036D10A0622D513F080021FD094F83D1071
:10241000212941D1A168B1F5805F03D1216900294B
:1024200000F06A82216A4A1C226209784160E18CCC
:1024300001390A04E1842FD1C16821F08001C16013
:10244000C16841F04001C16002B0B0BD490623D56A
:1024500013F0400120D0C16821F04001C16020216B
:10246000204684F83D1002B0BDE8B04000F00ABB41
:10247000002101910168019141680191019941692F
:10248000490600F18B80A18DE28DE38D002B1CBFEE
:10249000891A5FEA01420CD102B0B0BDCA0718BF69
:1024A00013F4807240F031814A0700F1348139E140
:1024B000206850E8030F226820F4907042E803037C
:1024C000DBB1206850E8030F226820F4907042E8E6
:1024D000030393B1206850E8030F226820F4907042
:1024E00042E803034BB1206850E8030F226820F450
:1024F000907042E80303002BDAD1206850E8050F02
:10250000226820F0010042E80503DBB1206850E8B2
:10251000050F226820F0010042E8050393B120680E
:1025200050E8050F226820F0010042E805034BB196
:10253000206850E8050F226820F0010042E80503FA
:10254000002BDAD1202084F83E0000202063206890
:1025500050E8030F226820F0100042E80303DBB1CB
:10256000206850E8030F226820F0100042E80303BF
:1025700093B1206850E8030F226820F0100042E871
:1025800003034BB1206850E8030F226820F01000CD
:1025900042E80303002BDAD189B2B0E0A26B1168E4
:1025A0004B689DB2002D3FF477AFA18D8D42BFF4F3
:1025B00073AFE385D269B2F5807F00F09D8050E86B
:1025C000030F216820F4807041E80302E2B1206823
:1025D00050E8030F216820F4807041E803029AB1AB
:1025E000206850E8030F216820F4807041E803025E
:1025F00052B1206850E8030F216820F4807041E850
:1026000003020AB12068DAE7206850E8050F216864
:1026100020F0010041E80502DAB1206850E8050F1A
:10262000216820F0010041E8050292B1206850E8DD
:10263000050F216820F0010041E805024AB1206839
:1026400050E8050F216820F0010041E80502002A4A
:10265000DAD1206850E8050F216820F0400041E8F9
:102660000502DAB1206850E8050F216820F040002B
:1026700041E8050292B1206850E8050F216820F07A
:10268000400041E805024AB1206850E8050F216882
:1026900020F0400041E80502002ADAD1202084F829
:1026A0003E0000202063206850E8030F216820F0DE
:1026B000100041E80302DAB1206850E8030F2168F6
:1026C00020F0100041E8030292B1206850E8030FA7
:1026D000216820F0100041E803024AB1206850E868
:1026E000030F216820F0100041E80302002ADAD12C
:1026F000A06BFDF731FFA18DE08D081A81B2204655
:1027000002B0BDE8B040FFF717BE226C42F00102F4
:1027100022644A0706D5BEF1000F03D0226C42F0B6
:10272000020222648A0706D5BEF1000F03D0226C94
:1027300042F004022264BCF1000F06D555EA0E02F5
:1027400003D0226C42F008022264226C002A3FF47B
:10275000A3AE11F0200118BF002D03D0204600F0D9
:102760001FFB20684169226C01F0400102F0080261
:10277000891800F0A28000BF50E8030F216820F400
:10278000907041E80302C2B3206850E8030F21684B
:1027900020F4907041E803027AB3206850E8030FF8
:1027A000216820F4907041E8030232B3206850E8B9
:1027B000030F216820F4907041E80302EAB1206819
:1027C000DAE700BF206850E8050F216820F001001B
:1027D00041E80502DAB1206850E8050F216820F0D1
:1027E000010041E8050292B1206850E8050F216818
:1027F00020F0010041E805024AB1206850E8050FC9
:10280000216820F0010041E80502002ADAD1206B9E
:10281000012824D1206850E8030F216820F010001F
:1028200041E80302DAB1206850E8030F216820F084
:10283000100041E8030292B1206850E8030F2168BC
:1028400020F0100041E803024AB1206850E8030F6D
:10285000216820F0100041E80302002ADAD120208C
:1028600084F83E00002020632068416949063DD578
:1028700050E8050F216820F0400041E805021AB336
:10288000206850E8050F216820F0400041E805026B
:10289000D2B1206850E8050F216820F0400041E8DF
:1028A00005028AB1206850E8050F216820F0400039
:1028B00041E8050242B12068DAE72046FFF778FDDB
:1028C0000020206402B0B0BDA06B78B142F69551F3
:1028D000C0F600010165FDF781FE00283FF4DCAD84
:1028E000A06B016D02B0BDE8B0400847204602B0C1
:1028F000BDE8B040FFF75CBD216A31F8022B6FF3F1
:102900005F224260216292E5002804BF01207047E7
:1029100010B5044690F83D0028B9002084F83C002A
:10292000204600F021F8242084F83D002068C1688A
:1029300021F40051C160204600F0B0FA206801691E
:1029400021F490410161416921F02A014161C1688E
:1029500041F40051C16000202021206484F83D1022
:1029600084F83E1010BD000010B586B0006841F23A
:102970000042C4F2010200219042CDE90411CDE9E8
:102980000211019125D044F60041C4F200018842B1
:1029900052D1002043F630010090C4F202010A69CE
:1029A000342442F400220A610A6902F400220092EF
:1029B000009A0090086840F001000860086800F084
:1029C000010000900098032001900020C4F2020052
:1029D0001FE043F630000091C4F202004269472430
:1029E00042F020024261426902F020020092009A05
:1029F0000091016841F004010160006800F00400EA
:102A000000900098C02001900020C4F2020000F560
:102A10000060022102910021039103210491082109
:102A2000059101A9FDF700FE204600210022FDF7D7
:102A30006BFF2046FDF758FF06B010BD7047000041
:102A4000034690F83D0020280AD100294FF00100EC
:102A500018BF002A00D1704793F83C00012801D12B
:102A6000022070471962002021219A84DA841864B8
:102A700083F83D10196883F83C00CA6842F0800270
:102A8000CA60704770470000FEE700002DE9F0477C
:102A900086B0002643F63000CDE904660096C4F205
:102AA0000200016840F6000441F004010160016881
:102AB000C4F2020401F0040100910099009601683B
:102AC000002241F080010160016801F08001009165
:102AD00000990096016841F001010160016801F070
:102AE0000101009100990096016841F00201016026
:102AF000006840F6185100F002000090009820464F
:102B0000FDF778FEA4F5006528464FF482610022A7
:102B1000FDF770FE20464FF4007101224FF00109CD
:102B2000FDF768FE28464FF400710122FDF762FEB2
:102B3000A4F580684046202100224FF0200AFDF7CE
:102B400059FE4FF4005001AFCDE901062046394649
:102B50000396FDF769FD4FF44670CDE90109204663
:102B60003946CDE90366FDF75FFD4FF4C260CDE95C
:102B7000010928463946CDE90366FDF755FD4FF4B6
:102B80004060CDE9010903200490204639460396B0
:102B9000FDF74AFD40463946CDE901A9CDE9036676
:102BA000FDF742FD06B0BDE8F087000080B541F6B4
:102BB000F84043F20001C2F20000C4F201014FF4F8
:102BC0008272002380E80E0000F114014FF4007CB3
:102BD0004FF0100E81E808500A21C0E90333C0E924
:102BE0000833C0E90A31FFF791FA002808BF80BD19
:102BF000BDE88040FDF7ACBC80B541F6505044F6CE
:102C00000041C2F20000C4F2000100234FF00C0C9E
:102C10004FF4E13280E80E00C0E90333C0E905C398
:102C2000C361FFF771FE002808BF80BDBDE880408A
:102C3000FDF78EBC80B541F2206040F20001C2F287
:102C40000000C2F20001002200F046FD002818BF7B
:102C5000FDF77EFC41F2206040F22001C2F200004C
:102C6000C2F2000100F07AFF002818BFFDF770FCE7
:102C700041F2206040F24411C2F20000C2F20001B1
:102C800000F08EFA002818BFFDF762FC41F22060C8
:102C9000C2F2000000F080FF002808BF80BDBDE840
:102CA0008040FDF755BC0000FEE70000FFF766F826
:102CB000FEE7000041F6F000C2F20000FEF724B883
:102CC0007047000070470000FDF7A0BDB0B594B09C
:102CD000002443F64000CDE90B44CDE909440694B5
:102CE000CDE90444CDE902440194C4F20200016834
:102CF000022541F080510160006800F08050019091
:102D0000019847F200000194C4F20000016841F408
:102D100040410160006800F44040019001980120AA
:102D200007904FF4803008904FF480000E900620FA
:102D30000F904820CDE910050320CDE9120507A822
:102D40000D95FFF729F810B172B600BFFEE70F200E
:102D5000CDE902058020CDE9040402A801210694F2
:102D6000FEF7F4FE08B172B6FEE7FEF79FFF14B05F
:102D7000B0BD00004EF68850CEF20000016841F46C
:102D8000700101607047000041F65050C2F200002F
:102D9000FFF710BB806B0021C185C184FFF708BB22
:102DA00081B090F83E10222920D18368B3F5805F6E
:102DB00008D10169002964D000F128010A6803687C
:102DC0005B680AE0014651F8282F13B90369002B0C
:102DD000F5D003685B6803F07F0313700A68013263
:102DE0000A60C18D01390A04C18501D001B0704764
:102DF0000168CA6822F02002CA60CA6822F48072A0
:102E0000CA604A6922F001024A61202280F83E200D
:102E1000026B012A3ED10022026300BF51E8031F6A
:102E2000026821F0100142E803130168DBB151E8A8
:102E3000031F026821F0100142E80313016893B1F7
:102E400051E8031F026821F0100142E803130168F2
:102E50004BB151E8031F026821F0100142E803134F
:102E60000168002BDAD10A68D20606D5002200924A
:102E70000A680092496800910099818D01B0FFF7BE
:102E80005BBA0168826A49686FF35F2122F8021B0E
:102E90008262A6E701B0FFF7D1BD000010B504467D
:102EA0000068D4E902C22369016921F44051114349
:102EB0000161626943EA0C01E3691143C268194385
:102EC00049F20C639A431143C1604169A26921F43C
:102ED00040711143A0F18042A2F588324FEAB2223C
:102EE000032A416102D8FEF701FF01E0FEF7EAFE86
:102EF000E16963681922B1F5004FA0FB02011DD101
:102F00005A00DB0FFDF7F8F948F21F51C5F2EB113B
:102F1000A0FB01235A096FF0630302FB0300322375
:102F200003EBC000A0FB01014FF4F87000EA1110A0
:102F300000EB0210C1F3421108441BE09A009B0F02
:102F4000FDF7DAF948F21F51C5F2EB11A0FB01239E
:102F50005A096FF0630302FB0300322303EB0010F6
:102F6000A0FB0101F02000EA511000EB0210C1F3B8
:102F7000431108442168886010BD000041F6945058
:102F8000C2F20000FFF716BA10B5D0F8BC323BB35E
:102F90008E4601EB810100EB810151F8184F64B1BD
:102FA000D0F8C4C2CEEBCE020CEB8202D2F844C001
:102FB000B4FBFCF202FB1C42A2B10024C3F8144291
:102FC000D0F8C002D0F810C0BCF1000F06D0D3F882
:102FD000080203F504717246E0470024204610BD44
:102FE000032010BD00240C6071460022002300F075
:102FF00097FD204610BD0000B0B5D0F8BC527DB1A1
:10300000044600F03BFCD4F8C02205F50371D368F8
:10301000D5F80422C5F80C02104698470020B0BD30
:103020000320B0BDB0B58121044600F07DFB002532
:1030300020460121258700F077FB20468221A4F855
:10304000785100F071FBD4F8BC02E56448B1D4F8C3
:10305000C00240688047D4F8BC0201F069F8C4F8A7
:10306000BC520020B0BD000010B5D0F8BC4284B105
:10307000D0F8C01279B194F80002FF280BD08B6809
:1030800094F8012221469847FF2084F8000200208E
:1030900010BD032010BD002010BD0000014640F20D
:1030A000E0000A22C2F200000A807047014640F2A6
:1030B00058004322C2F200000A807047014640F2E5
:1030C0009C004322C2F200000A807047014640F291
:1030D000EC004322C2F200000A807047F0B581B0D4
:1030E00004464FF4077001F025F8E0B30546C4F834
:1030F000BC02207C4026002808BF4FF40076204602
:1031000081210222334600F025FC012720460121BF
:1031100002223346278700F01DFC1020A4F84E0041
:103120002046822103220823A4F8787100F012FCC3
:10313000D4F8C002A4F84C70006880470020C5F89D
:103140001402C5F81802207CD5F804220028204675
:103150004FF001010CBF4FF40073402300F00EFC50
:10316000002001B0F0BD0020C4F8BC02022001B074
:10317000F0BD000080B5D0F8BC1271B190F810C05D
:10318000D1F8042240230121BCF1000F08BF4FF405
:10319000007300F0F3FB002080BD032080BD000021
:1031A00000290EBF0320C0F8C012002070470000A5
:1031B000D0F8BC0200280EBF0320C0F80412002083
:1031C00070470000D0F8BC0200280FBF0320C0F8F1
:1031D0000812C0F8102200207047000070B582B0BD
:1031E000D0F8BC62044600208DF80700ADF804005A
:1031F000B6B108780D4610F0600113D0202928D10F
:10320000EA88002A2BD0000632D46878314686F846
:103210000002204686F8012200F0A6F8002660E0B1
:1032200003265EE068780B2844D80026DFE800F02B
:1032300006594242424242424242303C94F89C0289
:1032400003283DD101A92046022200F0A7F800265C
:1032500047E02046294600F07BF8032641E0D4F8F9
:10326000C00229468368687800220026984738E023
:10327000D4F8C0023146836868789847EA882046C7
:103280003146072A28BF072200F088F8002628E0E8
:1032900094F89C02032819D10DF107012046012260
:1032A00000F07CF800261CE094F89C02032813D15F
:1032B000002616E02046294600F04AF8032610E0D2
:1032C0002046294600F044F803260AE02046294615
:1032D00000F03EF8032604E02046294600F038F8C6
:1032E0000326304602B070BD80B5D0F8BC223AB19A
:1032F000D2F8141200294FF0010103D0084680BD16
:10330000032080BDC2F81412D2F81032D2F808227D
:103310008121C36200F004FC0021084680BD00004A
:1033200080B5D0F8B8220AB152689047002080BD1D
:1033300080B513460A46002100F020FB002080BD26
:1033400080B513460A46002100F0EAFB002080BD4C
:1033500010B58021044600F0B5FB20460021BDE8F1
:10336000104000F0AFBB000080B513460A460321B1
:10337000C0F894120021C0E9563300F0FFFA002093
:1033800080BD000080B50521C0F894120021002204
:10339000002300F0F3FA002080BD000080B5134642
:1033A0000A460221C0F894120021C0E9063300F059
:1033B000B7FB002080BD000080B50421C0F8941246
:1033C00000210022002300F0ABFB002080BD0000A4
:1033D00010B540F2F014C2F200040A4602A02146E1
:1033E00000F010F9204610BD43444320436F6E6641
:1033F0006967000040F230101222C2F200000A8019
:103400007047000010B540F2F014C2F200040A4602
:1034100002A0214600F0F6F8204610BD43444320A8
:10342000496E7465726661636500000040F2581071
:103430000422C2F200000A807047000010B540F27A
:10344000F014C2F200040A4602A0214600F0DAF8A5
:10345000204610BD53544D6963726F656C6563748B
:10346000726F6E696373000010B540F2F014C2F21F
:1034700000040A4602A0214600F0C4F8204610BD10
:1034800053544D3332205669727475616C20436F0A
:103490006D506F7274000000B0B547F61020C1F691
:1034A000FF70026883684FF01A0C9B18A1F800C0E7
:1034B00000F0A3804FF0370C1A0F0CEB137140682B
:1034C000B3F1204F38BF02F1300140F25C12C2F27A
:1034D0000002917019014FF0000E0CEB117582F88B
:1034E00003E0C3F30364B1F1204F38BF04F13005AA
:1034F000190215710CEB117582F805E0C3F3035442
:10350000B1F1204F38BF04F13005190395710CEB70
:10351000117582F807E0C3F30344B1F1204F38BFBF
:1035200004F13005190415720CEB117582F809E0ED
:10353000C3F30334B1F1204F38BF04F1300519054E
:1035400095720CEB117582F80BE0C3F30324B1F113
:10355000204F38BF04F1300519061573C3F3031467
:103560000CEB1175B1F1204F4FEA037103F00F031B
:1035700082F80DE038BF04F1300503F1370495738C
:1035800082F80FE0B1F1204F38BF03F13004010F92
:103590000CEB1073147482F811E0B0F1204F38BFB7
:1035A00001F1300301010CEB1174937482F813E004
:1035B000C0F30363B1F1204F38BF03F130040102BF
:1035C0001475C0F303530CEB1174B1F1204F4FEAA3
:1035D000003182F815E038BF03F130040CEB1173B1
:1035E000947582F817E0C0F30340B1F1204F38BF63
:1035F00000F13003137682F819E040F25C10C2F259
:103600000000B0BD10B5002864D00378B3B100F15C
:10361000020E4FF0000C00BF1EF8013C8BB19EF86B
:1036200000308BB19EF801308BB19EF802300CF166
:10363000040C002B0EF1040EEED10AE04FF0000C4A
:1036400007E04CF0010C04E04CF0020C01E04CF0FF
:10365000030C5FFA8CFC022303EB4C031380032260
:103660000B704A7090F800E0BEF1000F32D0841C5D
:1036700002224FF0000C19E0101DC0B20B5440F0B4
:10368000010001F800C06378002B08BF10BD901D39
:10369000C0B20B5440F0010001F800C094F802E001
:1036A0000832BEF1000F04F1040413D0D3B201F8C4
:1036B00003E043F0010301F803C014F8013C4BB1EF
:1036C000901CC0B20B5440F0010001F800C02378F8
:1036D000002BD1D110BD0000002804BF032070478B
:1036E0000023C0F8B832C0F8C0320029C0F8CC328C
:1036F00018BFC0F8B412012180F89C12027000F0CB
:10370000C1B8000080B5D0F8C402FDF70BFA40F252
:103710000032C100C0F2013222FA01F1032888BF51
:103720000321C8B280BD000080B5D0F8C402FDF707
:10373000D3F940F20032C100C0F2013222FA01F1A5
:10374000032888BF0321C8B280BD0000B0B504467D
:1037500071B194F89C02032849D1D4F8B8024269A7
:10376000002A44D020469047002808BF0020B0BD62
:10377000D4F89402022833D1D4E9070188420DD944
:10378000431A204611461A46E361FFF7D9FD204649
:1037900000210022002300F0F1F821E00FD1A169FF
:1037A00081420CD3D4F89802814208D220460021ED
:1037B00000220025FFF7C4FDC4F89852E7E794F80B
:1037C0009C02032805D1D4F8B802C16809B120468B
:1037D00088472046802100F075F92046FFF7D2FD8A
:1037E00094F8A002012804BF002084F8A002002061
:1037F000B0BD000010B5044669B194F89C020328DE
:103800001CD1D4F8B8028269C2B120469047002882
:1038100008BF002010BDD4F8940203280ED1D4E9CB
:10382000570398420CD9C01AC4F85C01984238BFBB
:103830000346204611461A46FFF77AFD002010BDC8
:1038400094F89C02032805D1D4F8B802016909B1A3
:10385000204688472046FFF7AFFD002010BD00003E
:103860000020704780B5012180F89C12D0F8B81272
:1038700011B14A6801799047002080BDD0F8C40298
:10388000FDF782B910B5017809B1002010BD41F6ED
:10389000F001C2F20001C1F80404C0F8C4124FF0F4
:1038A000A0400622C1E9000202200022C1E9030271
:1038B000C1E906020846C1E90822C1E90A220A63F1
:1038C000FDF726FE002818BFFCF742FE41F6F00483
:1038D000C2F2000420468021FDF768F8204600214E
:1038E0004022FDF767F8204601218022FDF762F8AB
:1038F000002010BDD0F8C40201F07F02C2EBC2026A
:1039000000EB820000F13E02090658BF00F5FF728D
:103910001078704780B5D0F8B82242B190F89C3248
:10392000032B02D1126A02B19047002080BD032010
:1039300080BD000080B5D0F8B82242B190F89C322A
:10394000032B02D1526A02B19047002080BD0320B0
:1039500080BD000080B59446D0F8C4021A46634684
:10396000FDF71CF940F20032C100C0F2013222FA28
:1039700001F1032888BF0321C8B280BD80B5D0F80B
:10398000C402FDF73BF940F20032C100C0F201323F
:1039900022FA01F1032888BF0321C8B280BD0000CC
:1039A000F0B581B004460120002184F89C02C4F8DF
:1039B0009412D4F8B8026160C4F8A412E8B1D4F843
:1039C000BC1221B1426812B1204600219047204626
:1039D00000210022402300254026FFF7BBFF0127DE
:1039E0002046802100224023A4F86471C4F860615D
:1039F000FFF7B0FFA784266200E00325284601B048
:103A0000F0BD000090F89C12042904BF90F89D12AC
:103A100080F89C120020704780B5D0F8B81241B1F0
:103A200090F89C22032A02D1C96901B1884700207D
:103A300080BD032080BD0000024600201174704745
:103A400080B5D0F8C402FDF76BFE40F20032C10031
:103A5000C0F2013222FA01F1032888BF0321C8B263
:103A600080BD0000B0B500F2AA250446284600F04B
:103A700069F80120C4F8940294F8AA02B4F8B022BC
:103A800000F01F010229C4F8982208D001290CD0A7
:103A900089B920462946BDE8B04000F07FB82046ED
:103AA0002946BDE8B04000F067BA20462946BDE887
:103AB000B04000F001BB00F080012046BDE8B040FE
:103AC000AFF3008080B5D0F8C402FDF7C1F840F232
:103AD0000032C100C0F2013222FA01F1032888BF8E
:103AE0000321C8B280BD000080B5D0F8C402FDF744
:103AF00033FE40F20032C100C0F2013222FA01F17D
:103B0000032888BF0321C8B280BD0000014690F899
:103B10009C02042281F89D02002081F89C227047BB
:103B200080B5D0F8C402FDF7CBF840F20032C100F6
:103B3000C0F2013222FA01F1032888BF0321C8B282
:103B400080BD00000A7802704A7842704A8842803C
:103B50008A888280C988C1807047000010B582B011
:103B600004460020ADF8060059B1CA6AC4F8B8127C
:103B700022B10DF106009047C4F8CC02002002B03B
:103B800010BD032002B010BDD0F8B822002A04BF37
:103B90000320704712681047FFF7A6BFB0B582B088
:103BA0000D460978044611F060010CD0402901D07F
:103BB00020292BD1D4F8B80229468268204602B0C9
:103BC000BDE8B0401047687809283BD8DFE800F02E
:103BD000052A3A443A50683A809194F89C02013898
:103BE000022800F2A380E888022840F0DA80D4F8A6
:103BF000A4020322002808BF0122214641F80C2F0D
:103C000020460222FFF7CAFB002508E0204680215B
:103C1000FFF758FF204600210025FFF753FF2846F5
:103C200002B0B0BD94F89C020138022800F28880EE
:103C3000688800250128F2D12046C4F8A452FFF775
:103C4000BBFBECE720468021FFF73CFF204600212C
:103C50000025FFF737FFE2E76888012840F07A8007
:103C60000120C4F8A4022046FFF7A6FB0025D6E7F2
:103C7000A888002850D1E88800284DD168887F287E
:103C80004AD894F89C12032940F0208120468021D4
:103C9000FFF718FF204600210025FFF713FFBEE7BE
:103CA00068884FF0FF3101EB102100220629ADF8A2
:103CB000062000F24D81DFE811F007008700940034
:103CC0004B014B01A100AC00D4F8B40202682BE117
:103CD000E888012840D194F89C02411E02296AD24A
:103CE0000025214641F8085F20460122FFF756FBD8
:103CF00095E7688840F2EC15C2F2000510F0FE0F5F
:103D0000287033D020468021FFF7DCFE20460021BA
:103D1000FFF7D8FE032582E720468021FFF7D2FE79
:103D2000204600210025FFF7CDFE78E720468021C0
:103D3000FFF7C8FE204600210025FFF7C3FE6EE70F
:103D400020468021FFF7BEFE204600210025FFF718
:103D5000B9FE64E7002562E720468021FFF7B2FE46
:103D6000204600210025FFF7ADFE58E794F89C227D
:103D7000C1B2032A5BD0022A62D1002900F0788008
:103D800020466160FFF700FF002800F0B180054683
:103D900020468021FFF796FE20460021FFF792FE85
:103DA0003DE720468021FFF78DFE204600210025BB
:103DB000FFF788FE33E7032850D1211D204601225A
:103DC000FFF7ECFA00252AE7217CD4F8B802002995
:103DD0000CBF816AC16A0DF10600884701460220C6
:103DE00023E0C0B2052800F2B380DFE800F00389C9
:103DF0008D919599D4F8B402426894E0207C002813
:103E000040F0A680D4F8B802416B0DF10600884757
:103E10008EE0207C002840F09B80D4F8B802016B33
:103E20000DF10600884701460720487081E021B364
:103E3000606888422ED12046FFF7BEFA0025EEE6E4
:103E400020468021FFF73EFE20460021FFF73AFE84
:103E500029782046FFF764FA0325E0E62046802112
:103E6000FFF730FE204600210025FFF72BFED6E6A7
:103E70002046FFF7A1FA0025D1E6022084F89C0233
:103E80006160204600210025FFF74AFA2046FFF72F
:103E900093FAC4E6C1B22046FFF742FA29782046D9
:103EA0006160FFF771FE002861D005462046802141
:103EB000FFF708FE20460021FFF704FE2179204687
:103EC000FFF72EFA022084F89C02A8E6C5B284F817
:103ED0009E0220462946FFF7B3FD2046FFF76CFA05
:103EE000002D0CBF0120022084F89C02002596E6DC
:103EF0002046FFF761FA032084F89C0200258EE635
:103F0000D4F8B40282680EE0D4F8B402C2680AE0C1
:103F1000D4F8B402026906E0D4F8B402426902E0BF
:103F2000D4F8B40282699AB1207C0DF10601904761
:103F30000146EA88B2B1BDF8060048B1904238BFE8
:103F400002462046ADF80620FFF728FA002566E66F
:103F500020468021FFF7B6FD20460021FFF7B2FD85
:103F600000255CE62046FFF727FA002557E62046A5
:103F7000FFF722FA002552E6B0B50D46097804464F
:103F800011F060010BD0402901D0202921D1D4F8B3
:103F9000B802294682682046BDE8B04010476878DC
:103FA000297900B3012838D0032865D194F89C0200
:103FB000032836D1688838B911F07F0004D0E8882A
:103FC00010B92046FFF77EFD2046FFF7F5F90020E7
:103FD000B0BD20468021FFF775FD20460021FFF788
:103FE00071FD0020B0BD94F89C02032823D0022864
:103FF00008BF5FEA41603FD101F07F0000EB800025
:1040000004EB800000F11402090658BF00F5AA7203
:10401000002010602046114648E094F89C020328D6
:1040200034D0022828D1480626D02046FFF74AFD82
:104030002046802126E001F00F0202EB820211F0FF
:10404000800004EB820214BF928CB2F864219AB112
:1040500001F07F0202EB820204EB820202F11405FE
:10406000002808BF02F5AA7548061BD02046FFF7B6
:1040700041FCB8B1012016E020468021FFF722FD67
:1040800020460021FFF71EFD0020B0BD68880028F3
:10409000A7D1480602D02046FFF734FB2046FFF7A1
:1040A0008BF974E700202860204629460222FFF79A
:1040B00075F90020B0BD0000B0B50D460978044682
:1040C00011F0600118BF402913D194F89C02013807
:1040D000022803D8A88810F0FE0F16D020468021B1
:1040E000FFF7F0FC204600210025FFF7EBFC2846F7
:1040F000B0BD2029E9D020468021FFF7E3FC20460F
:1041000000210025FFF7DEFC0BE0D4F8B8022946B9
:10411000826820469047E9880546002908BF002D9F
:1041200001D02846B0BD2046FFF746F90020B0BDBB
:104130007047000040F2F030C2F20000704700000B
:1041400080B54B780A78012B02F00F031CD14FF099
:10415000010CD0F81CE80CFA03F343EA0E03C0F894
:104160001C3800EB4210D0F800391B042BD48B68AC
:1041700000F5106091F803C001686FF3DF2343EA94
:104180008C4341EA825118E04FF4803CD0F81CE89F
:104190000CFA03F343EA0E03C0F81C3800EB42109C
:1041A000D0F8002B12040ED48A6800F53060C9786C
:1041B0006FF3DF22036842EA8141194341F08051E5
:1041C00041F400410160002080BD00000146D0F8AC
:1041D000000940F2FF729043C1F80009D1F80408C9
:1041E00040F480720020C1F80428704782B004991E
:1041F000DDF808C0012940F64051C0F2030166D144
:10420000826B4FF6BF7322F480328263C268CFF6AE
:10421000BD731A40C260C2680B9B22F44012012B8E
:10422000C26003D1C26842F48012C26000220092D0
:10423000009A01328A42009200F299800269002AB3
:104240001AD4009A01328A42009200F290800269E8
:10425000002A11D4009A01328A42009200F287802B
:104260000269002A08D4009A01328A4200927ED85C
:104270000269B2F1FF3FDBDC00220092026942F0EA
:1042800001020261009A01328A4200926FD80269EB
:10429000D20717D0009A01328A42009267D8026989
:1042A000D2070FD0009A01328A4200925FD8026989
:1042B000D20707D0009A01328A42009257D8026989
:1042C000D207DFD10021BCF1010F69D160E0C268E3
:1042D000089B42F04002C26000220192019A013222
:1042E0008A42019248D80269002A18D4019A013200
:1042F0008A42019240D80269002A10D4019A013200
:104300008A42019238D80269002A08D4019A0132FF
:104310008A42019230D80269B2F1FF3FDEDC00220E
:104320000192026942F001020261019A01328A425D
:10433000019221D80269D20717D0019A01328A422C
:10434000019219D80269D2070FD0019A01328A422C
:10435000019211D80269D20707D0019A01328A422C
:10436000019209D80269D207DFD1002105E00321BB
:10437000BCF1010F14D10BE00321826B002B14BFA1
:1043800022F4803242F480328263BCF1010F07D103
:10439000826842F006028260826842F020028260F7
:1043A000084602B07047000080B54B780A78012BB0
:1043B0002AD100EB4211D1F8003947F6000CCEF6B5
:1043C000334C01F51061002B4FF0010E07D50B683F
:1043D00043F000630B600B6843F080430B6002F016
:1043E0000F02D0F83C380EFA02F29343C0F83C3882
:1043F000D0F81C3823EA0202C0F81C28086800EA3A
:104400000C0200200A6080BD00EB421303F530610E
:10441000D3F800EB47F60003CEF6334303F1707C8C
:10442000BEF1FF3F4FF4803ED9DCD0E70146D0F823
:10443000000E20F00300C1F8000ED1F8040820F0AF
:1044400002020020C1F80428704700000146D0F89D
:10445000000E20F00300C1F8000ED1F8040840F06F
:1044600002020020C1F80428704700002DE9F04F37
:1044700083B0DDF84CE00E9F0022BEF1000FC0F8C3
:104480000421C0F80821C0F80C21C0F81021C0F8A0
:104490001421C0F81821C0F81C21C0F82021C0F850
:1044A0002421C0F82821C0F82C21C0F83021C0F800
:1044B0003421C0F83821C0F83C2106D0826B00F5C9
:1044C000006A42F40012826313E0D0F8042800F579
:1044D000006A42F00202C0F80428826B22F4001243
:1044E0008263026842F040020260066846F080067D
:1044F00006600026C0F8006EDAF80060012FCAF8E6
:10450000006006D1DAF80070002B18BF47F00107F1
:1045100003E0DAF8003043F00307DDF83090DDF80F
:104520003C8040F640550023C0F20305CAF80070F5
:1045300001934FF484630361019B0133AB42019308
:104540001CD803699B0617D5019B0133AB4201932D
:1045500014D803699B060FD5019B0133AB4201932D
:104560000CD803699B0607D5019B0133AB4201932D
:1045700004D803699B06DFD4002400E00124002353
:10458000029310230361029B0133AB4202931BD8B9
:104590000369DB0619D5029B0133AB42029313D8A2
:1045A0000369DB0611D5029B0133AB4202930BD8A2
:1045B0000369DB0609D5029B0133AB42029303D8A2
:1045C0000369DB06DFD400E001244FF0000B002973
:1045D000CAF810B0CAF814B0CAF81CB000F0FC80D9
:1045E00000F510673B684FF0006505EA13134FF6BE
:1045F0007F324E1E3B60C7F810B0BA6073D08B1E7E
:10460000032B06F00302009403D22024002A42D197
:1046100062E026F003034FF0000E4FF090484FF693
:104620007F3C4FF0000900BF00EB0904D4F820598B
:10463000043B08EAE575C4F82059C4F830E9C4F829
:1046400028C9D4F8405909F1800908EAE575C4F889
:104650004059C4F850E9C4F848C9D4F8605908EA88
:10466000E575C4F86059C4F870E9C4F868C9D4F8AD
:10467000805908EAE575C4F88059C4F890E9C4F88F
:1046800088C9D1D109F12004DDF84CE0DDF83C8087
:10469000DDF8309002B33D594FF0904C0CEAE575CF
:1046A0003B193D5100244FF67F37012A1C619F6062
:1046B00012D01D6A022A0CEAE5751D621C639F6216
:1046C0000AD01F6C4FF0904505EAE7771F6400277A
:1046D0001F654FF67F379F64009C00294FF67F329D
:1046E0004FF0006578D0D0F8003B002E05EA131398
:1046F000C0F8003B4FF00003C0F8103BC0F8082B97
:104700006AD00239032906F0030C04D22023BCF13D
:10471000000F3CD160E0009426F0030300274FF027
:1047200090464FF67F3400214518D5F8202B043BE6
:1047300006EAE272C5F8202BC5F8307BC5F8284B95
:10474000D5F8402B01F1800106EAE272C5F8402B52
:10475000C5F8507BC5F8484BD5F8602B06EAE272E5
:10476000C5F8602BC5F8707BC5F8684BD5F8802B71
:1047700006EAE272C5F8802BC5F8907BC5F8884B35
:10478000D2D1009C01F12003BCF1000F24D000F530
:104790003062D6584FF0904707EAE676D118D650E7
:1047A00000264FF67F33BCF1010F0E618B6013D0F2
:1047B0000A6ABCF1020F07EAE2720A620E638B62B8
:1047C0000AD00A6C4FF0904303EAE2720A640022B6
:1047D0000A654FF67F328A64DAF81010B9F1000FDB
:1047E00021F48071CAF810106FF08041C0F818B041
:1047F000416103D1816941F010018161816943F612
:104800000002C8F23C021143B8F1000F816103D0ED
:10481000816941F008018161BEF1010F05D1816913
:1048200041F0804141F004018161204603B0BDE8C0
:10483000F08F00000146806820F0010200208A60AD
:1048400070470000F0B54B7891F800C0012B22D1E1
:104850004C6900EB4C1E00264FF6FF75DEF8107910
:10486000CFF6F876CEF207050EF51063DCB33E40C6
:104870001E611E692E401E618E6805F10055B4420E
:1048800084BF4E6134461E69254046F400261E61F1
:104890001E69354332E000EB4C13D3F8100B6FF375
:1048A0001200C3F8100BD3F8100B6FF3DC40C3F801
:1048B000100B4F6903F53063002F1CBF8F684F61E9
:1048C0001F694FF6FF7047F400271F61CEF2070003
:1048D0008F6800F100501E6938403043012A18618A
:1048E00013D1C8680EE007EA05041C611C6944F492
:1048F00000241C611C6904EA06050024012A1D61CC
:104900000AD10869002818BF58614FF0044118689F
:10491000084318600020F0BDDEF80019002C41F0BB
:104920000441CEF80019F5D00CF00F01012202FA73
:1049300001F100F63403EAE7D0F840C043F20B037C
:10494000C4F654739C4503D3D0F8003B002B1ED40F
:104950000023C0F8103BD0F8103B012943F400239A
:10496000C0F8103BD0F8103B43F01803C0F8103BE0
:10497000D0F8103B43F0C043C0F8103B07D1C0F85B
:10498000142BD0F8001B41F08021C0F8001B002040
:10499000704700004B780A78012B00EB42100DD1D4
:1049A000D0F8002922F40012C0F80029C97801F0DB
:1049B000FE01022913D100F510600CE0D0F8002BA5
:1049C00022F40012C0F8002BC97801F0FE01022980
:1049D00005D100F53060016841F080510160002090
:1049E000704700004B780A78012B00EB421006D18B
:1049F000D0F80019002900F5106106D50AE0D0F8BA
:104A0000001B002900F5306104D41AB1086820F0B9
:104A100080400860086840F4001200200A60704777
:104A2000F0B54B7891F800C0012B35D1D1F814E0E6
:104A300000EB4C1400254FF6FF76D4F81079CFF632
:104A4000F875CEF20706BEF1000F04F510634CD0E6
:104A50003D401D611D6935401D618D681F690EEB6C
:104A60000506013EB6FBF5F50026C1F6F87606EA26
:104A7000C5453D431D6175461E696FF3DF453543EE
:104A80001D61CD78012D39D11D6925F0C0451D610D
:104A90001D6945F0005530E000EB4C13D3F8107B56
:104AA0004FF6FF7C6FF31207C3F8107BD3F8107B2F
:104AB000C0F2070C6FF3DC47C3F8107B4F698D68B9
:104AC000002F03F5306347D02F44013FB7FBF5F7C4
:104AD0000026C1F6F8761C6906EAC746BFB226432F
:104AE0006F431E6107EA0C063DE03E401E611E69F1
:104AF00046F400261E611E6935401D61012A12D14F
:104B00000A69002A18BFC4F81429C978012942D1BA
:104B1000D0F80818D4F80009C9054CBF40F08050FF
:104B200040F0005036E000F510634FEA4C141D5978
:104B300045F004451D51CD78012D33D1D0F80858EA
:104B4000E658ED054FF0805558BF4FF000553543FE
:104B5000E55092B30020F0BD1F6905EA0C0637430B
:104B60001F614FF400261F69012A47EA06071F61EB
:104B700003D1CA68002A18BF5A61C97801290AD12D
:104B8000D0F808081968C0054FF0805058BF4FF0A2
:104B90000050084318604FF004411868084318603B
:104BA0000020F0BDBEF1000FD4D00CF00F010122A7
:104BB00002FA01F100F63403EFE75FEA0E42C9D0D2
:104BC000032313FA8EF64FF0FF33C96803EB960305
:104BD00000F580504FEA0C32032BC6F381030FD34C
:104BE000B70827F0030400BF0F68043C17504F6854
:104BF00017508F681750CF6801F110011750F3D18B
:104C0000002BA7D00F68012B1750A3D04F68022BA1
:104C100017509FD0896811500020F0BD0146806870
:104C200040F0010200208A607047000081B040F629
:104C300040528901C0F20302002320310093016138
:104C400000990131914200911DD80169890617D55B
:104C5000009901319142009115D8016989060FD55B
:104C600000990131914200910DD80169890607D55B
:104C7000009901319142009105D801698906DFD47C
:104C8000002001B07047032001B07047D0F8080839
:104C900000F0060180074FF0020058BF0F200029E6
:104CA00008BF084670470000406900F001007047E7
:104CB000D0F81818D0F81C08084080B270470000DF
:104CC000D0F81818D0F81C080840000C70470000F5
:104CD000D0F810C8D0F8343801F00F0223FA02F2ED
:104CE000D20100EB4110D2B2D0F8080942EA0C011F
:104CF0000840704700EB4111D1F8081BD0F81408A8
:104D000008407047416980690840704710B59308B2
:104D100002F0030E2BD05A1E032A03F0030C0FD30C
:104D200023F003034FF480528458043B0C608458F2
:104D30004C6084588C608458CC6001F11001F3D130
:104D4000BCF1000F13D04FF4805284580B46BCF1D5
:104D5000010F43F8044B04D11946BEF1000F09D1ED
:104D60001DE08258BCF1020F4A601AD10831BEF131
:104D7000000F14D04FF4805280580A46BEF1010F44
:104D800002F8010B04BF104610BD020ABEF1020F6B
:104D90004A7004BF881C10BD000C8870033108469F
:104DA00010BD4FF4805282588A600C31BEF1000F62
:104DB000E0D1F4E7B0B50446C06820F0C040E06040
:104DC00091B1012926D1E068002540F00050E06053
:104DD0000120FBF715FC6069C00705F1010014D143
:104DE000312D0546F4D310E0E068002540F0804006
:104DF000E06000BF0120FBF703FC6069C00705F11C
:104E0000010002D0312D0546F4D33238B0FA80F0DB
:104E10004009B0BD0120B0BD0246D0F8000801F045
:104E20007F0120F4FE60C2F80008D2F8000840EAD2
:104E300001110020C2F8001870470000022A024643
:104E40000DD145F24030CFF6277043F200530844AD
:104E5000C0F20C0398420DD24FF4705001E04FF4B1
:104E60001050D16821F47051D160D1680143002005
:104E7000D160704741F64060CFF61B7044F240238A
:104E80000844C0F20F03984202D24FF46050E8E7A2
:104E9000A1F5740044F68073A0F51050C0F212031F
:104EA000984202D24FF45050DBE7A1F183704DF2EB
:104EB0002063A0F5E740C0F21303984202D24FF4FA
:104EC0004050CEE74BF26060CFF6E5604EF26033C3
:104ED0000844C0F21603984202D24FF43050C0E7A3
:104EE0004DF20030CFF6CE6047F240730844C0F276
:104EF0001B03984202D24FF42050B2E745F6C0306F
:104F0000CFF6B36049F2C0130844C0F221039842BF
:104F100002D24FF41050A4E7A1F1B77047F220532A
:104F2000A0F55850C0F23803984202D24FF4005016
:104F300097E745F2E040CFF6596049F6E043014477
:104F4000C0F241034FF4C050994238BF4FF4E050D3
:104F500087E7000010B5DDF808C0BCF1000F01D0F4
:104F6000002010BD002BFBD003F1030E4FF0FF33E8
:104F700003EB9E0300F580541203032BCEF3810C48
:104F800010D34FEA9E0323F0030300BF0868043BDD
:104F900010514868105188681051C86801F110011B
:104FA0001051F3D1BCF1000FDAD00868BCF1010F49
:104FB0001051D5D04868BCF1020F10511CBF886851
:104FC0001051002010BD0000FEE7000040F6000474
:104FD000C4F20204FBF728FCFDF778FEFDF756FD4E
:104FE000FDF728FEFDF7E2FDFDF706FE41F65058FD
:104FF000C2F2000840F2E011C2F2000140460C2269
:10500000FDF728F941F21C6740F27616C2F200075C
:105010000025C2F2000600BF0120FBF7F1FA387844
:105020000128F9D120464FF400613D70FBF7DAFB0F
:1050300020464FF480610122FBF7DCFB40463146FD
:105040000122FDF7FDFC0A20FBF7DAFA20464FF4B7
:1050500080610022FBF7CEFBDEE7F1EE100A4FF68F
:10506000FF71C0F2C03120EA010040F04070E1EE73
:10507000100A704700000000000000000102030455
:10508000060708090000000001020304B0500008F0
:105090000000002080010000140200087851000880
:1050A0008001002060220000700200080000000063
:1050B00013F53314082D341B083D041A69041A999A
:1050C000041AD1141A0508111324F413DD301B0837
:1050D00025041BDD3110311A690C13892F1B08F9C7
:1050E00004C11ABD181AAD041ACD041A9D0414097E
:1050F000024313020125C03209041B01020B1305F0
:1051000024161001052401100901042402020524BB
:105110000617010705820308151009040133020A66
:105120002E0705010240072A810711093744113A69
:1051300002441907112B0A0606112B4001502A07B9
:10514000500A3B04941A12171302021E40830440B3
:10515000574D1B02035913BD041B08B9041AB504AB
:105160001AE90413110500081808040309041A03B6
:08517000745E01100000000054
:04000005080001D915
:00000001FF
