:020000040800F2
:10000000780C00207902000831150008211400083E
:100010002D150008710400083D17000800000000BD
:10002000000000000000000000000000AD15000806
:100030007504000800000000A91500080516000856
:10004000930200089302000893020008930200083C
:10005000930200089302000893020008930200082C
:10006000930200089302000893020008930200081C
:10007000930200089302000893020008930200080C
:1000800093020008930200089302000893020008FC
:1000900093020008930200089302000893020008EC
:1000A00093020008930200089302000893020008DC
:1000B00093020008930200089302000893020008CC
:1000C00093020008930200089302000893020008BC
:1000D00093020008930200089302000893020008AC
:1000E000930200089302000893020008930200089C
:1000F000930200089302000893020008930200088C
:10010000930200089302000893020008930200087B
:10011000930200089302000893020008930200086B
:10012000930200089302000893020008930200085B
:10013000930200089302000893020008930200084B
:10014000930200089302000893020008930200083B
:10015000930200089302000893020008930200082B
:10016000930200089302000893020008930200081B
:100170009302000893020008000000000000000045
:1001800093020008930200089302000893020008FB
:100190009302000893020008000000009302000888
:1001A0009302000893020008000000000000000015
:1001B0009302000800000000000000009302000805
:1001C00093020008930200089302000893020008BB
:1001D000930200089302000800F002F800F03CF8D7
:1001E0000AA090E8000C82448344AAF10107DA4592
:1001F00001D100F031F8AFF2090EBAE80F0013F0A8
:10020000010F18BFFB1A43F001031847081600003E
:1002100028160000103A24BF78C878C1FAD85207CF
:1002200024BF30C830C144BF04680C607047000070
:100230000023002400250026103A28BF78C1FBD8EF
:10024000520728BF30C148BF0B6070471FB501F08F
:10025000CBFA1FBD10B510BD00F0D0F81146FFF766
:10026000F5FF01F0B5FA00F0EEF803B4FFF7F2FF86
:1002700003BC00F0F5F80000094880470948004732
:10028000FEE7FEE7FEE7FEE7FEE7FEE7FEE7FEE746
:10029000FEE7FEE704480549054A064B70470000A3
:1002A000CD160008D901000878000020780C002045
:1002B000780400207804002053EA020C00F06980E2
:1002C0002DE9F04B4FF00006002B1FBFB3FA83F56A
:1002D00003FA05F424FA05F65E4012BF1643B2FA9B
:1002E00082F502FA05F4C5F120051EBF22FA05FCCD
:1002F00044EA0C04203556EA044C4FEA144418BF73
:10030000641C4FF000084FF00009904271EB030CA1
:1003100039D3002919BFB1FA81F701FA07F6B0FA0B
:1003200080F700FA07F6C7F120071EBF20FA07FC86
:1003300046EA0C062037B6FBF4FCA7EB0507103F96
:1003400007F01F0BCBF120062CFA06F60CFA0BFB7C
:1003500044BFB3460026202FA4BF5E464FF0000BDB
:100360005BEA060C08BF4FF0010B19EB0B0948EBD9
:100370000608ABFB027C06FB02CC0BFB03CCC01BCC
:1003800071EB0C01C1E70B46024641464846BDE809
:10039000F08B13B5084318BF4FF0FF300146AFF3A1
:1003A0000080BDE81C4070474FF0000200B51346C6
:1003B00094469646203922BFA0E80C50A0E80C5085
:1003C000B1F12001BFF4F7AF090728BFA0E80C5036
:1003D00048BF0CC05DF804EB890028BF40F8042B2F
:1003E00008BF704748BF20F8022B11F0804F18BF9C
:1003F00000F8012B7047704770477047754600F052
:100400002BF8AE4605006946534620F007008546A6
:1004100018B020B5FFF73EFFBDE820404FF00006C2
:100420004FF000074FF000084FF0000BAC46ACE86F
:10043000C009ACE8C009ACE8C009ACE8C00921F0CB
:1004400007018D46704710B50446AFF30080204683
:10045000BDE81040FFF709BF0048704710000020BA
:1004600001491820ABBEFEE72600020070470000DD
:10047000FFE7FEE77047000081B0EFF3108072B62F
:100480000090FFE7FEE700008DB00C900B9100207C
:100490000990089007900A90FFE70A980F2800F249
:1004A000BE81FFE70A990120884009900B980068F7
:1004B00009990840089008980999884240F0AA8153
:1004C000FFE70B98406800F00300012807D0FFE722
:1004D0000B98406800F0030002282FD1FFE70C982A
:1004E000806807900A984100032000FA01F10798FC
:1004F000884307900B98C0680A99490000FA01F1F7
:1005000007980843079007980C9988600C984068F2
:1005100007900A99012000FA01F107988843079093
:100520000B984068C0F300100A9900FA01F107988F
:100530000843079007980C994860FFE70B984068BC
:1005400000F00300032818D0FFE70C98C06807905C
:100550000A984100032000FA01F1079888430790A8
:100560000B9880680A99490000FA01F1079808433E
:10057000079007980C99C860FFE70B98406800F057
:100580000300022826D1FFE70C980A996FF00302B6
:1005900002EA51010844006A07900A9800F0070037
:1005A00081000F2000FA01F10798884307900B980B
:1005B00000690A9901F00701890000FA01F1079822
:1005C0000843079007980C990A9B02EA53021144CA
:1005D0000862FFE70C98006807900A984100032022
:1005E00000FA01F10798884307900B98406800F0E3
:1005F00003000A99490000FA01F10798084307909F
:1006000007980C9908600B9880798007002800F003
:100610000081FFE7FFE70020069043F64400C4F2A4
:100620000200016841F480410160006800F48040EC
:1006300006900698FFE70A9820F0030043F60801A9
:10064000C4F20101405807900A9800F003008100AD
:100650000F2000FA01F10798884307900C980021B9
:10066000C4F20201884203D1FFE70020059050E068
:100670000C9840F20041C4F20201884203D1FFE726
:100680000120049042E00C9840F60001C4F20201FF
:10069000884203D1FFE70220039034E00C9840F633
:1006A0000041C4F20201884203D1FFE70320029017
:1006B00026E00C9841F20001C4F20201884203D105
:1006C000FFE70420019018E00C9841F20041C4F2C9
:1006D0000201884203D1FFE7052000900AE00C994F
:1006E00041F60002C4F202020720914208BF062030
:1006F0000090FFE700980190FFE701980290FFE764
:1007000002980390FFE703980490FFE70498059090
:10071000FFE70598C0B20A9901F00301890000FAC9
:1007200001F107980843079007980A9921F00301FF
:1007300043F60802C4F20102885043F60040C4F2B6
:1007400001000068079008990798884307900B9864
:100750008079C00728B1FFE70899079808430790F8
:10076000FFE7079843F60041C4F20101086043F631
:100770000440C4F201000068079008990798884374
:1007800007900B9880798007002805D5FFE7089926
:10079000079808430790FFE7079843F60441C4F21F
:1007A0000101086043F60840C4F2010000680790A8
:1007B00008990798884307900B988079C00600280D
:1007C00005D5FFE70899079808430790FFE70798C2
:1007D00043F60841C4F20101086043F60C40C4F23C
:1007E00001000068079008990798884307900B98C4
:1007F00080798006002805D5FFE708990798084307
:100800000790FFE7079843F60C41C4F20101086026
:10081000FFE7FFE7FFE70A9801300A903DE60DB0D9
:100820007047000082B00190ADF802108DF80120F1
:100830009DF8010028B1FFE7BDF802000199886129
:1008400005E0BDF80200000401998861FFE702B0ED
:100850007047000040F27000C2F20000006870476C
:1008600040F20400C2F20000027840F27001C2F2CD
:1008700000010868104408607047000080B543F626
:100880000041C4F20201086840F400700860086882
:1008900040F480600860086840F4807008600320BD
:1008A00000F080F80F2000F005F800F03BF8002081
:1008B00080BD000080B582B0009040F20000C2F21E
:1008C0000000006840F20401C2F200010A784FF40F
:1008D0007A71B1FBF2F1B0FBF1F000F099FD20B1BB
:1008E000FFE701208DF8070018E000980F280DD8C9
:1008F000FFE700994FF0FF30002200F039F8009830
:1009000040F20801C2F20001086003E001208DF806
:10091000070003E000208DF80700FFE79DF80700BF
:1009200002B080BD82B0FFE70020019043F6440092
:10093000C4F20200016841F480410160006800F4E3
:10094000804001900198FFE7FFE70020009043F608
:100950004000C4F20200016841F08051016000686B
:1009600000F0805000900098FFE702B07047000050
:1009700080B586B08DF81700049103920020029094
:1009800000F0DEFE02909DF9170001900298049994
:10099000039A00F0D3FD0146019800F0D9FE06B09D
:1009A00080BD000080B582B00190019800F0F2FE99
:1009B00002B080BD7047000080B584B00290019104
:1009C000029820B9FFE701208DF80F0021E101987E
:1009D00043F60041C4F20201096801F007018842B0
:1009E00012D9FFE7019943F60040C4F202000170FA
:1009F000006800F007000199884204D0FFE7012059
:100A00008DF80F0005E1FFE70298007880070028C5
:100A10002AD5FFE7029800784007002809D5FFE7AC
:100A200043F60801C4F20201086840F4E05008608F
:100A3000FFE7029800780007002809D5FFE743F692
:100A40000801C4F20201086840F460400860FFE752
:100A500043F60801C4F20201086820F0F000029A8F
:100A6000926810430860FFE702980078C0070028EA
:100A70006ED0FFE702984068012811D1FFE743F6E6
:100A80000000C4F20200006800F400310020B0EB66
:100A9000514F04D1FFE701208DF80F00B9E02CE0A1
:100AA00002984068022805D0FFE7029840680328B2
:100AB00011D1FFE743F60000C4F20200006800F025
:100AC00000710020B0EB516F04D1FFE701208DF8D9
:100AD0000F009EE010E043F60000C4F20200006840
:100AE00000F002010020B0EB510F04D1FFE701201C
:100AF0008DF80F008DE0FFE7FFE743F60801C4F231
:100B00000201086820F00300029A5268104308604E
:100B1000FFF7A0FE0090FFE743F60800C4F20200D2
:100B2000006800F00C0002994968B0EB810F0ED00C
:100B3000FFE7FFF78FFE0099401A41F289318842A2
:100B400004D3FFE703208DF80F0062E0E4E7FFE73E
:100B5000019843F60041C4F20201096801F007015F
:100B6000884212D2FFE7019943F60040C4F2020026
:100B70000170006800F007000199884204D0FFE787
:100B800001208DF80F0044E0FFE70298007840074D
:100B900000280CD5FFE743F60801C4F202010868FB
:100BA00020F4E050029AD26810430860FFE70298F0
:100BB0000078000700280DD5FFE743F60801C4F2CE
:100BC0000201086820F46040029A126940EAC200FB
:100BD0000860FFE700F028F843F60801C4F20201BC
:100BE0000968C9B20A0941F60201C0F60001895C30
:100BF000C84040F20001C2F20001086040F2080063
:100C0000C2F200000068FFF755FE00208DF80F00CB
:100C1000FFE79DF80F0004B080BD00004C21C4F236
:100C2000472101200860704780B586B000200590FC
:100C300004900390029043F60800C4F2020000689A
:100C400000F00C000146019140B1FFE70198042833
:100C50000AD0FFE7019808280CD04FE042F200408C
:100C6000C0F2F40002904FE041F60030C0F2B7004D
:100C7000029049E043F60400C4F20200016801F06A
:100C80003F01059100684002002813D5FFE743F6B5
:100C90000400C4F202000068C0F3881041F600317D
:100CA000C0F2B701A0FB0101059A0023FFF704FB86
:100CB000049012E043F60400C4F202000068C0F39E
:100CC000881042F20041C0F2F401A0FB0101059A34
:100CD0000023FFF7F1FA0490FFE743F60400C4F2A3
:100CE0000200006800F44031022000EBD130039094
:100CF00004980399B0FBF1F0029005E042F2004045
:100D0000C0F2F4000290FFE7029806B080BD000038
:100D100080B543F60C00C4F202000068000600280B
:100D200009D5FFE7FFF746FE43F60E01C4F20201C4
:100D300080200870FFE780BD80B586B004900498DD
:100D400020B9FFE701208DF817005CE304980078D4
:100D5000C007002800F0A580FFE743F60800C4F2B2
:100D60000200006800F00C00042813D0FFE743F6EF
:100D70000800C4F20200006800F00C0008281ED130
:100D8000FFE743F60400C4F20200006840020028B6
:100D900015D5FFE743F60000C4F20200006800F436
:100DA00000310020B0EB514F08D0FFE704984068B5
:100DB00020B9FFE701208DF8170024E370E0FFE77A
:100DC00004984068B0F5803F09D1FFE743F6000181
:100DD000C4F20201086840F48030086020E0049802
:100DE0004068B0F5A02F0DD1FFE743F60001C4F233
:100DF0000201086840F480200860086840F48030F0
:100E000008600CE043F60001C4F20201086820F417
:100E100080300860086820F480200860FFE7FFE762
:100E2000FFE704984068E8B1FFE7FFF713FD039080
:100E3000FFE743F60000C4F20200006800F400314E
:100E40000020B0EB514F0CD1FFE7FFF703FD0399F2
:100E5000401A652804D3FFE703208DF81700D2E27B
:100E6000E7E71CE0FFF7F6FC0390FFE743F600001E
:100E7000C4F20200006800F400310020B0EB514FD2
:100E80000CD0FFE7FFF7E6FC0399401A652804D36E
:100E9000FFE703208DF81700B5E2E7E7FFE7FFE77C
:100EA000FFE7049800788007002840F19680FFE76C
:100EB00043F60800C4F20200006810F00C0F13D0D3
:100EC000FFE743F60800C4F20200006800F00C00DF
:100ED00008282CD1FFE743F60400C4F202000068A2
:100EE0004002002823D4FFE743F60000C4F20200CA
:100EF000006800F002010020B0EB510F09D0FFE7BD
:100F00000498C068012804D0FFE701208DF817007D
:100F100079E243F60001C4F20201086820F0F8000B
:100F2000049A126940EAC2000860FFE754E004989E
:100F3000C06870B3FFE70021C4F2472101200860B8
:100F4000FFF788FC0390FFE743F60000C4F20200BD
:100F5000006800F002010020B0EB510F0CD1FFE758
:100F6000FFF778FC0399401A032804D3FFE7032016
:100F70008DF8170047E2E7E743F60001C4F20201EB
:100F8000086820F0F800049A126940EAC20008607C
:100F900021E00021C4F2472100200860FFF75AFC3D
:100FA0000390FFE743F60000C4F20200006800F07F
:100FB00002010020B0EB510F0CD0FFE7FFF74AFC15
:100FC0000399401A032804D3FFE703208DF8170084
:100FD00019E2E7E7FFE7FFE7FFE70498007800077B
:100FE00000284BD5FFE70498406918B3FFE740F6A7
:100FF0008061C4F2472101200860FFF72BFC0390B9
:10100000FFE743F67400C4F20200006800F002013A
:101010000020B0EB510F0CD1FFE7FFF71BFC039949
:10102000401A032804D3FFE703208DF81700EAE1F4
:10103000E7E722E040F68061C4F247210020086023
:10104000FFF708FC0390FFE743F67400C4F20200C8
:10105000006800F002010020B0EB510F0CD0FFE758
:10106000FFF7F8FB0399401A032804D3FFE7032096
:101070008DF81700C7E1E7E7FFE7FFE7049800787E
:101080004007002840F1CE80FFE700208DF80700E0
:1010900043F64000C4F202000068C000002815D4E6
:1010A000FFE7FFE70020009043F64000C4F2020093
:1010B000016841F080510160006800F080500090AC
:1010C0000098FFE701208DF80700FFE747F20000D6
:1010D000C4F200000068C005002822D4FFE747F2F0
:1010E0000001C4F20001086840F480700860FFF756
:1010F000B1FB0390FFE747F20000C4F20000006874
:10110000C00500280CD4FFE7FFF7A4FB0399401AA1
:10111000032804D3FFE703208DF8170073E1EAE703
:10112000FFE7FFE704988068012809D1FFE743F64D
:101130007001C4F20201086840F0010008601FE07D
:101140000498806805280DD1FFE743F67001C4F2CA
:101150000201086840F004000860086840F00100DF
:1011600008600CE043F67001C4F20201086820F048
:1011700001000860086820F004000860FFE7FFE74E
:10118000FFE704988068F8B1FFE7FFF763FB03907F
:10119000FFE743F67000C4F20200006800F00201AD
:1011A0000020B0EB510F0ED1FFE7FFF753FB03997F
:1011B000401A41F28931884204D3FFE703208DF8B9
:1011C000170020E1E5E71EE0FFF744FB0390FFE78F
:1011D00043F67000C4F20200006800F00201002033
:1011E000B0EB510F0ED0FFE7FFF734FB0399401A25
:1011F00041F28931884204D3FFE703208DF81700BC
:1012000001E1E5E7FFE79DF80700012809D1FFE7C5
:1012100043F64001C4F20201086820F080500860E3
:10122000FFE7FFE704988069002800F0E880FFE707
:1012300043F60800C4F20200006800F00C00082821
:1012400000F08880FFE70498806902285FD1FFE7FB
:101250006021C4F2472100200860FFF7FBFA0390E9
:10126000FFE743F60000C4F20200006800F00071DE
:101270000020B0EB516F0CD0FFE7FFF7EBFA0399BA
:10128000401A032804D3FFE703208DF81700BAE0C3
:10129000E7E70499C869D1F820C04B6A8A6A40EA36
:1012A0000C0040EA8310D2034FF6FF739A43A2F575
:1012B00080321043CA6A40EA0260096B40EA01705A
:1012C00043F60401C4F2020108606021C4F2472120
:1012D00001200860FFF7BEFA0390FFE743F6000025
:1012E000C4F20200006800F000710020B0EB516F02
:1012F0000CD1FFE7FFF7AEFA0399401A032804D395
:10130000FFE703208DF817007DE0E7E721E060218B
:10131000C4F2472100200860FFF79CFA0390FFE722
:1013200043F60000C4F20200006800F000710020E3
:10133000B0EB516F0CD0FFE7FFF78CFA0399401A1E
:10134000032804D3FFE703208DF817005BE0E7E7ED
:10135000FFE753E004988069012804D1FFE70120EA
:101360008DF817004FE043F60400C4F20200006855
:1013700002900498806901283AD0FFE7029800F4AF
:1013800080000499C969884232D1FFE7029800F0D1
:101390003F000499096A88422AD1FFE7029847F67C
:1013A000C07108400499496AB0EB811F20D1FFE762
:1013B000029800F440300499896AC9034FF6FF721D
:1013C0009143A1F58031884212D1FFE7029800F0E5
:1013D00070600499C96AB0EB016F09D1FFE7029808
:1013E00000F0E0400499096BB0EB017F04D0FFE707
:1013F00001208DF8170006E0FFE7FFE7FFE7002078
:101400008DF81700FFE79DF8170006B080BD0000BB
:1014100080B582B00190019800F0CAF802B080BD9A
:10142000FFE7FEE780B590B000200F900E900D9082
:101430000C900B90FFE700200A9043F63000C4F2B6
:101440000200016841F080010160006800F0800046
:101450000A900A98FFE7FFE70020099043F6300062
:10146000C4F20200016841F002010160006800F06E
:10147000020009900998FFE7FFE70020089043F673
:101480003000C4F20200016841F00401016000680C
:1014900000F0040008900898FFE7FFE7002007909D
:1014A00043F63000C4F20200016841F0010101601E
:1014B000006800F0010007900798FFE740F2004045
:1014C000C4F2020001904FF4704101220392FFF731
:1014D000A9F940F60000C4F2020005904FF48071B3
:1014E000029100220492FFF79DF90198049A2021AD
:1014F000FFF798F90198039A04994FF220030B9390
:101500000C920D910E910BA90691FEF7BDFFDDF82F
:1015100008C0039B049A05980699CDF82CC00C933B
:101520000D920E92FEF7B0FF10B080BDFFE7FEE710
:1015300080B5FFF7EDFBFFE7FEE7000088B00790FE
:1015400006910592079800F0070004900498C0F1F6
:101550000700052803D3FFE70420019004E0049866
:10156000C0F107000190FFE7019803900498043050
:10157000062803D8FFE70020009003E00498033812
:101580000090FFE70098029006980399012202FA62
:1015900001F101390840029B984005999A40013AAF
:1015A0001140084308B070477047000070470000C2
:1015B00080B582B0009000980138B0F1807F03D3ED
:1015C000FFE70120019019E0009801384EF2140164
:1015D000CEF2000108604FF0FF300F2100F0B8F8A4
:1015E0004EF21801CEF20001002008604EF2100207
:1015F000CEF20002072111600190FFE7019802B0CE
:1016000080BD000080B5FFF72BF980BD80B594B098
:1016100007A83421FEF7C8FE00200690059004902C
:1016200003900290FFE70020019043F64000C4F2CF
:101630000200016841F080510160006800F08050B4
:1016400001900198FFE7FFE70020009047F20000BB
:10165000C4F20000016841F440410160006800F4F8
:10166000404000900098FFE7012007904FF4803041
:10167000089002200D904FF480010E9106210F91E9
:10168000C82110910421119103211291139007A8F0
:10169000FFF752FB18B1FFE7FEF7EEFEFFE70F2062
:1016A000029002200390002004904FF48051059195
:1016B000069002A80321FFF77FF918B1FFE7FEF7B4
:1016C000DBFEFFE7FFF7AAFA14B080BD4EF68851A3
:1016D000CEF20001086840F47000086043F6000292
:1016E000C4F20202106840F00100106043F60801E5
:1016F000C4F202010020086011684FF6FF73CFF6B4
:10170000F6631940116043F60403C4F2020343F286
:101710001001C2F200411960116821F480211160AA
:1017200043F60C01C4F2020108604EF60851CEF2F5
:1017300000014FF00060086070470000FFE7FEE71F
:101740004EF60C50CEF200000068C0F30220704745
:1017500082B08DF8070000919DF9070000280AD497
:10176000FFE7009800019DF907104EF20042CEF20B
:10177000000288540BE0009800019DF8071001F06A
:101780000F014EF61452CEF200028854FFE702B069
:101790007047000083B00290029800F007000090AC
:1017A0004EF60C51CEF200010868019001984FF6F8
:1017B000FF02104001900198009A40EA02200022A6
:1017C000C0F2FA52104301900198086003B07047CC
:1017D00080B582B000200190FFF750F8FFF716FFA8
:1017E000FFF720FEFFE7FEE7F1EE100A4FF6FF716C
:1017F000C0F2C03120EA010040F04070E1EE100A72
:10180000704700000000000000000102030406070A
:10181000080900003818000800000020100000002F
:10182000140200084818000810000020680C00008E
:1018300030020008000000000024F4000100000055
:08184000100000000000000090
:04000005080001D915
:00000001FF
