:020000040800F2
:1000000040420020C9020008493E0008B13B0008F8
:10001000453E0008E9070008817B00080000000059
:100020000000000000000000000000007142000815
:10003000DD080008000000006D42000801430008D0
:10004000E3020008E3020008E3020008E3020008FC
:10005000E3020008E3020008E3020008E3020008EC
:10006000E3020008E3020008E3020008E3020008DC
:10007000E3020008E3020008E3020008E3020008CC
:10008000E3020008E3020008E3020008E3020008BC
:10009000E3020008E3020008E3020008E3020008AC
:1000A000E3020008E3020008E3020008E30200089C
:1000B000E3020008E3020008E3020008E30200088C
:1000C000E3020008E3020008E3020008E30200087C
:1000D000E3020008E3020008E3020008E30200086C
:1000E000E3020008E3020008E3020008E30200085C
:1000F000E3020008E3020008E3020008E30200084C
:10010000E3020008E3020008E3020008E30200083B
:10011000D5430008E3020008E3020008E3020008F8
:10012000E3020008E3020008E3020008E30200081B
:10013000E3020008E3020008E3020008E30200080B
:10014000E3020008E3020008E3020008B93E0008E9
:10015000E3020008E3020008E30200085149000836
:10016000E3020008E3020008E3020008E3020008DB
:10017000E3020008E30200080000000000000000A5
:10018000E3020008E3020008E3020008E3020008BB
:10019000E3020008E302000800000000E302000898
:1001A000E3020008E3020008000000000000000075
:1001B000E30200080000000000000000E302000865
:1001C000E3020008E3020008E3020008E30200087B
:1001D000E3020008E302000800F002F800F065F80E
:1001E0000AA090E8000C82448344AAF10107DA4592
:1001F00001D100F05AF8AFF2090EBAE80F0013F07F
:10020000010F18BFFB1A43F00103184724880000B0
:10021000448800000A444FF0000C10F8013B13F032
:10022000070408BF10F8014B1D1108BF10F8015B4F
:10023000641E05D010F8016B641E01F8016BF9D142
:1002400013F0080F1EBF10F8014BAD1C0C1B09D199
:100250006D1E58BF01F801CBFAD505E014F8016B0B
:1002600001F8016B6D1EF9D59142D6D3704700009D
:100270000023002400250026103A28BF78C1FBD8AF
:10028000520728BF30C148BF0B6070471FB508F048
:1002900079FB00F0D7F904000020002108F05CFB96
:1002A000401C60601FBD10B510BD00F067FA11461C
:1002B000FFF7ECFF07F0FEFC00F085FA03B4FFF750
:1002C000F2FF03BC00F088FA09488047094800475C
:1002D000FEE7FEE7FEE7FEE7FEE7FEE7FEE7FEE7F6
:1002E000FEE7FEE704480549054A064B7047000053
:1002F000C1430008D9010008401E002040420020F0
:10030000402200204022002010B500F09BF9001D83
:1003100010BD00BF4586000053EA020C00F0698062
:100320002DE9F04B4FF00006002B1FBFB3FA83F509
:1003300003FA05F424FA05F65E4012BF1643B2FA3A
:1003400082F502FA05F4C5F120051EBF22FA05FC6C
:1003500044EA0C04203556EA044C4FEA144418BF12
:10036000641C4FF000084FF00009904271EB030C41
:1003700039D3002919BFB1FA81F701FA07F6B0FAAB
:1003800080F700FA07F6C7F120071EBF20FA07FC26
:1003900046EA0C062037B6FBF4FCA7EB0507103F36
:1003A00007F01F0BCBF120062CFA06F60CFA0BFB1C
:1003B00044BFB3460026202FA4BF5E464FF0000B7B
:1003C0005BEA060C08BF4FF0010B19EB0B0948EB79
:1003D0000608ABFB027C06FB02CC0BFB03CCC01B6C
:1003E00071EB0C01C1E70B46024641464846BDE8A9
:1003F000F08B13B5084318BF4FF0FF300146AFF341
:100400000080BDE81C4070472DE9F04791460F463B
:1004100080460446002614F8015B2DB1FFF774FFF7
:100420000068405DC007F6D12B2D02D02D2D18D0CD
:10043000641E4A463946204600F00CF927B1396857
:10044000A14201D1C7F800804FF0020471050BD51D
:100450004042002803DD00F0F9F80460A007BDE881
:10046000F08746F48066E4E70028F8DA00F0EEF85A
:1004700004606FF00040F2E7002800DA4042704765
:10048000CBB22AB101788B4203D0401C521EF9D165
:1004900000207047032A40F2308010F0030C00F077
:1004A000158011F8013BBCF1020F624498BF11F8AE
:1004B00001CB00F8013B38BF11F8013BA2F1040267
:1004C00098BF00F801CB38BF00F8013B11F00303DF
:1004D00000F00F81083AC0F0088051F8043B083A58
:1004E00051F804CBA0E80810F5E7121D5CBF51F8E5
:1004F000043B40F8043BAFF30080D20724BF11F85F
:10050000013B11F801CB48BF11F8012B24BF00F8C3
:10051000013B00F801CB48BF00F8012B704702F007
:10052000FF0343EA032242EA024200F002B84FF01E
:1005300000020429C0F0128010F0030C00F01B80B0
:10054000CCF1040CBCF1020F18BF00F8012BA8BFBE
:1005500020F8022BA1EB0C0100F00DB85FEAC17C82
:1005600024BF00F8012B00F8012B48BF00F8012B35
:1005700070474FF0000200B5134694469646203966
:1005800022BFA0E80C50A0E80C50B1F12001BFF44C
:10059000F7AF090728BFA0E80C5048BF0CC05DF8B2
:1005A00004EB890028BF40F8042B08BF704748BF00
:1005B00020F8022B11F0804F18BF00F8012B704774
:1005C00030B44FF0013C50F8042B51F8043BCCFA06
:1005D00052F4D51A20D1FCB950F8042B51F8043B41
:1005E000CCFA52F4D51A17D1B4B950F8042B51F8FB
:1005F000043BCCFA52F4D51A0ED16CB950F8042B46
:1006000051F8043BCCFA52F4D51A05D1002CDAD0BB
:1006100030BC4FF00000704729BAB1FA81F111F0F7
:100620001801D1F120008440F2D1CA40CB4012F031
:10063000FF0213F0FF0330BCD01A704770477047B9
:100640007047000000487047A00100200048704734
:10065000800100202DE9F05F824615468B46002779
:100660000AF10104B9460078302801D09DB113E0A9
:1006700014F8010B0127782803D0582801D045B180
:100680000AE00DB1102D07D1002714F8010B102539
:1006900002E0082500E00A250026B0460EE005FB32
:1006A000080005FB06F101271FFA80F801EB104650
:1006B000B6F5803F00D3B94614F8010B294600F087
:1006C0004FF80028EBDABBF1000F05D00FB1641E24
:1006D00000E05446CBF80040B9F1000F06D0FFF718
:1006E000B5FF02210160C81EBDE8F09F48EA064040
:1006F000FAE710B5203AC0F00B80B1E81850A0E836
:100700001850B1E81850A0E81850203ABFF4F5AFDF
:100710005FEA027C24BFB1E81850A0E8185044BF3B
:1007200018C918C0BDE810405FEA827C24BF51F8A8
:10073000043B40F8043B08BF7047D20728BF31F89C
:10074000023B48BF11F8012B28BF20F8023B48BFED
:1007500000F8012B7047000000487047800100201E
:100760003A2800D2303820F02002412A01D3A2F1E9
:100770003700884201D34FF0FF3070477546FFF7CE
:10078000EBFFAE4605006946534620F0070085465C
:1007900018B020B5FFF7A6FDBDE820404FF00006D9
:1007A0004FF000074FF000084FF0000BAC46ACE8EC
:1007B000C009ACE8C009ACE8C009ACE8C00921F048
:1007C00007018D46704710B50446AFF30080204600
:1007D000BDE81040FFF772BD01491820ABBEFEE72F
:1007E0002600020070470000FFE7FEE784B08DF8A6
:1007F0000F000291ADF806209DF80F000146009110
:1008000023281DD80099DFE801F012131415161BD8
:100810001B1B1B1B1B1B1B1B1B1B1B1B1B1B1B1B28
:100820001B1B1B1B1B1B1B1B1B1B1718191A08E070
:1008300007E006E005E004E003E002E001E000E09C
:10084000FFE7002004B070470020704780B582B0F9
:1008500041F2D060C2F20000009040F68461C2F222
:1008600000010022019204F08BFA009840F28461AA
:10087000C2F2000104F06AFA019802B080BD0000E3
:1008800080B584B00390029141F28461C2F200010C
:1008900001200870039941F2D060C2F2000001907B
:1008A00004F054FA019804F00BFA039902980288B4
:1008B00041F6EC50C2F200000A2303F0CDF800200C
:1008C00004B080BD83B0029001918DF80320002018
:1008D0008DF802009DF9020003B0704770470000D8
:1008E00072B6FFE7FEE7000080B584B047F610203F
:1008F000C1F6FF700068039047F61420C1F6FF7040
:100900000068029047F61820C1F6FF700068019059
:100910000199039808440390039888B1FFE703986E
:1009200040F25C11C2F2000100910231082203F092
:1009300041F9009902981231042203F03BF9FFE7D4
:1009400004B080BD80B584B002900298806D0190A3
:1009500000F0ACFA0090029890F8350002280DD013
:10096000FFE7029980204865FFE70299002081F89F
:100970003400FFE701208DF80F0055E00298016870
:10098000086820F01600086002980168486920F0A5
:10099000800048610298006C20B9FFE70298806CE3
:1009A00038B1FFE702980168086820F00800086085
:1009B000FFE702980168086820F001000860FFE77F
:1009C000029800680068C007C8B1FFE700F06EFA3F
:1009D0000099401A062811D3FFE7029920204865A4
:1009E0000299032081F83500FFE70299002081F881
:1009F0003400FFE703208DF80F0015E0E0E70298D0
:100A0000C16D3F208840019988600299012081F8DA
:100A10003500FFE70299002081F83400FFE7FFE787
:100A200000208DF80F00FFE79DF80F0004B080BD97
:100A300082B00090009890F83500022807D0FFE7B8
:100A400000998020486501208DF807000EE000998C
:100A5000052081F8350000980168086820F0010041
:100A60000860FFE700208DF80700FFE79DF807000A
:100A700002B0704780B584B0039000F017FA02907E
:100A8000039801900198013048B1FFE740F27610D9
:100A9000C2F200000178019808440190FFE7FFE7E7
:100AA00000F004FA0299401A0199884201D2FFE746
:100AB000F6E704B080BD00008DB00C900B910020D3
:100AC0000990089007900A90FFE70A980F2800F213
:100AD000BE81FFE70A990120884009900B980068C1
:100AE00009990840089008980999884240F0AA811D
:100AF000FFE70B98406800F00300012807D0FFE7EC
:100B00000B98406800F0030002282FD1FFE70C98F3
:100B1000806807900A984100032000FA01F10798C5
:100B2000884307900B98C0680A99490000FA01F1C0
:100B300007980843079007980C9988600C984068BC
:100B400007900A99012000FA01F10798884307905D
:100B50000B984068C0F300100A9900FA01F1079859
:100B60000843079007980C994860FFE70B98406886
:100B700000F00300032818D0FFE70C98C068079026
:100B80000A984100032000FA01F107988843079072
:100B90000B9880680A99490000FA01F10798084308
:100BA000079007980C99C860FFE70B98406800F021
:100BB0000300022826D1FFE70C980A996FF0030280
:100BC00002EA51010844006A07900A9800F0070001
:100BD00081000F2000FA01F10798884307900B98D5
:100BE00000690A9901F00701890000FA01F10798EC
:100BF0000843079007980C990A9B02EA5302114494
:100C00000862FFE70C98006807900A9841000320EB
:100C100000FA01F10798884307900B98406800F0AC
:100C200003000A99490000FA01F107980843079068
:100C300007980C9908600B9880798007002800F0CD
:100C40000081FFE7FFE70020069043F64400C4F26E
:100C50000200016841F480410160006800F48040B6
:100C600006900698FFE70A9820F0030043F6080173
:100C7000C4F20101405807900A9800F00300810077
:100C80000F2000FA01F10798884307900C98002183
:100C9000C4F20201884203D1FFE70020059050E032
:100CA0000C9840F20041C4F20201884203D1FFE7F0
:100CB0000120049042E00C9840F60001C4F20201C9
:100CC000884203D1FFE70220039034E00C9840F6FD
:100CD0000041C4F20201884203D1FFE703200290E1
:100CE00026E00C9841F20001C4F20201884203D1CF
:100CF000FFE70420019018E00C9841F20041C4F293
:100D00000201884203D1FFE7052000900AE00C9918
:100D100041F60002C4F202020720914208BF0620F9
:100D20000090FFE700980190FFE701980290FFE72D
:100D300002980390FFE703980490FFE7049805905A
:100D4000FFE70598C0B20A9901F00301890000FA93
:100D500001F107980843079007980A9921F00301C9
:100D600043F60802C4F20102885043F60040C4F280
:100D700001000068079008990798884307900B982E
:100D80008079C00728B1FFE70899079808430790C2
:100D9000FFE7079843F60041C4F20101086043F6FB
:100DA0000440C4F20100006807900899079888433E
:100DB00007900B9880798007002805D5FFE70899F0
:100DC000079808430790FFE7079843F60441C4F2E9
:100DD0000101086043F60840C4F201000068079072
:100DE00008990798884307900B988079C0060028D7
:100DF00005D5FFE70899079808430790FFE707988C
:100E000043F60841C4F20101086043F60C40C4F205
:100E100001000068079008990798884307900B988D
:100E200080798006002805D5FFE7089907980843D0
:100E30000790FFE7079843F60C41C4F201010860F0
:100E4000FFE7FFE7FFE70A9801300A903DE60DB0A3
:100E50007047000083B00290ADF806100298406918
:100E60000090009ABDF8060002EA0001904340EAB3
:100E700001400299886103B07047000082B0019080
:100E8000ADF802108DF801209DF8010028B1FFE7B0
:100E9000BDF802000199886105E0BDF80200000478
:100EA00001998861FFE702B07047000041F63C609D
:100EB000C2F200000068704740F27610C2F20000F3
:100EC000027841F63C61C2F20001086810440860F3
:100ED0007047000080B543F60041C4F20201086883
:100EE00040F400700860086840F48060086008689A
:100EF00040F480700860032000F08AF80F2000F0B2
:100F000005F800F03BF8002080BD000080B582B0FD
:100F1000009040F21C00C2F20000006840F276111E
:100F2000C2F200010A784FF47A71B1FBF2F1B0FB22
:100F3000F1F002F07FF920B1FFE701208DF8070002
:100F400018E000980F280DD8FFE700994FF0FF3008
:100F5000002200F043F8009840F27811C2F200013C
:100F6000086003E001208DF8070003E000208DF801
:100F70000700FFE79DF8070002B080BD82B0FFE7E1
:100F80000020019043F64400C4F20200016841F4DD
:100F900080410160006800F4804001900198FFE703
:100FA000FFE70020009043F64000C4F20200016811
:100FB00041F080510160006800F08050009000987E
:100FC000FFE702B07047000080B582B08DF80700DF
:100FD0009DF9070006F0D6FD02B080BD80B586B051
:100FE0008DF81700049103920020029006F0E2FDB4
:100FF00002909DF91700019002980499039A02F05B
:1010000025FF0146019806F0DDFD06B080BD000019
:1010100080B582B00190019806F0F6FD02B080BD67
:1010200082B0019001980068009001990120C1F8F8
:10103000FC030199002081F8F403009A916941F0C2
:1010400000619161009A516D0323C1F200031943BD
:10105000516502B07047000082B001908DF8031016
:1010600002B0704782B00190ADF80210BDF80200E6
:10107000019909684862002002B0704784B003906B
:101080008DF80B10ADF8082003980068406A0090B6
:101090009DF80B0048B9FFE7BDF80810009840EA3A
:1010A000014003990968886233E003980068816A07
:1010B000009800EB1140009000208DF80700FFE73A
:1010C0009DF807009DF80B100139884213D2FFE705
:1010D000039800689DF8071000EB8100D0F8041118
:1010E000009800EB11400090FFE79DF807000130E9
:1010F0008DF80700E4E7BDF80810009840EA0140C9
:10110000039909689DF80B2001EB8201C1F80001E9
:10111000FFE7002004B0704780B582B001900198CD
:10112000D0F8040404F084FC02B080BD80B582B025
:1011300001908DF80310019AD2F804049DF8031071
:10114000C1EBC10302EB8302926C04F04FFB02B0CF
:1011500080BD000080B582B001908DF80310019A27
:10116000D2F804049DF80310C1EBC10302EB830223
:10117000D2F8082204F0E0FB02B080BD80B582B056
:1011800001900198D0F8040404F058FC02B080BD2E
:1011900080B584B002908DF807109DF80700000616
:1011A00000280FD5FFE702989DF8071001F00F0106
:1011B000C1EBC10100EB81003C300090009901209F
:1011C00048700FE002989DF8071001F00F01C1EB85
:1011D000C10100EB810000F5FE7000900099002035
:1011E0004870FFE79DF8070000F00F0000990870B5
:1011F000FFE7029890F8BC03012804D1FFE7022022
:101200008DF80F0014E00299012081F8BC03FFE77C
:10121000FFE702980068009905F0D4FBFFE7029908
:10122000002081F8BC03FFE700208DF80F00FFE7E6
:101230009DF80F0004B080BD80B584B002908DF899
:1012400007109DF8070000F00F00029949688842D6
:1012500004D9FFE701208DF80F004DE09DF807004D
:10126000000600280FD5FFE702989DF8071001F04F
:101270000F01C1EBC10100EB81003C3000900099EF
:10128000012048700FE002989DF8071001F00F014F
:10129000C1EBC10100EB810000F5FE7000900099E8
:1012A00000204870FFE70099002088709DF8070033
:1012B00000F00F0000990870FFE7029890F8BC0357
:1012C000012804D1FFE702208DF80F0014E00299F5
:1012D000012081F8BC03FFE7FFE70298006800994E
:1012E00005F0E6FEFFE70299002081F8BC03FFE766
:1012F00000208DF80F00FFE79DF80F0004B080BDBF
:1013000082B001908DF8031001989DF8031001F050
:101310000F01C1EBC10100EB8100D0F8140202B053
:101320007047000080B586B004908DF80F10ADF8BE
:101330000C208DF80B3000208DF80A009DF80F006E
:10134000000600280FD5FFE704989DF80F1001F064
:101350000F01C1EBC10100EB81003C30019001990C
:10136000012048700FE004989DF80F1001F00F0164
:10137000C1EBC10100EB810000F5FE700190019905
:1013800000204870FFE79DF80F0000F00F00019962
:101390000870BDF80C00019988609DF80B00019958
:1013A000C8700198407820B1FFE701990878C8809B
:1013B000FFE79DF80B00022804D1FFE70199002008
:1013C0000871FFE7FFE7049890F8BC03012804D1F7
:1013D000FFE702208DF8170015E00499012081F83D
:1013E000BC03FFE7FFE704980068019905F0A6F940
:1013F000FFE70499002081F8BC03FFE79DF80A008D
:101400008DF81700FFE79DF8170006B080BD0000BB
:1014100080B586B005908DF813100392029305985D
:101420009DF8131001F00F01C1EBC10100EB810029
:1014300000F5FE70019003980199C8600298019927
:101440004861019900208861019948709DF8130056
:1014500000F00F000199087005980069012804D177
:10146000FFE7039801990861FFE79DF81300000763
:1014700038B9FFE7059A10680199127C05F0D0FC95
:1014800006E0059A10680199127C05F0B5FEFFE7A9
:10149000002006B080BD000080B584B002908DF8B9
:1014A00007109DF8070000F00F0002994968884274
:1014B00004D9FFE701208DF80F0058E09DF80700E0
:1014C000000600280FD5FFE702989DF8071001F0ED
:1014D0000F01C1EBC10100EB81003C30009000998D
:1014E000012048700DE002989DF80710C1EBC10182
:1014F00000EB810000F5FE7000900099002048701C
:10150000FFE70099012088709DF8070000F00F00A8
:1015100000990870FFE7029890F8BC03012804D1F5
:10152000FFE702208DF80F0021E00299012081F8E9
:10153000BC03FFE7FFE702980068009905F008FE8A
:101540009DF80700000740B9FFE7029A1068117C78
:1015500002F5717205F05CFDFFE7FFE702990020DC
:1015600081F8BC03FFE700208DF80F00FFE79DF82E
:101570000F0004B080BD000080B586B005908DF8E6
:1015800013100392029305989DF8131001F00F01B8
:10159000C1EBC10100EB81003C300190039801993F
:1015A000C8600298019948610199002088610199F9
:1015B000012048709DF8130000F00F000199087099
:1015C00005980069012804D1FFE703980199086193
:1015D000FFE79DF81300000738B9FFE7059A106888
:1015E0000199127C05F01CFC06E0059A106801992F
:1015F000127C05F001FEFFE7002006B080BD000070
:1016000080B58CB00B900B9800680A900A980990EE
:101610000B98006806F022F8002840F04283FFE7AC
:101620000B98006806F086F808B9FFE739E30B98D5
:10163000006806F07FF88007002807D5FFE70B98C1
:101640000168486900F002004861FFE70B980068F4
:1016500006F070F8C006002862D5FFE70B98016815
:10166000886920F0100088610A98006A02900B983F
:10167000029901F00F01C1EBC10100EB810000F5FF
:10168000FE700890029800F4F0110220B0EB514F68
:1016900023D1FFE7BDF8080047F6F07108421BD0E0
:1016A000FFE70A980899C968029AC2F30A1206F07D
:1016B0004FF8029847F6F07100EA0103089AD068E3
:1016C00000EB1310D060029800EA010208998869C3
:1016D00000EB12108861FFE71BE0029800F4F011A4
:1016E0000620B0EB514F12D1FFE70A980B9901F594
:1016F0007171082206F02CF8029847F6F07100EAA2
:1017000001020899886900EB1210886100E0FFE788
:10171000FFE70B980168886940F010008861FFE7D7
:101720000B98006806F006F80003002870D5FFE764
:10173000002004900B98006805F0AAFF0690FFE7D0
:101740000698002863D0FFE79DF81800C00700281E
:1017500056D0FFE70B9800689DF8101005F0D2FFF7
:1017600005909DF81400C00760B1FFE7099804993F
:1017700000EB41110120C1F8080B0B98049902F00D
:10178000E9FBFFE79DF81400000700280CD5FFE7F0
:101790000998049900EB41110820C1F8080B0B9837
:1017A000049902F091FBFFE79DF81400C0060028A1
:1017B00008D5FFE70998049900EB41111020C1F802
:1017C000080BFFE79DF814008006002808D5FFE706
:1017D0000998049900EB41112020C1F8080BFFE79C
:1017E0009DF815008006002809D5FFE7099804999F
:1017F00000EB41114FF40050C1F8080BFFE7FFE781
:1018000004980130049006984008069098E7FFE796
:101810000B98006805F08EFF4003002840F1AC8073
:10182000FFE70B98006805F021FF06900020049068
:10183000FFE70698002800F09E80FFE79DF818005B
:10184000C007002800F09080FFE70B9800689DF823
:10185000101005F02FFF05909DF81400C007002818
:101860003ED0FFE7049800F00F01012000FA01F1DB
:101870000391039B099AD2F834189943C2F834189B
:101880000999049A01EB4211C1F808090B98006903
:1018900001281FD1FFE70B980499C1EBC10100EBB0
:1018A00081014A6C886C10448864049888B9FFE709
:1018B0000B980499C1EBC10100EB8100006D40B9A8
:1018C000FFE70B99086801F57172012105F0A0FB93
:1018D000FFE7FFE70B989DF81010FFF727FCFFE7E5
:1018E0009DF814000007002808D5FFE7099804991F
:1018F00000EB41110820C1F80809FFE79DF814002A
:10190000C006002808D5FFE70998049900EB4111AB
:101910001020C1F80809FFE79DF8140040060028D0
:1019200008D5FFE70998049900EB41114020C1F860
:101930000809FFE79DF814008007002808D5FFE795
:101940000998049900EB41110220C1F80809FFE74A
:101950009DF814000006002805D5FFE70B980499B0
:1019600002F0EAFBFFE7FFE70498013004900698D5
:10197000400806905DE7FFE70B98006805F0DAFE87
:10198000C00F00B3FFE70999D1F8040820F0010067
:10199000C1F804080B9890F8F403012808D1FFE778
:1019A0000B98002180F8F4130B98FFF755FB03E028
:1019B0000B9800F07BFBFFE70B980168486900F08B
:1019C00000404861FFE70B98006805F0B3FE000592
:1019D000002811D5FFE70998D0F80808C00720B102
:1019E000FFE70B9800F0F0FBFFE70B9801684869F0
:1019F00000F400604861FFE70B98006805F09AFE6C
:101A00000001002820D5FFE70B980168486900F025
:101A1000006048610B9890F8F40380B9FFE70B98D9
:101A2000012180F8F4130B980068406DC0F3830027
:101A30000B9AC2F8F8030B98FFF70EFB03E00B9824
:101A400000F0C2FBFFE7FFE70B98006805F072FEAD
:101A5000C004002840F19080FFE70999D1F80408FC
:101A600020F00100C1F804080B980068102105F06F
:101A7000A5FD00200790FFE707980B994968884269
:101A80003BD2FFE70998079900EB41114FF67F30F1
:101A9000C1F808090999079A01EB4212D2F8001916
:101AA00021F40011C2F800190999079A01EB4212BA
:101AB000D2F8001941F00061C2F800190999079A9B
:101AC00001EB4211C1F8080B0998079900EB41118D
:101AD000D1F8000B20F40010C1F8000B0998079909
:101AE00000EB4111D1F8000B40F00060C1F8000B91
:101AF000FFE7079801300790BEE70999D1F81C0865
:101B000040F00110C1F81C080B98006B78B1FFE79A
:101B10000999D1F8840840F00B00C1F884080999AC
:101B2000D1F8440840F00B00C1F844080FE00999CF
:101B3000D1F8140842F22B021043C1F81408099995
:101B4000D1F8100840F00B00C1F81008FFE7099920
:101B5000D1F8000820F4FE60C1F800080B9A106864
:101B6000117C02F5717205F053FA0B98016848690F
:101B700000F480504861FFE70B98006805F0DAFD3B
:101B8000800400281FD5FFE70B98006804F046FE8C
:101B90000B98006805F03CFD0B99C8600B98006835
:101BA000019000F03DFF014601980B9A127B05F071
:101BB000C7FE0B9800F05EFA0B980168486900F4C4
:101BC00000504861FFE70B98006805F0B3FD00077F
:101BD00000280AD5FFE70B9800F072FA0B9801680D
:101BE000486900F008004861FFE70B98006805F0BD
:101BF000A1FDC00200280ED5FFE7002004900B983D
:101C00009DF8101000F050F80B980168486900F436
:101C100080104861FFE70B98006805F08BFD80029B
:101C200000280ED5FFE7002004900B989DF81010B7
:101C300000F048F80B980168486900F4001048610A
:101C4000FFE70B98006805F075FD400000280AD5F5
:101C5000FFE70B98FFF760FA0B980168486900F0FE
:101C600080404861FFE70B98006805F063FD40077E
:101C7000002815D5FFE70B980068406802909DF892
:101C800008004007002804D5FFE70B98FFF776FA15
:101C9000FFE7029A0B980168486810434860FFE725
:101CA000FFE70CB080BD000080B582B001908DF8D8
:101CB00003100198D0F804049DF8031003F050FFBE
:101CC00002B080BD80B582B001908DF803100198FC
:101CD000D0F804049DF8031003F06EFF02B080BD3D
:101CE0002DE9F04F95B01390139820B9FFE701202C
:101CF0008DF8530051E1139800681290139890F8F2
:101D0000BD0340B9FFE71399002081F8BC03139885
:101D100000F048F9FFE71399032081F8BD031298FA
:101D2000C06BC005002804D4FFE7139900200861A8
:101D3000FFE71398006805F069F813980E900168A2
:101D40000F9141688268C368D0F810C04469856902
:101D5000C669076AD0F82480D0F82890D0F82CA063
:101D6000D0F830B0D0F834E068461090C0F824E0E5
:101D70000F98DDF840E0CEF820B0CEF81CA0CEF8E9
:101D80001890CEF81480CEF81070CEF80C60CEF813
:101D90000850CEF80440CEF800C004F055FD40B124
:101DA000FFE71399022081F8BD0301208DF853004D
:101DB000F3E01398006800210D9105F023FD0D98C4
:101DC0008DF84700FFE79DF847001399496888425E
:101DD00045D2FFE713989DF84710C1EBC10100EB16
:101DE0008101012081F83D009DF847001399C0EB67
:101DF000C00201EB820181F83C009DF84700139975
:101E0000C0EBC00201EB8201A1F8420013989DF8DB
:101E10004710C1EBC10100EB8101002081F83F00B8
:101E200013999DF84720C2EBC20201EB820148647E
:101E300013999DF84720C2EBC20201EB820188642E
:101E400013999DF84720C2EBC20201EB820108659D
:101E5000FFE79DF8470001308DF84700B3E7002009
:101E60008DF84700FFE79DF84700139949688842BD
:101E70003ED2FFE713989DF84710C1EBC10100EB7C
:101E80008101002081F8FD019DF84710139AC1EBF4
:101E9000C10302EB830282F8FC1113999DF84720DD
:101EA000C2EBC20201EB820181F8FF0113999DF898
:101EB0004720C2EBC20201EB8201C1F80402139970
:101EC0009DF84720C2EBC20201EB8201C1F8080273
:101ED00013999DF84720C2EBC20201EB8201C1F8C1
:101EE0001002FFE79DF8470001308DF84700BAE780
:101EF00013980A9001680B9141688268C368D0F812
:101F000010C044698569C669076AD0F82480D0F892
:101F10002890D0F82CA0D0F830B0D0F834E0684643
:101F20000C90C0F824E00B98DDF830E0CEF820B03B
:101F3000CEF81CA0CEF81890CEF81480CEF8107011
:101F4000CEF80C60CEF80850CEF80440CEF800C0B1
:101F500004F000FE40B1FFE71399022081F8BD03B1
:101F600001208DF8530018E01399002081F8380003
:101F70001399012081F8BD031398406A012804D108
:101F8000FFE71398FFF74CF8FFE71398006804F099
:101F9000CBFD00208DF85300FFE79DF8530015B0EE
:101FA000BDE8F08F80B5A0B01F9000201E901D905E
:101FB0001C901B901A9004A85821FEF7DAFA1F987B
:101FC0000068B0F1A04F53D1FFE72020049000201B
:101FD000109004A800F018F918B1FFE7FEF780FC94
:101FE000FFE7FFE70020039043F63000C4F2020051
:101FF000016841F001010160006800F001000390F8
:102000000398FFE74FF4C0501A9002201B90002065
:102010001C9003201D900A201E900020C4F2020094
:102020001AA9FEF749FDFFE743F63401C4F20201A5
:10203000086840F080000860FFE70020029043F647
:102040004400C4F20200016841F48041016000686C
:1020500000F4804002900298FFE7FFE743200190E0
:1020600000221146FEF7BAFF0198FEF7ADFFFFE729
:1020700020B080BD80B582B0019001208DF80300B2
:102080000198C068022803D0FFE7FEF729FCFFE7AC
:102090000198D0F804049DF8031003F08BFE01981A
:1020A000D0F8040403F0FCFD02B080BD80B582B01E
:1020B00001900198D0F8040403F042FE02B080BD04
:1020C00080B582B001900198D0F8040403F04AFE74
:1020D00002B080BD80B584B002908DF80710FFE794
:1020E000029890F8BC03012804D1FFE702208DF884
:1020F0000F001AE00299012081F8BC03FFE7FFE717
:102100009DF80700029981F83800029800689DF850
:10211000071005F0E7FBFFE70299002081F8BC03F8
:10212000FFE700208DF80F00FFE79DF80F0004B0D7
:1021300080BD000080B582B001900199D1F80404FF
:1021400001F5717103F060FE02B080BD80B584B00E
:102150000290029800680190FFE7029890F8BC0393
:10216000012804D1FFE702208DF80F0027E0029933
:10217000012081F8BC03FFE7FFE70298806A01288D
:102180000BD1FFE702988069012806D0FFE701998B
:10219000886B40F480308863FFE70298006805F0A0
:1021A000DDF90298006804F0A9FCFFE7029900201D
:1021B00081F8BC03FFE700208DF80F00FFE79DF8D2
:1021C0000F0004B080BD000080B582B0019001987E
:1021D000D0F8040403F09AFE01980168D1F8000ECB
:1021E00040F00100C1F8000E0198006A48B1FFE715
:1021F0004EF61051CEF20001086840F0060008606B
:10220000FFE702B080BD000080B588B006900020D6
:10221000059004900390029006980078C00798B14A
:10222000FFE743F68C01C4F20201086820F0C060A9
:10223000069AD269104308600698C06918B9FFE78A
:1022400001200290FFE7FFE706980078800700284A
:1022500013D5FFE743F68C01C4F20201086820F0B1
:10226000C050069A126A104308600698006A18B9AE
:10227000FFE701200290FFE7FFE70698407880061D
:10228000002829D5FFE743F68C01C4F20201086853
:1022900020F44010069A926C104308600698806CF7
:1022A00018B9FFE701200290FFE70698806CB0F5AF
:1022B000001F10D1FFE743F68C01C4F20201086849
:1022C00020F4F850069A53696FF0FF0202EB0322E4
:1022D00010430860FFE7FFE70698407840060028B3
:1022E00029D5FFE743F68C01C4F20201086820F407
:1022F0004000069AD26C104308600698C06C18B96A
:10230000FFE701200290FFE70698C06CB0F5000FD0
:1023100010D1FFE743F68C01C4F20201086820F4F3
:10232000F850069A53696FF0FF0202EB0322104344
:102330000860FFE7FFE7069800780007002840F1F3
:10234000AD80FFE7FFE70020019043F64000C4F2B4
:102350000200016841F080510160006800F0805087
:1023600001900198FFE747F20001C4F200010868FC
:1023700040F480700860FEF799FD0590FFE747F292
:102380000000C4F200000068C00500280CD4FFE77C
:10239000FEF78CFD0599401A032804D3FFE70320BC
:1023A0008DF81F0005E2EAE743F67000C4F2020070
:1023B000006800F440700490049800283ED0FFE7C5
:1023C00004980699496A01F44071884236D0FFE7C3
:1023D00043F67000C4F20200016821F440710491D8
:1023E00040F64062C4F247220121116000211160D1
:1023F000049901600068C007F8B1FFE7FEF756FDD9
:102400000590FFE743F67000C4F20200006800F098
:1024100002010020B0EB510F0ED1FFE7FEF746FDA1
:102420000599401A41F28931884204D3FFE703201D
:102430008DF81F00BDE1E5E7FFE7FFE7FFE706983E
:10244000406A00F44070B0F5407F11D1FFE743F6D9
:102450000801C4F20201086820F4F810069A526AD2
:102460004FF6FF43C0F6FF731A401043086008E0C0
:1024700043F60801C4F20201086820F4F81008606D
:10248000FFE70698426A6FF31F3243F67001C4F209
:102490000201086810430860FFE7FFE7069800782C
:1024A0004007002809D5FFE7069890F8540041F24C
:1024B000E011C4F247210860FFE706980078C006E3
:1024C00000280CD5FFE743F69401C4F20201086826
:1024D00020F44000069AD26A10430860FFE706988D
:1024E00000788006002815D5FFE743F69401C4F272
:1024F0000201086820F00060069A126B1043086021
:102500000698006BB0F1006F03D1FFE70120029045
:10251000FFE7FFE706980078400600280CD5FFE7A4
:1025200043F69401C4F20201086820F08050069A34
:10253000926A10430860FFE70298012806D0FFE77F
:1025400006980068802840F0D780FFE76821C4F231
:10255000472100200860FEF7A9FC0590FFE743F63D
:102560000000C4F20200006800F000610020B0EB3F
:10257000D16F0CD0FFE7FEF799FC0599401A0328AC
:1025800004D3FFE703208DF81F0012E1E7E7069868
:10259000006D41F2D801C4F2472108600698007826
:1025A000C00720B1FFE70698C06930B3FFE706987F
:1025B00000788007002804D5FFE70698006AE0B19C
:1025C000FFE7069800788006002806D5FFE7069802
:1025D000006BB0F1006F10D0FFE70698007840065E
:1025E00000281BD5FFE70698806AB8B9FFE7069870
:1025F000006BB0F1006F11D1FFE7069948688B6856
:10260000CA68096940EA831040EA026040EA017042
:1026100043F68401C4F202010860FFE7069840789F
:102620008006002804D5FFE70698806C50B1FFE7CC
:10263000069840784006002825D5FFE70698C06C2C
:1026400008BBFFE743F68401C4F202010868C0F347
:1026500003600390069A50689368126940EA8310F9
:10266000039B40EA036040EA0270086043F68C0175
:10267000C4F20201086820F01F00069A9269013A2C
:1026800010430860FFE7069800780006002811D57F
:10269000FFE7069948688B68CA68096940EA8310B1
:1026A00040EA026040EA017043F68401C4F202018C
:1026B0000860FFE76821C4F2472101200860FEF7A7
:1026C000F5FB0590FFE743F60000C4F20200006846
:1026D00000F000610020B0EBD16F0CD1FFE7FEF7F6
:1026E000E5FB0599401A032804D3FFE703208DF882
:1026F0001F005EE0E7E7FFE706984078C00760B19B
:10270000FFE743F68C01C4F20201086820F00040A4
:10271000069A526B10430860FFE7069840788007DE
:1027200000280CD5FFE743F68C01C4F202010868CB
:1027300020F40040069A926B10430860FFE7069869
:102740004078400700280CD5FFE743F68C01C4F21F
:102750000201086820F00040069AD26B104308601E
:10276000FFE706984078000700280CD5FFE743F6FE
:102770008C01C4F20201086820F48040069A126CB1
:1027800010430860FFE706984078C00600280CD583
:10279000FFE743F69401C4F20201086820F04040CC
:1027A000069A526C10430860FFE700208DF81F0066
:1027B000FFE79DF81F0008B080BD000080B584B021
:1027C00002900191029820B9FFE701208DF80F00D7
:1027D00021E1019843F60041C4F20201096801F0C9
:1027E0000701884212D9FFE7019943F60040C4F27D
:1027F00002000170006800F007000199884204D0CF
:10280000FFE701208DF80F0005E1FFE7029800784F
:10281000800700282AD5FFE70298007840070028A3
:1028200009D5FFE743F60801C4F20201086840F445
:10283000E0500860FFE7029800780007002809D5FB
:10284000FFE743F60801C4F20201086840F4604063
:102850000860FFE743F60801C4F20201086820F0AF
:10286000F000029A926810430860FFE7029800782F
:10287000C00700286ED0FFE702984068012811D1F8
:10288000FFE743F60000C4F20200006800F40031E4
:102890000020B0EB514F04D1FFE701208DF80F006D
:1028A000B9E02CE002984068022805D0FFE70298C2
:1028B0004068032811D1FFE743F60000C4F202008C
:1028C000006800F000710020B0EB516F04D1FFE709
:1028D00001208DF80F009EE010E043F60000C4F2E6
:1028E0000200006800F002010020B0EB510F04D19B
:1028F000FFE701208DF80F008DE0FFE7FFE743F6CB
:102900000801C4F20201086820F00300029A52682C
:1029100010430860FEF7CAFA0090FFE743F608008C
:10292000C4F20200006800F00C0002994968B0EBA4
:10293000810F0ED0FFE7FEF7B9FA0099401A41F275
:102940008931884204D3FFE703208DF80F0062E04D
:10295000E4E7FFE7019843F60041C4F20201096889
:1029600001F00701884212D2FFE7019943F60040C7
:10297000C4F202000170006800F00700019988426B
:1029800004D0FFE701208DF80F0044E0FFE7029834
:102990000078400700280CD5FFE743F60801C4F291
:1029A0000201086820F4E050029AD26810430860DF
:1029B000FFE702980078000700280DD5FFE743F6EF
:1029C0000801C4F20201086820F46040029A12690A
:1029D00040EAC2000860FFE700F04CF843F6080147
:1029E000C4F202010968C9B20A0948F69E11C0F68C
:1029F0000001895CC84040F21C01C2F2000108607D
:102A000040F27810C2F200000068FEF77FFA002062
:102A10008DF80F00FFE79DF80F0004B080BD0000A7
:102A200040F21C00C2F200000068704780B5FFF75A
:102A3000F7FF43F60801C4F202010968C1F38222DC
:102A400048F6AE11C0F60001895CC84080BD0000A8
:102A500080B5FFF7E5FF43F60801C4F202010968FB
:102A600089B24A0B48F6AE11C0F60001895CC84035
:102A700080BD000080B586B00020059004900390D2
:102A8000029043F60800C4F20200006800F00C0057
:102A90000146019140B1FFE7019804280AD0FFE701
:102AA000019808280CD04FE042F20040C0F2F40038
:102AB00002904FE041F60030C0F2B700029049E0CA
:102AC00043F60400C4F20200016801F03F010591E1
:102AD00000684002002813D5FFE743F60400C4F263
:102AE00002000068C0F3881041F60031C0F2B7015F
:102AF000A0FB0101059A0023FDF70EFC049012E0F3
:102B000043F60400C4F202000068C0F3881042F2E9
:102B10000041C0F2F401A0FB0101059A0023FDF77A
:102B2000FBFB0490FFE743F60400C4F202000068D8
:102B300000F44031022000EBD13003900498039957
:102B4000B0FBF1F0029005E042F20040C0F2F40068
:102B50000290FFE7029806B080BD000080B586B005
:102B60000490049820B9FFE701208DF817005CE37A
:102B700004980078C007002800F0A580FFE743F61E
:102B80000800C4F20200006800F00C00042813D012
:102B9000FFE743F60800C4F20200006800F00C00F2
:102BA00008281ED1FFE743F60400C4F202000068C3
:102BB0004002002815D5FFE743F60000C4F20200EA
:102BC000006800F400310020B0EB514F08D0FFE75F
:102BD0000498406820B9FFE701208DF8170024E32E
:102BE00070E0FFE704984068B0F5803F09D1FFE747
:102BF00043F60001C4F20201086840F48030086026
:102C000020E004984068B0F5A02F0DD1FFE743F60F
:102C10000001C4F20201086840F4802008600868DE
:102C200040F4803008600CE043F60001C4F2020179
:102C3000086820F480300860086820F4802008606C
:102C4000FFE7FFE7FFE704984068E8B1FFE7FEF71A
:102C50002DF90390FFE743F60000C4F2020000687C
:102C600000F400310020B0EB514F0CD1FFE7FEF72C
:102C70001DF90399401A652804D3FFE703208DF856
:102C80001700D2E2E7E71CE0FEF710F90390FFE738
:102C900043F60000C4F20200006800F40031002096
:102CA000B0EB514F0CD0FFE7FEF700F90399401A43
:102CB000652804D3FFE703208DF81700B5E2E7E7A6
:102CC000FFE7FFE7FFE7049800788007002840F15E
:102CD0009680FFE743F60800C4F20200006810F097
:102CE0000C0F13D0FFE743F60800C4F2020000689F
:102CF00000F00C0008282CD1FFE743F60400C4F2D2
:102D0000020000684002002823D4FFE743F60000D9
:102D1000C4F20200006800F002010020B0EB510F85
:102D200009D0FFE70498C068012804D0FFE701201C
:102D30008DF8170079E243F60001C4F20201086839
:102D400020F0F800049A126940EAC2000860FFE728
:102D500054E00498C06870B3FFE70021C4F2472133
:102D600001200860FEF7A2F80390FFE743F6000099
:102D7000C4F20200006800F002010020B0EB510F25
:102D80000CD1FFE7FEF792F80399401A032804D309
:102D9000FFE703208DF8170047E2E7E743F600015D
:102DA000C4F20201086820F0F800049A126940EAAF
:102DB000C200086021E00021C4F247210020086021
:102DC000FEF774F80390FFE743F60000C4F2020038
:102DD000006800F002010020B0EB510F0CD0FFE7BB
:102DE000FEF764F80399401A032804D3FFE7032091
:102DF0008DF8170019E2E7E7FFE7FFE7FFE7049820
:102E00000078000700284BD5FFE70498406918B305
:102E1000FFE740F68061C4F2472101200860FEF719
:102E200045F80390FFE743F67400C4F2020000681F
:102E300000F002010020B0EB510F0CD1FFE7FEF7CC
:102E400035F80399401A032804D3FFE703208DF8CF
:102E50001700EAE1E7E722E040F68061C4F247218B
:102E600000200860FEF722F80390FFE743F67400A5
:102E7000C4F20200006800F002010020B0EB510F24
:102E80000CD0FFE7FEF712F80399401A032804D389
:102E9000FFE703208DF81700C7E1E7E7FFE7FFE74B
:102EA000049800784007002840F1CE80FFE700201A
:102EB0008DF8070043F64000C4F202000068C0002D
:102EC000002815D4FFE7FFE70020009043F64000FC
:102ED000C4F20200016841F080510160006800F016
:102EE000805000900098FFE701208DF80700FFE771
:102EF00047F20000C4F200000068C005002822D498
:102F0000FFE747F20001C4F20001086840F4807056
:102F10000860FDF7CBFF0390FFE747F20000C4F223
:102F200000000068C00500280CD4FFE7FDF7BEFFD5
:102F30000399401A032804D3FFE703208DF81700F4
:102F400073E1EAE7FFE7FFE704988068012809D109
:102F5000FFE743F67001C4F20201086840F0010087
:102F600008601FE00498806805280DD1FFE743F64C
:102F70007001C4F20201086840F0040008600868AB
:102F800040F0010008600CE043F67001C4F2020159
:102F9000086820F001000860086820F0040008605C
:102FA000FFE7FFE7FFE704988068F8B1FFE7FDF768
:102FB0007DFF0390FFE743F67000C4F20200006853
:102FC00000F002010020B0EB510F0ED1FFE7FDF73A
:102FD0006DFF0399401A41F28931884204D3FFE71B
:102FE00003208DF8170020E1E5E71EE0FDF75EFF06
:102FF0000390FFE743F67000C4F20200006800F09F
:1030000002010020B0EB510F0ED0FFE7FDF74EFF9D
:103010000399401A41F28931884204D3FFE7032023
:103020008DF8170001E1E5E7FFE79DF807000128AB
:1030300009D1FFE743F64001C4F20201086820F01D
:1030400080500860FFE7FFE704988069002800F0DF
:10305000E880FFE743F60800C4F20200006800F0D1
:103060000C00082800F08880FFE704988069022897
:103070005FD1FFE76021C4F2472100200860FDF71F
:1030800015FF0390FFE743F60000C4F2020000685A
:1030900000F000710020B0EB516F0CD0FFE7FDF79E
:1030A00005FF0399401A032804D3FFE703208DF896
:1030B0001700BAE0E7E70499C869D1F820C04B6A65
:1030C0008A6A40EA0C0040EA8310D2034FF6FF738D
:1030D0009A43A2F580321043CA6A40EA0260096B43
:1030E00040EA017043F60401C4F202010860602165
:1030F000C4F2472101200860FDF7D8FE0390FFE7E6
:1031000043F60000C4F20200006800F000710020E5
:10311000B0EB516F0CD1FFE7FDF7C8FE0399401AE1
:10312000032804D3FFE703208DF817007DE0E7E7CD
:1031300021E06021C4F2472100200860FDF7B6FEBF
:103140000390FFE743F60000C4F20200006800F0BD
:1031500000710020B0EB516F0CD0FFE7FDF7A6FE29
:103160000399401A032804D3FFE703208DF81700C2
:103170005BE0E7E7FFE753E004988069012804D1AA
:10318000FFE701208DF817004FE043F60400C4F27A
:103190000200006802900498806901283AD0FFE795
:1031A000029800F480000499C969884232D1FFE78F
:1031B000029800F03F000499096A88422AD1FFE78B
:1031C000029847F6C07108400499496AB0EB811F24
:1031D00020D1FFE7029800F440300499896AC903BE
:1031E0004FF6FF729143A1F58031884212D1FFE77B
:1031F000029800F070600499C96AB0EB016F09D1C0
:10320000FFE7029800F0E0400499096BB0EB017F02
:1032100004D0FFE701208DF8170006E0FFE7FFE785
:10322000FFE700208DF81700FFE79DF8170006B0B4
:1032300080BD000080B582B00190019801F036F8A1
:1032400002B080BD80B586B004900391ADF80A202D
:10325000049890F83E0020285BD1FFE7039820B146
:10326000FFE7BDF80A0020B9FFE701208DF817003D
:1032700053E0FFE7049890F83C00012804D1FFE7F1
:1032800002208DF8170048E00499012081F83C00E5
:10329000FFE7FFE704990120086304980399BDF84C
:1032A0000A2001F06FFA8DF809009DF8090058BB5B
:1032B000FFE70498006B012821D1FFE7FFE700201A
:1032C00001900498006800680190049800684068C4
:1032D00001900198FFE7FFE7FFE70498006850E8D6
:1032E000030F40F010000090FFE700990498026877
:1032F00042E803100028F0D1FFE7FFE703E00120D8
:103300008DF80900FFE7FFE79DF809008DF8170029
:1033100003E002208DF81700FFE79DF8170006B0C4
:1033200080BD000080B584B00390ADF80A10BDF8F0
:103330000A0041F63061C2F200010860039800689B
:1033400041F20041C4F2010188421AD1FFE740F680
:103350000000C4F202004FF40061FDF77BFD40F273
:10336000E010C2F20000019005F084FA01998DF896
:10337000090041F6EC50C2F200008022FFF762FF24
:10338000FFE704B080BD000081B0009001B070473D
:1033900080B592B011901198006800681090119853
:1033A0000068C0680F901198006840690E90002076
:1033B0000D900C90109800F00F000D900D9888B9AA
:1033C000FFE79DF84000800600280AD5FFE79DF83A
:1033D0003C008006002804D5FFE7119801F070F842
:1033E000E3E1FFE70D98002800F0C280FFE79DF8B9
:1033F0003800C00738B9FFE7BDF83C0010F4907FF3
:1034000000F0B680FFE79DF84000C00758B1FFE725
:103410009DF83D00C00730B1FFE71199086C40F0FE
:1034200001000864FFE79DF84000400700280BD525
:10343000FFE79DF83800C00730B1FFE71199086C2D
:1034400040F002000864FFE79DF840008007002874
:103450000BD5FFE79DF83800C00730B1FFE71199A1
:10346000086C40F004000864FFE79DF84000000786
:10347000002811D5FFE79DF83C008006002805D400
:10348000FFE79DF83800C00730B1FFE71199086CDD
:1034900040F008000864FFE71198006C002866D02F
:1034A000FFE79DF84000800600280AD5FFE79DF859
:1034B0003C008006002804D5FFE7119801F000F8D1
:1034C000FFE7119800684069C0F380100C901198D4
:1034D000006C0007002804D4FFE70C9800283ED0B9
:1034E000FFE7119800F08EFF1198006840694006D0
:1034F00000282FD5FFE7FFE7FFE71198006850E8A5
:10350000050F20F040000B90FFE70B99119802681F
:1035100042E805100028F0D1FFE7FFE71198806B23
:1035200098B1FFE71198816B44F2E530C0F60000D6
:1035300008651198806BFDF77BFA28B1FFE71198B9
:10354000806B016D8847FFE703E01198FFF71CFFD0
:10355000FFE703E01198FFF717FFFFE706E0119878
:10356000FFF712FF119900200864FFE7FFE71CE155
:103570001198006B012840F0F880FFE79DF84000AB
:10358000C006002840F1F180FFE79DF83C00C0062E
:10359000002840F1EA80FFE7FFE700200A90119839
:1035A000006800680A901198006840680A900A98BC
:1035B000FFE7119800684069400600287ED5FFE7C4
:1035C0001198806B00684068ADF82600BDF82600B1
:1035D000002872D0FFE7BDF826001199898D884236
:1035E0006BDAFFE7BDF826001199C8851198806B4A
:1035F000C069B0F5807F58D0FFE7FFE7FFE711987B
:10360000006850E8030F20F480700890FFE70899E5
:103610001198026842E803100028F0D1FFE7FFE7A5
:10362000FFE7FFE71198006850E8050F20F0010060
:103630000790FFE707991198026842E805100028F3
:10364000F0D1FFE7FFE7FFE7FFE71198006850E8D8
:10365000050F20F040000690FFE7069911980268D8
:1036600042E805100028F0D1FFE7FFE7119920207C
:1036700081F83E00119900200863FFE7FFE71198E9
:10368000006850E8030F20F010000590FFE705994F
:103690001198026842E803100028F0D1FFE7FFE725
:1036A0001198806BFDF74EF9FFE71198818DC28D5F
:1036B000891A89B2FFF736FEFFE776E01199888D07
:1036C000C98D401AADF812001198C08D00284BD05A
:1036D000FFE7BDF81200002846D0FFE7FFE7FFE74D
:1036E0001198006850E8030F20F490700390FFE7F2
:1036F00003991198026842E803100028F0D1FFE70F
:10370000FFE7FFE7FFE71198006850E8050F20F09A
:1037100001000290FFE702991198026842E8051043
:103720000028F0D1FFE7FFE71199202081F83E0043
:10373000119900200863FFE7FFE71198006850E83F
:10374000030F20F010000190FFE701991198026823
:1037500042E803100028F0D1FFE7FFE71198BDF819
:103760001210FFF7DFFDFFE71FE09DF840000006A5
:1037700000280AD5FFE79DF83C000006002804D584
:10378000FFE7119801F030F80FE09DF84000400687
:1037900000280AD5FFE79DF83C004006002804D524
:1037A000FFE7119800F078FEFFE712B080BD00003F
:1037B00080B582B00090009820B9FFE701208DF815
:1037C00007003EE00098806908B1FFE700E0FFE7EE
:1037D000009890F83D0040B9FFE70099002081F87B
:1037E0003C00009800F032F8FFE70099242081F8AF
:1037F0003D0000980168C86820F40050C860009837
:1038000000F010FF00980168086920F490400861FA
:1038100000980168486920F02A0048610098016812
:10382000C86840F40050C860009900200864009AFD
:10383000202182F83D10009A82F83E108DF8070092
:10384000FFE79DF8070002B080BD000080B596B08C
:1038500015900020149013901290119010901598CC
:10386000006844F60041C4F2000188423CD1FFE701
:10387000FFE700200F9043F64000C4F20200016809
:1038800041F400210160006800F400200F900F98BF
:10389000FFE7FFE700200E9043F63000C4F202007D
:1038A000016841F001010160006800F001000E9024
:1038B0000E98FFE70320109002211191002107913B
:1038C00012911390082014900020C4F2020010A955
:1038D000FDF7F2F8079A342008901146FDF77EFBB9
:1038E0000898FDF771FBB0E01598006844F60001F8
:1038F000C4F2000188425FD1FFE7FFE700200D908E
:1039000043F64000C4F20200016841F480210160E6
:10391000006800F480200D900D98FFE7FFE700207D
:103920000C9043F63000C4F20200016841F004013B
:103930000160006800F004000C900C98FFE7FFE7BE
:1039400000200B9043F63000C4F20200016841F001
:1039500002010160006800F002000B900B98FFE785
:1039600020201090022002901190002003901290CD
:1039700003200490139007200590149040F6000057
:10398000C4F2020010A90691FDF796F8DDF808C010
:10399000039B049A059806994FF4806ECDF840E099
:1039A000CDF844C012931392149040F20040C4F238
:1039B0000200FDF781F847E01598006841F20041E8
:1039C000C4F2010188423ED1FFE7FFE700200A90E0
:1039D00043F64400C4F20200016841F02001016096
:1039E000006800F020000A900A98FFE7FFE7002037
:1039F000099043F63000C4F20200016841F004016E
:103A00000160006800F0040009900998FFE7C020F9
:103A1000109002201190002000901290032013902B
:103A20000820149040F60000C4F2020010A9FDF72F
:103A300043F8009A472001901146FDF7CFFA01980C
:103A4000FDF7C2FAFFE7FFE7FFE716B080BD000011
:103A500081B0009001B0704780B58AB0089007919E
:103A6000ADF81A20059300200290089890F83D00C8
:103A7000202840F09080FFE7079820B1FFE7BDF8CD
:103A80001A0020B9FFE701208DF8270087E0FFE743
:103A9000089890F83C00012804D1FFE702208DF837
:103AA00027007CE00899012081F83C00FFE7FFE750
:103AB0000899002008640899212081F83D00FDF74D
:103AC000F5F90290BDF81A0008998884BDF81A002B
:103AD0000899C88408988068B0F5805F09D1FFE72D
:103AE0000898006928B9FFE7002004900798039020
:103AF00004E00798049000200390FFE7FFE708998F
:103B0000002081F83C00FFE7FFE70898C08C58B31D
:103B1000FFE70898029B05996A4611608021002200
:103B200000F0ACFE20B1FFE703208DF8270036E05F
:103B3000049858B9FFE7039800886FF35F2008994D
:103B40000968486003980230039008E00498007800
:103B5000089909684860049801300490FFE70899C3
:103B6000C88C0138C884D0E70898029B05996A463A
:103B700011604021002200F081FE20B1FFE7032008
:103B80008DF827000BE00899202081F83D000020E7
:103B90008DF8270003E002208DF82700FFE79DF84D
:103BA00027000AB080BD000081B0009001B07047CE
:103BB000FFE7FEE783B0029001918DF8032000201B
:103BC0008DF802008DF80200FFE79DF802009DF8D5
:103BD0000310884229DAFFE70298000F092809D864
:103BE000FFE70298000F303001999DF8022001F89C
:103BF000120009E00299372000EB117001999DF83D
:103C0000022001F81200FFE70298000102900198DB
:103C10009DF8021000EB410100204870FFE79DF87D
:103C2000020001308DF80200CFE703B070470000BA
:103C300080B592B00020119010900F900E900D90D2
:103C4000FFE700200C9043F63000C4F20200016848
:103C500041F004010160006800F004000C900C9831
:103C6000FFE7FFE700200B9043F63000C4F20200AC
:103C7000016841F080010160006800F080000B9055
:103C80000B98FFE7FFE700200A9043F63000C4F2EC
:103C90000200016841F001010160006800F00100CC
:103CA0000A900A98FFE7FFE70020099043F63000EA
:103CB000C4F20200016841F002010160006800F0F6
:103CC000020009900998FFE740F60000C4F20200E4
:103CD000039040F6185100220692FDF7CFF800201D
:103CE000C4F2020002904FF400710191012205928A
:103CF000FDF7C4F8069A40F20040C4F202000790B3
:103D000020210491FDF7BAF8039806994FF4005268
:103D10000D920E910F910DA90891FCF7CDFE03981D
:103D2000059B069A08994FF48C7CCDF834C00E930D
:103D30000F921092FCF7C0FEDDF804C00298059BBC
:103D4000069A0899CDF834C00E930F921092FCF7A2
:103D5000B3FE0398059B069A08994FF4406CCDF882
:103D600034C00E930F9203221092FCF7A5FEDDF8EB
:103D700010C0059B069A07980899CDF834C00E9399
:103D80000F921092FCF798FE12B080BD80B582B001
:103D900041F6EC50C2F20000019041F20041C4F241
:103DA000010101604FF4E131416000218160C16097
:103DB00001610C2242618161C161FFF7F9FC18B118
:103DC000FFE7FCF78DFDFFE702B080BD80B541F253
:103DD000D060C2F2000040F20001C2F200010022F5
:103DE00001F092FC18B1FFE7FCF77AFDFFE741F222
:103DF000D060C2F2000040F22001C2F2000102F0E5
:103E0000E9F818B1FFE7FCF76BFDFFE741F2D0607E
:103E1000C2F2000040F24411C2F2000100F080FF43
:103E200018B1FFE7FCF75CFDFFE741F2D060C2F29A
:103E3000000002F033FA18B1FFE7FCF751FDFFE78D
:103E400080BD0000FFE7FEE7FFE7FEE788B00790D0
:103E500006910592079800F0070004900498C0F1BD
:103E60000700052803D3FFE70420019004E004982D
:103E7000C0F107000190FFE7019803900498043017
:103E8000062803D8FFE70020009003E004980338D9
:103E90000090FFE70098029006980399012202FA29
:103EA00001F101390840029B984005999A40013A76
:103EB0001140084308B0704780B541F6A010C2F227
:103EC0000000FDF79DFB80BD80B586B00590049194
:103ED000059800680390039802900398006C019085
:103EE0000298049900EB4110D0F8080B009001985B
:103EF00043F20B01C4F6547188420FD3FFE79DF8DB
:103F000001000006002809D5FFE70298049900EB9C
:103F100041114FF40040C1F8080BFFE70598FEF788
:103F200009F9019843F20B01C4F6547188420DD38C
:103F3000FFE705980069012808D1FFE7059908689F
:103F400001F57172012103F063F8FFE7002006B06C
:103F500080BD000080B586B005900491059800688A
:103F60000390039802900398006C019002980499C2
:103F700000EB4110D0F8080B00900598006901286B
:103F800040F08F80FFE79DF800000007002818D55B
:103F9000FFE7019843F20B01C4F6547188420FD336
:103FA000FFE79DF801000006002809D5FFE7029809
:103FB000049900EB41114FF40040C1F8080BFFE7F2
:103FC0006EE09DF800008006002808D5FFE7029803
:103FD000049900EB41112020C1F8080B5FE09DF827
:103FE000000010F0280F58D1FFE7019843F20B01B1
:103FF000C4F6547188420FD3FFE79DF80100000614
:10400000002809D5FFE70298049900EB41114FF40D
:104010000040C1F8080B3FE00598049AC2EBC201CA
:1040200000EB8100D0F80402029901EB4211D1F8B3
:10403000101B6FF3DF41401A0599049AC2EBC202CC
:1040400001EB8201C1F8140205980499C1EBC1018A
:1040500000EB8101D1F80422D1F808021044C1F824
:104060000802049890B9FFE705980499C1EBC101D3
:1040700000EB8100D0F8100240B9FFE7059908680D
:1040800001F57172012102F0C3FFFFE705989DF869
:104090001010FDF75FF8FFE700E0FFE7FFE7FFE73D
:1040A00047E0019843F20A11C4F65471884224D1C2
:1040B000FFE79DF801000006002809D5FFE70298F8
:1040C000049900EB41114FF40040C1F8080B13E0D4
:1040D0009DF800008006002808D5FFE702980499A3
:1040E00000EB41112020C1F8080BFFE705989DF86F
:1040F0001010FDF72FF8FFE71AE0049890B9FFE7DA
:1041000005980499C1EBC10100EB8100D0F81002C1
:1041100040B9FFE70599086801F57172002102F0C6
:1041200077FFFFE705989DF81010FDF713F8FFE7FC
:10413000FFE7002006B080BD80B58CB00A900991E1
:104140000A9800680890089807900A980999C1EBA6
:10415000C10100EB81003C300690069841698069FE
:10416000884204D9FFE701208DF82F0079E00699F5
:1041700048698969401A05900598069989688842B6
:1041800004D9FFE7069880680590FFE7059803309B
:1041900080080490FFE70798099900EB4110D0F8D8
:1041A000180981B2049A0020914202900FD3FFE7D0
:1041B00006984269816900209142029007D2FFE788
:1041C00006984069002818BF01200290FFE7029876
:1041D000C00770B3FFE7069948698969401A0590DE
:1041E000059806998968884204D9FFE7069880688F
:1041F0000590FFE705980330800804900898069919
:10420000C9689DF82420BDF81430DDF828C09CF85A
:1042100010C0EE46CEF800C003F070FC059A069977
:10422000C8681044C860059A069988691044886176
:10423000B1E706994869896988420ED8FFE709986D
:1042400000F00F01012088400390039A0799D1F8EC
:1042500034089043C1F83408FFE700208DF82F00A0
:10426000FFE79DF82F000CB080BD000070470000F4
:104270007047000084B00390039800900098007885
:10428000ADF8080000980130009000980078ADF873
:104290000600BDF80610BDF8080040EA0120ADF8A0
:1042A0000A00BDF80A0004B07047000080B582B073
:1042B000009000980138B0F1807F03D3FFE7012020
:1042C000019019E0009801384EF21401CEF200017D
:1042D00008604FF0FF300F2103F074FC4EF218011C
:1042E000CEF20001002008604EF21002CEF2000271
:1042F000072111600190FFE7019802B080BD000026
:1043000080B5FCF7D9FD80BD80B594B007A83421F5
:10431000FCF72FF90020069005900490039002907E
:10432000FFE70020019043F64000C4F2020001685C
:1043300041F080510160006800F0805001900198C8
:10434000FFE7FFE70020009047F20000C4F2000002
:10435000016841F440410160006800F44040009071
:104360000098FFE7012007904FF48030089002206A
:104370000D904FF480010E9106210F91482110916C
:10438000119003211291139007A8FEF7E7FB18B1D3
:10439000FFE7FCF7A5FAFFE70F2002900220039049
:1043A0008020049000200590069002A80121FEF7CD
:1043B00005FA18B1FFE7FCF793FAFFE714B080BDE8
:1043C0004EF68851CEF20001086840F47000086093
:1043D0007047000080B541F6A850C2F20000FEF719
:1043E000D7FF80BD80B582B001900198806B0090AE
:1043F00000990020C8850099C8840098FEF7C4FF82
:1044000002B080BD84B00390FFE7FFE70398006827
:1044100050E8030F20F490700290FFE70299039890
:10442000026842E803100028F0D1FFE7FFE7FFE74A
:10443000FFE70398006850E8050F20F001000190A5
:10444000FFE701990398026842E805100028F0D1BF
:10445000FFE7FFE70398006B012814D1FFE7FFE7B0
:10446000FFE70398006850E8030F20F01000009069
:10447000FFE700990398026842E803100028F0D192
:10448000FFE7FFE7FFE70399202081F83E0003994B
:104490000020086304B0704780B582B00190019895
:1044A0000168C86820F04000C8600199202081F8A8
:1044B0003D000198FFF778FB002002B080BD0000AE
:1044C00080B586B00490049890F83E00222840F011
:1044D000A180FFE704988068B0F5805F15D1FFE701
:1044E0000498006988B9FFE7002003900498806A67
:1044F00002900498006840686FF35F20029908807A
:104500000499886A0230886225E00498806A0390E2
:104510000020029004988068B0F5805F08D0FFE723
:104520000498806850B9FFE70498006930B9FFE744
:104530000498006840680399087007E004980068D0
:10454000406800F07F0003990870FFE70499886ACB
:1045500001308862FFE70499C88D0138C8850004DE
:10456000002853D1FFE704980168C86820F02000B4
:10457000C86004980168C86820F48070C860049816
:104580000168486920F0010048610499202081F801
:104590003E000498006B012830D1FFE70499002009
:1045A0000863FFE7FFE70498006850E8030F20F076
:1045B00010000190FFE701990498026842E8031097
:1045C0000028F0D1FFE7FFE7049800680068C00604
:1045D00000280ED5FFE7FFE7002000900498006850
:1045E0000068009004980068406800900098FFE719
:1045F000FFE70498818DFEF795FE03E00498FFF72E
:1046000027FAFFE700208DF8170007E000208DF85B
:10461000170003E002208DF81700FFE79DF8170050
:1046200006B080BD80B586B0059005980068006929
:1046300020F44050059A1168D2681043086105992A
:1046400088680B694A69C969184310430843049094
:1046500005980068C06849F20C61884304990843D2
:1046600005990968C86005980068406920F44070A1
:10467000059A11689269104348610598006841F2F3
:104680000001C4F2010188421BD0FFE705980068D1
:1046900041F20041C4F20101884212D0FFE70598BF
:1046A000006841F60001C4F20101884209D0FFE729
:1046B0000598006841F60041C4F20101884204D126
:1046C000FFE7FEF7C5F9039003E0FEF7AFF90390AB
:1046D000FFE70598C069B0F5004F29D1FFE70398BF
:1046E0001921A0FB0101059A1368029353685A002F
:1046F000DB0FFBF711FE0299864648F21F53C5F205
:10470000EB13AEFB0320420910014FF0640C02FBD7
:104710001CEC322202EBCC02A2FB0332F82303EAA8
:10472000521300EB4300C2F342121044886026E0AB
:1047300003981921A0FB0101059A1368019353689E
:104740009A009B0FFBF7E8FD0199844648F21F523F
:10475000C5F2EB12ACFB02304309642003FB10CC22
:10476000322000EB0C10A0FB0202F02000EA5210F5
:1047700000EB0310C2F3431210448860FFE706B059
:1047800080BD000083B002900191ADF80220019835
:1047900002998862BDF8020002998885BDF802007E
:1047A0000299C8850299002008640299222081F8A4
:1047B0003E00FFE70299002081F83C00FFE70298E5
:1047C0000168C86840F48070C86002980168486950
:1047D00040F00100486102980168C86840F020007C
:1047E000C860002003B0704783B00190019890F832
:1047F0003D0021283AD1FFE701988068B0F5805F3D
:1048000013D1FFE70198006978B9FFE70198006AC2
:104810000090009800886FF35F2001990968486054
:104820000199086A0230086208E0019A106A411C86
:1048300011620078019909684860FFE70199C88C06
:104840000138C884000468B9FFE701980168C868A6
:1048500020F08000C86001980168C86840F04000FE
:10486000C860FFE700208DF80B0003E002208DF800
:104870000B00FFE79DF80B0003B0704780B588B0D0
:10488000DDF828C0069005918DF813200393FFE70B
:1048900006980068006805990840401AB0FA80F050
:1048A00040099DF81310884249D1FFE70A9801306A
:1048B000002843D0FFE70A9840B1FFE7FCF7F6FA7B
:1048C0000399401A0A99884237D9FFE7FFE7FFE7C3
:1048D0000698006850E8030F20F4D0700290FFE7BC
:1048E00002990698026842E803100028F0D1FFE719
:1048F000FFE7FFE7FFE70698006850E8050F20F0A4
:1049000001000190FFE701990698026842E805104E
:104910000028F0D1FFE7FFE70699202081F83D004D
:10492000069981F83E00FFE70699002081F83C00D7
:10493000FFE703208DF81F0005E0FFE7A8E7002050
:104940008DF81F00FFE79DF81F0008B080BD000034
:1049500080B541F6EC50C2F20000FEF719FD80BDB3
:1049600080B586B004908DF80F100498D0F8C4027A
:1049700001900498D0F8BC0220B9FFE703208DF81D
:1049800017004DE00498D0F8BC02029004989DF8FE
:104990000F1001EB810100EB8100806920B3FFE77C
:1049A00004989DF80F1001EB810200EB82008269F0
:1049B0000198C1EBC10100EB8100416CB2FBF1F049
:1049C00000FB112080B9FFE704989DF80F1001EB60
:1049D000810100EB81000023836104989DF80F1092
:1049E0001A4601F0A3FA17E002990020C1F8140258
:1049F0000498D0F8C002006968B1FFE70498D0F8C5
:104A0000C00203690299D1F8080201F504719DF80A
:104A10000F209847FFE7FFE700208DF81700FFE71A
:104A20009DF8170006B080BD80B584B002908DF867
:104A300007100298D0F8BC0200900298D0F8BC028F
:104A400020B9FFE703208DF80F0015E002989DF8CC
:104A5000071001F009F80099C1F80C020298D0F88B
:104A6000C002C2680099D1F8040201F503719047B1
:104A700000208DF80F00FFE79DF80F0004B080BD07
:104A800080B584B003908DF80B100398812100F05D
:104A90008FFE03990020019008870398012100F000
:104AA00087FE01980399A1F878010398822100F00C
:104AB0007FFE01980399A1F84C000399A1F84E00DC
:104AC0000398D0F8BC0278B1FFE70398D0F8C00291
:104AD000406880470398D0F8BC0201F023FE039998
:104AE0000020C1F8BC02FFE7002004B080BD000038
:104AF00080B584B002900298D0F8BC020190019871
:104B000020B9FFE703208DF80F001DE00298D0F8D0
:104B1000C002A8B1FFE7019890F80002FF280FD06B
:104B2000FFE70298D0F8C0028368019991F800026B
:104B300091F8012298470199FF2081F80002FFE7D0
:104B400000208DF80F00FFE79DF80F0004B080BD36
:104B500081B0009000990A20088040F2E000C2F283
:104B6000000001B07047000081B000900099432020
:104B7000088040F25800C2F2000001B07047000007
:104B800081B0009000994320088040F29C00C2F25E
:104B9000000001B07047000081B0009000994320F0
:104BA000088040F2EC00C2F2000001B07047000043
:104BB00080B58AB008908DF81F104FF4077001F08F
:104BC000B5FD0690069840B9FFE708990020C1F8A6
:104BD000BC0202208DF827006DE006980899C1F804
:104BE000BC020898007CD8B9FFE70898812102220E
:104BF00003924FF40073049301F00AF8039A049BA4
:104C00000898012105910187089801F001F805989D
:104C10000899A1F8780108991020A1F84E0019E030
:104C200008988121022200924023019300F0F0FFB6
:104C3000009A019B0898012102910187089800F0D1
:104C4000E7FF02980899A1F8780108991020A1F8C7
:104C50004E00FFE7089882210322082300F0D8FFC6
:104C600008990120A1F84C000898D0F8C00200680B
:104C7000804706990020C1F814020699C1F818026D
:104C80000898007C50B9FFE708980699D1F80422EB
:104C900001214FF4007300F0E1FF08E00898069945
:104CA000D1F804220121402300F0D8FFFFE70020C3
:104CB0008DF82700FFE79DF827000AB080BD0000AF
:104CC00080B584B002900298D0F8BC02019002989E
:104CD000D0F8BC0220B9FFE703208DF80F001AE0DE
:104CE0000298007C50B9FFE702980199D1F804229C
:104CF00001214FF4007300F0B1FF08E00298019920
:104D0000D1F804220121402300F0A8FFFFE7002092
:104D10008DF80F00FFE79DF80F0004B080BD000084
:104D200083B001900091009820B9FFE703208DF82F
:104D30000B0007E000980199C1F8C00200208DF82F
:104D40000B00FFE79DF80B0003B0704784B00290A2
:104D500001910298D0F8BC020090009820B9FFE7BA
:104D600003208DF80F0007E001980099C1F80402B4
:104D700000208DF80F00FFE79DF80F0004B070478A
:104D800085B00390029101920398D0F8BC02009084
:104D9000009820B9FFE703208DF813000BE002987C
:104DA0000099C1F8080201980099C1F8100200208A
:104DB0008DF81300FFE79DF8130005B07047000061
:104DC00080B58AB0089007910898D0F8BC02069088
:104DD00000208DF81500ADF812008DF8110006982E
:104DE00020B9FFE703208DF82700B3E0079800788B
:104DF00000F060000146039100284AD0FFE70398C5
:104E0000202840F09A80FFE70798C088B8B3FFE7F2
:104E100007980078000600281FD5FFE70898D0F80B
:104E2000C0028368079A50780699D28898470798F5
:104E3000C088082803D3FFE70720029003E0079803
:104E4000C0880290FFE70298ADF81600089806990E
:104E5000BDF8162000F014F910E007984078069984
:104E600081F8000207988079069981F80102089874
:104E70000699079AD28800F0D5F8FFE708E008986D
:104E8000D0F8C00283680799487800229847FFE766
:104E90005BE007984078014601910B2844D80199BE
:104EA000DFE801F0064142424242424242421C32A5
:104EB000089890F89C02032807D1FFE708980DF1A5
:104EC0001201022200F0DCF807E00898079900F0D0
:104ED0009BF803208DF81100FFE72DE0089890F86B
:104EE0009C02032807D1FFE708980DF11501012264
:104EF00000F0C6F807E00898079900F085F803204D
:104F00008DF81100FFE717E0089890F89C0203283D
:104F100008D0FFE70898079900F076F803208DF88D
:104F20001100FFE708E007E00898079900F06CF827
:104F300003208DF81100FFE707E00898079900F0BB
:104F400063F803208DF81100FFE79DF811008DF83C
:104F50002700FFE79DF827000AB080BD80B582B02A
:104F600001908DF803100198D0F8B80240B1FFE726
:104F70000198D0F8B8124A689DF803109047FFE7EF
:104F8000002002B080BD000080B582B00190009189
:104F9000019890F89C02013802280ED8FFE700988B
:104FA0004088012808D1FFE701990020C1F8A40238
:104FB000019800F07FF8FFE704E00198009900F005
:104FC00023F8FFE702B080BD80B584B00390029162
:104FD00001920398029A019B0021009100F03EFE8D
:104FE000009804B080BD000080B584B003900291A9
:104FF00001920398029A019B0021009100F096FF14
:10500000009804B080BD000080B582B0019000918E
:105010000198802100F042FF0198002100F03EFF3E
:1050200002B080BD80B584B00390029101920399D3
:105030000320C1F8940201980399C1F8580101981E
:105040000399C1F85C010398029A019B0021009129
:1050500000F004FE009804B080BD000080B582B06E
:10506000019001990520C1F8940201980023009352
:1050700019461A4600F0F2FD009802B080BD00000B
:1050800080B584B003900291019203990220C1F887
:10509000940201980399886101980399C861039863
:1050A000029A019B0021009100F040FF009804B09B
:1050B00080BD000080B582B0019001990420C1F844
:1050C000940201980023009319461A4600F02EFF1F
:1050D000009802B080BD000080B582B08DF8070056
:1050E00000919DF8070060B9FFE7009A48F6C410E8
:1050F000C0F6000040F26421C2F2000100F08EFA16
:105100000BE0009A48F6C410C0F6000040F264219B
:10511000C2F2000100F082FAFFE740F26420C2F21E
:10512000000002B080BD000082B08DF80700009141
:1051300000991220088040F23010C2F2000002B044
:105140007047000080B582B08DF8070000919DF88F
:10515000070060B9FFE7009A48F6B610C0F60000F5
:1051600040F26421C2F2000100F058FA0BE0009A0C
:1051700048F6B610C0F6000040F26421C2F2000109
:1051800000F04CFAFFE740F26420C2F2000002B0E7
:1051900080BD000082B08DF80700009100990420C6
:1051A000088040F25810C2F2000002B070470000C0
:1051B00080B584B08DF80F000291029A48F6CF10A6
:1051C000C0F6000040F26421C2F20001019100F03B
:1051D00025FA019804B080BD80B582B08DF8070033
:1051E00000919DF8070060B9FFE7009A48F6E210C9
:1051F000C0F6000040F26421C2F2000100F00EFA95
:105200000BE0009A48F6E210C0F6000040F264217C
:10521000C2F2000100F002FAFFE740F26420C2F29D
:10522000000002B080BD000080B582B08DF807009C
:10523000009100991A200880FBF756FB40F25C10A1
:10524000C2F2000002B080BD80B584B0039002912C
:105250000298C088012805D0FFE703980299FFF75C
:10526000D3FE21E0039890F89C12481E0191022879
:1052700004D3FFE7019803280AD00FE00399002028
:105280008860039800F108010122FFF7F9FE0AE0A7
:105290000398011D0122FFF7F3FE04E00398029931
:1052A000FFF7B2FEFFE7FFE704B080BD80B588B02E
:1052B000079006910020ADF8160004908DF80F00BD
:1052C0000698C078013801460291062800F21E8136
:1052D0000299DFE811F0070011002E001B011B01ED
:1052E000E80000010798D0F8B4120A68007C0DF1BC
:1052F00016019047049013E10798007C60B9FFE71E
:105300000798D0F8B802816A0DF11600884704901A
:105310000499022048700BE00798D0F8B802C16ADF
:105320000DF1160088470490049902204870FFE7A9
:10533000F6E00698807801460191052800F2A880E1
:105340000199DFE801F0031E39546F8A0798D0F8FD
:10535000B402406850B1FFE70798D0F8B4124A6829
:10536000007C0DF116019047049009E0079806991A
:10537000FFF74AFE9DF80F0001308DF80F00FFE7A0
:1053800090E00798D0F8B402806850B1FFE7079822
:10539000D0F8B4128A68007C0DF116019047049091
:1053A00009E007980699FFF72FFE9DF80F000130DE
:1053B0008DF80F00FFE775E00798D0F8B402C068D9
:1053C00050B1FFE70798D0F8B412CA68007C0DF11D
:1053D00016019047049009E007980699FFF714FE1C
:1053E0009DF80F0001308DF80F00FFE75AE0079895
:1053F000D0F8B402006950B1FFE70798D0F8B412B2
:105400000A69007C0DF116019047049009E00798A5
:105410000699FFF7F9FD9DF80F0001308DF80F0098
:10542000FFE73FE00798D0F8B402406950B1FFE7CA
:105430000798D0F8B4124A69007C0DF11601904724
:10544000049009E007980699FFF7DEFD9DF80F002C
:1054500001308DF80F00FFE724E00798D0F8B40280
:10546000806950B1FFE70798D0F8B4128A69007CD0
:105470000DF116019047049009E007980699FFF78F
:10548000C3FD9DF80F0001308DF80F00FFE709E024
:1054900007980699FFF7B8FD9DF80F0001308DF8C9
:1054A0000F00FFE73CE00798007C48B9FFE707984A
:1054B000D0F8B802416B0DF116008847049009E05E
:1054C00007980699FFF7A0FD9DF80F0001308DF8B1
:1054D0000F00FFE724E00798007C60B9FFE707981A
:1054E000D0F8B802016B0DF11600884704900499BA
:1054F0000720487009E007980699FFF785FD9DF899
:105500000F0001308DF80F00FFE709E007980699BA
:10551000FFF77AFD9DF80F0001308DF80F00FFE7CF
:105520009DF80F0008B1FFE72AE00698C08818B37D
:10553000FFE7BDF81600C8B1FFE7BDF816000699F1
:10554000C988884204DAFFE7BDF81600009003E03E
:105550000698C0880090FFE70098ADF816000798FD
:105560000499BDF81620FFF78BFD04E00798069913
:10557000FFF74AFDFFE703E00798FFF79BFDFFE712
:1055800008B080BD83B0029000208DF8070002981B
:105590000090FFE70098007848B1FFE79DF807000A
:1055A00001308DF80700009801300090F2E79DF877
:1055B000070003B07047000080B582B001900091F1
:1055C000019890F89C02013802281FD8FFE7009844
:1055D000C088022805D0FFE701980099FFF714FD65
:1055E00019E001990120C8600198D0F8A40230B1F7
:1055F000FFE70199C86840F00200C860FFE7019822
:1056000000F10C010222FFF73BFD04E00198009934
:10561000FFF7FAFCFFE702B080BD000080B586B05E
:1056200005900491039200208DF80B00059808B9AD
:10563000FFE73DE0059801900198FFF7A3FF0146C1
:10564000022000EB41000399088003980078049938
:105650009DF80B2088549DF80B0001308DF80B004D
:1056600004999DF80B20032088549DF80B0001300D
:105670008DF80B00FFE701980078C8B1FFE70198AB
:10568000007804999DF80B2088540198013001900E
:105690009DF80B0001308DF80B0004999DF80B204C
:1056A000002088549DF80B0001308DF80B00E2E7D4
:1056B00006B080BD82B08DF8070000208DF806008E
:1056C0009DF8070001460091032814D80099DFE8EF
:1056D00001F002060A0E00208DF806000FE00320FC
:1056E0008DF806000BE001208DF8060007E003208E
:1056F0008DF8060003E003208DF80600FFE79DF813
:10570000060002B07047000080B584B0029001919D
:105710008DF80320029820B9FFE703208DF80F00D1
:1057200023E002990020C1F8B8020299C1F8C00232
:105730000299C1F8CC02019828B1FFE701980299BB
:10574000C1F8B402FFE70299012081F89C029DF89C
:10575000030002990870029800F094F98DF8020095
:105760009DF802008DF80F00FFE79DF80F0004B0D0
:1057700080BD000080B582B001908DF8031000203C
:105780008DF802008DF801000198D0F8C4029DF850
:105790000310FBF751FD8DF802009DF80200FFF7A2
:1057A00089FF8DF801009DF8010002B080BD000066
:1057B00080B582B001908DF8031000208DF80200B2
:1057C0008DF801000198D0F8C4029DF80310FBF792
:1057D000DFFC8DF802009DF80200FFF76BFF8DF8EB
:1057E00001009DF8010002B080BD000080B588B0C6
:1057F00006908DF8171004929DF81700002872D1BA
:10580000FFE70698143003900698D0F89402022817
:1058100059D1FFE703998868C968884212D9FFE720
:1058200003998868CA68801A886006980499039A60
:105830009268FFF7D9FB0698002319461A4600F034
:105840000DFA3FE003988168C06888421ED1FFE7E7
:1058500003994868C968884218D3FFE703984068ED
:105860000699D1F89812884210D2FFE706980022D4
:1058700001921146FFF7B8FB019B0698C0F89832D9
:10588000069819461A4600F0E9F91AE0069890F8C9
:105890009C0203280DD1FFE70698D0F8B802C06833
:1058A00030B1FFE70698D0F8B812C9688847FFE71B
:1058B000FFE70698802100F0F1FA0698FFF7CEFB8B
:1058C000FFE7FFE700E0FFE7069890F8A002012855
:1058D00008D1FFE7069800F0A9FB0699002081F89F
:1058E000A002FFE720E0069890F89C0203281AD156
:1058F000FFE70698D0F8B802406998B1FFE706982C
:10590000D0F8B8124A699DF8171090478DF80B002F
:105910009DF80B0028B1FFE79DF80B008DF81F00E4
:1059200006E0FFE7FFE7FFE700208DF81F00FFE735
:105930009DF81F0008B080BD80B58AB008908DF832
:105940001F1006929DF81F00002847D1FFE7089816
:1059500000F5AA7005900898D0F8940203283BD16E
:10596000FFE705998868C96888421DD9FFE705994E
:105970008868CA68801A8860089802900698039020
:1059800005998868C968884204D2FFE7059880684D
:10599000019003E00598C0680190FFE70399029821
:1059A000019AFFF711FB16E0089890F89C02032873
:1059B0000DD1FFE70898D0F8B802006930B1FFE7D1
:1059C0000898D0F8B81209698847FFE7FFE70898F8
:1059D000FFF770FBFFE700E0FFE720E0089890F892
:1059E0009C0203281AD1FFE70898D0F8B802806912
:1059F00098B1FFE70898D0F8B8128A699DF81F108F
:105A000090478DF813009DF8130028B1FFE79DF82B
:105A100013008DF8270006E0FFE7FFE7FFE700200F
:105A20008DF82700FFE79DF827000AB080BD000031
:105A300081B00090002001B07047000080B582B0B6
:105A400001900199012081F89C020198D0F8B802D8
:105A500038B1FFE70198D0F8B8124A680179904749
:105A6000FFE7002002B080BD80B582B001908DF8C4
:105A700003100198D0F8C4029DF80310FBF740FC16
:105A800002B080BD80B584B0039003980078B0BBAD
:105A9000FFE7039941F6A010C2F200000290C0F89F
:105AA00004140399C1F8C4024FF0A041016006211B
:105AB00041600222C260002101618261C161016214
:105AC00041628162C1620163FCF70AF918B1FFE724
:105AD000FAF706FFFFE741F6A010C2F200000190BE
