:020000040800F2
:1000000068250020B90200086D47000881430008F8
:10001000694700085D05000825870008000000000A
:10002000000000000000000000000000514E000829
:100030009D06000800000000994B0008E14E0008F2
:10004000D3020008D3020008D3020008D30200083C
:10005000D3020008D3020008D3020008D30200082C
:10006000D3020008D3020008D3020008D30200081C
:10007000D3020008D3020008D3020008D30200080C
:10008000D3020008D3020008D3020008D3020008FC
:10009000D3020008D3020008D3020008D3020008EC
:1000A000D3020008D3020008D3020008D3020008DC
:1000B000D3020008D3020008D3020008D3020008CC
:1000C000D3020008D3020008D3020008D3020008BC
:1000D000D302000865540008D302000875540008D4
:1000E000D3020008D3020008D3020008D30200089C
:1000F000D3020008D3020008D3020008D30200088C
:10010000D3020008D3020008D3020008D30200087B
:10011000BD4F0008D3020008D3020008D302000834
:10012000D3020008D3020008D3020008D30200085B
:10013000D3020008D3020008D3020008D30200084B
:10014000D3020008D3020008D3020008E5470008E4
:10015000D3020008D3020008D30200088554000827
:10016000D3020008D3020008D3020008D30200081B
:10017000D3020008D30200080000000000000000C5
:10018000D3020008D3020008D3020008D3020008FB
:10019000D3020008D302000800000000D3020008C8
:1001A000D3020008D3020008000000000000000095
:1001B000D30200080000000000000000D302000885
:1001C000D3020008D3020008D3020008D3020008BB
:1001D000D3020008D302000800F002F800F05CF837
:1001E0000AA090E8000C82448344AAF10107DA4592
:1001F00001D100F051F8AFF2090EBAE80F0013F088
:10020000010F18BFFB1A43F001031847848900004F
:10021000A48900000A444FF0000C10F8013B13F0D1
:10022000070408BF10F8014B1D1108BF10F8015B4F
:10023000641E05D010F8016B641E01F8016BF9D142
:1002400013F0080F1EBF10F8014BAD1C0C1B09D199
:100250006D1E58BF01F801CBFAD505E014F8016B0B
:1002600001F8016B6D1EF9D59142D6D3704700009D
:100270000023002400250026103A28BF78C1FBD8AF
:10028000520728BF30C148BF0B6070471FB508F048
:1002900045FC1FBD10B510BD00F026F91146FFF753
:1002A000F5FF08F085FB00F044F903B4FFF7F2FF17
:1002B00003BC00F04BF9000009488047094800479B
:1002C000FEE7FEE7FEE7FEE7FEE7FEE7FEE7FEE706
:1002D000FEE7FEE704480549054A064B7047000063
:1002E000A94F0008D9010008681F002068250020D8
:1002F000682100206821002053EA020C00F0698088
:100300002DE9F04B4FF00006002B1FBFB3FA83F529
:1003100003FA05F424FA05F65E4012BF1643B2FA5A
:1003200082F502FA05F4C5F120051EBF22FA05FC8C
:1003300044EA0C04203556EA044C4FEA144418BF32
:10034000641C4FF000084FF00009904271EB030C61
:1003500039D3002919BFB1FA81F701FA07F6B0FACB
:1003600080F700FA07F6C7F120071EBF20FA07FC46
:1003700046EA0C062037B6FBF4FCA7EB0507103F56
:1003800007F01F0BCBF120062CFA06F60CFA0BFB3C
:1003900044BFB3460026202FA4BF5E464FF0000B9B
:1003A0005BEA060C08BF4FF0010B19EB0B0948EB99
:1003B0000608ABFB027C06FB02CC0BFB03CCC01B8C
:1003C00071EB0C01C1E70B46024641464846BDE8C9
:1003D000F08B13B5084318BF4FF0FF300146AFF361
:1003E0000080BDE81C40704740EA010310B59B0740
:1003F0000FD1042A0DD310C808C9121F9C42F8D08F
:1004000020BA19BA884201D9012010BD4FF0FF303F
:1004100010BD1AB1D30703D0521C07E0002010BD55
:1004200010F8013B11F8014B1B1B07D110F8013BE1
:1004300011F8014B1B1B01D1921EF1D1184610BDC2
:1004400002F0FF0343EA032242EA024200F02CB822
:100450004FF0000200B5134694469646203922BF5D
:10046000A0E80C50A0E80C50B1F12001BFF4F7AFA8
:10047000090728BFA0E80C5048BF0CC05DF804EB8A
:10048000890028BF40F8042B08BF704748BF20F8F8
:10049000022B11F0804F18BF00F8012B70477047F6
:1004A000704770474FF000020429C0F0128010F02E
:1004B000030C3FF4CFAFCCF1040CBCF1020F18BF1A
:1004C00000F8012BA8BF20F8022BA1EB0C01FFF7CD
:1004D000C1BF5FEAC17C24BF00F8012B00F8012BEB
:1004E00048BF00F8012B7047754600F02BF8AE4668
:1004F00005006946534620F00700854618B020B530
:10050000FFF7E8FEBDE820404FF000064FF000077F
:100510004FF000084FF0000BAC46ACE8C009ACE867
:10052000C009ACE8C009ACE8C00921F007018D465C
:10053000704710B50446AFF300802046BDE8104078
:10054000FFF7B3BE00487047800100200149182022
:10055000ABBEFEE72600020070470000FFE7FEE7A3
:1005600084B08DF80F000291ADF806209DF80F00C1
:100570000146009123281DD80099DFE801F01213ED
:100580001415161B1B1B1B1B1B1B1B1B1B1B1B1BCD
:100590001B1B1B1B1B1B1B1B1B1B1B1B1B1B1718B2
:1005A000191A08E007E006E005E004E003E002E0D5
:1005B00001E000E0FFE7002004B070470020704732
:1005C00080B582B041F22060C2F20000009040F697
:1005D0001061C2F200010022019205F06BF900984F
:1005E00040F21061C2F2000105F04AF9019802B030
:1005F00080BD000080B584B00390029141F21C617F
:10060000C2F2000101200870039941F22060C2F299
:100610000000019005F034F9019805F0EBF8002096
:1006200004B080BD83B0029001918DF803200020BA
:100630008DF802009DF9020003B0704780B586B0C6
:100640000490ADF80E1000208DF80D0041F22060EE
:10065000C2F20000D0F8BC0202900298D0F8140256
:1006600020B1FFE701208DF8170013E00499BDF8D1
:100670000E2041F22060C2F20000019005F01AF94C
:10068000019805F005FA8DF80D009DF80D008DF824
:100690001700FFE79DF8170006B080BD7047000007
:1006A00072B6FFE7FEE7000080B584B047F6102081
:1006B000C1F6FF700068039047F61420C1F6FF7082
:1006C0000068029047F61820C1F6FF70006801909C
:1006D0000199039808440390039888B1FFE70398B1
:1006E00040F25C11C2F2000100910231082203F0D5
:1006F00049FE009902981231042203F043FEFFE7FD
:1007000004B080BD80B584B002900298806D0190E5
:1007100000F0ACFA0090029890F8350002280DD055
:10072000FFE7029980204865FFE70299002081F8E1
:100730003400FFE701208DF80F0055E002980168B2
:10074000086820F01600086002980168486920F0E7
:10075000800048610298006C20B9FFE70298806C25
:1007600038B1FFE702980168086820F008000860C7
:10077000FFE702980168086820F001000860FFE7C1
:10078000029800680068C007C8B1FFE700F06EFA81
:100790000099401A062811D3FFE7029920204865E6
:1007A0000299032081F83500FFE70299002081F8C3
:1007B0003400FFE703208DF80F0015E0E0E7029812
:1007C000C16D3F208840019988600299012081F81D
:1007D0003500FFE70299002081F83400FFE7FFE7CA
:1007E00000208DF80F00FFE79DF80F0004B080BDDA
:1007F00082B00090009890F83500022807D0FFE7FB
:1008000000998020486501208DF807000EE00099CE
:10081000052081F8350000980168086820F0010083
:100820000860FFE700208DF80700FFE79DF807004C
:1008300002B0704780B584B0039000F017FA0290C0
:10084000039801900198013048B1FFE740F2781019
:10085000C2F200000178019808440190FFE7FFE729
:1008600000F004FA0299401A0199884201D2FFE788
:10087000F6E704B080BD00008DB00C900B91002015
:100880000990089007900A90FFE70A980F2800F255
:10089000BE81FFE70A990120884009900B98006803
:1008A00009990840089008980999884240F0AA815F
:1008B000FFE70B98406800F00300012807D0FFE72E
:1008C0000B98406800F0030002282FD1FFE70C9836
:1008D000806807900A984100032000FA01F1079808
:1008E000884307900B98C0680A99490000FA01F103
:1008F00007980843079007980C9988600C984068FF
:1009000007900A99012000FA01F10798884307909F
:100910000B984068C0F300100A9900FA01F107989B
:100920000843079007980C994860FFE70B984068C8
:1009300000F00300032818D0FFE70C98C068079068
:100940000A984100032000FA01F1079888430790B4
:100950000B9880680A99490000FA01F1079808434A
:10096000079007980C99C860FFE70B98406800F063
:100970000300022826D1FFE70C980A996FF00302C2
:1009800002EA51010844006A07900A9800F0070043
:1009900081000F2000FA01F10798884307900B9817
:1009A00000690A9901F00701890000FA01F107982E
:1009B0000843079007980C990A9B02EA53021144D6
:1009C0000862FFE70C98006807900A98410003202E
:1009D00000FA01F10798884307900B98406800F0EF
:1009E00003000A99490000FA01F1079808430790AB
:1009F00007980C9908600B9880798007002800F010
:100A00000081FFE7FFE70020069043F64400C4F2B0
:100A10000200016841F480410160006800F48040F8
:100A200006900698FFE70A9820F0030043F60801B5
:100A3000C4F20101405807900A9800F003008100B9
:100A40000F2000FA01F10798884307900C980021C5
:100A5000C4F20201884203D1FFE70020059050E074
:100A60000C9840F20041C4F20201884203D1FFE732
:100A70000120049042E00C9840F60001C4F202010B
:100A8000884203D1FFE70220039034E00C9840F63F
:100A90000041C4F20201884203D1FFE70320029023
:100AA00026E00C9841F20001C4F20201884203D111
:100AB000FFE70420019018E00C9841F20041C4F2D5
:100AC0000201884203D1FFE7052000900AE00C995B
:100AD00041F60002C4F202020720914208BF06203C
:100AE0000090FFE700980190FFE701980290FFE770
:100AF00002980390FFE703980490FFE7049805909D
:100B0000FFE70598C0B20A9901F00301890000FAD5
:100B100001F107980843079007980A9921F003010B
:100B200043F60802C4F20102885043F60040C4F2C2
:100B300001000068079008990798884307900B9870
:100B40008079C00728B1FFE7089907980843079004
:100B5000FFE7079843F60041C4F20101086043F63D
:100B60000440C4F201000068079008990798884380
:100B700007900B9880798007002805D5FFE7089932
:100B8000079808430790FFE7079843F60441C4F22B
:100B90000101086043F60840C4F2010000680790B4
:100BA00008990798884307900B988079C006002819
:100BB00005D5FFE70899079808430790FFE70798CE
:100BC00043F60841C4F20101086043F60C40C4F248
:100BD00001000068079008990798884307900B98D0
:100BE00080798006002805D5FFE708990798084313
:100BF0000790FFE7079843F60C41C4F20101086033
:100C0000FFE7FFE7FFE70A9801300A903DE60DB0E5
:100C10007047000083B00290ADF80610029840695A
:100C20000090009ABDF8060002EA0001904340EAF5
:100C300001400299886103B07047000082B00190C2
:100C4000ADF802108DF801209DF8010028B1FFE7F2
:100C5000BDF802000199886105E0BDF802000004BA
:100C600001998861FFE702B07047000041F66470A7
:100C7000C2F200000068704740F27810C2F2000033
:100C8000027841F66471C2F20001086810440860FD
:100C90007047000080B543F60041C4F202010868C5
:100CA00040F400700860086840F4806008600868DC
:100CB00040F480700860032000F08AF80F2000F0F4
:100CC00005F800F03BF8002080BD000080B582B040
:100CD000009040F21C00C2F20000006840F278115F
:100CE000C2F200010A784FF47A71B1FBF2F1B0FB65
:100CF000F1F002F071FE20B1FFE701208DF807004E
:100D000018E000980F280DD8FFE700994FF0FF304A
:100D1000002200F043F8009840F27C11C2F200017A
:100D2000086003E001208DF8070003E000208DF843
:100D30000700FFE79DF8070002B080BD82B0FFE723
:100D40000020019043F64400C4F20200016841F41F
:100D500080410160006800F4804001900198FFE745
:100D6000FFE70020009043F64000C4F20200016853
:100D700041F080510160006800F0805000900098C0
:100D8000FFE702B07047000080B582B08DF8070021
:100D90009DF9070007F0C8FC02B080BD80B586B0A1
:100DA0008DF81700049103920020029007F0D4FC04
:100DB00002909DF91700019002980499039A03F09C
:100DC000DBFC0146019807F0CFFC06B080BD0000B7
:100DD00080B582B00190019807F0E8FC02B080BDB8
:100DE00082B0019001980068009001990120C1F83B
:100DF000FC030199002081F8F403009A916941F005
:100E000000619161009A516D0323C1F200031943FF
:100E1000516502B07047000082B001908DF8031058
:100E200002B0704782B00190ADF80210BDF8020028
:100E3000019909684862002002B0704784B00390AD
:100E40008DF80B10ADF8082003980068406A0090F8
:100E50009DF80B0048B9FFE7BDF80810009840EA7C
:100E6000014003990968886233E003980068816A49
:100E7000009800EB1140009000208DF80700FFE77C
:100E80009DF807009DF80B100139884213D2FFE747
:100E9000039800689DF8071000EB8100D0F804115A
:100EA000009800EB11400090FFE79DF8070001302B
:100EB0008DF80700E4E7BDF80810009840EA01400B
:100EC000039909689DF80B2001EB8201C1F800012C
:100ED000FFE7002004B0704780B582B00190019810
:100EE000D0F8040405F076FB02B080BD80B582B076
:100EF00001908DF80310019AD2F804049DF80310B4
:100F0000C1EBC10302EB8302926C05F041FA02B01F
:100F100080BD000080B582B001908DF80310019A69
:100F2000D2F804049DF80310C1EBC10302EB830265
:100F3000D2F8082205F0D2FA02B080BD80B582B0A6
:100F400001900198D0F8040405F04AFB02B080BD7E
:100F500080B584B002908DF807109DF80700000658
:100F600000280FD5FFE702989DF8071001F00F0148
:100F7000C1EBC10100EB81003C30009000990120E1
:100F800048700FE002989DF8071001F00F01C1EBC7
:100F9000C10100EB810000F5FE7000900099002077
:100FA0004870FFE79DF8070000F00F0000990870F7
:100FB000FFE7029890F8BC03012804D1FFE7022064
:100FC0008DF80F0014E00299012081F8BC03FFE7BF
:100FD000FFE702980068009906F0C6FAFFE7029959
:100FE000002081F8BC03FFE700208DF80F00FFE729
:100FF0009DF80F0004B080BD80B584B002908DF8DC
:1010000007109DF8070000F00F0002994968884218
:1010100004D9FFE701208DF80F004DE09DF807008F
:10102000000600280FD5FFE702989DF8071001F091
:101030000F01C1EBC10100EB81003C300090009931
:10104000012048700FE002989DF8071001F00F0191
:10105000C1EBC10100EB810000F5FE70009000992A
:1010600000204870FFE70099002088709DF8070075
:1010700000F00F0000990870FFE7029890F8BC0399
:10108000012804D1FFE702208DF80F0014E0029937
:10109000012081F8BC03FFE7FFE702980068009990
:1010A00006F0D8FDFFE70299002081F8BC03FFE7B6
:1010B00000208DF80F00FFE79DF80F0004B080BD01
:1010C00082B001908DF8031001989DF8031001F093
:1010D0000F01C1EBC10100EB8100D0F8140202B096
:1010E0007047000080B586B004908DF80F10ADF801
:1010F0000C208DF80B3000208DF80A009DF80F00B1
:10110000000600280FD5FFE704989DF80F1001F0A6
:101110000F01C1EBC10100EB81003C30019001994E
:10112000012048700FE004989DF80F1001F00F01A6
:10113000C1EBC10100EB810000F5FE700190019947
:1011400000204870FFE79DF80F0000F00F000199A4
:101150000870BDF80C00019988609DF80B0001999A
:10116000C8700198407820B1FFE701990878C880DD
:10117000FFE79DF80B00022804D1FFE7019900204A
:101180000871FFE7FFE7049890F8BC03012804D139
:10119000FFE702208DF8170015E00499012081F87F
:1011A000BC03FFE7FFE704980068019906F098F890
:1011B000FFE70499002081F8BC03FFE79DF80A00CF
:1011C0008DF81700FFE79DF8170006B080BD0000FE
:1011D00080B586B005908DF81310039202930598A0
:1011E0009DF8131001F00F01C1EBC10100EB81006C
:1011F00000F5FE70019003980199C860029801996A
:101200004861019900208861019948709DF8130098
:1012100000F00F000199087005980069012804D1B9
:10122000FFE7039801990861FFE79DF813000007A5
:1012300038B9FFE7059A10680199127C06F0C2FBE5
:1012400006E0059A10680199127C06F0A7FDFFE7F9
:10125000002006B080BD000080B584B002908DF8FB
:1012600007109DF8070000F00F00029949688842B6
:1012700004D9FFE701208DF80F0058E09DF8070022
:10128000000600280FD5FFE702989DF8071001F02F
:101290000F01C1EBC10100EB81003C3000900099CF
:1012A000012048700DE002989DF80710C1EBC101C4
:1012B00000EB810000F5FE7000900099002048705E
:1012C000FFE70099012088709DF8070000F00F00EB
:1012D00000990870FFE7029890F8BC03012804D138
:1012E000FFE702208DF80F0021E00299012081F82C
:1012F000BC03FFE7FFE702980068009906F0FAFCDC
:101300009DF80700000740B9FFE7029A1068117CBA
:1013100002F5717206F04EFCFFE7FFE7029900202C
:1013200081F8BC03FFE700208DF80F00FFE79DF870
:101330000F0004B080BD000080B586B005908DF828
:1013400013100392029305989DF8131001F00F01FA
:10135000C1EBC10100EB81003C3001900398019981
:10136000C86002980199486101990020886101993B
:10137000012048709DF8130000F00F0001990870DB
:1013800005980069012804D1FFE7039801990861D5
:10139000FFE79DF81300000738B9FFE7059A1068CA
:1013A0000199127C06F00EFB06E0059A106801997F
:1013B000127C06F0F3FCFFE7002006B080BD0000C1
:1013C00080B58CB00B900B9800680A900A98099031
:1013D0000B98006806F014FF002840F04283FFE7F6
:1013E0000B98006806F078FF08B9FFE739E30B981F
:1013F000006806F071FF8007002807D5FFE70B980B
:101400000168486900F002004861FFE70B98006836
:1014100006F062FFC006002862D5FFE70B9801685E
:10142000886920F0100088610A98006A02900B9881
:10143000029901F00F01C1EBC10100EB810000F541
:10144000FE700890029800F4F0110220B0EB514FAA
:1014500023D1FFE7BDF8080047F6F07108421BD022
:10146000FFE70A980899C968029AC2F30A1206F0BF
:1014700041FF029847F6F07100EA0103089AD0682C
:1014800000EB1310D060029800EA01020899886905
:1014900000EB12108861FFE71BE0029800F4F011E6
:1014A0000620B0EB514F12D1FFE70A980B9901F5D6
:1014B0007171082206F01EFF029847F6F07100EAEB
:1014C00001020899886900EB1210886100E0FFE7CB
:1014D000FFE70B980168886940F010008861FFE71A
:1014E0000B98006806F0F8FE0003002870D5FFE7AF
:1014F000002004900B98006806F09CFE0690FFE721
:101500000698002863D0FFE79DF81800C007002860
:1015100056D0FFE70B9800689DF8101006F0C4FE47
:1015200005909DF81400C00760B1FFE70998049981
:1015300000EB41110120C1F8080B0B98049903F04E
:101540009FF9FFE79DF81400000700280CD5FFE77E
:101550000998049900EB41110820C1F8080B0B9879
:10156000049903F047F9FFE79DF81400C00600282E
:1015700008D5FFE70998049900EB41111020C1F844
:10158000080BFFE79DF814008006002808D5FFE748
:101590000998049900EB41112020C1F8080BFFE7DE
:1015A0009DF815008006002809D5FFE709980499E1
:1015B00000EB41114FF40050C1F8080BFFE7FFE7C3
:1015C00004980130049006984008069098E7FFE7D9
:1015D0000B98006806F080FE4003002840F1AC80C4
:1015E000FFE70B98006806F013FE069000200490B9
:1015F000FFE70698002800F09E80FFE79DF818009E
:10160000C007002800F09080FFE70B9800689DF865
:10161000101006F021FE05909DF81400C007002868
:101620003ED0FFE7049800F00F01012000FA01F11D
:101630000391039B099AD2F834189943C2F83418DD
:101640000999049A01EB4211C1F808090B98006945
:1016500001281FD1FFE70B980499C1EBC10100EBF2
:1016600081014A6C886C10448864049888B9FFE74B
:101670000B980499C1EBC10100EB8100006D40B9EA
:10168000FFE70B99086801F57172012106F092FAE3
:10169000FFE7FFE70B989DF81010FFF727FCFFE727
:1016A0009DF814000007002808D5FFE70998049961
:1016B00000EB41110820C1F80809FFE79DF814006C
:1016C000C006002808D5FFE70998049900EB4111EE
:1016D0001020C1F80809FFE79DF814004006002813
:1016E00008D5FFE70998049900EB41114020C1F8A3
:1016F0000809FFE79DF814008007002808D5FFE7D8
:101700000998049900EB41110220C1F80809FFE78C
:101710009DF814000006002805D5FFE70B980499F2
:1017200003F0A0F9FFE7FFE7049801300490069862
:10173000400806905DE7FFE70B98006806F0CCFDD7
:10174000C00F00B3FFE70999D1F8040820F00100A9
:10175000C1F804080B9890F8F403012808D1FFE7BA
:101760000B98002180F8F4130B98FFF755FB03E06A
:101770000B9800F07BFBFFE70B980168486900F0CD
:1017800000404861FFE70B98006806F0A5FD0005E2
:10179000002811D5FFE70998D0F80808C00720B144
:1017A000FFE70B9800F0F0FBFFE70B980168486932
:1017B00000F400604861FFE70B98006806F08CFDBC
:1017C0000001002820D5FFE70B980168486900F068
:1017D000006048610B9890F8F40380B9FFE70B981C
:1017E000012180F8F4130B980068406DC0F383006A
:1017F0000B9AC2F8F8030B98FFF70EFB03E00B9867
:1018000000F0C2FBFFE7FFE70B98006806F064FDFD
:10181000C004002840F19080FFE70999D1F804083E
:1018200020F00100C1F804080B980068102106F0B0
:1018300097FC00200790FFE707980B9949688842BA
:101840003BD2FFE70998079900EB41114FF67F3033
:10185000C1F808090999079A01EB4212D2F8001958
:1018600021F40011C2F800190999079A01EB4212FC
:10187000D2F8001941F00061C2F800190999079ADD
:1018800001EB4211C1F8080B0998079900EB4111CF
:10189000D1F8000B20F40010C1F8000B099807994B
:1018A00000EB4111D1F8000B40F00060C1F8000BD3
:1018B000FFE7079801300790BEE70999D1F81C08A7
:1018C00040F00110C1F81C080B98006B78B1FFE7DD
:1018D0000999D1F8840840F00B00C1F884080999EF
:1018E000D1F8440840F00B00C1F844080FE0099912
:1018F000D1F8140842F22B021043C1F814080999D8
:10190000D1F8100840F00B00C1F81008FFE7099962
:10191000D1F8000820F4FE60C1F800080B9A1068A6
:10192000117C02F5717206F045F90B98016848695F
:1019300000F480504861FFE70B98006806F0CCFC8B
:10194000800400281FD5FFE70B98006805F038FDDC
:101950000B98006806F02EFC0B99C8600B98006885
:10196000019000F045FF014601980B9A127B06F0AA
:10197000B9FD0B9800F05EFA0B980168486900F415
:1019800000504861FFE70B98006806F0A5FC0007CF
:1019900000280AD5FFE70B9800F072FA0B9801684F
:1019A000486900F008004861FFE70B98006806F0FE
:1019B00093FCC00200280ED5FFE7002004900B988E
:1019C0009DF8101000F050F80B980168486900F479
:1019D00080104861FFE70B98006806F07DFC8002EC
:1019E00000280ED5FFE7002004900B989DF81010FA
:1019F00000F048F80B980168486900F4001048614D
:101A0000FFE70B98006806F067FC400000280AD545
:101A1000FFE70B98FFF760FA0B980168486900F040
:101A200080404861FFE70B98006806F055FC4007CE
:101A3000002815D5FFE70B980068406802909DF8D4
:101A400008004007002804D5FFE70B98FFF776FA57
:101A5000FFE7029A0B980168486810434860FFE767
:101A6000FFE70CB080BD000080B582B001908DF81A
:101A700003100198D0F804049DF8031004F042FE0E
:101A800002B080BD80B582B001908DF8031001983E
:101A9000D0F804049DF8031004F060FE02B080BD8D
:101AA0002DE9F04F95B01390139820B9FFE701206E
:101AB0008DF8530051E1139800681290139890F834
:101AC000BD0340B9FFE71399002081F8BC031398C8
:101AD00000F048F9FFE71399032081F8BD0312983D
:101AE000C06BC005002804D4FFE7139900200861EB
:101AF000FFE71398006805F05BFF13980E900168EC
:101B00000F9141688268C368D0F810C04469856944
:101B1000C669076AD0F82480D0F82890D0F82CA0A5
:101B2000D0F830B0D0F834E068461090C0F824E027
:101B30000F98DDF840E0CEF820B0CEF81CA0CEF82B
:101B40001890CEF81480CEF81070CEF80C60CEF855
:101B50000850CEF80440CEF800C005F047FC40B174
:101B6000FFE71399022081F8BD0301208DF853008F
:101B7000F3E01398006800210D9106F015FC0D9814
:101B80008DF84700FFE79DF84700139949688842A0
:101B900045D2FFE713989DF84710C1EBC10100EB58
:101BA0008101012081F83D009DF847001399C0EBA9
:101BB000C00201EB820181F83C009DF847001399B7
:101BC000C0EBC00201EB8201A1F8420013989DF81E
:101BD0004710C1EBC10100EB8101002081F83F00FB
:101BE00013999DF84720C2EBC20201EB82014864C1
:101BF00013999DF84720C2EBC20201EB8201886471
:101C000013999DF84720C2EBC20201EB82010865DF
:101C1000FFE79DF8470001308DF84700B3E700204B
:101C20008DF84700FFE79DF84700139949688842FF
:101C30003ED2FFE713989DF84710C1EBC10100EBBE
:101C40008101002081F8FD019DF84710139AC1EB36
:101C5000C10302EB830282F8FC1113999DF847201F
:101C6000C2EBC20201EB820181F8FF0113999DF8DA
:101C70004720C2EBC20201EB8201C1F804021399B2
:101C80009DF84720C2EBC20201EB8201C1F80802B5
:101C900013999DF84720C2EBC20201EB8201C1F803
:101CA0001002FFE79DF8470001308DF84700BAE7C2
:101CB00013980A9001680B9141688268C368D0F854
:101CC00010C044698569C669076AD0F82480D0F8D5
:101CD0002890D0F82CA0D0F830B0D0F834E0684686
:101CE0000C90C0F824E00B98DDF830E0CEF820B07E
:101CF000CEF81CA0CEF81890CEF81480CEF8107054
:101D0000CEF80C60CEF80850CEF80440CEF800C0F3
:101D100005F0F2FC40B1FFE71399022081F8BD0302
:101D200001208DF8530018E01399002081F8380045
:101D30001399012081F8BD031398406A012804D14A
:101D4000FFE71398FFF74CF8FFE71398006805F0DA
:101D5000BDFC00208DF85300FFE79DF8530015B03F
:101D6000BDE8F08F80B5A0B01F9000201E901D90A0
:101D70001C901B901A9004A85821FEF769FB1F982D
:101D80000068B0F1A04F53D1FFE72020049000205D
:101D9000109004A800F018F918B1FFE7FEF780FCD6
:101DA000FFE7FFE70020039043F63000C4F2020093
:101DB000016841F001010160006800F0010003903A
:101DC0000398FFE74FF4C0501A9002201B900020A8
:101DD0001C9003201D900A201E900020C4F20200D7
:101DE0001AA9FEF749FDFFE743F63401C4F20201E8
:101DF000086840F080000860FFE70020029043F68A
:101E00004400C4F20200016841F4804101600068AE
:101E100000F4804002900298FFE7FFE74320019022
:101E200000221146FEF7BAFF0198FEF7ADFFFFE76B
:101E300020B080BD80B582B0019001208DF80300F4
:101E40000198C068022803D0FFE7FEF729FCFFE7EE
:101E50000198D0F804049DF8031004F07DFD01986A
:101E6000D0F8040404F0EEFC02B080BD80B582B06E
:101E700001900198D0F8040404F034FD02B080BD54
:101E800080B582B001900198D0F8040404F03CFDC4
:101E900002B080BD80B584B002908DF80710FFE7D6
:101EA000029890F8BC03012804D1FFE702208DF8C6
:101EB0000F001AE00299012081F8BC03FFE7FFE759
:101EC0009DF80700029981F83800029800689DF893
:101ED000071006F0D9FAFFE70299002081F8BC0349
:101EE000FFE700208DF80F00FFE79DF80F0004B01A
:101EF00080BD000080B582B001900199D1F8040442
:101F000001F5717104F052FD02B080BD80B584B05E
:101F10000290029800680190FFE7029890F8BC03D5
:101F2000012804D1FFE702208DF80F0027E0029975
:101F3000012081F8BC03FFE7FFE70298806A0128CF
:101F40000BD1FFE702988069012806D0FFE70199CD
:101F5000886B40F480308863FFE70298006806F0E1
:101F6000CFF80298006805F09BFBFFE7029900207C
:101F700081F8BC03FFE700208DF80F00FFE79DF814
:101F80000F0004B080BD000080B582B001900198C0
:101F9000D0F8040404F08CFD01980168D1F8000E1B
:101FA00040F00100C1F8000E0198006A48B1FFE757
:101FB0004EF61051CEF20001086840F006000860AD
:101FC000FFE702B080BD000080B588B00690002019
:101FD000059004900390029006980078C00798B18D
:101FE000FFE743F68C01C4F20201086820F0C060EC
:101FF000069AD269104308600698C06918B9FFE7CD
:1020000001200290FFE7FFE706980078800700288C
:1020100013D5FFE743F68C01C4F20201086820F0F3
:10202000C050069A126A104308600698006A18B9F0
:10203000FFE701200290FFE7FFE70698407880065F
:10204000002829D5FFE743F68C01C4F20201086895
:1020500020F44010069A926C104308600698806C39
:1020600018B9FFE701200290FFE70698806CB0F5F1
:10207000001F10D1FFE743F68C01C4F2020108688B
:1020800020F4F850069A53696FF0FF0202EB032226
:1020900010430860FFE7FFE70698407840060028F5
:1020A00029D5FFE743F68C01C4F20201086820F449
:1020B0004000069AD26C104308600698C06C18B9AC
:1020C000FFE701200290FFE70698C06CB0F5000F13
:1020D00010D1FFE743F68C01C4F20201086820F436
:1020E000F850069A53696FF0FF0202EB0322104387
:1020F0000860FFE7FFE7069800780007002840F136
:10210000AD80FFE7FFE70020019043F64000C4F2F6
:102110000200016841F080510160006800F08050C9
:1021200001900198FFE747F20001C4F2000108683E
:1021300040F480700860FEF799FD0590FFE747F2D4
:102140000000C4F200000068C00500280CD4FFE7BE
:10215000FEF78CFD0599401A032804D3FFE70320FE
:102160008DF81F0005E2EAE743F67000C4F20200B2
:10217000006800F440700490049800283ED0FFE707
:1021800004980699496A01F44071884236D0FFE705
:1021900043F67000C4F20200016821F4407104911A
:1021A00040F64062C4F24722012111600021116013
:1021B000049901600068C007F8B1FFE7FEF756FD1B
:1021C0000590FFE743F67000C4F20200006800F0DB
:1021D00002010020B0EB510F0ED1FFE7FEF746FDE4
:1021E0000599401A41F28931884204D3FFE7032060
:1021F0008DF81F00BDE1E5E7FFE7FFE7FFE7069881
:10220000406A00F44070B0F5407F11D1FFE743F61B
:102210000801C4F20201086820F4F810069A526A14
:102220004FF6FF43C0F6FF731A401043086008E002
:1022300043F60801C4F20201086820F4F8100860AF
:10224000FFE70698426A6FF31F3243F67001C4F24B
:102250000201086810430860FFE7FFE7069800786E
:102260004007002809D5FFE7069890F8540041F28E
:10227000E011C4F247210860FFE706980078C00625
:1022800000280CD5FFE743F69401C4F20201086868
:1022900020F44000069AD26A10430860FFE70698CF
:1022A00000788006002815D5FFE743F69401C4F2B4
:1022B0000201086820F00060069A126B1043086063
:1022C0000698006BB0F1006F03D1FFE70120029088
:1022D000FFE7FFE706980078400600280CD5FFE7E7
:1022E00043F69401C4F20201086820F08050069A77
:1022F000926A10430860FFE70298012806D0FFE7C2
:1023000006980068802840F0D780FFE76821C4F273
:10231000472100200860FEF7A9FC0590FFE743F67F
:102320000000C4F20200006800F000610020B0EB81
:10233000D16F0CD0FFE7FEF799FC0599401A0328EE
:1023400004D3FFE703208DF81F0012E1E7E70698AA
:10235000006D41F2D801C4F2472108600698007868
:10236000C00720B1FFE70698C06930B3FFE70698C1
:1023700000788007002804D5FFE70698006AE0B1DE
:10238000FFE7069800788006002806D5FFE7069844
:10239000006BB0F1006F10D0FFE7069800784006A0
:1023A00000281BD5FFE70698806AB8B9FFE70698B2
:1023B000006BB0F1006F11D1FFE7069948688B6898
:1023C000CA68096940EA831040EA026040EA017085
:1023D00043F68401C4F202010860FFE706984078E2
:1023E0008006002804D5FFE70698806C50B1FFE70F
:1023F000069840784006002825D5FFE70698C06C6F
:1024000008BBFFE743F68401C4F202010868C0F389
:1024100003600390069A50689368126940EA83103B
:10242000039B40EA036040EA0270086043F68C01B7
:10243000C4F20201086820F01F00069A9269013A6E
:1024400010430860FFE7069800780006002811D5C1
:10245000FFE7069948688B68CA68096940EA8310F3
:1024600040EA026040EA017043F68401C4F20201CE
:102470000860FFE76821C4F2472101200860FEF7E9
:10248000F5FB0590FFE743F60000C4F20200006888
:1024900000F000610020B0EBD16F0CD1FFE7FEF738
:1024A000E5FB0599401A032804D3FFE703208DF8C4
:1024B0001F005EE0E7E7FFE706984078C00760B1DD
:1024C000FFE743F68C01C4F20201086820F00040E7
:1024D000069A526B10430860FFE706984078800721
:1024E00000280CD5FFE743F68C01C4F2020108680E
:1024F00020F40040069A926B10430860FFE70698AC
:102500004078400700280CD5FFE743F68C01C4F261
:102510000201086820F00040069AD26B1043086060
:10252000FFE706984078000700280CD5FFE743F640
:102530008C01C4F20201086820F48040069A126CF3
:1025400010430860FFE706984078C00600280CD5C5
:10255000FFE743F69401C4F20201086820F040400E
:10256000069A526C10430860FFE700208DF81F00A8
:10257000FFE79DF81F0008B080BD00007047000015
:1025800080B584B002900191029820B9FFE7012044
:102590008DF80F0021E1019843F60041C4F20201D9
:1025A000096801F00701884212D9FFE7019943F653
:1025B0000040C4F202000170006800F007000199B9
:1025C000884204D0FFE701208DF80F0005E1FFE706
:1025D00002980078800700282AD5FFE70298007843
:1025E0004007002809D5FFE743F60801C4F20201BD
:1025F000086840F4E0500860FFE7029800780007A0
:10260000002809D5FFE743F60801C4F20201086873
:1026100040F460400860FFE743F60801C4F202019D
:10262000086820F0F000029A926810430860FFE703
:1026300002980078C00700286ED0FFE70298406833
:10264000012811D1FFE743F60000C4F20200006840
:1026500000F400310020B0EB514F04D1FFE701201E
:102660008DF80F00B9E02CE002984068022805D0F0
:10267000FFE702984068032811D1FFE743F6000006
:10268000C4F20200006800F000710020B0EB516F4E
:1026900004D1FFE701208DF80F009EE010E043F623
:1026A0000000C4F20200006800F002010020B0EB5C
:1026B000510F04D1FFE701208DF80F008DE0FFE7F7
:1026C000FFE743F60801C4F20201086820F00300A6
:1026D000029A526810430860FEF7C8FA0090FFE7BC
:1026E00043F60800C4F20200006800F00C000299F2
:1026F0004968B0EB810F0ED0FFE7FEF7B7FA0099FB
:10270000401A41F28931884204D3FFE703208DF853
:102710000F0062E0E4E7FFE7019843F60041C4F2EE
:102720000201096801F00701884212D2FFE701990E
:1027300043F60040C4F202000170006800F0070098
:102740000199884204D0FFE701208DF80F0044E092
:10275000FFE702980078400700280CD5FFE743F612
:102760000801C4F20201086820F4E050029AD2681D
:1027700010430860FFE702980078000700280DD595
:10278000FFE743F60801C4F20201086820F4604044
:10279000029A126940EAC2000860FFE700F052F8AE
:1027A00043F60801C4F202010968C9B20A0948F6F1
:1027B0003631C0F60001895CC84040F21C01C2F20B
:1027C0000001086040F27C10C2F200000068FEF7D1
:1027D0007DFA00208DF80F00FFE79DF80F0004B090
:1027E00080BD00004C21C4F24721012008607047E1
:1027F00040F21C00C2F200000068704780B5FFF78D
:10280000F7FF43F60801C4F202010968C1F382220E
:1028100048F64631C0F60001895CC84080BD000022
:1028200080B5FFF7E5FF43F60801C4F2020109682D
:1028300089B24A0B48F64631C0F60001895CC840AF
:1028400080BD000080B586B0002005900490039004
:10285000029043F60800C4F20200006800F00C0089
:102860000146019140B1FFE7019804280AD0FFE733
:10287000019808280CD04FE042F20040C0F2F4006A
:1028800002904FE041F60030C0F2B700029049E0FC
:1028900043F60400C4F20200016801F03F01059113
:1028A00000684002002813D5FFE743F60400C4F295
:1028B00002000068C0F3881041F60031C0F2B70191
:1028C000A0FB0101059A0023FDF716FD049012E01C
:1028D00043F60400C4F202000068C0F3881042F21C
:1028E0000041C0F2F401A0FB0101059A0023FDF7AD
:1028F00003FD0490FFE743F60400C4F20200006801
:1029000000F44031022000EBD13003900498039989
:10291000B0FBF1F0029005E042F20040C0F2F4009A
:102920000290FFE7029806B080BD000080B543F634
:102930000C00C4F2020000680006002809D5FFE779
:10294000FFF71CFE43F60E01C4F20201802008705E
:10295000FFE780BD80B586B00490049820B9FFE7FA
:1029600001208DF817005CE304980078C007002868
:1029700000F0A580FFE743F60800C4F202000068FB
:1029800000F00C00042813D0FFE743F60800C4F25F
:102990000200006800F00C0008281ED1FFE743F693
:1029A0000400C4F2020000684002002815D5FFE7C9
:1029B00043F60000C4F20200006800F40031002079
:1029C000B0EB514F08D0FFE70498406820B9FFE70B
:1029D00001208DF8170024E370E0FFE704984068B9
:1029E000B0F5803F09D1FFE743F60001C4F20201D0
:1029F000086840F48030086020E004984068B0F532
:102A0000A02F0DD1FFE743F60001C4F202010868D0
:102A100040F480200860086840F4803008600CE0D2
:102A200043F60001C4F20201086820F48030086017
:102A3000086820F480200860FFE7FFE7FFE70498BC
:102A40004068E8B1FFE7FEF711F90390FFE743F6AE
:102A50000000C4F20200006800F400310020B0EB76
:102A6000514F0CD1FFE7FEF701F90399401A652891
:102A700004D3FFE703208DF81700D2E2E7E71CE05C
:102A8000FEF7F4F80390FFE743F60000C4F20200FB
:102A9000006800F400310020B0EB514F0CD0FFE78C
:102AA000FEF7E4F80399401A652804D3FFE70320F2
:102AB0008DF81700B5E2E7E7FFE7FFE7FFE70498C7
:102AC00000788007002840F19680FFE743F6080071
:102AD000C4F20200006810F00C0F13D0FFE743F6B9
:102AE0000800C4F20200006800F00C0008282CD195
:102AF000FFE743F60400C4F2020000684002002829
:102B000023D4FFE743F60000C4F20200006800F09F
:102B100002010020B0EB510F09D0FFE70498C06814
:102B2000012804D0FFE701208DF8170079E243F671
:102B30000001C4F20201086820F0F800049A12694A
:102B400040EAC2000860FFE754E00498C06870B330
:102B5000FFE70021C4F2472101200860FEF786F854
:102B60000390FFE743F60000C4F20200006800F0A3
:102B700002010020B0EB510F0CD1FFE7FEF776F811
:102B80000399401A032804D3FFE703208DF81700A8
:102B900047E2E7E743F60001C4F20201086820F0CB
:102BA000F800049A126940EAC200086021E000219E
:102BB000C4F2472100200860FEF758F80390FFE7B1
:102BC00043F60000C4F20200006800F00201002099
:102BD000B0EB510F0CD0FFE7FEF748F80399401A0D
:102BE000032804D3FFE703208DF8170019E2E7E775
:102BF000FFE7FFE7FFE704980078000700284BD5C0
:102C0000FFE70498406918B3FFE740F68061C4F21B
:102C1000472101200860FEF729F80390FFE743F6FB
:102C20007400C4F20200006800F002010020B0EB62
:102C3000510F0CD1FFE7FEF719F80399401A03284A
:102C400004D3FFE703208DF81700EAE1E7E722E06D
:102C500040F68061C4F2472100200860FEF706F8C4
:102C60000390FFE743F67400C4F20200006800F02E
:102C700002010020B0EB510F0CD0FFE7FDF7F6FF8B
:102C80000399401A032804D3FFE703208DF81700A7
:102C9000C7E1E7E7FFE7FFE704980078400700286F
:102CA00040F1CE80FFE700208DF8070043F640009A
:102CB000C4F202000068C000002815D4FFE7FFE757
:102CC0000020009043F64000C4F20200016841F089
:102CD00080510160006800F0805000900098FFE78C
:102CE00001208DF80700FFE747F20000C4F2000062
:102CF0000068C005002822D4FFE747F20001C4F2B3
:102D00000001086840F480700860FDF7AFFF039091
:102D1000FFE747F20000C4F200000068C005002889
:102D20000CD4FFE7FDF7A2FF0399401A032804D350
:102D3000FFE703208DF8170073E1EAE7FFE7FFE7FD
:102D400004988068012809D1FFE743F67001C4F2B6
:102D50000201086840F0010008601FE004988068E4
:102D600005280DD1FFE743F67001C4F2020108689F
:102D700040F004000860086840F0010008600CE0C2
:102D800043F67001C4F20201086820F001000860F7
:102D9000086820F004000860FFE7FFE7FFE70498F9
:102DA0008068F8B1FFE7FDF761FF0390FFE743F6A6
:102DB0007000C4F20200006800F002010020B0EBD5
:102DC000510F0ED1FFE7FDF751FF0399401A41F271
:102DD0008931884204D3FFE703208DF8170020E1F2
:102DE000E5E71EE0FDF742FF0390FFE743F67000C2
:102DF000C4F20200006800F002010020B0EB510FA5
:102E00000ED0FFE7FDF732FF0399401A41F28931F6
:102E1000884204D3FFE703208DF8170001E1E5E7BE
:102E2000FFE79DF80700012809D1FFE743F64001BD
:102E3000C4F20201086820F080500860FFE7FFE755
:102E400004988069002800F0E880FFE743F6080056
:102E5000C4F20200006800F00C00082800F088802E
:102E6000FFE70498806902285FD1FFE76021C4F280
:102E7000472100200860FDF7F9FE0390FFE743F6C5
:102E80000000C4F20200006800F000710020B0EB06
:102E9000516F0CD0FFE7FDF7E9FE0399401A0328B4
:102EA00004D3FFE703208DF81700BAE0E7E70499A1
:102EB000C869D1F820C04B6A8A6A40EA0C0040EA2F
:102EC0008310D2034FF6FF739A43A2F5803210436A
:102ED000CA6A40EA0260096B40EA017043F60401E5
:102EE000C4F2020108606021C4F247210120086099
:102EF000FDF7BCFE0390FFE743F60000C4F20200BA
:102F0000006800F000710020B0EB516F0CD1FFE7BA
:102F1000FDF7ACFE0399401A032804D3FFE7032012
:102F20008DF817007DE0E7E721E06021C4F247213A
:102F300000200860FDF79AFE0390FFE743F60000CB
:102F4000C4F20200006800F000710020B0EB516F85
:102F50000CD0FFE7FDF78AFE0399401A032804D33B
:102F6000FFE703208DF817005BE0E7E7FFE753E09A
:102F700004988069012804D1FFE701208DF817002B
:102F80004FE043F60400C4F2020000680290049887
:102F9000806901283AD0FFE7029800F48000049984
:102FA000C969884232D1FFE7029800F03F000499D6
:102FB000096A88422AD1FFE7029847F6C0710840A3
:102FC0000499496AB0EB811F20D1FFE7029800F411
:102FD00040300499896AC9034FF6FF729143A1F505
:102FE0008031884212D1FFE7029800F070600499A6
:102FF000C96AB0EB016F09D1FFE7029800F0E04029
:103000000499096BB0EB017F04D0FFE701208DF834
:10301000170006E0FFE7FFE7FFE700208DF8170045
:10302000FFE79DF8170006B080BD000080B584B0B2
:103030000290029820B9FFE701208DF80F0071E09F
:103040000298406A60B9FFE702984068B0F5827F55
:1030500001D1FFE703E002990020C861FFE705E026
:1030600002990020086102994861FFE70299002057
:103070008862029890F8510040B9FFE70299002059
:1030800081F85000029800F051F8FFE70299022001
:1030900081F8510002980168086820F0400008603B
:1030A000029A019211685068D2F808C0D36800F4FF
:1030B00082700CF4044C604403F4006318441369F8
:1030C00003F002031844536903F0010318449369A1
:1030D00003F400731844D36903F038031844136AE7
:1030E00003F080031843926A02F400521043086010
:1030F000029A508B00F004001168526A02F010022C
:103100001044486002980168C86920F40060C861F2
:10311000029900204865029A012182F851108DF829
:103120000F00FFE79DF80F0004B080BD80B588B0A8
:103130000790002006900590049003900290079855
:10314000006843F20001C4F20101884233D1FFE775
:10315000FFE70020019043F64400C4F2020001683A
:1031600041F480510160006800F4805001900198A2
:10317000FFE7FFE70020009043F63000C4F20200B2
:10318000016841F001010160006800F00100009059
:103190000098FFE7E02002900220039000200490B6
:1031A00003200590052006900020C4F2020002A929
:1031B000FDF762FBFFE708B080BD000080B588B076
:1031C00006900591ADF81220039300208DF80700BA
:1031D00006984068B0F5827F16D1FFE706988068B0
:1031E00090B9FFE70699042081F851000698059AE6
:1031F000BDF812300399EC46CCF80010114600F0EF
:1032000037FA8DF81F00EDE0FFE7069890F85000C0
:10321000012804D1FFE702208DF81F00E2E00699A3
:10322000012081F85000FFE7FFE7FDF71FFD029046
:10323000069890F85100012804D0FFE702208DF88D
:103240000700C0E0059820B1FFE7BDF8120020B9E3
:10325000FFE701208DF80700B5E00699042081F80A
:1032600051000699002048650599069A9163BDF8BA
:103270001210069A9187BDF81210069AD187069906
:103280000863069988860699C8860699086406998F
:10329000486406988068B0F5004F0DD1FFE70698A6
:1032A0000168086820F04000086006980168086816
:1032B00020F480400860FFE706980068006800F08E
:1032C0004000402807D0FFE706980168086840F0F2
:1032D00040000860FFE70698C06880BBFFE7FFE793
:1032E0000698C08F50B3FFE7069800688068C00753
:1032F00078B1FFE706980068007B0699896B087033
:103300000699886B013088630699C88F0138C88791
:1033100013E0FDF7ABFC0299401A0399884204D3ED
:10332000FFE70398013018B9FFE7039820B9FFE7DA
:1033300003208DF8070046E0FFE7D1E72FE0FFE725
:103340000698C08F50B3FFE7069800688068C007F2
:1033500078B1FFE706980068C0680699896B088015
:103360000699886B023088630699C88F0138C88730
:1033700013E0FDF77BFC0299401A0399884204D3BD
:10338000FFE70398013018B9FFE7039820B9FFE77A
:1033900003208DF8070016E0FFE7D1E7FFE7069866
:1033A0000399029A01F0FAFB20B1FFE70699202069
:1033B0004865FFE70698406D20B1FFE701208DF8D2
:1033C0000700FFE7FFE70699012081F85100FFE7BA
:1033D0000699002081F85000FFE79DF807008DF85E
:1033E0001F00FFE79DF81F0008B080BD80B588B0C2
:1033F00006900591ADF81220039300208DF8070088
:10340000FFE7069890F85000012804D1FFE702205A
:103410008DF81F0028E10699012081F85000FFE790
:10342000FFE7FDF723FC0290BDF81200ADF80400A1
:10343000069890F85100012804D0FFE702208DF88B
:10344000070002E1059820B1FFE7BDF8120020B99E
:10345000FFE701208DF80700F7E00699032081F8C7
:1034600051000699002048650599069A1163BDF838
:103470001210069A9186BDF81210069AD186069906
:103480008863069988870699C887069948640699CB
:10349000086406988068B0F5004F0DD1FFE70698E4
:1034A0000168086820F04000086006980168086814
:1034B00040F480400860FFE706980068006800F06C
:1034C0004000402807D0FFE706980168086840F0F0
:1034D00040000860FFE70698C068B0F5006F47D16C
:1034E000FFE70698406828B1FFE7BDF8040001280F
:1034F0000ED1FFE706980168006B0088C860069946
:10350000086B023008630699C88E0138C886FFE749
:10351000FFE70698C08E50B3FFE706980068806802
:10352000800700280ED5FFE706980168006B008829
:10353000C8600699086B023008630699C88E013886
:10354000C88613E0FDF792FB0299401A039988425E
:1035500004D3FFE70398013018B9FFE7039820B9B7
:10356000FFE703208DF807006FE0FFE7D1E746E0B3
:103570000698406828B1FFE7BDF8040001280ED185
:10358000FFE706980168006B007808730699086BDE
:10359000013008630699C88E0138C886FFE7FFE747
:1035A0000698C08E50B3FFE70698006880688007D1
:1035B00000280ED5FFE706980168006B00780873B5
:1035C0000699086B013008630699C88E0138C886D1
:1035D00013E0FDF74BFB0299401A0399884204D38C
:1035E000FFE70398013018B9FFE7039820B9FFE718
:1035F00003208DF8070028E0FFE7D1E7FFE70698F2
:103600000399029A01F03CFB20B1FFE706992020C4
:103610004865FFE70698806870B9FFE7FFE700207C
:10362000009006980068C06800900698006880685E
:1036300000900098FFE7FFE70698406D20B1FFE794
:1036400001208DF80700FFE7FFE70699012081F8C8
:103650005100FFE70699002081F85000FFE79DF830
:1036600007008DF81F00FFE79DF81F0008B080BD20
:1036700080B58EB0DDF840C00C900B910A92ADF889
:1036800026300120059000208DF81300FFE70C98EC
:1036900090F85000012804D1FFE702208DF8370090
:1036A00095E10C99012081F85000FFE7FFE7FDF755
:1036B000DDFA06900C9890F851008DF81F000C98D8
:1036C00040680890BDF82600ADF824009DF81F0062
:1036D000012812D0FFE70898B0F5827F09D1FFE7F3
:1036E0000C98806828B9FFE79DF81F00042804D0D3
:1036F000FFE702208DF813005AE10B9838B1FFE77D
:103700000A9820B1FFE7BDF8260020B9FFE70120A5
:103710008DF813004CE10C9890F85100042805D066
:10372000FFE70C99052081F85100FFE70C99002074
:1037300048650A990C9A9163BDF826100C9AD187B6
:10374000BDF826100C9A91870B990C9A1163BDF85D
:1037500026100C9AD186BDF826100C9A91860C99E9
:1037600008640C9948640C980068006800F04000F8
:10377000402807D0FFE70C980168086840F0400037
:103780000860FFE70C98C068B0F5006F76D1FFE7DE
:103790000C98406828B1FFE7BDF8240001280ED13D
:1037A000FFE70C980168006B0088C8600C99086BF3
:1037B000023008630C99C88E0138C886FFE7FFE71E
:1037C0000C98C18E0120029039B9FFE70C98C08F88
:1037D000002818BF01200290FFE70298C0070028C8
:1037E0004BD0FFE70C98006880688007002818D548
:1037F000FFE70C98C08EA0B1FFE70598012810D113
:10380000FFE70C980168006B0088C8600C99086B92
:10381000023008630C99C88E0138C88600200590D4
:10382000FFE70C9800688068C007A8B1FFE70C9814
:10383000C08F88B1FFE70C980068C0680C99896B4D
:1038400008800C99886B023088630C99C88F013806
:10385000C88701200590FFE7FDF708FA0699401A8E
:103860001099884208D3FFE71098013020B1FFE794
:1038700003208DF813009BE0A2E778E00C984068E5
:1038800028B1FFE7BDF8240001280ED1FFE70C980E
:103890000168006B007808730C99086B01300863AD
:1038A0000C99C88E0138C886FFE7FFE70C98C18ED7
:1038B0000120019039B9FFE70C98C08F002818BF8C
:1038C00001200190FFE70198C00700284ED0FFE7D4
:1038D0000C98006880688007002818D5FFE70C98CE
:1038E000C08EA0B1FFE70598012810D1FFE70C9822
:1038F0000168006B007808730C99086B013008634D
:103900000C99C88E0138C88600200590FFE70C98F6
:1039100000688068C007A8B1FFE70C98C08F88B125
:10392000FFE70C980068C0680C99896B08700C99C7
:10393000886B013088630C99C88F0138C8870120D3
:103940000590FFE7FDF792F90699401A1099884211
:1039500004D3FFE71098013018B9FFE7109820B999
:10396000FFE703208DF8130022E09FE7FFE70C98A4
:103970001099069A01F084F938B1FFE701208DF81B
:1039800013000C992020486512E00C98806870B9EB
:10399000FFE7FFE7002003900C980068C0680390E1
:1039A0000C980068806803900398FFE7FFE7FFE743
:1039B0000C99012081F85100FFE70C99002081F853
:1039C0005000FFE79DF813008DF83700FFE79DF8E2
:1039D00037000EB080BD000080B582B00190019824
:1039E00001F054FA02B080BD80B586B00490039116
:1039F000ADF80A20049890F83E0020285BD1FFE73C
:103A0000039820B1FFE7BDF80A0020B9FFE70120C5
:103A10008DF8170053E0FFE7049890F83C00012868
:103A200004D1FFE702208DF8170048E00499012037
:103A300081F83C00FFE7FFE7049901200863049840
:103A40000399BDF80A2001F091FC8DF809009DF85A
:103A5000090058BBFFE70498006B012821D1FFE75C
:103A6000FFE7002001900498006800680190049826
:103A70000068406801900198FFE7FFE7FFE70498BE
:103A8000006850E8030F40F010000090FFE7009935
:103A90000498026842E803100028F0D1FFE7FFE72E
:103AA00003E001208DF80900FFE7FFE79DF809001A
:103AB0008DF8170003E002208DF81700FFE79DF84E
:103AC000170006B080BD000080B582B00190ADF84F
:103AD000021045F2FD50ADF80000BDF8020041F6BD
:103AE0006061C2F2000108600198006844F600417C
:103AF000C4F20001884232D1FFE740F2E010C2F286
:103B0000000040F27611C2F200010122FCF76CFCC9
:103B1000C8B1FFE741F21060C2F20000BDF800102A
:103B2000018040F2E012C2F2000251894181D2F8D4
:103B30000210D2F80620C0F80620C0F802100C21AE
:103B4000FCF77CFDFFE741F6D850C2F2000040F2DE
:103B5000E011C2F200010C22FFF746FFFFE702B0BE
:103B600080BD000081B0009001B0704780B592B078
:103B70001190119800680068109011980068C06852
:103B80000F901198006840690E9000200D900C90E5
:103B9000109800F00F000D900D9888B9FFE79DF880
:103BA0004000800600280AD5FFE79DF83C0080060B
:103BB000002804D5FFE7119801F076FAE3E1FFE76A
:103BC0000D98002800F0C280FFE79DF83800C0077C
:103BD00038B9FFE7BDF83C0010F4907F00F0B680E4
:103BE000FFE79DF84000C00758B1FFE79DF83D0092
:103BF000C00730B1FFE71199086C40F0010008647C
:103C0000FFE79DF84000400700280BD5FFE79DF82F
:103C10003800C00730B1FFE71199086C40F002008E
:103C20000864FFE79DF84000800700280BD5FFE7F8
:103C30009DF83800C00730B1FFE71199086C40F0DB
:103C400004000864FFE79DF840000007002811D534
:103C5000FFE79DF83C008006002805D4FFE79DF8AB
:103C60003800C00730B1FFE71199086C40F0080038
:103C70000864FFE71198006C002866D0FFE79DF804
:103C80004000800600280AD5FFE79DF83C0080062A
:103C9000002804D5FFE7119801F006FAFFE7119814
:103CA00000684069C0F380100C901198006C000708
:103CB000002804D4FFE70C9800283ED0FFE71198B5
:103CC00001F094F9119800684069400600282FD54A
:103CD000FFE7FFE7FFE71198006850E8050F20F0C5
:103CE00040000B90FFE70B991198026842E805101D
:103CF0000028F0D1FFE7FFE71198806B98B1FFE74C
:103D00001198816B44F6CD70C0F6000008651198DB
:103D1000806BFCF76DFD28B1FFE71198806B016D9A
:103D20008847FFE703E01198FFF71CFFFFE703E078
:103D30001198FFF717FFFFE706E01198FFF712FF52
:103D4000119900200864FFE7FFE71CE11198006B60
:103D5000012840F0F880FFE79DF84000C0060028E9
:103D600040F1F180FFE79DF83C00C006002840F1DB
:103D7000EA80FFE7FFE700200A90119800680068DA
:103D80000A901198006840680A900A98FFE7119815
:103D900000684069400600287ED5FFE71198806BD7
:103DA00000684068ADF82600BDF82600002872D0F3
:103DB000FFE7BDF826001199898D88426BDAFFE78D
:103DC000BDF826001199C8851198806BC069B0F5BF
:103DD000807F58D0FFE7FFE7FFE71198006850E8C1
:103DE000030F20F480700890FFE70899119802688B
:103DF00042E803100028F0D1FFE7FFE7FFE7FFE705
:103E00001198006850E8050F20F001000790FFE7C7
:103E100007991198026842E805100028F0D1FFE7E1
:103E2000FFE7FFE7FFE71198006850E8050F20F073
:103E300040000690FFE706991198026842E80510D5
:103E40000028F0D1FFE7FFE71199202081F83E001C
:103E5000119900200863FFE7FFE71198006850E818
:103E6000030F20F010000590FFE7059911980268F4
:103E700042E803100028F0D1FFE7FFE71198806BBC
:103E8000FCF740FCFFE71198818DC28D891A89B239
:103E9000FFF71AFEFFE776E01199888DC98D401A69
:103EA000ADF812001198C08D00284BD0FFE7BDF887
:103EB0001200002846D0FFE7FFE7FFE711980068EF
:103EC00050E8030F20F490700390FFE703991198D6
:103ED000026842E803100028F0D1FFE7FFE7FFE7A0
:103EE000FFE71198006850E8050F20F001000290EC
:103EF000FFE702991198026842E805100028F0D106
:103F0000FFE7FFE71199202081F83E00119900207A
:103F10000863FFE7FFE71198006850E8030F20F0FF
:103F200010000190FFE701991198026842E8031020
:103F30000028F0D1FFE7FFE71198BDF81210FFF756
:103F4000C3FDFFE71FE09DF84000000600280AD5EA
:103F5000FFE79DF83C000006002804D5FFE7119814
:103F600001F036FA0FE09DF84000400600280AD51F
:103F7000FFE79DF83C004006002804D5FFE71198B4
:103F800001F07EF8FFE712B080BD000080B582B07E
:103F90000090009820B9FFE701208DF807003EE06F
:103FA0000098806908B1FFE700E0FFE7009890F80B
:103FB0003D0040B9FFE70099002081F83C000098DF
:103FC00000F032F8FFE70099242081F83D000098C6
:103FD0000168C86820F40050C860009801F016F924
:103FE00000980168086920F4904008610098016811
:103FF000486920F02A00486100980168C86840F4C8
:104000000050C860009900200864009A202182F8BE
:104010003D10009A82F83E108DF80700FFE79DF8EA
:10402000070002B080BD000080B59CB01B9000204E
:104030001A9019901890179016901B98006844F6E3
:104040000041C4F2000188423CD1FFE7FFE70020B5
:10405000159043F64000C4F20200016841F40021CB
:104060000160006800F4002015901598FFE7FFE755
:104070000020149043F63000C4F20200016841F0C1
:1040800001010160006800F0010014901498FFE73E
:10409000032016900221179100210B91189119907D
:1040A00008201A900020C4F2020016A9FCF7E4FBD5
:1040B0000B9A34200C901146FCF770FE0C98FCF71C
:1040C00063FE01E11B98006841F20001C4F20101A6
:1040D00088423ED1FFE7FFE70020139043F64400FB
:1040E000C4F20200016841F010010160006800F0B4
:1040F000100013901398FFE7FFE70020129043F69B
:104100003000C4F20200016841F002010160006861
:1041100000F0020012901298FFE7C02016900220D3
:1041200017900020099018900320199007201A90EA
:1041300040F20040C4F2020016A9FCF79DFB099A68
:1041400025200A901146FCF729FE0A98FCF71CFE70
:10415000B9E01B98006844F60001C4F200018842EF
:1041600068D1FFE7FFE70020119043F64000C4F25A
:104170000200016841F480210160006800F48020A1
:1041800011901198FFE7FFE70020109043F63000F0
:10419000C4F20200016841F004010160006800F00F
:1041A000040010901098FFE7FFE700200F9043F6FF
:1041B0003000C4F20200016841F0020101600068B1
:1041C00000F002000F900F98FFE7202016900220C9
:1041D00003901790002007901890032004901990E6
:1041E000072005901A9040F60000C4F2020016A9BC
:1041F0000691FCF741FBDDF80CC0049A059806997E
:10420000079B4FF4806ECDF858E0CDF85CC0189352
:1042100019921A9040F20040C4F20200FCF72CFB05
:10422000079A272008901146FCF7B8FD0898FCF77C
:10423000ABFD47E01B98006841F20041C4F2010168
:1042400088423ED1FFE7FFE700200E9043F644008E
:10425000C4F20200016841F020010160006800F032
:1042600020000E900E98FFE7FFE700200D9043F628
:104270003000C4F20200016841F0040101600068EE
:1042800000F004000D900D98FFE7C020169002206A
:1042900017900020019018900320199008201A9080
:1042A00040F60000C4F2020016A9FCF7E5FA019AF4
:1042B000472002901146FCF771FD0298FCF764FD5F
:1042C000FFE7FFE7FFE7FFE71CB080BD81B000908C
:1042D00001B0704784B002900191ADF802200298BD
:1042E00090F83D0020283ED1FFE7019820B1FFE77C
:1042F000BDF8020020B9FFE701208DF80F0036E07D
:10430000FFE7029890F83C00012804D1FFE7022063
:104310008DF80F002BE00299012081F83C00FFE7A7
:10432000FFE7019802990862BDF8020002998884AB
:10433000BDF802000299C88402990020086402991D
:10434000212081F83D00FFE70299002081F83C0020
:10435000FFE702980168C86840F08000C86000204C
:104360008DF80F0003E002208DF80F00FFE79DF8A5
:104370000F0004B07047000081B0009001B070479A
:10438000FFE7FEE783B0029001918DF80320002043
:104390008DF802008DF80200FFE79DF802009DF8FD
:1043A0000310884229DAFFE70298000F092809D88C
:1043B000FFE70298000F303001999DF8022001F8C4
:1043C000120009E00299372000EB117001999DF865
:1043D000022001F81200FFE7029800010290019804
:1043E0009DF8021000EB410100204870FFE79DF8A6
:1043F000020001308DF80200CFE703B070470000E3
:1044000080B594B0002013901290119010900F90EE
:10441000FFE700200E9043F63000C4F2020001686E
:1044200041F004010160006800F004000E900E9855
:10443000FFE7FFE700200D9043F63000C4F20200D2
:10444000016841F080010160006800F080000D907B
:104450000D98FFE7FFE700200C9043F63000C4F210
:104460000200016841F001010160006800F00100F4
:104470000C900C98FFE7FFE700200B9043F630000C
:10448000C4F20200016841F002010160006800F01E
:1044900002000B900B98FFE740F60000C4F2020008
:1044A000059040F6185100220892FCF7C7FB002047
:1044B000C4F2020003904FF4806101220792FCF7DE
:1044C000BDFB0398079A10210291FCF7B7FB0598F2
:1044D000079A4FF400710191FCF7B0FB0199039822
:1044E000079AFCF7ABFB089A40F20040C4F20200C6
:1044F000099020210691FCF7A1FB059808994FF43B
:1045000000520F92109111910FA90A91FCF7B4F982
:104510000598079B089A0A994FF4467CCDF83CC051
:10452000109311921292FCF7A7F90398079B089A2F
:104530000A994FF4C26CCDF83CC0109311921292BC
:10454000FCF79AF9DDF808C00398079B089A0A99C6
:10455000CDF83CC010931192032204921292FCF702
:104560008BF9049A0598DDF81CC0089B0A994FF452
:10457000406ECDF83CE0CDF840C011931292FCF7AC
:104580007BF9DDF818C0079B089A09980A99CDF8BD
:104590003CC0109311921292FCF76EF914B080BDDA
:1045A00080B582B041F6F840C2F20000019043F2BB
:1045B0000001C4F2010101604FF4827141600021E9
:1045C0008160C160016141614FF40072826120220B
:1045D000C2610162416281620A21C162FEF726FD69
:1045E00018B1FFE7FCF75CF8FFE702B080BD000000
:1045F00080B582B041F6D850C2F20000019044F676
:104600000041C4F2000101604FF4E131416000213A
:104610008160C16001610C2242618161C161FFF76B
:10462000B5FC18B1FFE7FCF73BF8FFE702B080BD2F
:1046300080B582B041F65050C2F20000019041F2C4
:104640000001C4F2010101604FF4E1314160002139
:104650008160C16001610C2242618161C161FFF72B
:1046600095FC18B1FFE7FCF71BF8FFE702B080BD2F
:1046700080B582B041F69450C2F20000019044F639
:104680000001C4F2000101604FF496414160002135
:104690008160C16001610C2242618161C161FFF7EB
:1046A00075FC18B1FFE7FBF7FBFFFFE702B080BD29
:1046B00080B582B041F61C60C2F20000019041F268
:1046C0000041C4F2010101604FF4E1314160002179
:1046D0008160C16001610C2242618161C161FFF7AB
:1046E00055FC18B1FFE7FBF7DBFFFFE702B080BD29
:1046F00080B541F22060C2F2000040F20001C2F237
:104700000001002201F0D2FD18B1FFE7FBF7C8FF5E
:10471000FFE741F22060C2F2000040F22001C2F245
:10472000000102F029FA18B1FFE7FBF7B9FFFFE734
:1047300041F22060C2F2000040F24411C2F20001D6
:1047400001F088F818B1FFE7FBF7AAFFFFE741F295
:104750002060C2F2000002F073FB18B1FFE7FBF724
:104760009FFFFFE780BD0000FFE7FEE780B5FEF793
:10477000DDF8FFE7FEE7000088B00790069105929C
:10478000079800F0070004900498C0F1070005287E
:1047900003D3FFE70420019004E00498C0F1070070
:1047A0000190FFE70198039004980430062803D88D
:1047B000FFE70020009003E0049803380090FFE733
:1047C0000098029006980399012202FA01F101393A
:1047D0000840029B984005999A40013A11400843CD
:1047E00008B0704780B541F6F000C2F20000FCF757
:1047F000E7FD80BD80B586B00590049105980068FE
:104800000390039802900398006C01900298049919
:1048100000EB4110D0F8080B0090019843F20B0117
:10482000C4F6547188420FD3FFE79DF801000006DB
:10483000002809D5FFE70298049900EB41114FF4D5
:104840000040C1F8080BFFE70598FDF753FB0198FE
:1048500043F20B01C4F6547188420DD3FFE705986B
:104860000069012808D1FFE70599086801F5717210
:10487000012103F09FF9FFE7002006B080BD000092
:1048800080B586B005900491059800680390039860
:1048900002900398006C01900298049900EB41107B
:1048A000D0F8080B009005980069012840F08F802F
:1048B000FFE79DF800000007002818D5FFE70198E2
:1048C00043F20B01C4F6547188420FD3FFE79DF801
:1048D00001000006002809D5FFE70298049900EBC3
:1048E00041114FF40040C1F8080BFFE76EE09DF85E
:1048F00000008006002808D5FFE70298049900EB25
:1049000041112020C1F8080B5FE09DF8000010F075
:10491000280F58D1FFE7019843F20B01C4F65471F8
:1049200088420FD3FFE79DF801000006002809D553
:10493000FFE70298049900EB41114FF40040C1F8E1
:10494000080B3FE00598049AC2EBC20100EB81001E
:10495000D0F80402029901EB4211D1F8101B6FF359
:10496000DF41401A0599049AC2EBC20201EB8201B1
:10497000C1F8140205980499C1EBC10100EB810153
:10498000D1F80422D1F808021044C1F808020498B2
:1049900090B9FFE705980499C1EBC10100EB8100D4
:1049A000D0F8100240B9FFE70599086801F5717267
:1049B000012103F0FFF8FFE705989DF81010FCF7C0
:1049C000A9FAFFE700E0FFE7FFE7FFE747E001980C
:1049D00043F20A11C4F65471884224D1FFE79DF8CE
:1049E00001000006002809D5FFE70298049900EBB2
:1049F00041114FF40040C1F8080B13E09DF800008E
:104A00008006002808D5FFE70298049900EB4111C1
:104A10002020C1F8080BFFE705989DF81010FCF75F
:104A200079FAFFE71AE0049890B9FFE7059804992E
:104A3000C1EBC10100EB8100D0F8100240B9FFE7E3
:104A40000599086801F57172002103F0B3F8FFE7DA
:104A500005989DF81010FCF75DFAFFE7FFE70020CE
:104A600006B080BD80B58CB00A9009910A980068A4
:104A70000890089807900A980999C1EBC10100EBCA
:104A800081003C300690069841698069884204D9CB
:104A9000FFE701208DF82F0079E0069948698969C0
:104AA000401A0590059806998968884204D9FFE75D
:104AB000069880680590FFE7059803308008049009
:104AC000FFE70798099900EB4110D0F8180981B267
:104AD000049A0020914202900FD3FFE706984269A2
:104AE000816900209142029007D2FFE70698406951
:104AF000002818BF01200290FFE70298C00770B39A
:104B0000FFE7069948698969401A05900598069952
:104B10008968884204D9FFE7069880680590FFE716
:104B2000059803308008049008980699C9689DF894
:104B30002420BDF81430DDF828C09CF810C0EE46E3
:104B4000CEF800C003F0ACFD059A0699C868104481
:104B5000C860059A0699886910448861B1E706998A
:104B60004869896988420ED8FFE7099800F00F016B
:104B7000012088400390039A0799D1F834089043A4
:104B8000C1F83408FFE700208DF82F00FFE79DF8FB
:104B90002F000CB080BD00007047000080B586B0CB
:104BA00004900391029204984068B0F5827F13D17B
:104BB000FFE704988068B0F5004F06D0FFE704983F
:104BC0008068B0F5806F07D1FFE704980168086836
:104BD00020F040000860FFE704984068B0F5827F4D
:104BE00031D1FFE704988068B0F5806F15D0FFE7FA
:104BF0000498039B02996A4611608021002200F00C
:104C000091F848B1FFE70499486D40F020004865ED
:104C100003208DF817002FE014E00498039B0299FD
:104C20006A4611600121002200F07CF848B1FFE7DC
:104C30000499486D40F02000486503208DF8170066
:104C40001AE0FFE714E00498039B02996A4611609A
:104C50000121002200F066F848B1FFE70499486D91
:104C600040F02000486503208DF8170004E0FFE7BE
:104C700000208DF81700FFE79DF8170006B080BDF3
:104C800080B586B004900391029240F21C00C2F2FB
:104C9000000000684AF6AB21CAF6AA21A0FB011069
:104CA00000094DF68361C4F21B31A0FB0110800C9A
:104CB0004FF47A714843019004984068B0F5827FC0
:104CC00015D1FFE70498039B02996A461160802181
:104CD000002200F027F848B1FFE70499486D40F042
:104CE0002000486503208DF8170017E012E0FFE769
:104CF000019808B9FFE70CE0019801380190FFE73F
:104D0000049800688068C1B20020B0EBD11FEFD1D9
:104D1000FFE7FFE700208DF81700FFE79DF8170079
:104D200006B080BD80B58AB0DDF830C0089007912C
:104D30008DF81B20059305980190FBF797FF02461D
:104D400001980C99891A08440390FBF78FFF029091
:104D5000039840F21C01C2F200010968C1F3CB3193
:104D600048430490FFE70898006880680799084066
:104D7000401AB0FA80F040099DF81B1088425ED0BE
:104D8000FFE705980130002858D0FFE7FBF76EFFDA
:104D90000299401A0399884204D2FFE70398002839
:104DA00042D1FFE708980168486820F0E0004860B9
:104DB00008984068B0F5827F13D1FFE708988068B3
:104DC000B0F5004F06D0FFE708988068B0F5806F17
:104DD00007D1FFE708980168086820F040000860E4
:104DE000FFE70898806AB0F5005F0FD1FFE7FFE7A3
:104DF00008980168086820F4005008600898016865
:104E0000086840F400500860FFE7FFE708990120B8
:104E100081F85100FFE70899002081F85000FFE772
:104E200003208DF827000EE0049818B9FFE7002052
:104E30000390FFE7049801380490FFE793E7002010
:104E40008DF82700FFE79DF827000AB080BD00001D
:104E50007047000084B00390039800900098007899
:104E6000ADF8080000980130009000980078ADF887
:104E70000600BDF80610BDF8080040EA0120ADF8B4
:104E80000A00BDF80A0004B07047000080B582B087
:104E9000009000980138B0F1807F03D3FFE7012034
:104EA000019019E0009801384EF21401CEF2000191
:104EB00008604FF0FF300F2103F056FC4EF218014E
:104EC000CEF20001002008604EF21002CEF2000285
:104ED000072111600190FFE7019802B080BD00003A
:104EE00080B5FBF7C9FE80BD80B594B007A834211A
:104EF000FBF7AEFA00200690059004900390029014
:104F0000FFE70020019043F64000C4F20200016870
:104F100041F080510160006800F0805001900198DC
:104F2000FFE7FFE70020009047F20000C4F2000016
:104F3000016841F440410160006800F44040009085
:104F40000098FFE7012007904FF48030089002207E
:104F50000D904FF480010E9106210F916021109168
:104F6000119004211291139007A8FDF7F3FC18B1DA
:104F7000FFE7FBF795FBFFE70F200290022003906D
:104F8000002004904FF480510591069002A803215F
:104F9000FDF7F6FA18B1FFE7FBF782FBFFE7FDF735
:104FA00021FC14B080BD00004EF68851CEF2000105
:104FB000086840F4700008607047000080B541F652
:104FC000D850C2F20000FEF7D1FD80BD80B582B09E
:104FD00001900198806B009000990020C88500998D
:104FE000C8840098FEF7BEFD02B080BD84B0039077
:104FF000FFE7FFE70398006850E8030F20F4907084
:105000000290FFE702990398026842E80310002823
:10501000F0D1FFE7FFE7FFE7FFE70398006850E8FC
:10502000050F20F001000190FFE701990398026845
:1050300042E805100028F0D1FFE7FFE70398006B76
:10504000012814D1FFE7FFE7FFE70398006850E865
:10505000030F20F010000090FFE70099039802680A
:1050600042E803100028F0D1FFE7FFE7FFE70399CC
:10507000202081F83E0003990020086304B07047A7
:1050800080B582B0019001980168C86820F04000A6
:10509000C8600199202081F83D000198FFF76CF964
:1050A000002002B080BD000080B586B00490049856
:1050B00090F83E00222840F0A180FFE70498806825
:1050C000B0F5805F15D1FFE70498006988B9FFE764
:1050D000002003900498806A029004980068406859
:1050E0006FF35F20029908800499886A0230886211
:1050F00025E00498806A039000200290049880685C
:10510000B0F5805F08D0FFE70498806850B9FFE7EA
:105110000498006930B9FFE7049800684068039973
:10512000087007E004980068406800F07F00039969
:105130000870FFE70499886A01308862FFE70499E4
:10514000C88D0138C8850004002853D1FFE70498B2
:105150000168C86820F02000C86004980168C86829
:1051600020F48070C86004980168486920F001004C
:1051700048610499202081F83E000498006B0128C2
:1051800030D1FFE7049900200863FFE7FFE70498A8
:10519000006850E8030F20F010000190FFE701992C
:1051A0000498026842E803100028F0D1FFE7FFE707
:1051B000049800680068C00600280ED5FFE7FFE7E6
:1051C000002000900498006800680090049800682F
:1051D000406800900098FFE7FFE70498818DFEF794
:1051E00073FC03E00498FFF771F8FFE700208DF8E7
:1051F000170007E000208DF8170003E002208DF86B
:105200001700FFE79DF8170006B080BD80B586B097
:10521000059005980068006920F44050059A1168CF
:10522000D26810430861059988680B694A69C969A1
:10523000184310430843049005980068C06849F279
:105240000C6188430499084305990968C86005986A
:105250000068406920F44070059A11689269104313
:1052600048610598006841F20001C4F201018842DA
:105270001BD0FFE70598006841F20041C4F201012C
:10528000884212D0FFE70598006841F60001C4F299
:105290000101884209D0FFE70598006841F6004106
:1052A000C4F20101884204D1FFE7FDF7B9FA039087
:1052B00003E0FDF7A3FA0390FFE70598C069B0F596
:1052C000004F29D1FFE703981921A0FB0101059A9E
:1052D0001368029353685A00DB0FFBF70DF802992D
:1052E000864648F21F53C5F2EB13AEFB032042097A
:1052F00010014FF0640C02FB1CEC322202EBCC02DA
:10530000A2FB0332F82303EA521300EB4300C2F37B
:1053100042121044886026E003981921A0FB010185
:10532000059A1368019353689A009B0FFAF7E4FFFC
:105330000199844648F21F52C5F2EB12ACFB0230D1
:105340004309642003FB10CC322000EB0C10A0FBBF
:105350000202F02000EA521000EB0310C2F34312E5
:1053600010448860FFE706B080BD000083B0029063
:105370000191ADF80220019802998862BDF80200FF
:1053800002998885BDF802000299C885029900201B
:1053900008640299222081F83E00FFE7029900206C
:1053A00081F83C00FFE702980168C86840F480700B
:1053B000C86002980168486940F00100486102989D
:1053C0000168C86840F02000C860002003B0704742
:1053D00083B00190019890F83D0021283AD1FFE771
:1053E00001988068B0F5805F13D1FFE701980069EC
:1053F00078B9FFE70198006A0090009800886FF381
:105400005F200199096848600199086A02300862C2
:1054100008E0019A106A411C11620078019909683C
:105420004860FFE70199C88C0138C884000468B956
:10543000FFE701980168C86820F08000C860019803
:105440000168C86840F04000C860FFE700208DF8A0
:105450000B0003E002208DF80B00FFE79DF80B0026
:1054600003B0704780B541F65050C2F20000FEF71D
:105470007DFB80BD80B541F69450C2F20000FEF77E
:1054800075FB80BD80B541F61C60C2F20000FEF7DE
:105490006DFB80BD80B586B004908DF80F10049828
:1054A000D0F8C40201900498D0F8BC0220B9FFE7FC
:1054B00003208DF817004DE00498D0F8BC0202904C
:1054C00004989DF80F1001EB810100EB81008069C9
:1054D00020B3FFE704989DF80F1001EB810200EB69
:1054E000820082690198C1EBC10100EB8100416C2F
:1054F000B2FBF1F000FB112080B9FFE704989DF8A2
:105500000F1001EB810100EB8100002383610498FF
:105510009DF80F101A4601F0DBFA17E002990020FF
:10552000C1F814020498D0F8C002006968B1FFE71E
:105530000498D0F8C00203690299D1F8080201F575
:1055400004719DF80F209847FFE7FFE700208DF8D2
:105550001700FFE79DF8170006B080BD80B584B046
:1055600002908DF807100298D0F8BC0200900298C3
:10557000D0F8BC0220B9FFE703208DF80F0015E03A
:1055800002989DF8071001F041F80099C1F80C024B
:105590000298D0F8C002C2680099D1F8040201F55F
:1055A0000371904700208DF80F00FFE79DF80F0072
:1055B00004B080BD80B584B003908DF80B100398C3
:1055C000812100F0C7FE039900200190088703980D
:1055D000012100F0BFFE01980399A1F8780103981A
:1055E000822100F0B7FE01980399A1F84C000399BD
:1055F000A1F84E000398D0F8BC0278B1FFE70398F9
:10560000D0F8C002406880470398D0F8BC0201F08F
:105610005BFE03990020C1F8BC02FFE7002004B044
:1056200080BD000080B584B002900298D0F8BC0222
:105630000190019820B9FFE703208DF80F001DE0CD
:105640000298D0F8C002A8B1FFE7019890F80002D4
:10565000FF280FD0FFE70298D0F8C00283680199B5
:1056600091F8000291F8012298470199FF2081F8F2
:105670000002FFE700208DF80F00FFE79DF80F0004
:1056800004B080BD81B0009000990A20088040F2EB
:10569000E000C2F2000001B07047000081B000904D
:1056A00000994320088040F25800C2F2000001B087
:1056B0007047000081B0009000994320088040F2BC
:1056C0009C00C2F2000001B07047000081B0009061
:1056D00000994320088040F2EC00C2F2000001B0C3
:1056E0007047000080B58AB008908DF81F104FF405
:1056F000077001F0EDFD0690069840B9FFE70899A4
:105700000020C1F8BC0202208DF827006DE0069849
:105710000899C1F8BC020898007CD8B9FFE708983E
:105720008121022203924FF40073049301F042F8A6
:10573000039A049B0898012105910187089801F0BC
:1057400039F805980899A1F8780108991020A1F86E
:105750004E0019E008988121022200924023019313
:1057600001F028F8009A019B089801210291018715
:10577000089801F01FF802980899A1F87801089993
:105780001020A1F84E00FFE7089882210322082389
:1057900001F010F808990120A1F84C000898D0F801
:1057A000C0020068804706990020C1F814020699DB
:1057B000C1F818020898007C50B9FFE708980699CC
:1057C000D1F8042201214FF4007301F019F808E028
:1057D00008980699D1F804220121402301F010F81D
:1057E000FFE700208DF82700FFE79DF827000AB0AB
:1057F00080BD000080B584B002900298D0F8BC0251
:1058000001900298D0F8BC0220B9FFE703208DF880
:105810000F001AE00298007C50B9FFE70298019946
:10582000D1F8042201214FF4007300F0E9FF08E0F1
:1058300002980199D1F804220121402300F0E0FFF1
:10584000FFE700208DF80F00FFE79DF80F0004B080
:1058500080BD000083B001900091009820B9FFE75F
:1058600003208DF80B0007E000980199C1F8C002F1
:1058700000208DF80B00FFE79DF80B0003B0704788
:1058800084B0029001910298D0F8BC020090009878
:1058900020B9FFE703208DF80F0007E00198009979
:1058A000C1F8040200208DF80F00FFE79DF80F00FB
:1058B00004B0704785B00390029101920398D0F82C
:1058C000BC020090009820B9FFE703208DF8130078
:1058D0000BE002980099C1F8080201980099C1F8FC
:1058E000100200208DF81300FFE79DF8130005B0AB
:1058F0007047000080B58AB0089007910898D0F8EA
:10590000BC02069000208DF81500ADF812008DF84D
:105910001100069820B9FFE703208DF82700B3E0B7
:105920000798007800F060000146039100284AD0F3
:10593000FFE70398202840F09A80FFE70798C08887
:10594000B8B3FFE707980078000600281FD5FFE7E7
:105950000898D0F8C0028368079A50780699D288D0
:1059600098470798C088082803D3FFE707200290CC
:1059700003E00798C0880290FFE70298ADF8160090
:1059800008980699BDF8162000F04CF910E0079829
:105990004078069981F8000207988079069981F885
:1059A000010208980699079AD28800F00DF9FFE7DE
:1059B00008E00898D0F8C002836807994878002268
:1059C0009847FFE75BE007984078014601910B2874
:1059D00044D80199DFE801F0064142424242424286
:1059E00042421C32089890F89C02032807D1FFE736
:1059F00008980DF11201022200F014F907E008984E
:105A0000079900F0D3F803208DF81100FFE72DE08F
:105A1000089890F89C02032807D1FFE708980DF139
:105A20001501012200F0FEF807E00898079900F040
:105A3000BDF803208DF81100FFE717E0089890F8F3
:105A40009C02032808D0FFE70898079900F0AEF8F9
:105A500003208DF81100FFE708E007E00898079998
:105A600000F0A4F803208DF81100FFE707E0089884
:105A7000079900F09BF803208DF81100FFE79DF8CF
:105A800011008DF82700FFE79DF827000AB080BDC0
:105A900080B584B002900298D0F8BC020190012039
:105AA0008DF803000298D0F8BC0220B9FFE703206C
:105AB0008DF80F001FE00198D0F81402B0B9FFE78D
:105AC00001990120C1F814020198D0F8100202993E
:105AD000C86202980199D1F80822D1F810328121C8
