:020000040800F2
:100000000809002079020008A53000080D2E00081C
:10001000A1300008C90400082D3C000800000000C1
:100020000000000000000000000000005D32000839
:10003000250900080000000059320008D1330008EB
:10004000930200089302000893020008930200083C
:10005000930200089302000893020008930200082C
:10006000930200089302000893020008930200081C
:10007000930200089302000893020008930200080C
:1000800093020008930200089302000893020008FC
:1000900093020008930200089302000893020008EC
:1000A0009302000805350008930200089302000837
:1000B00093020008930200089302000893020008CC
:1000C00093020008930200089302000893020008BC
:1000D000930200081D3C00089302000893020008E8
:1000E000930200089302000893020008930200089C
:1000F000930200089302000893020008930200088C
:10010000930200089302000893020008930200087B
:10011000930200089302000893020008930200086B
:10012000930200089302000893020008930200085B
:10013000930200089302000893020008930200084B
:10014000930200089302000893020008930200083B
:10015000930200089302000893020008930200082B
:10016000930200089302000893020008930200081B
:100170009302000893020008000000000000000045
:1001800093020008930200089302000893020008FB
:100190009302000893020008000000009302000888
:1001A0009302000893020008000000000000000015
:1001B0009302000800000000000000009302000805
:1001C00093020008930200089302000893020008BB
:1001D000930200089302000800F002F800F03CF8D7
:1001E0000AA090E8000C82448344AAF10107DA4592
:1001F00001D100F031F8AFF2090EBAE80F0013F0A8
:10020000010F18BFFB1A43F001031847D04200004A
:10021000F0420000103A24BF78C878C1FAD85207DB
:1002200024BF30C830C144BF04680C607047000070
:100230000023002400250026103A28BF78C1FBD8EF
:10024000520728BF30C148BF0B6070471FB504F08C
:1002500026F91FBD10B510BD00F0FCF81146FFF7E0
:10026000F5FF03F02BFE00F01AF903B4FFF7F2FFDD
:1002700003BC00F021F90000094880470948004705
:10028000FEE7FEE7FEE7FEE7FEE7FEE7FEE7FEE746
:10029000FEE7FEE704480549054A064B70470000A3
:1002A00095340008D901000808030020080900203F
:1002B000080500200805002053EA020C00F06980C0
:1002C0002DE9F04B4FF00006002B1FBFB3FA83F56A
:1002D00003FA05F424FA05F65E4012BF1643B2FA9B
:1002E00082F502FA05F4C5F120051EBF22FA05FCCD
:1002F00044EA0C04203556EA044C4FEA144418BF73
:10030000641C4FF000084FF00009904271EB030CA1
:1003100039D3002919BFB1FA81F701FA07F6B0FA0B
:1003200080F700FA07F6C7F120071EBF20FA07FC86
:1003300046EA0C062037B6FBF4FCA7EB0507103F96
:1003400007F01F0BCBF120062CFA06F60CFA0BFB7C
:1003500044BFB3460026202FA4BF5E464FF0000BDB
:100360005BEA060C08BF4FF0010B19EB0B0948EBD9
:100370000608ABFB027C06FB02CC0BFB03CCC01BCC
:1003800071EB0C01C1E70B46024641464846BDE809
:10039000F08B13B5084318BF4FF0FF300146AFF3A1
:1003A0000080BDE81C40704740EA010310B59B0780
:1003B0000FD1042A0DD310C808C9121F9C42F8D0CF
:1003C00020BA19BA884201D9012010BD4FF0FF3080
:1003D00010BD1AB1D30703D0521C07E0002010BD96
:1003E00010F8013B11F8014B1B1B07D110F8013B22
:1003F00011F8014B1B1B01D1921EF1D1184610BD03
:100400004FF0000200B5134694469646203922BFAD
:10041000A0E80C50A0E80C50B1F12001BFF4F7AFF8
:10042000090728BFA0E80C5048BF0CC05DF804EBDA
:10043000890028BF40F8042B08BF704748BF20F848
:10044000022B11F0804F18BF00F8012B7047704746
:1004500070477047754600F02BF8AE4605006946B8
:10046000534620F00700854618B020B5FFF712FF6D
:10047000BDE820404FF000064FF000074FF00008A5
:100480004FF0000BAC46ACE8C009ACE8C009ACE8E2
:10049000C009ACE8C00921F007018D46704710B5CE
:1004A0000446AFF300802046BDE81040FFF7DDBEF4
:1004B000004870472800002001491820ABBEFEE725
:1004C0002600020070470000FFE7FEE783B00290BD
:1004D0008DF8071000208DF80600FFE79DF8070053
:1004E000411E8DF80710A0B3FFE70298411C02914E
:1004F00000788DF8050008208DF80400FFE79DF8CE
:10050000040028B3FFE79DF806009DF80510484059
:1005100000F001008DF803009DF8060040088DF8FA
:1005200006009DF8030038B1FFE79DF8060080F053
:100530008C008DF80600FFE79DF8050040088DF857
:100540000500FFE79DF8040001388DF80400D6E7A8
:10055000C4E79DF8060003B07047000080B586B080
:1005600005908DF81310059840F20401C2F20001C5
:100570008A788DF80E200988ADF80C1003990DF1DA
:10058000110200F0D9F98DF812009DF8130001282E
:1005900004D1FFE7059803F04BFBFFE79DF813003C
:1005A000022828D1FFE7002002900598007C014630
:1005B00001911F280CD0FFE701983F280BD0FFE7DF
:1005C00001985F280AD0FFE701987F280AD00DE044
:1005D0005E2002900BE0BC20029008E040F2771011
:1005E000029004E040F2EE20029000E0FFE7029863
:1005F00000F0B0FAFFE79DF8120006B080BD0000E1
:1006000082B00190009101990020487000980199F2
:10061000486001990120087002B0704780B584B02D
:1006200002900298007820B9FFE701208DF80F00B2
:1006300017E00298406802F0DBFD8DF807009DF896
:10064000070038B9FFE702990120487000208DF8B3
:100650000F0006E002990020487001208DF80F007D
:10066000FFE79DF80F0004B080BD000080B588B0A2
:100670000690069840F21301C2F200018A788DF8C4
:100680000A200988ADF8081002990DF10F0200F058
:1006900053F98DF817009DF8170028B1FFE79DF872
:1006A00017008DF81F001CE000208DF80700FFE701
:1006B0009DF80700052810DCFFE79DF807200DF1E5
:1006C0000F0010444078069911440872FFE79DF826
:1006D000070001308DF80700EAE700208DF81F00C1
:1006E000FFE79DF81F0008B080BD0000000000007B
:1006F00080B588B00690069840F21601C2F200015B
:100700008A788DF80A200988ADF8081002990DF151
:100710000E0200F011F98DF817009DF8170028B1AE
:10072000FFE79DF817008DF81F0096E09DF8100078
:100730000699C8739DF81100069988739DF81200F8
:10074000069908749DF80F0040F28421C2F200015E
:1007500048709DF80E0008709DF80E009DF80F106F
:1007600040EA0120ADF80600BDF80600069948826F
:10077000BDF8060000F47840ADF80400BDF80400B0
:1007800038B1FFE7BDF80600C0F58030ADF80600CF
:10079000FFE70698007C014600911F280CD0FFE778
:1007A00000983F280FD0FFE700985F2813D0FFE79D
:1007B00000987F2817D01DE0BDF8060000F4FF6008
:1007C000ADF806001DE0BDF8060040F2FC710840DF
:1007D000ADF8060015E0BDF8060040F2FE710840D5
:1007E000ADF806000DE0BDF806006FF3DF20ADF8B0
:1007F000060006E0BDF806006FF3DF20ADF8060046
:10080000FFE7BDF8060000EE100AB8EE400A10EE51
:10081000100A03F0D3FD41EC100B9FED131B53ECBA
:10082000112B51EC100B03F0CBFC41EC100B51ECF5
:10083000100B03F093FC06994861BDF8040040B129
:10084000FFE7069890ED050AB1EE400A80ED050A33
:10085000FFE700208DF81F00FFE79DF81F0008B09C
:1008600080BD00BF00BF00BF000000000000B03F1F
:1008700080B584B00290029840F21901C2F20001E2
:100880008A788DF802200988ADF8001000990DF1E2
:10089000060200F051F88DF807009DF8070028B116
:1008A000FFE79DF807008DF80F0003E000208DF8AA
:1008B0000F00FFE79DF80F0004B080BD80B586B043
:1008C000049003910498039A40F22401C2F20001BB
:1008D0008B788DF806300988ADF80410019900F086
:1008E0002BF88DF80B009DF80B0028B1FFE79DF861
:1008F0000B008DF8170010E0039800780499C87376
:100900000398407804998873039880780499087450
:100910009DF80B008DF81700FFE79DF8170006B053
:1009200080BD00007047000081B0EFF3108072B608
:100930000090FFE7FEE7000080B586B004919DF8C7
:1009400012108DF81610BDF81010ADF814100390A9
:1009500002920398407820B9FFE701208DF8170034
:100960005CE0039840689DF8141002F0FFFB9DF8CE
:100970001500A0B3FFE700208DF80700FFE79DF802
:1009800007009DF81510884210DAFFE703984068C9
:10099000FF2102F0EBFB02999DF807208854FFE746
:1009A0009DF8070001308DF80700E8E702989DF8F0
:1009B00015100139C9B2FFF789FD8DF806009DF8C1
:1009C0000600029A9DF81510114411F8011C884286
:1009D00004D0FFE701208DF817001FE01AE0002087
:1009E0008DF80500FFE79DF805009DF81610884278
:1009F0000FDAFFE70398406802999DF80520895CAB
:100A000002F0B4FBFFE79DF8050001308DF805000A
:100A1000E9E7FFE700208DF81700FFE79DF81700D2
:100A200006B080BD80B584B002900298806D0190C0
:100A300000F098FA0090029890F8350002280DD046
:100A4000FFE7029980204865FFE70299002081F8BE
:100A50003400FFE701208DF80F0055E0029801688F
:100A6000086820F01600086002980168486920F0C4
:100A7000800048610298006C20B9FFE70298806C02
:100A800038B1FFE702980168086820F008000860A4
:100A9000FFE702980168086820F001000860FFE79E
:100AA000029800680068C007C8B1FFE700F05AFA72
:100AB0000099401A062811D3FFE7029920204865C3
:100AC0000299032081F83500FFE70299002081F8A0
:100AD0003400FFE703208DF80F0015E0E0E70298EF
:100AE000C16D3F208840019988600299012081F8FA
:100AF0003500FFE70299002081F83400FFE7FFE7A7
:100B000000208DF80F00FFE79DF80F0004B080BDB6
:100B100082B00090009890F83500022807D0FFE7D7
:100B200000998020486501208DF807000EE00099AB
:100B3000052081F8350000980168086820F0010060
:100B40000860FFE700208DF80700FFE79DF8070029
:100B500002B0704780B584B0039000F003FA0290B1
:100B6000039801900198013048B1FFE740F21C0062
:100B7000C2F200000178019808440190FFE7FFE706
:100B800000F0F0F90299401A0199884201D2FFE77A
:100B9000F6E704B080BD00008DB00C900B910020F2
:100BA0000990089007900A90FFE70A980F2800F232
:100BB000BE81FFE70A990120884009900B980068E0
:100BC00009990840089008980999884240F0AA813C
:100BD000FFE70B98406800F00300012807D0FFE70B
:100BE0000B98406800F0030002282FD1FFE70C9813
:100BF000806807900A984100032000FA01F10798E5
:100C0000884307900B98C0680A99490000FA01F1DF
:100C100007980843079007980C9988600C984068DB
:100C200007900A99012000FA01F10798884307907C
:100C30000B984068C0F300100A9900FA01F1079878
:100C40000843079007980C994860FFE70B984068A5
:100C500000F00300032818D0FFE70C98C068079045
:100C60000A984100032000FA01F107988843079091
:100C70000B9880680A99490000FA01F10798084327
:100C8000079007980C99C860FFE70B98406800F040
:100C90000300022826D1FFE70C980A996FF003029F
:100CA00002EA51010844006A07900A9800F0070020
:100CB00081000F2000FA01F10798884307900B98F4
:100CC00000690A9901F00701890000FA01F107980B
:100CD0000843079007980C990A9B02EA53021144B3
:100CE0000862FFE70C98006807900A98410003200B
:100CF00000FA01F10798884307900B98406800F0CC
:100D000003000A99490000FA01F107980843079087
:100D100007980C9908600B9880798007002800F0EC
:100D20000081FFE7FFE70020069043F64400C4F28D
:100D30000200016841F480410160006800F48040D5
:100D400006900698FFE70A9820F0030043F6080192
:100D5000C4F20101405807900A9800F00300810096
:100D60000F2000FA01F10798884307900C980021A2
:100D7000C4F20201884203D1FFE70020059050E051
:100D80000C9840F20041C4F20201884203D1FFE70F
:100D90000120049042E00C9840F60001C4F20201E8
:100DA000884203D1FFE70220039034E00C9840F61C
:100DB0000041C4F20201884203D1FFE70320029000
:100DC00026E00C9841F20001C4F20201884203D1EE
:100DD000FFE70420019018E00C9841F20041C4F2B2
:100DE0000201884203D1FFE7052000900AE00C9938
:100DF00041F60002C4F202020720914208BF062019
:100E00000090FFE700980190FFE701980290FFE74C
:100E100002980390FFE703980490FFE70498059079
:100E2000FFE70598C0B20A9901F00301890000FAB2
:100E300001F107980843079007980A9921F00301E8
:100E400043F60802C4F20102885043F60040C4F29F
:100E500001000068079008990798884307900B984D
:100E60008079C00728B1FFE70899079808430790E1
:100E7000FFE7079843F60041C4F20101086043F61A
:100E80000440C4F20100006807900899079888435D
:100E900007900B9880798007002805D5FFE708990F
:100EA000079808430790FFE7079843F60441C4F208
:100EB0000101086043F60840C4F201000068079091
:100EC00008990798884307900B988079C0060028F6
:100ED00005D5FFE70899079808430790FFE70798AB
:100EE00043F60841C4F20101086043F60C40C4F225
:100EF00001000068079008990798884307900B98AD
:100F000080798006002805D5FFE7089907980843EF
:100F10000790FFE7079843F60C41C4F2010108600F
:100F2000FFE7FFE7FFE70A9801300A903DE60DB0C2
:100F30007047000082B00190ADF802108DF80120DA
:100F40009DF8010028B1FFE7BDF802000199886112
:100F500005E0BDF80200000401998861FFE702B0D6
:100F60007047000040F20030C2F200000068704795
:100F700080B582B00090009820B9FFE701208DF87D
:100F800007003EE0009890F83D0040B9FFE7009967
:100F9000002081F83C00009801F0FCFBFFE700997D
:100FA000242081F83D0000980168C86820F40050B2
:100FB000C860009802F09CFC00980168086920F461
:100FC0009040086100980168486920F0220048615B
:100FD00000980168486940F008004861009801687D
:100FE000C86840F40050C860009900200864009A66
:100FF000202182F83D10009A82F83E108DF80700FB
:10100000FFE79DF8070002B080BD000040F21C0021
:10101000C2F20000027840F20031C2F2000108681A
:10102000104408607047000080B543F60041C4F2E8
:101030000201086840F400700860086840F48060AD
:101040000860086840F480700860032000F08AF8A7
:101050000F2000F005F800F03BF8002080BD0000F4
:1010600080B582B0009040F20000C2F2000000683B
:1010700040F21C01C2F200010A784FF47A71B1FB10
:10108000F2F1B0FBF1F000F0CDFD20B1FFE701205F
:101090008DF8070018E000980F280DD8FFE7009999
:1010A0004FF0FF30002200F043F8009840F220019A
:1010B000C2F20001086003E001208DF8070003E0A0
:1010C00000208DF80700FFE79DF8070002B080BD03
:1010D00082B0FFE70020019043F64400C4F2020012
:1010E000016841F480410160006800F48040019093
:1010F0000198FFE7FFE70020009043F64000C4F2AC
:101100000200016841F080510160006800F08050E9
:1011100000900098FFE702B07047000080B582B0F1
:101120008DF807009DF9070002F09CFD02B080BD1C
:1011300080B586B08DF817000491039200200290CC
:1011400002F0A8FD02909DF9170001900298049901
:10115000039A01F0ADFF0146019802F0A3FD06B02D
:1011600080BD000080B582B00190019802F0BCFD06
:1011700002B080BD7047000080B584B0029001913C
:10118000029820B9FFE701208DF80F0021E10198B6
:1011900043F60041C4F20201096801F007018842E8
:1011A00012D9FFE7019943F60040C4F20200017032
:1011B000006800F007000199884204D0FFE7012091
:1011C0008DF80F0005E1FFE70298007880070028FE
:1011D0002AD5FFE7029800784007002809D5FFE7E5
:1011E00043F60801C4F20201086840F4E0500860C8
:1011F000FFE7029800780007002809D5FFE743F6CB
:101200000801C4F20201086840F460400860FFE78A
:1012100043F60801C4F20201086820F0F000029AC7
:10122000926810430860FFE702980078C007002822
:101230006ED0FFE702984068012811D1FFE743F61E
:101240000000C4F20200006800F400310020B0EB9E
:10125000514F04D1FFE701208DF80F00B9E02CE0D9
:1012600002984068022805D0FFE7029840680328EA
:1012700011D1FFE743F60000C4F20200006800F05D
:1012800000710020B0EB516F04D1FFE701208DF811
:101290000F009EE010E043F60000C4F20200006878
:1012A00000F002010020B0EB510F04D1FFE7012054
:1012B0008DF80F008DE0FFE7FFE743F60801C4F269
:1012C0000201086820F00300029A52681043086087
:1012D000FFF748FE0090FFE743F60800C4F2020063
:1012E000006800F00C0002994968B0EB810F0ED045
:1012F000FFE7FFF737FE0099401A41F28931884233
:1013000004D3FFE703208DF80F0062E0E4E7FFE776
:10131000019843F60041C4F20201096801F0070197
:10132000884212D2FFE7019943F60040C4F202005E
:101330000170006800F007000199884204D0FFE7BF
:1013400001208DF80F0044E0FFE702980078400785
:1013500000280CD5FFE743F60801C4F20201086833
:1013600020F4E050029AD26810430860FFE7029828
:101370000078000700280DD5FFE743F60801C4F206
:101380000201086820F46040029A126940EAC20033
:101390000860FFE700F052F843F60801C4F20201CA
:1013A0000968C9B20A0944F2C241C0F60001895C69
:1013B000C84040F20001C2F20001086040F2200083
:1013C000C2F200000068FFF74BFE00208DF80F000E
:1013D000FFE79DF80F0004B080BD00004C21C4F26F
:1013E000472101200860704740F20000C2F200006F
:1013F0000068704780B5FFF7F7FF43F60801C4F2B5
:1014000002010968C1F3822244F2D241C0F6000110
:10141000895CC84080BD000080B5FFF7E5FF43F65A
:101420000801C4F20201096889B24A0B44F2D241B0
:10143000C0F60001895CC84080BD000080B586B060
:101440000020059004900390029043F60800C4F237
:101450000200006800F00C000146019140B1FFE776
:10146000019804280AD0FFE7019808280CD04FE023
:1014700042F20040C0F2F40002904FE041F600302A
:10148000C0F2B700029049E043F60400C4F2020043
:10149000016801F03F01059100684002002813D562
:1014A000FFE743F60400C4F202000068C0F38810AE
:1014B00041F60031C0F2B701A0FB0101059A0023FB
:1014C000FEF7FAFE049012E043F60400C4F20200B4
:1014D0000068C0F3881042F20041C0F2F401A0FBA2
:1014E0000101059A0023FEF7E7FE0490FFE743F6AB
:1014F0000400C4F20200006800F44031022000EB56
:10150000D130039004980399B0FBF1F0029005E00C
:1015100042F20040C0F2F4000290FFE7029806B0E9
:1015200080BD000080B543F60C00C4F202000068E4
:101530000006002809D5FFE7FFF71CFE43F60E0161
:10154000C4F2020180200870FFE780BD80B586B03C
:101550000490049820B9FFE701208DF817005CE3A0
:1015600004980078C007002800F0A580FFE743F644
:101570000800C4F20200006800F00C00042813D038
:10158000FFE743F60800C4F20200006800F00C0018
:1015900008281ED1FFE743F60400C4F202000068E9
:1015A0004002002815D5FFE743F60000C4F2020010
:1015B000006800F400310020B0EB514F08D0FFE785
:1015C0000498406820B9FFE701208DF8170024E354
:1015D00070E0FFE704984068B0F5803F09D1FFE76D
:1015E00043F60001C4F20201086840F4803008604C
:1015F00020E004984068B0F5A02F0DD1FFE743F636
:101600000001C4F20201086840F480200860086804
:1016100040F4803008600CE043F60001C4F202019F
:10162000086820F480300860086820F48020086092
:10163000FFE7FFE7FFE704984068E8B1FFE7FFF73F
:1016400091FC0390FFE743F60000C4F2020000683B
:1016500000F400310020B0EB514F0CD1FFE7FFF751
:1016600081FC0399401A652804D3FFE703208DF815
:101670001700D2E2E7E71CE0FFF774FC0390FFE7F6
:1016800043F60000C4F20200006800F400310020BC
:10169000B0EB514F0CD0FFE7FFF764FC0399401A01
:1016A000652804D3FFE703208DF81700B5E2E7E7CC
:1016B000FFE7FFE7FFE7049800788007002840F184
:1016C0009680FFE743F60800C4F20200006810F0BD
:1016D0000C0F13D0FFE743F60800C4F202000068C5
:1016E00000F00C0008282CD1FFE743F60400C4F2F8
:1016F000020000684002002823D4FFE743F6000000
:10170000C4F20200006800F002010020B0EB510FAB
:1017100009D0FFE70498C068012804D0FFE7012042
:101720008DF8170079E243F60001C4F2020108685F
:1017300020F0F800049A126940EAC2000860FFE74E
:1017400054E00498C06870B3FFE70021C4F2472159
:1017500001200860FFF706FC0390FFE743F6000056
:10176000C4F20200006800F002010020B0EB510F4B
:101770000CD1FFE7FFF7F6FB0399401A032804D3C7
:10178000FFE703208DF8170047E2E7E743F6000183
:10179000C4F20201086820F0F800049A126940EAD5
:1017A000C200086021E00021C4F247210020086047
:1017B000FFF7D8FB0390FFE743F60000C4F20200F6
:1017C000006800F002010020B0EB510F0CD0FFE7E1
:1017D000FFF7C8FB0399401A032804D3FFE703204F
:1017E0008DF8170019E2E7E7FFE7FFE7FFE7049846
:1017F0000078000700284BD5FFE70498406918B32C
:10180000FFE740F68061C4F2472101200860FFF73E
:10181000A9FB0390FFE743F67400C4F202000068DE
:1018200000F002010020B0EB510F0CD1FFE7FFF7F1
:1018300099FB0399401A032804D3FFE703208DF88E
:101840001700EAE1E7E722E040F68061C4F24721B1
:1018500000200860FFF786FB0390FFE743F6740063
:10186000C4F20200006800F002010020B0EB510F4A
:101870000CD0FFE7FFF776FB0399401A032804D347
:10188000FFE703208DF81700C7E1E7E7FFE7FFE771
:10189000049800784007002840F1CE80FFE7002040
:1018A0008DF8070043F64000C4F202000068C00053
:1018B000002815D4FFE7FFE70020009043F6400022
:1018C000C4F20200016841F080510160006800F03C
:1018D000805000900098FFE701208DF80700FFE797
:1018E00047F20000C4F200000068C005002822D4BE
:1018F000FFE747F20001C4F20001086840F480707D
:101900000860FFF72FFB0390FFE747F20000C4F2E7
:1019100000000068C00500280CD4FFE7FFF722FB99
:101920000399401A032804D3FFE703208DF817001A
:1019300073E1EAE7FFE7FFE704988068012809D12F
:10194000FFE743F67001C4F20201086840F00100AD
:1019500008601FE00498806805280DD1FFE743F672
:101960007001C4F20201086840F0040008600868D1
:1019700040F0010008600CE043F67001C4F202017F
:10198000086820F001000860086820F00400086082
:10199000FFE7FFE7FFE704988068F8B1FFE7FFF78C
:1019A000E1FA0390FFE743F67000C4F2020000681A
:1019B00000F002010020B0EB510F0ED1FFE7FFF75E
:1019C000D1FA0399401A41F28931884204D3FFE7E2
:1019D00003208DF8170020E1E5E71EE0FFF7C2FACB
:1019E0000390FFE743F67000C4F20200006800F0C5
:1019F00002010020B0EB510F0ED0FFE7FFF7B2FA63
:101A00000399401A41F28931884204D3FFE7032049
:101A10008DF8170001E1E5E7FFE79DF807000128D1
:101A200009D1FFE743F64001C4F20201086820F043
:101A300080500860FFE7FFE704988069002800F005
:101A4000E880FFE743F60800C4F20200006800F0F7
:101A50000C00082800F08880FFE7049880690228BD
:101A60005FD1FFE76021C4F2472100200860FFF743
:101A700079FA0390FFE743F60000C4F20200006821
:101A800000F000710020B0EB516F0CD0FFE7FFF7C2
:101A900069FA0399401A032804D3FFE703208DF85D
:101AA0001700BAE0E7E70499C869D1F820C04B6A8B
:101AB0008A6A40EA0C0040EA8310D2034FF6FF73B3
:101AC0009A43A2F580321043CA6A40EA0260096B69
:101AD00040EA017043F60401C4F20201086060218B
:101AE000C4F2472101200860FFF73CFA0390FFE7AA
:101AF00043F60000C4F20200006800F0007100200C
:101B0000B0EB516F0CD1FFE7FFF72CFA0399401AA5
:101B1000032804D3FFE703208DF817007DE0E7E7F3
:101B200021E06021C4F2472100200860FFF71AFA83
:101B30000390FFE743F60000C4F20200006800F0E3
:101B400000710020B0EB516F0CD0FFE7FFF70AFAED
:101B50000399401A032804D3FFE703208DF81700E8
:101B60005BE0E7E7FFE753E004988069012804D1D0
:101B7000FFE701208DF817004FE043F60400C4F2A0
:101B80000200006802900498806901283AD0FFE7BB
:101B9000029800F480000499C969884232D1FFE7B5
:101BA000029800F03F000499096A88422AD1FFE7B1
:101BB000029847F6C07108400499496AB0EB811F4A
:101BC00020D1FFE7029800F440300499896AC903E4
:101BD0004FF6FF729143A1F58031884212D1FFE7A1
:101BE000029800F070600499C96AB0EB016F09D1E6
:101BF000FFE7029800F0E0400499096BB0EB017F29
:101C000004D0FFE701208DF8170006E0FFE7FFE7AB
:101C1000FFE700208DF81700FFE79DF8170006B0DA
:101C200080BD000080B582B00190019801F0A6FB54
:101C300002B080BD81B0009001B0704781B00090CB
:101C400001B0704780B582B00090009820B9FFE7DE
:101C500001208DF807003FE0009890F83D0040B962
:101C6000FFE70099002081F83C00009800F038F868
:101C7000FFE70099022081F83D00009951F8040B1C
:101C800001F048FC0099012081F84600FFE7009927
:101C9000012081F83E00009981F83F00009981F809
:101CA0004000009981F84100FFE7FFE7009901201B
:101CB00081F84200009981F84300009981F84400BE
:101CC000009981F84500FFE70099012081F83D0067
:101CD00000208DF80700FFE79DF8070002B080BDE7
:101CE00080B584B003900398006844F20041C4F2C8
:101CF000010188421BD1FFE7FFE70020029043F675
:101D00004400C4F20200016841F40031016000683F
:101D100000F4003002900298FFE7192001900022A1
:101D20001146FFF705FA0198FFF7F8F9FFE704B04D
:101D300080BD000083B00190019890F83D0001281B
:101D400004D0FFE701208DF80B006AE00199022022
:101D500081F83D0001980168C86840F00100C86042
:101D6000019800680021C4F2010188423CD0FFE7DD
:101D700001980068B0F1804F36D0FFE70198006805
:101D800040F20041C4F2000188422DD0FFE70198E3
:101D9000006840F60001C4F20001884224D0FFE749
:101DA0000198006840F60041C4F2000188421BD04F
:101DB000FFE70198006840F20041C4F20101884247
:101DC00012D0FFE70198006844F20001C4F201015B
:101DD000884209D0FFE70198006841F60001C4F28B
:101DE0000001884212D1FFE701980068806800F086
:101DF000070000900098062807D0FFE701980168C7
:101E0000086840F001000860FFE706E001980168FB
:101E1000086840F001000860FFE700208DF80B0023
:101E2000FFE79DF80B0003B07047000081B0009001
:101E300000980168C86820F00100C860FFE70098BA
:101E40000068006A41F21111084210D1FFE70098C2
:101E50000068006A40F24441084207D1FFE7009859
:101E60000168086820F001000860FFE7FFE7FFE76E
:101E70000099012081F83D00002001B0704700006A
:101E800081B0009001B0704780B582B00190019898
:101E90000068006900F002010020B0EB510F28D06B
:101EA000FFE701980068C06800F002010020B0EB75
:101EB000510F1DD0FFE7019801686FF00200086123
:101EC000019901200877019800688069800720B196
:101ED000FFE70198FFF7D4FF06E0019800F012F940
:101EE000019800F013F9FFE7019900200877FFE758
:101EF000FFE701980068006900F004010020B0EBE2
:101F0000910F29D0FFE701980068C06800F0040134
:101F10000020B0EB910F1ED0FFE7019801686FF031
:101F2000040008610199022008770198006880691F
:101F300010F4407F04D0FFE70198FFF7A1FF06E00F
:101F4000019800F0DFF8019800F0E0F8FFE7019950
:101F500000200877FFE7FFE701980068006900F0BC
:101F600008010020B0EBD10F28D0FFE701980068EE
:101F7000C06800F008010020B0EBD10F1DD0FFE7D2
:101F8000019801686FF00800086101990420087742
:101F900001980068C069800720B1FFE70198FFF74A
:101FA0006FFF06E0019800F0ADF8019800F0AEF880
:101FB000FFE7019900200877FFE7FFE70198006835
:101FC000006900F010010020B0EB111F29D0FFE7DD
:101FD00001980068C06800F010010020B0EB111FEC
:101FE0001ED0FFE7019801686FF0100008610199A9
:101FF0000820087701980068C06910F4407F04D079
:10200000FFE70198FFF73CFF06E0019800F07AF83F
:10201000019800F07BF8FFE7019900200877FFE7BF
:10202000FFE7019800680069C00780B1FFE70198E9
:102030000068C068C00748B1FFE7019801686FF009
:1020400001000861019800F065F8FFE7FFE70198DB
:1020500000680069C1B20020B0EBD11F13D0FFE7C8
:1020600001980068C068C1B20020B0EBD11F09D050
:10207000FFE7019801686FF0800008610198FFF7A1
:10208000D9FDFFE7FFE701980068006900F0400113
:102090000020B0EB911F14D0FFE701980068C068E2
:1020A00000F040010020B0EB911F09D0FFE701983C
:1020B00001686FF040000861019800F04DF8FFE7FB
:1020C000FFE701980068006900F020010020B0EBF4
:1020D000511F14D0FFE701980068C06800F020018C
:1020E0000020B0EB511F09D0FFE7019801686FF0A5
:1020F000200008610198FFF7A1FDFFE7FFE702B0AC
:1021000080BD000081B0009001B0704781B00090A8
:1021100001B0704780B582B001900198006844F228
:102120000041C4F20101884214D1FFE740F2A0004F
:10213000C2F200000090FFF779FE009840F29E0284
:10214000C2F20002117841F0010111700168002013
:102150004862FFE702B080BD81B0009001B07047D7
:1021600080B586B004900391ADF80A20049890F8E9
:102170003E0020285BD1FFE7039820B1FFE7BDF8C0
:102180000A0020B9FFE701208DF8170053E0FFE7B0
:10219000049890F83C00012804D1FFE702208DF854
:1021A000170048E00499012081F83C00FFE7FFE7B1
:1021B00004990120086304980399BDF80A2001F0EE
:1021C00047FC8DF809009DF8090058BBFFE704980B
:1021D000006B012821D1FFE7FFE700200190049860
:1021E00000680068019004980068406801900198B8
:1021F000FFE7FFE7FFE70498006850E8030F40F0AF
:1022000010000090FFE700990498026842E803106C
:102210000028F0D1FFE7FFE703E001208DF8090077
:10222000FFE7FFE79DF809008DF8170003E00220A3
:102230008DF81700FFE79DF8170006B080BD00007D
:1022400080B584B00390ADF80A1000208DF8090025
:102250004AF22010C0F207000190FFE70198013810
:10226000019030B1FFE79DF8090001308DF80900B9
:10227000F4E7BDF80A0040F28021C2F200010860D4
:102280000398006841F20001C4F2010188421DD1A7
:10229000FFE740F29D01C2F200010120087040F208
:1022A0008800C2F2000040F20701C2F200010C22D5
:1022B000FEF77AF848B1FFE740F29E01C2F2000152
:1022C000087840F002000870FFE7FFE704B080BD27
:1022D00081B0009001B0704780B592B01190119814
:1022E00000680068109011980068C0680F901198FD
:1022F000006840690E9000200D900C90109800F03E
:102300000F000D900D9888B9FFE79DF840008006FA
:1023100000280AD5FFE79DF83C008006002804D578
:10232000FFE7119801F032FAE3E1FFE70D9800288A
:1023300000F0C280FFE79DF83800C00738B9FFE71A
:10234000BDF83C0010F4907F00F0B680FFE79DF8E8
:102350004000C00758B1FFE79DF83D00C00730B10D
:10236000FFE71199086C40F001000864FFE79DF851
:102370004000400700280BD5FFE79DF83800C00754
:1023800030B1FFE71199086C40F002000864FFE7E4
:102390009DF84000800700280BD5FFE79DF8380026
:1023A000C00730B1FFE71199086C40F004000864E1
:1023B000FFE79DF840000007002811D5FFE79DF8D2
:1023C0003C008006002805D4FFE79DF83800C007D0
:1023D00030B1FFE71199086C40F008000864FFE78E
:1023E0001198006C002866D0FFE79DF84000800639
:1023F00000280AD5FFE79DF83C008006002804D598
:10240000FFE7119801F0C2F9FFE7119800684069F1
:10241000C0F380100C901198006C0007002804D4C1
:10242000FFE70C9800283ED0FFE7119801F050F923
:10243000119800684069400600282FD5FFE7FFE7A4
:10244000FFE71198006850E8050F20F040000B905E
:10245000FFE70B991198026842E805100028F0D1B7
:10246000FFE7FFE71198806B98B1FFE71198816B48
:1024700043F2B160C0F6000008651198806BFEF76A
:1024800047FB28B1FFE71198806B016D8847FFE794
:1024900003E01198FFF71CFFFFE703E01198FFF737
:1024A00017FFFFE706E01198FFF712FF11990020D0
:1024B0000864FFE7FFE71CE11198006B012840F07A
:1024C000F880FFE79DF84000C006002840F1F18049
:1024D000FFE79DF83C00C006002840F1EA80FFE7D6
:1024E000FFE700200A901198006800680A90119890
:1024F000006840680A900A98FFE7119800684069F0
:10250000400600287ED5FFE71198806B0068406880
:10251000ADF82600BDF82600002872D0FFE7BDF810
:1025200026001199898D88426BDAFFE7BDF82600F5
:102530001199C8851198806BC069B0F5807F58D01B
:10254000FFE7FFE7FFE71198006850E8030F20F46A
:1025500080700890FFE708991198026842E803101C
:102560000028F0D1FFE7FFE7FFE7FFE711980068D9
:1025700050E8050F20F001000790FFE70799119838
:10258000026842E805100028F0D1FFE7FFE7FFE707
:10259000FFE71198006850E8050F20F04000069012
:1025A000FFE706991198026842E805100028F0D16B
:1025B000FFE7FFE71199202081F83E0011990020E4
:1025C0000863FFE7FFE71198006850E8030F20F069
:1025D00010000590FFE705991198026842E8031082
:1025E0000028F0D1FFE7FFE71198806BFEF71AFA99
:1025F000FFE71198818DC28D891A89B2FFF720FEFD
:10260000FFE776E01199888DC98D401AADF8120068
:102610001198C08D00284BD0FFE7BDF812000028AC
:1026200046D0FFE7FFE7FFE71198006850E8030F87
:1026300020F490700390FFE703991198026842E834
:1026400003100028F0D1FFE7FFE7FFE7FFE711984D
:10265000006850E8050F20F001000290FFE70299A2
:102660001198026842E805100028F0D1FFE7FFE763
:102670001199202081F83E00119900200863FFE79E
:10268000FFE71198006850E8030F20F01000019058
:10269000FFE701991198026842E803100028F0D181
:1026A000FFE7FFE71198BDF81210FFF7C9FDFFE73C
:1026B0001FE09DF84000000600280AD5FFE79DF8BE
:1026C0003C000006002804D5FFE7119801F0F2F95C
:1026D0000FE09DF84000400600280AD5FFE79DF86E
:1026E0003C004006002804D5FFE7119801F03AF8B5
:1026F000FFE712B080BD000080B582B00090009866
:1027000020B9FFE701208DF807003EE000988069BE
:1027100008B1FFE700E0FFE7009890F83D0040B9FE
:10272000FFE70099002081F83C00009800F032F8A3
:10273000FFE70099242081F83D0000980168C868EF
:1027400020F40050C860009801F0D2F800980168A9
:10275000086920F49040086100980168486920F0F9
:102760002A00486100980168C86840F40050C860B9
:10277000009900200864009A202182F83D10009AF8
:1027800082F83E108DF80700FFE79DF8070002B0C1
:1027900080BD000080B594B013900020129011907D
:1027A00010900F900E901398006844F60041C4F208
:1027B0000001884234D1FFE7FFE700200D9043F687
:1027C0004000C4F20200016841F400210160006889
:1027D00000F400200D900D98FFE7FFE700200C901B
:1027E00043F63000C4F20200016841F001010160CB
:1027F000006800F001000C900C98FFE74FF4805047
:102800000E9012200F9000201090032011900B20AA
:1028100012900020C4F202000EA9FEF7BDF93FE1BC
:102820001398006845F20001C4F20001884235D1D6
:10283000FFE7FFE700200B9043F64000C4F20200E0
:10284000016841F480110160006800F480100B9071
:102850000B98FFE7FFE700200A9043F63000C4F230
:102860000200016841F004010160006800F004000A
:102870000A900A98FFE74FF480500E9012200F90B4
:1028800000201090032011900820129040F60000C4
:10289000C4F202000EA9FEF77FF900E11398006868
:1028A00047F60001C4F20001884234D1FFE7FFE798
:1028B0000020099043F64000C4F20200016841F094
:1028C00080410160006800F0804009900998FFE7AE
:1028D000FFE70020089043F63000C4F202000168D0
:1028E00041F001010160006800F0010008900898C3
:1028F000FFE74FF400400E9012200F900020109040
:1029000003201190082012900020C4F202000EA9AA
:10291000FEF742F9C2E01398006841F20001C4F2E8
:10292000010188423DD1FFE7FFE70020079043F611
:102930004400C4F20200016841F010010160006827
:1029400000F0100007900798FFE7FFE700200690CF
:1029500043F63000C4F20200016841F00201016058
:10296000006800F0020006900698FFE7C0200E9075
:1029700002200F90002100911091119007201290D9
:1029800040F20040C4F202000EA9FEF705F9009AD9
:10299000252001901146FEF7CBFB0198FEF7BEFB08
:1029A0007BE01398006844F20041C4F200018842C1
:1029B00033D1FFE7FFE70020059043F64000C4F263
:1029C0000200016841F400310160006800F4003049
:1029D00005900598FFE7FFE70020049043F63000DC
:1029E000C4F20200016841F001010160006800F0DA
:1029F000010004900498FFE704200E9012200F902D
:102A00000020109003201190072012900020C4F2A3
:102A100002000EA9FEF7C0F83EE01398006844F6E5
:102A20000001C4F20001884235D1FFE7FFE7002032
:102A3000039043F64000C4F20200016841F4802193
:102A40000160006800F4802003900398FFE7FFE72F
:102A50000020029043F63000C4F20200016841F009
:102A600002010160006800F0020002900298FFE796
:102A70004FF480600E9012200F90002010900320E1
:102A800011900720129040F20040C4F202000EA9FB
:102A9000FEF782F8FFE7FFE7FFE7FFE7FFE7FFE763
:102AA00014B080BD80B58AB008900791ADF81A20A7
:102AB000059300200290089890F83E00202840F0EE
:102AC0009B80FFE7079820B1FFE7BDF81A0020B907
:102AD000FFE701208DF8270092E0FFE7089890F8C3
:102AE0003C00012804D1FFE702208DF8270087E091
:102AF0000899012081F83C00FFE7FFE708990020D2
:102B00000864089A222182F83E1008990863FEF7AB
:102B100029FA0290BDF81A0008998885BDF81A00B4
:102B20000899C88508988068B0F5805F09D1FFE7EB
:102B30000898006928B9FFE70020049007980390DF
:102B400004E00798049000200390FFE7FFE708994E
:102B5000002081F83C00FFE7FFE70898C08D0028BF
:102B600042D0FFE70898029B05996A461160202130
:102B7000002200F0E9FF20B1FFE703208DF82700D5
:102B80003EE0049858B9FFE70898006840686FF382
:102B90005F20039908800398023003901FE0089893
:102BA0008068B0F5805F08D0FFE70898806850B96A
:102BB000FFE70898006930B9FFE7089800684068A7
:102BC0000499087007E008980068406800F07F00EA
:102BD00004990870FFE7049801300490FFE7089912
:102BE000C88D0138C885B8E70899202081F83E00D3
:102BF00000208DF8270003E002208DF82700FFE772
:102C00009DF827000AB080BD81B0009001B07047E8
:102C100080B58AB008900791ADF81A20059300207E
:102C20000290089890F83D00202840F09080FFE73F
:102C3000079820B1FFE7BDF81A0020B9FFE701208F
:102C40008DF8270087E0FFE7089890F83C000128FE
:102C500004D1FFE702208DF827007CE008990120CD
:102C600081F83C00FFE7FFE7089900200864089915
:102C7000212081F83D00FEF775F90290BDF81A0099
:102C800008998884BDF81A000899C8840898806853
:102C9000B0F5805F09D1FFE70898006928B9FFE720
:102CA000002004900798039004E007980490002007
:102CB0000390FFE7FFE70899002081F83C00FFE759
:102CC000FFE70898C08C58B3FFE70898029B059966
:102CD0006A4611608021002200F036FF20B1FFE734
:102CE00003208DF8270036E0049858B9FFE70398D1
:102CF00000886FF35F2008990968486003980230E4
:102D0000039008E0049800780899096848600498DE
:102D100001300490FFE70899C88C0138C884D0E7D7
:102D20000898029B05996A4611604021002200F034
:102D30000BFF20B1FFE703208DF827000BE0089977
:102D4000202081F83D0000208DF8270003E00220BC
:102D50008DF82700FFE79DF827000AB080BD00002E
:102D600084B002900191ADF80220029890F83D00E5
:102D700020283ED1FFE7019820B1FFE7BDF802000F
:102D800020B9FFE701208DF80F0036E0FFE7029839
:102D900090F83C00012804D1FFE702208DF80F00D5
:102DA0002BE00299012081F83C00FFE7FFE7019842
:102DB00002990862BDF8020002998884BDF80200F9
:102DC0000299C8840299002008640299212081F8A0
:102DD0003D00FFE70299002081F83C00FFE70298E0
:102DE0000168C86840F08000C86000208DF80F00BE
:102DF00003E002208DF80F00FFE79DF80F0004B0FC
:102E00007047000081B0009001B07047FFE7FEE717
:102E100080B58CB000200B900A9009900890079024
:102E2000FFE70020069043F63000C4F2020001687C
:102E300041F080010160006800F080000690069873
:102E4000FFE7FFE70020059043F63000C4F20200E0
:102E5000016841F001010160006800F00100059087
:102E60000598FFE7FFE70020049043F63000C4F226
:102E70000200016841F002010160006800F00200F8
:102E800004900498FFE7FFE70020039043F630002A
:102E9000C4F20200016841F004010160006800F022
:102EA000040003900398FFE740F20040C4F20200E0
:102EB00002904FF4704101220092FEF73BF8029815
:102EC000202100220192FEF735F8009A019902981C
:102ED0004FF220030793089209910A9107A9FDF781
:102EE0005BFE0CB080BD000080B540F2A000C2F2D5
:102EF000000044F20041C4F20101016046F2A71152
:102F000041600021816040F2ED22C2600161816177
:102F1000FEF798FE18B1FFE7FDF706FDFFE780BD5D
:102F200080B582B040F2B410C2F20000019044F6C5
:102F30000041C4F2000101604FF4E1314160002121
:102F40008160C16001610C2242618161C161FEF753
:102F50000FF818B1FFE7FDF7E7FCFFE702B080BD0F
:102F600080B582B040F2F810C2F20000019045F244
:102F70000001C4F2000101604FF4E1314160002121
:102F80008160C16001610C2242618161C161FDF714
:102F9000EFFF18B1FFE7FDF7C7FCFFE702B080BD08
:102FA00080B582B040F23C20C2F20000019047F6AA
:102FB0000001C4F2000101604FF4E13141600021E1
:102FC0008160C16001610C2242618161C161FDF7D4
:102FD000CFFF18B1FFE7FDF7A7FCFFE702B080BD08
:102FE00080B582B040F2E800C2F20000019041F2E8
:102FF0000001C4F2010101604FF4E13141600021A0
:103000008160C16001610C2242618161C161FFF791
:1030100073FB18B1FFE7FDF787FCFFE702B080BD47
:1030200080B582B040F22C10C2F20000019044F250
:103030000041C4F2000101604FF4E1314160002120
:103040008160C16001610C2242618161C161FDF753
:103050008FFF18B1FFE7FDF767FCFFE702B080BD07
:1030600080B582B040F27010C2F20000019044F6C8
:103070000001C4F2000101604FF4E1314160002120
:103080008160C16001610C2242618161C161FDF713
:103090006FFF18B1FFE7FDF747FCFFE702B080BD07
:1030A000FFE7FEE780B5FEF73DFAFFE7FEE7000029
:1030B00088B0079006910592079800F007000490E9
:1030C0000498C0F10700052803D3FFE7042001900E
:1030D00004E00498C0F107000190FFE70198039015
:1030E00004980430062803D8FFE70020009003E08E
:1030F000049803380090FFE700980290069803991F
:10310000012202FA01F101390840029B9840059919
:103110009A40013A1140084308B0704780B584B026
:1031200003908DF80B10FF208DF80A0000208DF819
:1031300009009DF80B0020B9FFE700208DF80A0078
:10314000FFE703980DF10A01012200920A2301937F
:10315000FFF75EFD009A019B03980DF10901FFF74F
:10316000A1FC9DF8090004B080BD000080B584B0CA
:1031700003908DF80B1000208DF80A008DF80900DF
:10318000FFE79DF8090007282EDCFFE79DF80B00FC
:103190009DF80910C84000F001008DF808000020DB
:1031A0008DF8070003989DF80810FFF7B7FF8DF81A
:1031B00006009DF80600FF2804D1FFE701208DF8E6
:1031C0000700FFE79DF807009DF8091000FA01F1DC
:1031D0009DF80A0008438DF80A00FFE79DF80900F2
:1031E00001308DF80900CCE79DF80A0004B080BDDD
:1031F00080B584B0039000208DF80B00F0218DF88D
:103200000A108DF8090003984FF4165100F028F8C1
:1032100003980DF10A01012200920A230193FFF79E
:10322000F7FC009A019B03980DF10901FFF73AFCA6
:1032300003984FF4E13100F013F89DF809009DF870
:103240000A10884204D1FFE701208DF80B00FFE748
:103250009DF80B0004B080BD70470000704700006F
:1032600080B586B0059004910020039004980599DC
:1032700048600598006845F20001C4F200018842E8
:103280001BD0FFE70598006844F20041C4F200013A
:10329000884212D0FFE70598006841F60001C4F2A9
:1032A0000101884209D0FFE70598006841F6004116
:1032B000C4F20101884204D1FFE7FEF7ADF80390A4
:1032C00003E0FEF797F80390FFE70598C069B0F5B3
:1032D000004F29D1FFE703981921A0FB0101059AAE
:1032E0001368029353685A00DB0FFCF7E5FF02995D
:1032F000864648F21F53C5F2EB13AEFB032042098A
:1033000010014FF0640C02FB1CEC322202EBCC02E9
:10331000A2FB0332F82303EA521300EB4300C2F38B
:1033200042121044886026E003981921A0FB010195
:10333000059A1368019353689A009B0FFCF7BCFF32
:103340000199844648F21F52C5F2EB12ACFB0230E1
:103350004309642003FB10CC322000EB0C10A0FBCF
:103360000202F02000EA521000EB0310C2F34312F5
:1033700010448860FFE706B080BD000080B582B0D1
:10338000009000980138B0F1807F03D3FFE701205F
:10339000019019E0009801384EF21401CEF20001BC
:1033A00008604FF0FF300F2100F07CFC4EF2180156
:1033B000CEF20001002008604EF21002CEF20002B0
:1033C000072111600190FFE7019802B080BD000065
:1033D00080B5FDF71BFE80BD80B594B007A83421F1
:1033E000FDF70EF8002006900590049003900290DF
:1033F000FFE70020019043F64000C4F2020001689C
:1034000041F080510160006800F080500190019807
:10341000FFE7FFE70020009047F20000C4F2000041
:10342000016841F440410160006800F440400090B0
:103430000098FFE7012007904FF4803008900220A9
:103440000D904FF480010E9106210F9132211091C1
:103450000421119103211291139007A8FEF776F829
:1034600018B1FFE7FDF760FAFFE70F200290022096
:103470000390002104910591069102A8FDF77CFEBE
:1034800018B1FFE7FDF750FAFFE7FDF7A7FF14B00B
:1034900080BD00004EF68851CEF20001086840F46D
:1034A0007000086043F60002C4F20202106840F0A7
:1034B0000100106043F60801C4F202010020086018
:1034C00011684FF6FF73CFF6F6631940116043F6AB
:1034D0000403C4F2020343F21001C2F20041196076
:1034E000116821F48021116043F60C01C4F202013D
:1034F00008604EF60851CEF200014FF000600860FF
:103500007047000080B540F2A000C2F20000FEF754
:10351000BBFC80BD83B002900191029800680090CE
:1035200002980021C4F20101884225D0FFE70298E9
:10353000B0F1804F20D0FFE7029840F20041C4F282
:103540000001884218D0FFE7029840F60001C4F25B
:103550000001884210D0FFE7029840F60041C4F213
:103560000001884208D0FFE7029840F20041C4F20F
:10357000010188420AD1FFE7009820F07000009016
:1035800001984168009808430090FFE702980021E5
:10359000C4F20101884255D0FFE70298B0F1804F94
:1035A00050D0FFE7029840F20041C4F20001884287
:1035B00048D0FFE7029840F60001C4F200018842BB
:1035C00040D0FFE7029840F60041C4F20001884273
:1035D00038D0FFE7029840F20041C4F2010188426E
:1035E00030D0FFE7029844F20001C4F201018842A2
:1035F00028D0FFE7029844F20041C4F2010188425A
:1036000020D0FFE7029844F60001C4F2010188428D
:1036100018D0FFE7029841F60001C4F20001884289
:1036200010D0FFE7029841F60041C4F20001884241
:1036300008D0FFE7029842F20001C4F2000188427C
:103640000AD1FFE7009820F4407000900198C1680B
:10365000009808430090FFE7009820F0800001994F
:1036600049690843009000980299086001988068B1
:103670000299C86201980068029988620298002144
:10368000C4F20101884208D0FFE7029840F20041ED
:10369000C4F20101884205D1FFE70198006902994F
:1036A0000863FFE702990120486103B070470000FA
:1036B00080B582B001900198806B00900099002045
:1036C000C8850099C8840098FEF702FE02B080BD4C
:1036D00084B00390FFE7FFE70398006850E8030F0A
:1036E00020F490700290FFE702990398026842E884
:1036F00003100028F0D1FFE7FFE7FFE7FFE703989B
:10370000006850E8050F20F001000190FFE70199E3
:103710000398026842E805100028F0D1FFE7FFE7B0
:103720000398006B012814D1FFE7FFE7FFE7039838
:10373000006850E8030F20F010000090FFE70099A8
:103740000398026842E803100028F0D1FFE7FFE782
:10375000FFE70399202081F83E00039900200863C9
:1037600004B0704780B582B0019001980168C868C4
:1037700020F04000C8600199202081F83D000198A8
:10378000FFF740FB002002B080BD000080B586B08E
:103790000490049890F83E00222840F0A180FFE7B2
:1037A00004988068B0F5805F15D1FFE70498006940
:1037B00088B9FFE7002003900498806A029004987B
:1037C000006840686FF35F20029908800499886A56
:1037D0000230886225E00498806A039000200290FD
:1037E00004988068B0F5805F08D0FFE7049880688F
:1037F00050B9FFE70498006930B9FFE70498006802
:1038000040680399087007E004980068406800F079
:103810007F0003990870FFE70499886A0130886285
:10382000FFE70499C88D0138C8850004002853D1EA
:10383000FFE704980168C86820F02000C860049879
:103840000168C86820F48070C860049801684869FD
:1038500020F0010048610499202081F83E0004987E
:10386000006B012830D1FFE7049900200863FFE7CF
:10387000FFE70498006850E8030F20F01000019063
:10388000FFE701990498026842E803100028F0D18C
:10389000FFE7FFE7049800680068C00600280ED51F
:1038A000FFE7FFE7002000900498006800680090A0
:1038B00004980068406800900098FFE7FFE70498CC
:1038C000818DFEF7BDFC03E00498FFF79DF9FFE74B
:1038D00000208DF8170007E000208DF8170003E0A6
:1038E00002208DF81700FFE79DF8170006B080BD95
:1038F00080B586B0059005980068006920F44050B6
:10390000059A1168D26810430861059988680B69A7
:103910004A69C96918431043084304900598006830
:10392000C06849F20C618843049908430599096805
:10393000C86005980068406920F44070059A1168D5
:103940009269104348610598006841F20001C4F291
:10395000010188421BD0FFE70598006841F2004151
:10396000C4F20101884212D0FFE70598006841F6D1
:103970000001C4F20101884209D0FFE70598006800
:1039800041F60041C4F20101884204D1FFE7FDF78E
:1039900043FD039003E0FDF72DFD0390FFE705983D
:1039A000C069B0F5004F29D1FFE703981921A0FBAA
:1039B0000101059A1368029353685A00DB0FFCF764
:1039C0007BFC0299864648F21F53C5F2EB13AEFB0F
:1039D0000320420910014FF0640C02FB1CEC322260
:1039E00002EBCC02A2FB0332F82303EA521300EBF2
:1039F0004300C2F342121044886026E00398192164
:103A0000A0FB0101059A1368019353689A009B0F6C
:103A1000FCF752FC0199844648F21F52C5F2EB12A2
:103A2000ACFB02304309642003FB10CC322000EBD6
:103A30000C10A0FB0202F02000EA521000EB031071
:103A4000C2F3431210448860FFE706B080BD000057
:103A500083B002900191ADF802200198029988622A
:103A6000BDF8020002998885BDF802000299C88558
:103A70000299002008640299222081F83E00FFE7A5
:103A80000299002081F83C00FFE702980168C868AD
:103A900040F48070C86002980168486940F00100F5
:103AA000486102980168C86840F02000C8600020A2
:103AB00003B0704783B00190019890F83D00212831
:103AC0003AD1FFE701988068B0F5805F13D1FFE736
:103AD0000198006978B9FFE70198006A00900098A2
:103AE00000886FF35F200199096848600199086AAE
:103AF0000230086208E0019A106A411C11620078E5
:103B0000019909684860FFE70199C88C0138C884A9
:103B1000000468B9FFE701980168C86820F08000D8
:103B2000C86001980168C86840F04000C860FFE7BD
:103B300000208DF80B0003E002208DF80B00FFE75A
:103B40009DF80B0003B0704780B588B0DDF828C041
:103B5000069005918DF813200393FFE706980068FF
:103B6000006805990840401AB0FA80F040099DF8B5
:103B70001310884249D1FFE70A980130002843D04A
:103B8000FFE70A9840B1FFE7FDF7ECF90399401A07
:103B90000A99884237D9FFE7FFE7FFE706980068F0
:103BA00050E8030F20F4D0700290FFE702990698C6
:103BB000026842E803100028F0D1FFE7FFE7FFE7C3
:103BC000FFE70698006850E8050F20F0010001901B
:103BD000FFE701990698026842E805100028F0D135
:103BE000FFE7FFE70699202081F83D00069981F85C
:103BF0003E00FFE70699002081F83C00FFE7032024
:103C00008DF81F0005E0FFE7A8E700208DF81F00F2
:103C1000FFE79DF81F0008B080BD000080B540F2AE
:103C2000E800C2F20000FEF757FB80BDFFE7FEE7A9
:103C300080B582B00190019840680121FFF76EFACB
:103C40008DF80300FFE79DF80300FF2808D0FFE789
:103C5000019840680121FFF761FA8DF80300F2E74F
:103C600002B080BD81B08DF803009DF903000028EB
:103C70000ED4FFE79DF9031001F01F0201209040D0
:103C80004A094EF20011CEF2000141F82200FFE78E
:103C900001B070474EF60C50CEF200000068C0F341
:103CA0000220704782B08DF8070000919DF907004F
:103CB00000280AD4FFE7009800019DF907104EF292
:103CC0000042CEF2000288540BE0009800019DF8FB
:103CD000071001F00F014EF61452CEF20002885484
:103CE000FFE702B07047000083B00290029800F036
:103CF000070000904EF60C51CEF2000108680190CA
:103D000001984FF6FF02104001900198009A40EA96
:103D100002200022C0F2FA5210430190019808607C
:103D200003B0704780B586B0059004918DF80F20E0
:103D300005989DF80F104A1E8DF80F20D1B249004A
:103D400051FA82F100EBC10040F23C21C2F20001C5
:103D5000FCF756FC05989DF80F104A1E8DF80F20B1
:103D6000D1B2490051FA82F100EBC10040F2F811E2
:103D7000C2F20001FCF744FC05989DF80F104A1EA2
:103D80008DF80F20D1B2490051FA82F100EBC10049
:103D900040F2B411C2F20001FCF732FC05989DF824
:103DA0000F104A1E8DF80F20D1B2490051FA82F14E
:103DB00000EBC10040F27011C2F20001FCF720FCE0
:103DC00005989DF80F104A1E8DF80F20D1B24900BA
:103DD00051FA82F100EBC10040F22C11C2F2000155
:103DE000FCF70EFC00200290FFE702989DF80F10F0
:103DF00088422FD2FFE70598029901EB410100EBC1
:103E0000C100FCF70BFC03460499029A885C184336
:103E100088540598029901EB410100EBC100FCF7C1
:103E200025FC03460499029A885C18438854059837
:103E3000029901EB410100EBC100FCF759FC03467C
:103E40000499029A885C18438854FFE7029801306D
:103E50000290CAE77D208DF80500C9208DF8060084
:103E60007F208DF8070000200090FFE700989DF864
:103E70000F1088421FD2FFE70598009901EB41011E
:103E800000EBC100FCF7CAFB0598009901EB41016A
:103E900000EBC100FCF7ECFC0598009901EB410137
:103EA00000EBC1000DF10501FCF708FDFFE70098EC
:103EB00001300090DAE706B080BD000080B58AB01E
:103EC00000200990FDF7B0F8FFF786FAFEF7A0FF93
:103ED000FFF786F8FFF744F8FFF762F8FFF720F8DE
:103EE000FFF79EF8FFF7BCF8FEF7FEFFFFE70020A4
:103EF000089040F2E800C2F20000016809680891E9
:103F00000068406808900898FFE740F2E800C2F2B5
:103F1000000040F28801C2F200011022FEF720F9F1
:103F200040F2A000C2F2000002686FF001011161CE
:103F3000FDF700FF40F28820C2F20000019040F23D
:103F40009801C2F20001029105220392FFF7EAFEF6
:103F500001980299039A00F0D1F8FFE740F29E0021
:103F6000C2F200000078C007002842D0FFE740F20C
:103F70009E01C2F20001087800F0FE00087040F2D5
:103F80008820C2F2000040F29801C2F2000105222E
:103F900000F086F800200790FFE70798042816D85D
:103FA000FFE7079840F20701C2F2000101EB400170
:103FB00000EB400240F28820C2F2000000EBC20099
:103FC000408A4880FFE7079801300790E5E740F214
:103FD0008820C2F2000040F29801C2F200010522DE
:103FE00000F08CF840F2A000C2F20000FDF7A2FE43
:103FF000FFE740F29E00C2F2000000784008C007D0
:1040000000284BD0FFE700208DF81B004CF2503009
:10401000059040F20040C4F2020020210122FCF78A
:1040200089FF40F2E800C2F2000040F20701C2F24C
:1040300000010C22FEF794FEFFE705980138059079
:1040400008B1FFE7F9E740F20040C4F20200202186
:104050000022FCF76FFF40F29E01C2F200010878D7
:1040600000F0FD000870FFE70020049040F2E80037
:10407000C2F2000001680968049100684068049079
:104080000498FFE740F2E800C2F2000040F2880125
:10409000C2F200011022FEF763F8FFE75EE70000BE
:1040A00080B584B0039002918DF807200020009025
:1040B000FFE700989DF8071088421DD2FFE703989C
:1040C000009901EB410100EBC100FCF7A7FA03984E
:1040D000009901EB410100EBC100FCF7C9FB03981B
:1040E000009901EB410100EBC100FCF701FBFFE788
:1040F000009801300090DCE704B080BD80B584B04A
:10410000039002918DF8072000200090FFE70098AF
:104110009DF8071088421ED2FFE70398009901EB33
:10412000410100EBC100FCF779FA0398009901EB1B
:10413000410100EBC100FCF79BFB0398009901EBE8
:10414000410100EBC1000021FCF708FAFFE70098ED
:1041500001300090DBE704B080BD000021F0004298
:1041600001F00043A2F16052B2F5801F28BFD2F1E6
:104170007F6C0BD95FEA001C43EAC20242EB50702D
:1041800018BF704728BF20F001007047B2F5801FAC
:10419000BCBF184670474FEA410C1CF5001F02D205
:1041A000084600F089B970B500F0B4F80000008945
:1041B000FFF7F6BF4FF00040A0F580007047000009
:1041C00070B5DFF848C11CEA111E1EBF1CEA1315AA
:1041D0009EEA0C0F95EA0C0F00F06F8081EA030451
:1041E0004EEAD47EAE4421EA4C1123EA4C1341F44A
:1041F000801143F48013AEF17F7EA1FB024CA0FB43
:104200000365361955EB0C05A1FB034C4CF100037B
:10421000A0FB021C16EB0C06654153F1000309429A
:1042200018BF46F0010613F4007F0BD14FEA0331AB
:104230004FEA053041EA155140EA165034036FF059
:1042400003020AE04FEAC3214FEAC52041EA555173
:1042500040EA5650F4026FF0020202EB2E4201EBEC
:10426000025585EACE710AD05FEA440C18BF24F0EB
:10427000004450F1000041F1000120EAD47040F206
:10428000FE7C624500D270BDA84214BF4FF080444E
:104290004FF04044002E08BF0024BEF1806FA8BF3D
:1042A000A1F1C041BDE8704080F2828001F1C041BF
:1042B00001F000414FF0000070470CEA13159EEA30
:1042C0000C0F18BF95EA0C0F06D081EA030E4FF0D1
:1042D00000000EF0004170BD00F01CF88900013EA6
:1042E00000F007B800F009B84FEA430C5FEA5C5CE5
:1042F00008D081EA030100F05BB84FEA410C5FEAA5
:104300005C5CF6D102494FF0000070470000FF07E7
:104310000000F87F0EF1020E2EF0030E5EF8046B23
:10432000364205D4012A43EB030515F5001F12D8C8
:10433000012841EB010C1CF5001F0CD80ED14FEAEF
:10434000D17C0CEB4C0C0CF1020C15F5001F08BFD6
:104350004CEBD37C04E04FF0080C01E04FEAD37C37
:104360000CEB4C0526FA05F606F00706B6F1040C30
:1043700006D20EEB860CBDE870404CF0010C604795
:10438000DFE80CF0090B02024FF00041A1F500211B
:104390004FF0000070BD19461046012851EB010492
:1043A00018BFD4F5001484BF002001F0004170BD97
:1043B0000808A0F500114FEA3101704743004FEAA9
:1043C000D30C4FEA3C0C43401FBF40070CF1605137
:1043D00013F0FE4F70471CF0006F03D10CF000414A
:1043E000002070470CF0004343EA507040EACC00D4
:1043F00010B500F00EF800BF000000924FEA000177
:10440000FFF7D6BF4FF00041A1F500214FF00000AB
:1044100070470EF1020E2EF0030E5EF8044B24429C
:1044200004D44FEA4102B2F17F4F11D84FEA400362
:10443000B3F17F4F0CD80ED14FEAD07C0CEB4C0C73
:104440000CF1020CB2F17F4F08BF4CEBD17C04E0C1
:104450004FF0080C01E04FEAD17C0CEB4C0324FA3E
:1044600003F404F00704B4F1040C06D20EEB840C40
:10447000BDE810404CF0010C6047DFE80CF0070885
:1044800002024FF00040A0F5800010BD0846420037
:1044900018BFD2F1807288BF00F0004010BDF1EE6D
:1044A000100A4FF6FF71C0F2C03120EA010040F05F
:1044B0004070E1EE100A7047FF2141EAD050C0057C
:1044C000704700000000000000000102030406071E
:1044D0000809000000000102030400000045000874
:1044E00000000020280000001402000828450008F1
:1044F00028000020E0080000300200080000000052
:104500000024F400440000FD5500000000000000FD
:10451000000000330800BE0900CC000001000000CC
:08452000100000004E00030032
:04000005080001D915
:00000001FF
