:020000040800F2
:10000000103D0020B90200085D340008613100088D
:1000100059340008BF0500085963000800000000BB
:10002000000000000000000000000000ED390008A2
:10003000A5060008000000000B370008013A000880
:10004000D3020008D3020008D3020008D30200083C
:10005000D3020008D3020008D3020008D30200082C
:10006000D3020008D3020008D3020008D30200081C
:10007000D3020008D3020008D3020008D30200080C
:10008000D3020008D3020008D3020008D3020008FC
:10009000D3020008D3020008D3020008D3020008EC
:1000A000D3020008D3020008D3020008D3020008DC
:1000B000D3020008D3020008D3020008D3020008CC
:1000C000D3020008D3020008D3020008D3020008BC
:1000D000D3020008693F0008D3020008793F0008F6
:1000E000D3020008D3020008D3020008D30200089C
:1000F000D3020008D3020008D3020008D30200088C
:10010000D3020008D3020008D3020008D30200087B
:10011000D53A0008D3020008D3020008D302000831
:10012000D3020008D3020008D3020008D30200085B
:10013000D3020008D3020008D3020008D30200084B
:10014000D3020008D3020008D30200086534000877
:10015000D3020008D3020008D3020008893F000838
:10016000D3020008D3020008D3020008D30200081B
:10017000D3020008D30200080000000000000000C5
:10018000D3020008D3020008D3020008D3020008FB
:10019000D3020008D302000800000000D3020008C8
:1001A000D3020008D3020008000000000000000095
:1001B000D30200080000000000000000D302000885
:1001C000D3020008D3020008D3020008D3020008BB
:1001D000D3020008D302000800F002F800F05CF837
:1001E0000AA090E8000C82448344AAF10107DA4592
:1001F00001D100F051F8AFF2090EBAE80F0013F088
:10020000010F18BFFB1A43F001031847F8680000FC
:10021000186900000A444FF0000C10F8013B13F07D
:10022000070408BF10F8014B1D1108BF10F8015B4F
:10023000641E05D010F8016B641E01F8016BF9D142
:1002400013F0080F1EBF10F8014BAD1C0C1B09D199
:100250006D1E58BF01F801CBFAD505E014F8016B0B
:1002600001F8016B6D1EF9D59142D6D3704700009D
:100270000023002400250026103A28BF78C1FBD8AF
:10028000520728BF30C148BF0B6070471FB506F04A
:1002900027FC1FBD10B510BD00F057F91146FFF740
:1002A000F5FF06F077F800F075F903B4FFF7F2FFF9
:1002B00003BC00F07DF90000094880470948004769
:1002C000FEE7FEE7FEE7FEE7FEE7FEE7FEE7FEE706
:1002D000FEE7FEE704480549054A064B7047000063
:1002E000C13A0008D901000810330020103D002059
:1002F000103500201035002053EA020C00F0698010
:100300002DE9F04B4FF00006002B1FBFB3FA83F529
:1003100003FA05F424FA05F65E4012BF1643B2FA5A
:1003200082F502FA05F4C5F120051EBF22FA05FC8C
:1003300044EA0C04203556EA044C4FEA144418BF32
:10034000641C4FF000084FF00009904271EB030C61
:1003500039D3002919BFB1FA81F701FA07F6B0FACB
:1003600080F700FA07F6C7F120071EBF20FA07FC46
:1003700046EA0C062037B6FBF4FCA7EB0507103F56
:1003800007F01F0BCBF120060CFA0BFB2CFA06F63C
:1003900044BFB3460026202FA4BF5E464FF0000B9B
:1003A0005BEA060C08BF4FF0010B19EB0B09ABFB26
:1003B000027C48EB0608C01B06FB02CC0BFB03CCFF
:1003C00071EB0C01C1E70B46024641464846BDE8C9
:1003D000F08B13B54FF000004FF00001AFF3008039
:1003E000BDE81C40704740EA010310B59B070FD1E0
:1003F000042A0DD310C808C9121F9C42F8D020BA95
:1004000019BA884201D9012010BD4FF0FF3010BD4C
:100410001AB1D30703D0521C07E0002010BD10F81A
:10042000013B11F8014B1B1B07D110F8013B11F8E0
:10043000014B1B1B01D1921EF1D1184610BD10B506
:10044000203AC0F00B80B1E81850203AA0E81850CC
:10045000B1E81850A0E81850BFF4F5AF5FEA027C8D
:1004600024BFB1E81850A0E8185044BF18C918C0FC
:10047000BDE810405FEA827C24BF51F8043B40F89D
:10048000043B08BF7047D20728BF31F8023B48BF82
:1004900011F8012B28BF20F8023B48BF00F8012BC0
:1004A000704702F0FF0343EA032242EA024200F0EF
:1004B0002CB84FF0000200B51346944696462039FA
:1004C00022BFA0E80C50A0E80C50B1F12001BFF40D
:1004D000F7AF090728BFA0E80C5048BF0CC05DF873
:1004E00004EB890028BF40F8042B08BF704748BFC1
:1004F00020F8022B11F0804F18BF00F8012B704735
:100500007047704770474FF000020429C0F0128016
:1005100010F0030C3FF4CFAFCCF1040CBCF1020F90
:1005200018BF00F8012BA8BF20F8022BA1EB0C018B
:10053000FFF7C1BF5FEAC17C24BF00F8012B00F8C0
:10054000012B48BF00F8012B7047754600F02CF8CE
:10055000AE4605006946534620F00700854618B0B0
:1005600020B5FFF7B7FEBDE820404FF000064FF082
:1005700000074FF000084FF0000B21F00701AC46D8
:10058000ACE8C009ACE8C009ACE8C009ACE8C009F7
:100590008D46704710B50446AFF300802046BDE895
:1005A0001040FFF782BE000000487047B0320020C4
:1005B00001491820ABBEFEE726000200704700BFCD
:1005C000FEE70346042B15D007DC7BB1012B0ED0D0
:1005D000022B0DD0032B12D10BE0202B0BD0212BA3
:1005E0000AD0222B09D0232B09D107E008E007E02D
:1005F00006E005E004E003E002E001E000E000BF07
:1006000000BF0020704700207047000010B5002296
:100610000449054803F01AFE0449034803F00BFEA1
:10062000002010BD88240020B8170020881C00205E
:1006300070B504460D460748007810B901200649F8
:1006400008702146054803F0F6FD044803F0CEFD8E
:10065000002070BD1C00002008000020B8170020FA
:1006600010B503460C460021084610BD2DE9F041A7
:1006700004460D4600260A48D0F8BC72D7F814028A
:1006800010B10120BDE8F0812A462146044803F05C
:10069000DDFD034803F076FE06463046F2E7000033
:1006A000B8170020704772B600BFFEE770B50A4861
:1006B0000468001D0568001D0668344454B1082212
:1006C0000649204602F04EFD042204491031284616
:1006D00002F048FD70BD0000107AFF1F7A00002074
:1006E00070B50446A56D00F07BF9064694F8350018
:1006F000022808D08020606500BF002084F8340004
:1007000000BF012070BD2068006820F0160021683D
:1007100008602068406920F0800021684861206CF2
:1007200008B9A06C28B12068006820F00800216892
:1007300008602068006820F001002168086010E06F
:1007400000F04EF9801B05280BD92020606503209E
:1007500084F8350000BF002084F8340000BF032077
:10076000D0E72068006800F001000028E8D194F884
:100770005C103F208840A860012084F8350000BF4D
:10078000002084F8340000BF00BFBBE7014691F8A9
:100790003500022803D080204865012070470520DD
:1007A00081F835000868006820F001000A681060D0
:1007B0000020F3E770B5044600F012F9064625461E
:1007C000681C10B104480078054400BF00F008F927
:1007D000801BA842FAD370BDB0000020F8B50246D5
:1007E0000B460025002400200021D0E0012606FA57
:1007F00001F51E6806EA0504AC4274D11E7906F0C4
:100800000306012E04D01E7906F00306022E13D132
:1008100090684F000326BE40B0434F00DE68BE40E4
:1008200030439060506801268E40B0431E79C6F375
:1008300000168E40304350601E7906F00306032EEA
:1008400009D0D0684F000326BE40B0434F009E68D9
:10085000BE403043D0601E7906F00306022E13D14D
:10086000CF0802F1200656F827004E07F70E0F2694
:10087000BE40B0434F07FF0E1E69BE403043CF0855
:1008800002F1200646F8270010684F000326BE40FC
:10089000B0431E7906F003064F00BE40304310609F
:1008A0005E6806F44036002E70D000BF0026009629
:1008B000394E366846F48046374F3E603E463668CD
:1008C00006F48046009600BF00BF344E8F0856F8ED
:1008D00027008E07370F0F26BE40B043304EB2427E
:1008E00002D100261FE051E02E4EB24201D1012676
:1008F00019E02D4EB24201D1022614E02B4EB24235
:1009000001D103260FE02A4EB24201D104260AE0AB
:10091000284EB24201D1052605E0274EB24201D150
:10092000062600E007268F073F0FBE4030431B4ED0
:100930008F0846F82700214E3068A0435E6806F411
:10094000803606B120431D4E3060361D3068A0430E
:100950005E6806F4003606B12043184E361D30603E
:10096000361D3068A0435E6806F4801606B1204349
:10097000124E08363060361D3068A0435E6806F4BB
:10098000001606B120430D4E0C363060491C10296C
:10099000FFF42CAFF8BD0000443802400838014095
:1009A000000002400004024000080240000C024027
:1009B000001002400014024000180240003C0140B8
:1009C00010B5426921EA020302EA010443EA044342
:1009D000836110BD0AB1816101E00B04836170473E
:1009E0000148006870470000A80000200348006824
:1009F000034909780844014908607047A8000020AD
:100A0000B000002010B50D48006840F400700B499C
:100A100008600846006840F4806008600846006886
:100A200040F480700860032000F0A2F80F2000F06E
:100A300007F800F02BF8002010BD0000003C024039
:100A400070B504460E4800784FF47A71B1FBF0F0AF
:100A50000C490968B1FBF0F5284602F011F808B11D
:100A6000012070BD102C07D200222146501E00F03C
:100A700041F80548046001E00120F2E70020F0E7BA
:100A8000B0000020B4000020AC00002008B500BF7A
:100A9000002000900E48006840F480400C49086037
:100AA0000846006800F48040009000BF00BF00BF0F
:100AB00000200090081F006840F08050091F086067
:100AC0000846006800F08050009000BF00BF08BDDD
:100AD0004438024001460846002809DB00F01F03A5
:100AE00001229A4043099B0003F1E023C3F800214F
:100AF00000BF70472DE9F05F80460D46164600277F
:100B000005F02CFC074639462A46334601F007001B
:100B1000C0F1070ABAF1040F02D94FF0040A01E04C
:100B2000C0F1070AD14600F1040ABAF1070F02D258
:100B30004FF0000A01E0A0F1030AD4464FF0010A89
:100B40000AFA09FAAAF1010A0AEA020A0AFA0CFAEE
:100B50004FF0010B0BFA0CFBABF1010B0BEA030B93
:100B60004AEA0B042146404605F000FCBDE8F09F30
:100B700000BF00F00702064B19684FF6FF0319404B
:100B8000044B0B4343EA0221014B196000BF70473D
:100B90000CED00E00000FA0501460A680120C1F8EA
:100BA000FC03002081F8F403906940F0006090613C
:100BB000506D024B18435065002070470300001031
:100BC000704702461068416200207047F0B5034646
:100BD00015461868446A21B944EA05401E68B062A7
:100BE00019E01868806A04EB1044002208E01868D5
:100BF00000F5827050F8220004EB1044501CC2B281
:100C0000481E9042F3D844EA0547186800F5827000
:100C10004E1E40F826700020F0BD10B50446D4F8F2
:100C2000040403F081FF10BD70B504460D46C5EB0A
:100C3000C50304F13C0101EB8301CA682946D4F8DD
:100C4000040403F0B9FE70BD70B504460D46C5EB53
:100C5000C50304F5FE7101EB8301CA682946D4F887
:100C6000040403F01AFF70BD10B50446D4F8040460
:100C700003F05DFF10BD70B504460E4606F080001F
:100C800080280AD106F00F00C0EBC00104F13C003F
:100C900000EB81050120687009E006F00F00C0EB51
:100CA000C00104F5FE7000EB81050020687006F0BD
:100CB0000F00287000BF94F8BC03012801D1022066
:100CC00070BD012084F8BC0300BF2946206804F0F1
:100CD00081FC00BF002084F8BC0300BF00BFEFE729
:100CE00070B504460E4606F00F006168884201D9CF
:100CF000012070BD06F0800080280AD106F00F00A8
:100D0000C0EBC00104F13C0000EB810501206870DC
:100D100009E006F00F00C0EBC00104F5FE7000EB27
:100D20008105002068700020A87006F00F00287070
:100D300000BF94F8BC03012801D10220D9E70120AB
:100D400084F8BC0300BF2946206804F025FF00BFDB
:100D5000002084F8BC0300BF00BFCAE7024601F0D0
:100D60000F00C0EBC00302F5FE7000EB830080694A
:100D700070472DE9F04705460E4690461F464FF056
:100D8000000906F0800080280AD106F00F00C0EBB1
:100D9000C00105F13C0000EB81040120607009E016
:100DA00006F00F00C0EBC00105F5FE7000EB8104FA
:100DB0000020607006F00F002070C4F80880E77013
:100DC000607808B12078E080022F01D100202071E6
:100DD00000BF95F8BC03012802D10220BDE8F087CE
:100DE000012085F8BC0300BF2146286804F00AFBF7
:100DF00000BF002085F8BC0300BF4846EEE72DE9A0
:100E0000F04104460E461746984606F00F00C0EB28
:100E1000C00104F5FE7000EB8105EF60C5F8148099
:100E20000020A861687006F00F0028702069012872
:100E300000D12F6106F00F0028B9227C29462068D6
:100E400004F086FD04E0227C2946206804F038FF87
:100E50000020BDE8F08170B504460D4605F00F0096
:100E60006168884201D9012070BD05F080008028AA
:100E70000AD105F00F00C0EBC00104F13C0000EB0B
:100E800081060120707007E0C5EBC50104F5FE7016
:100E900000EB8106002070700120B07005F00F009B
:100EA000307000BF94F8BC03012801D10220DBE7B9
:100EB000012084F8BC0300BF3146206804F0B3FE73
:100EC00005F00F0028B9217C04F57172206804F048
:100ED0002BFE00BF002084F8BC0300BF00BFC3E7A7
:100EE0002DE9F04104460E461746984606F00F00DD
:100EF000C0EBC00104F13C0000EB8105EF60C5F8D8
:100F000014800020A8610120687006F00F0028708E
:100F10002069012800D12F6106F00F0028B9227C3A
:100F20002946206804F014FD04E0227C294620684C
:100F300004F0C6FE0020BDE8F0812DE9FE4F044616
:100F400020680290029D206805F0A9F800287DD154
:100F5000206805F0E3F808B9BDE8FE8F206805F0C9
:100F6000DDF800F00200022805D12068406900F099
:100F7000020021684861206805F0D0F800F01000F8
:100F8000102846D12068806920F01000216888610F
:100F90000298D0F8209009F00F00C0EBC00104F5D2
:100FA000FE7000EB810AC9F3434002281AD147F6CC
:100FB000F07009EA000030B3C9F30A12DAF80C1035
:100FC000029805F0B0F8C9F30A11DAF80C000844E9
:100FD000CAF80C00C9F30A11DAF818000844CAF874
:100FE000180010E0C9F3434006280CD1082204F58C
:100FF0007171029805F097F8C9F30A11DAF8180030
:101000000844CAF818002068806940F01000216880
:101010008861206805F082F800F40020B0F5002F08
:1010200052D10026206805F049F8834649E00BF0CC
:101030000100E8B3F1B2206805F063F8804608F0DB
:10104000010058B1012105F5306000E043E200EBFA
:10105000461081603146204602F03EFA08F0080052
:10106000082809D1082105F5306000EB46108160A1
:101070003146204602F0FEF908F01000102805D194
:10108000102105F5306000EB4610816008F020006B
:10109000202805D1202105F5306000EB4610816045
:1010A00008F40050B0F5005F08D14FF4005100E0A3
:1010B00004E005F5306000EB46108160761C4FEAD5
:1010C0005B0BBBF1000FB2D1206805F027F800F4EC
:1010D0008020B0F5802F7ED1206804F0E5FF8346A4
:1010E000002683E00BF0010000287CD0F1B22068DC
:1010F00004F0EEFF804608F00100F0B306F00F01A7
:1011000001208840019040F634004159019821EABD
:10111000000040F634014851012105F5106000EB54
:10112000461081602069012824D1C6EBC60104F174
:101130003C0000EB8100C6EBC602C16804F13C0034
:1011400000EB820080680144C6EBC60204F13C005B
:1011500000EB8200C1606EB9C6EBC60104F13C0031
:1011600000EB8100406928B904F571720121206803
:1011700004F0DAFCF1B2204600E001E0FFF754FD94
:1011800008F00800082805D1082105F5106000EBDB
:101190004610816008F01000102805D1102105F5D7
:1011A000106000EB4610816008F04000402805D137
:1011B000402105F5106000EB4610816008F0020048
:1011C000022805D1022105F5106000EB4610816070
:1011D00008F0800001E00DE005E0802803D13146F1
:1011E000204602F037FA761C4FEA5B0BBBF1000F8A
:1011F0007FF478AF206804F091FF00F00040B0F178
:10120000004F1CD140F60400405920F0010140F687
:101210000400415194F8F403012807D1002084F818
:10122000F40300212046FFF7CBFC02E0204600F04B
:1012300093FA2068406900F0004021684861206806
:1012400004F06CFF00F40060B0F5006F0ED140F6C2
:101250000800405900F0010010B1204600F0D4FA17
:101260002068406900F4006021684861206804F04B
:1012700055FF00F00060B0F1006F19D1206840699F
:1012800000F000602168486194F8F40368B9012017
:1012900084F8F4032068406DC0F38300C4F8F803B9
:1012A00001212046FFF78CFC02E0204600F0ACFA5A
:1012B000206804F033FF00F48050B0F5805F7DD1EA
:1012C00040F60400405920F0010140F6040041516D
:1012D0001021206804F0B6FE00273EE04FF67F3173
:1012E00005F5106000EB4710816005F5106000EB1C
:1012F0004710006820F4001105F5106000EB47105E
:10130000016005F5106000EB4710006840F00061D7
:1013100005F5106000EB471001604FF67F3105F5D1
:10132000306000EB4710816005F5306000EB47103E
:10133000006820F4001105F5306000EB47100160F3
:1013400005F5306000EB4710006840F0006105F5DE
:10135000306000EB471001607F1C6068B842BDD868
:1013600040F61C00405940F0011140F61C0041516C
:10137000206B70B1D5F8840840F00B01C5F88418D3
:1013800040F64400405940F00B0140F64400415102
:101390000FE040F61400405942F22B01084340F69A
:1013A00014014851081F405940F00B014FF40160EF
:1013B0004151D5F8000820F4FE6000E00DE0C5F8CA
:1013C0000008217C04F57172206804F0ADFB2068F0
:1013D000406900F4805021684861206804F09EFE56
:1013E00000F40050B0F5005F17D1206804F072F8E7
:1013F000206804F041FEE06000F010FD0090227BC8
:101400002068009904F012FF204600F093F920684C
:10141000406900F4005021684861206804F07EFEB5
:1014200000F00800082808D1204600F09CF9206848
:10143000406900F0080021684861206804F06EFEF1
:1014400000F48010B0F5801F0AD1002631462046F6
:1014500000F043F82068406900F48010216848617A
:10146000206804F05BFE00F40010B0F5001F0AD104
:1014700000263146204600F039F82068406900F423
:10148000001021684861206804F048FE00F08040A8
:10149000B0F1804F08D12046FFF7BFFB20684069BC
:1014A00000F0804021684861206804F037FE00F0B9
:1014B000040004280FD12068D0F8049009F004003B
:1014C000042802D12046FFF7CFFB2068406840EA9D
:1014D00009002168486000BF3EE570B504460D462E
:1014E0002946D4F8040403F08DFB70BD70B50446A2
:1014F0000D462946D4F8040403F09CFB70BD70B57A
:101500008AB0044614B901200AB070BD266894F868
:10151000BD0328B9002084F8BC03204600F0A8F8D9
:10152000032084F8BD03F06B00F4807008B900213B
:101530002161206804F004FA282204F110016846B1
:10154000FEF77DFF94E80F0003F0D8FF20B10220E2
:1015500084F8BD030120D7E70021206804F013FEC2
:10156000002531E00121C5EBC50204F13C0000EB90
:1015700082004170C5EBC50104F13C0000F8215028
:10158000C5EBC50100EB8100C5800021C5EBC5029C
:1015900004F13C0000EB8200C170C5EBC50204F110
:1015A0003C0000EB82008160C5EBC50204F13C0009
:1015B00000EB8200C160C5EBC50204F13C0000EB0A
:1015C00082004161681CC5B26068A842CAD8002583
:1015D0002AE00021C5EBC50204F5FE7000EB820095
:1015E0004170C5EBC50104F5FE7000F821500021E3
:1015F000C5EBC50200EB8200C170C5EBC50204F566
:10160000FE7000EB82008160C5EBC50204F5FE7040
:1016100000EB8200C160C5EBC50204F5FE7000EB73
:1016200082004161681CC5B26068A842D1D82822F6
:1016300004F110016846FEF702FF94E80F0004F081
:1016400093F820B1022084F8BD0301205CE700205C
:1016500084F83800012084F8BD03606A012802D1B3
:101660002046FFF799FA206804F06CF800204BE759
:1016700010B59CB00446142117A8FEF71AFF582194
:1016800001A8FEF716FF2068B0F1A04F4CD1202032
:10169000019000200D9001A800F0D0F808B1FFF7EC
:1016A00002F800BF002000902048006840F00100D0
:1016B0001E4908600846006800F00100009000BF65
:1016C00000BF4FF4C05017900220189000201990CE
:1016D00003201A900A201B9017A91548FFF77EF8DF
:1016E00000BF1248001D006840F080000F49091D2E
:1016F000086000BF002000900C481430006840F4DF
:1017000080400A49143108600846006800F48040AF
:10171000009000BF00BF00BF002211464320FFF72A
:10172000E9F94320FFF7D6F91CB010BD303802406C
:101730000000024070B504460125E068022801D08F
:10174000FEF7B1FF2946D4F8040403F012FBD4F8E5
:10175000040403F0B7FA70BD10B50446D4F80404CD
:1017600003F0E6FA10BD10B50446D4F8040403F003
:10177000EAFA10BD70B504460D4600BF94F8BC03EC
:10178000012801D1022070BD012084F8BC0300BFF4
:1017900084F838502946206804F029FD00BF002055
:1017A00084F8BC0300BF00BFEDE710B5044604F5A4
:1017B0007171D4F8040403F0F3FA10BD70B5044657
:1017C000256800BF94F8BC03012801D1022070BD38
:1017D000012084F8BC0300BFA06A012806D1A069DB
:1017E000012803D0A86B40F48030A863206804F07F
:1017F00009FC206803F094FF00BF002084F8BC03BC
:1018000000BF00BFE3E7000010B50446D4F80404AD
:1018100003F023FB2068D0F8000E40F0010021689F
:10182000C1F8000E206A28B10348006840F00600A5
:101830000149086010BD000010ED00E02DE9F843FB
:101840000446002500260027A846207800F0010065
:1018500058B1FE48006820F0C060E1690843FB49C8
:101860000860E06908B94FF00108207800F0020034
:1018700002280BD1F548006820F0C050216A0843C7
:10188000F2490860206A08B94FF00108208800F486
:101890000050B0F5005F19D1EC48006820F440100A
:1018A000A16C0843E9490860A06C08B94FF0010831
:1018B000A06CB0F5001F09D1E448006820F4F8518D
:1018C0006069401E41EA0020E0490860208800F479
:1018D0008040B0F5804F19D1DC48006820F440000A
:1018E000E16C0843D9490860E06C08B94FF0010881
:1018F000E06CB0F5000F09D1D448006820F4F8512D
:101900006069401E41EA0020D0490860207800F05C
:10191000080008287ED100BF00200090CB484C383A
:10192000006840F08050C9494C390860084600689A
:1019300000F08050009000BF00BFC548006840F430
:101940008070C3490860FFF74BF8054607E0FFF7D2
:1019500047F8401B022802D90320BDE8F883BC48A1
:10196000006800F480700028F1D0B8481C38006886
:1019700000F440764EB3A08C00F44070B04224D006
:10198000B2481C38006820F440760120B149086054
:1019900000200860AD481C380660006800F00100B7
:1019A00098B1FFF71DF8054608E0FFF719F8401B4E
:1019B00041F28831884201D90320CEE7A3481C3880
:1019C0000068C0F340000028EFD000BFA08C00F4F6
:1019D0004070B0F5407F0CD19C488438006820F4FA
:1019E000F8109D4A616A114008439849843908609B
:1019F00007E096488438006820F4F8109349843949
:101A0000086092481C380068A18CC1F30B010843A0
:101A10008E4900E002E01C39086000BF207800F029
:101A20000400042803D194F854008C4908602078FD
:101A300000F01000102809D184480830006820F414
:101A40004000E16A0843814908310860207800F0CD
:101A5000200020280FD17D480830006820F0006069
:101A6000216B0843794908310860206BB0F1006FA1
:101A700001D14FF00108207800F04000402809D142
:101A800072480830006820F08050A16A08436F490E
:101A900008310860B8F1010F02D0206880287DD19C
:101AA00000206F498866FEF79BFF054606E0FEF7BB
:101AB00097FF401B022801D903204EE763488C386A
:101AC0000068C0F3C0600028F1D16649206D08604D
:101AD000207800F0010008B1E069D0B1207800F072
:101AE0000200022801D1206A98B1207800F020007D
:101AF000202803D1206BB0F1006F0AD0207800F0CD
:101B00004000402812D1A06A80B9206BB0F1006F6C
:101B10000CD1D4E9011041EA8011207B41EA006137
:101B2000207C41EA0070494908390860208800F4A7
:101B30000050B0F5005F01D1A06C38B1208800F4EE
:101B40008040B0F5804F1BD1E06CC8B93F480838E1
:101B50000068C0F30367D4E9011041EA801040EA4D
:101B60000761207C41EA007038490839086037482D
:101B7000006820F01F00A169491E0843334908602E
:101B8000207800F0800080280ED1D4E9011041EACD
:101B90008011207B41EA0061207C00E019E041EAED
:101BA00000702A490839086001202D498866FEF72F
:101BB00017FF054606E0FEF713FF401B022801D978
:101BC0000320CAE621488C380068C0F3C0600028B2
:101BD000F1D0208800F48070B0F5807F07D11B48D9
:101BE000006820F00040616B0843184908602088B5
:101BF00000F40070B0F5007F07D11448006820F4AD
:101C00000040A16B084311490860208800F48060FF
:101C1000B0F5806F07D10D48006820F00040E16BFF
:101C200008430A490860208800F40060B0F5006F9E
:101C300007D10648006820F48040216C084303491E
:101C40000860208800F480500EE000008C380240CC
:101C500000700040400E4742FFFCFF0FE01147427A
:101C600000004742D8104742B0F5805F07D10548D1
:101C7000006820F04040616C084302490860002081
:101C80006BE60000943802407047000070B50446CF
:101C90000D460CB9012070BD5848006800F00700DF
:101CA000A84209D255490D700846006800F00700A7
:101CB000A84201D00120EEE7207800F002000228BF
:101CC0001DD1207800F00400042805D14C4800689C
:101CD00040F4E0504A490860207800F008000828E5
:101CE00005D14748006840F46040454908604448D1
:101CF000006820F0F000A16808434149086020789E
:101D000000F00100A8B36068012807D13C480838FA
:101D10000068C0F34040B8B90120BCE76068022801
:101D200002D06068032807D1354808380068C0F33E
:101D3000406048B90120AEE7314808380068C0F378
:101D4000400008B90120A6E72D48006820F00300F4
:101D5000616808432A490860FEF742FE064609E02A
:101D6000FEF73EFE801B41F28831884202D90320F3
:101D700091E707E02248006800F00C006168B0EBD2
:101D8000810FEDD11D48006800F00700A84209D975
:101D90001A490D700846006800F00700A84201D0FB
:101DA000012078E7207800F00400042807D11448C7
:101DB000006820F4E050E168084311490860207889
:101DC00000F00800082808D10D48006820F46040A1
:101DD000216940EAC1000A49086000F045F8084955
:101DE0000968C1F30311074A515CC84006490860FD
:101DF00006480068FEF724FE00204CE7003C024045
:101E000008380240EA6A0008B4000020AC00002054
:101E100001200149C864704700004742014800683A
:101E200070470000B400002000B5FFF7F7FF044939
:101E30000968C1F38221034A515CC84000BD00001B
:101E400008380240FA6A000800B5FFF7E7FF0449C6
:101E50000968C1F34231034A515CC84000BD00002B
:101E600008380240FA6A00082DE9F04700240025EE
:101E70000026A1462548006800F00C0020B1042887
:101E800005D008283AD105E0DFF8849039E0DFF882
:101E9000849036E01D48001F006800F03F041B4896
:101EA000001F006800F4800078B11A481749091F24
:101EB0000968C1F38811A0FB017001462246002386
:101EC0003846FEF719FA05460EE011480F49091F7A
:101ED0000968C1F38811A0FB017001462246002366
:101EE0003846FEF709FA05460848001F0068C0F3A7
:101EF0000140401C4600B5FBF6F902E0DFF8109007
:101F000000BF00BF4846BDE8F08700000838024027
:101F10000024F400001BB70010B50648006800F06C
:101F20008000802805D1FFF7AFFE80200149891C81
:101F3000087010BD0C380240F8B504460CB90120F9
:101F4000F8BD207800F00100002874D0F748006840
:101F500000F00C0004280DD0F448006800F00C00DC
:101F6000082813D1F148001F006800F48000B0F584
:101F7000800F0BD1ED4808380068C0F340400028BE
:101F800059D06068002856D10120D9E700BF6068A9
:101F9000B0F5803F08D1E5480838006840F480304B
:101FA000E249083908601EE06068B0F5A02F0DD145
:101FB000DE480838006840F48020DC4908390860B1
:101FC0000846006840F4803008600CE0D7480838C4
:101FD000006820F48030D549083908600846006858
:101FE00020F48020086000BF606890B1FEF7F8FC24
:101FF000054606E0FEF7F4FC401B642801D90320E7
:102000009EE7CA4808380068C0F340400028F1D075
:1020100011E0FEF7E5FC054606E0FEF7E1FC401B9B
:10202000642801D903208BE7C04808380068C0F352
:1020300040400028F1D1207800F0020002285FD152
:10204000BA48006800F00C0058B1B848006800F0C9
:102050000C0008281CD1B548001F006800F480005F
:10206000B0B9B24808380068C0F3400020B1E06859
:10207000012801D0012063E7AC480838006820F04F
:10208000F800216940EAC100A8490839086037E032
:10209000E06800B30120A6490860FEF7A1FC0546F0
:1020A00006E0FEF79DFC401B022801D9032047E70C
:1020B0009E4808380068C0F340000028F1D09B48D3
:1020C0000838006820F0F800216940EAC10097490B
:1020D0000839086014E0002095490860FEF780FC8C
:1020E000054606E0FEF77CFC401B022801D90320D0
:1020F00026E78E4808380068C0F340000028F1D178
:10210000207800F0080008282CD16069A8B10120CF
:1021100088490860FEF764FC054606E0FEF760FCAF
:10212000401B022801D903200AE780486C30006870
:10213000C0F340000028F1D014E000207D49086081
:10214000FEF74EFC054606E0FEF74AFC401B02285F
:1021500001D90320F4E675486C300068C0F34000F4
:102160000028F1D1207800F00400042870D1002765
:102170006E483830006800F0805090B900BF0020F1
:1021800000906A483830006840F080506749383124
:1021900008600846006800F08050009000BF00BF53
:1021A00001276548006800F48070B0B96248006893
:1021B00040F4807060490860FEF712FC054606E0B6
:1021C000FEF70EFC401B022801D90320B8E65A484E
:1021D000006800F480700028F2D000BFA0680128D9
:1021E00008D152486830006840F001004F4968311A
:1021F00008601DE0A06805280DD14C4868300068D3
:1022000040F004004949683108600846006840F021
:10221000010008600CE045486830006820F00100CB
:102220004249683108600846006820F004000860F0
:1022300000BFA068A8B1FEF7D3FB054609E0FEF792
:10224000CFFB401B41F28831884202D9032077E658
:1022500026E0364868300068C0F340000028EED021
:1022600013E0FEF7BDFB054608E0FEF7B9FB401B97
:1022700041F28831884201D9032061E62B48683059
:102280000068C0F340000028EFD1012F07D1274894
:102290003830006820F0805024493831086000BF91
:1022A000A069002850D02148006800F00C000828E0
:1022B00060D0A069022848D100201D490866FEF7B9
:1022C0008FFB054606E0FEF78BFB401B022801D979
:1022D000032035E6154808380068C0F34060002840
:1022E000F1D1D4E907010843616A40EA8111012272
:1022F000A06AC2EB500041EA00412C20005D41EA97
:1023000000613020005D41EA00700849091F086043
:10231000012007490866FEF763FB05460EE0FEF75D
:102320005FFB401B022809D9032009E60838024058
:1023300000004742800E4742007000402848006875
:10234000C0F340600028EAD048E000202549086634
:10235000FEF746FB054606E0FEF742FB401B02285F
:1023600001D90320ECE51E480068C0F34060002856
:10237000F2D133E0A069012800D1E1E51848001D41
:102380000668A069012827D006F48001E06981422F
:1023900022D106F03F01206A81421DD147F6C0706C
:1023A0003040616AB0EB811F16D106F44031012242
:1023B000A06AC2EB5000B1EB004F0DD106F0706186
:1023C0002C20005DB1EB006F06D106F0E04130201B
:1023D000005DB1EB007F01D00120B1E50020AFE549
:1023E000003802400000474210B504460CB90120F5
:1023F00010BD606A38B96068B0F5827F00D105E031
:102400000021E16102E00021216161610021A162FE
:1024100094F8510028B9002084F85000204600F0BC
:1024200047F8022084F851002068006820F040003E
:1024300021680860A08800F48270218901F40441B9
:102440000843A18901F400610843217C01F00201E5
:102450000843217D01F001010843218B01F4007143
:102460000843217F01F0380108432021095D01F074
:1024700080010843218D01F4005108432168086060
:102480000421A06901EA104094F8241001F0100121
:102490000843216848602068C06920F40060216812
:1024A000C86100206065012084F8510000209FE78A
:1024B00010B586B00446142101A8FDF7FAFF1B49A8
:1024C000206888422FD100BF002000901848006883
:1024D00040F48050164908600846006800F48050B7
:1024E000009000BF00BF00BF0020009010481438CB
:1024F000006840F001000E49143908600846006881
:1025000000F00100009000BF00BFE0200190022019
:10251000029000200390032004900520059001A95B
:102520000448FEF75BF906B010BD00000030014022
:1025300044380240000002402DE9F8430446884632
:1025400016461D464FF000096068B0F5827F0DD138
:10255000A06858B9042084F85100334642464146E9
:102560002046009500F077F9BDE8F88300BF94F8A5
:102570005000012801D10220F6E7012084F8500024
:1025800000BFFEF72DFA074694F85100012802D04B
:102590004FF002097EE0B8F1000F00D016B94FF0FD
:1025A000010977E0042084F8510000206065C4F838
:1025B0003880A687E6872063A086E0862064606472
:1025C000A068B0F5004F0BD12068006820F04000F3
:1025D000216808602068006820F480402168086055
:1025E0002068006800F04000402805D0206800689E
:1025F00040F0400021680860E068F8B91AE02068FF
:10260000806800F0010050B12068007BA16B087069
:10261000A06B401CA063E08F401EE0870AE0FEF73D
:10262000DFF9C01BA84201D3681C00B915B94FF0EF
:1026300003092FE0E08F0028E1D11EE01AE02068B6
:10264000806800F0010050B12068C068A16B08806C
:10265000A06B801CA063E08F401EE0870AE0FEF7BD
:10266000BFF9C01BA84201D3681C00B915B94FF0CF
:1026700003090FE0E08F0028E1D13A4629462046C1
:1026800001F044F808B120206065606D08B14FF09A
:10269000010900BF012084F8510000BF002084F828
:1026A000500000BF48465FE72DE9F84F04468846D2
:1026B00016461D464FF0000A00BF94F8500001284E
:1026C00002D10220BDE8F88F012084F8500000BF3D
:1026D000FEF786F90746B14694F85100012802D06A
:1026E0004FF0020AADE0B8F1000F00D016B94FF07C
:1026F000010AA6E0032084F8510000206065C4F8B8
:102700003080A686E686A063A087E08760642064A8
:10271000A068B0F5004F0BD12068006820F04000A1
:10272000216808602068006840F4804021680860E3
:102730002068006800F04000402805D0206800684C
:1027400040F0400021680860E068B0F5006F2FD1CC
:10275000606810B1B9F1010F09D1206B00882168C0
:10276000C860206B801C2063E08E401EE0861BE06A
:102770002068806800F0020002280AD1206B0088DF
:102780002168C860206B801C2063E08E401EE086BC
:102790000AE0FEF725F9C01BA84201D3681C00B966
:1027A00015B94FF0030A4CE0E08E0028E0D12EE08E
:1027B000606810B1B9F1010F09D1206B0078216870
:1027C0000873206B401C2063E08E401EE0861BE0F7
:1027D0002068806800F0020002280AD1206B00788F
:1027E00021680873206B401C2063E08E401EE08649
:1027F0000AE0FEF7F5F8C01BA84201D3681C00B937
:1028000015B94FF0030A1CE0E08E0028E0D13A46EB
:102810002946204600F0C4FF08B120206065A0686A
:1028200050B900BF002000902068C0680090206868
:102830008068009000BF00BF606D08B14FF0010AD2
:1028400000BF012084F8510000BF002084F8500030
:1028500000BF504636E72DE9FF5F044688469146A3
:102860001D460E9E012002900020019000BF94F8AA
:102870005000012803D1022004B0BDE8F09F0120E0
:1028800084F8500000BFFEF7ABF8074694F851B04B
:1028900060680390AA46BBF1010F0BD00398B0F516
:1028A000827F04D1A06810B9BBF1040F02D00220CE
:1028B0000190DBE0B8F1000F03D0B9F1000F00D0B8
:1028C00015B901200190D1E094F85100042802D0FC
:1028D000052084F8510000206065C4F83890E58731
:1028E000A587C4F83080E586A586206460642068EA
:1028F000006800F04000402805D02068006840F0E3
:10290000400021680860E068B0F5006F4AD1606857
:1029100010B1BAF1010F09D1206B00882168C8609D
:10292000206B801C2063E08E401EE08633E0206830
:10293000806800F00200022810D1E08E70B1029889
:1029400001280BD1206B00882168C860206B801C97
:102950002063E08E401EE0860020029020688068A0
:1029600000F0010068B1E08F58B12068C068A16B29
:102970000880A06B801CA063E08F401EE0870120D0
:102980000290FEF72DF8C01BB04204D3701C10B1AA
:10299000032001906AE0E08E0028C8D1E08F002873
:1029A000C5D14AE0606810B1BAF1010F09D1206BBE
:1029B000007821680873206B401C2063E08E401E65
:1029C000E08634E02068806800F00200022810D120
:1029D000E08E70B1029801280BD1206B007821683D
:1029E0000873206B401C2063E08E401EE0860020B0
:1029F00002902068806800F0010068B1E08F58B153
:102A00002068C068A16B0870A06B401CA063E08FB9
:102A1000401EE08701200290FDF7E2FFC01BB0429C
:102A200001D3701C00B916B9032001901EE0E08E9E
:102A30000028C7D1E08F0028C4D13A46314620464D
:102A400000F0AEFE20B101200190202060650DE075
:102A5000A06850B900BF002000902068C0680090B6
:102A600020688068009000BF00BF00BF012084F88C
:102A7000510000BF002084F8500000BF0198FBE621
:102A800070B504462546681EB0F1807F01D3012051
:102A90000FE0681E4FF0E02148610F214FF0FF303A
:102AA00003F064FC00204FF0E021886107200861FA
:102AB000002070BDF8B504460E46174694F83E0057
:102AC000202836D106B10FB90120F8BD00BF94F817
:102AD0003C00012801D10220F7E7012084F83C00E6
:102AE00000BF20633A463146204601F0E9F9054629
:102AF000EDB9206B012819D100BF0020009020689B
:102B00000068009020684068009000BF00BF00BFD0
:102B100000BF21680C3151E8001F41F0100021680E
:102B20000C3141E80002002AF3D100E001252846DB
:102B3000CBE70220C9E7000038B504460D4613A0D4
:102B400000680090124805601249206888421BD135
:102B5000012211491148FDF746FC80B11048BDF82B
:102B600000100180801C0D49891C0A6802604A68B7
:102B70004260098901810C21801EFDF777FD0C223E
:102B800006490848FFF796FF38BD0000FD550000D4
:102B90000C000020004C004009000020F80100203B
:102BA000EC010020A8160020704700002DE9F84F26
:102BB0000446206805682068C668206847694FF0A9
:102BC0000009CA4605F00F09B9F1000F0AD105F056
:102BD000200038B106F0200020B1204600F0D2FFDE
:102BE000BDE8F88FB9F1000F7CD007F0010018B9EB
:102BF00006F49070002875D005F0010030B106F49D
:102C0000807018B1206C40F00100206405F00400D1
:102C100030B107F0010018B1206C40F002002064D0
:102C200005F0020030B107F0010018B1206C40F04F
:102C30000400206405F0080048B106F0200010B937
:102C400007F0010018B1206C40F008002064206CEF
:102C5000002846D005F0200028B106F0200010B171
:102C6000204600F08FFF20684069C0F3801A206C76
:102C700000F0080010B9BAF1000F2DD0204600F086
:102C80003BFF2068406900F04000402820D100BF91
:102C900000BF2168143151E8001F21F04000216875
:102CA000143141E80002002AF3D100BFA06B50B1FB
:102CB0007548A16B0865A06BFDF768FD88B1A06B36
:102CC000016D88470DE02046FFF76EFF09E009E03F
:102CD0002046FFF769FF04E02046FFF765FF00206C
:102CE00020647DE7206B012876D105F010000028D4
:102CF00072D006F010000028FAD000BF002000902B
:102D000020680068009020684068009000BF00BF05
:102D10002068406900F0400040285ED1A06B006848
:102D200040681FFA80F8B8F1000F54D0A08D4045DC
:102D300051DDA4F82E80A06BC069B0F5807F43D030
:102D400000BF00BF21680C3151E8001F21F48070E2
:102D500021680C3141E80002002AF3D100BF00BF16
:102D600000BF2168143151E8001F21F001002168E3
:102D7000143141E80002002AF3D100BF00BF00BFB8
:102D80002168143151E8001F21F0400021681431FE
:102D900041E80002002AF3D100BF202084F83E0061
:102DA0000020206300BF00BF21680C3151E8001FE4
:102DB00021F0100021680C3141E80002002AF3D113
:102DC00000BFA06BFDF78CFCA08DE28D801A81B254
:102DD0002046FFF7B1FE03E740E0A08DE18D401AE9
:102DE0001FFA80F8E08DC0B3B8F1000F35D000BFF6
:102DF00000BF21680C3151E8001F21F49070216858
:102E00000C3141E80002002AF3D100BF00BF00BF2F
:102E10002168143151E8001F21F0010021681431AC
:102E200041E80002002AF3D100BF202084F83E00D0
:102E30000020206300BF00BF21680C3151E8001F53
:102E400021F0100021680C3141E80002002AF3D182
:102E500000BF41462046FFF76FFEC1E605F0800047
:102E600030B106F0800018B1204601F04CF8B7E60A
:102E700005F0400030B106F0400018B1204600F0E7
:102E800071FEADE600BFABE6E53A000810B50446BA
:102E90000CB9012010BDA06900B100E000BF94F89A
:102EA0003D0028B9002084F83C00204600F028F8B6
:102EB000242084F83D002068C06820F40050216878
:102EC000C860204600F0DAFE2068006920F49040D7
:102ED000216808612068406920F02A002168486163
:102EE0002068C06840F400502168C8600020206459
:102EF000202084F83D0084F83E000020CAE700004E
:102F000010B586B00446142101A8FDF7D2FA8B490A
:102F10002068884238D100BF0020009088480068AF
:102F200040F40020864908600846006800F400204C
:102F3000009000BF00BF00BF002000908048103804
:102F4000006840F001007E491039086008460068BA
:102F500000F00100009000BF00BF0320019002209C
:102F6000029000200390032004900820059001A9FE
:102F70007448FDF733FC002211463420FDF7BAFDFA
:102F80003420FDF7A7FDD7E06F49206888423AD189
:102F900000BF002000906A48001D006840F010004B
:102FA0006749091D08600846006800F0100000909D
:102FB00000BF00BF00BF00200090614810380068CB
:102FC00040F002005E49103908600846006800F0D1
:102FD0000200009000BF00BFC020019002200290BC
:102FE00000200390032004900720059001A9574872
:102FF000FDF7F4FB002211462520FDF77BFD25207F
:10300000FDF768FD98E052492068884256D100BF1C
:10301000002000904A48006840F480204849086039
:103020000846006800F48020009000BF00BF00BF89
:103030000020009042481038006840F004004049E9
:10304000103908600846006800F00400009000BFD6
:1030500000BF00BF002000900846006840F002005A
:1030600008600846006800F00200009000BF00BF42
:103070002020019002200290002003900320049061
:103080000720059001A93348FDF7A8FB4FF48060A5
:10309000019002200290002003900320049007205A
:1030A000059001A92948FDF799FB00221146272028
:1030B000FDF720FD2720FDF70DFD3DE026492068A6
:1030C000884239D100BF002000901D48001D0068D3
:1030D00040F020001A49091D08600846006800F009
:1030E0002000009000BF00BF00BF002000901448E7
:1030F0001038006840F00400114910390860084693
:10310000006800F00400009000BF00BFC0200190E4
:1031100002200290002003900320049008200590D4
:1031200001A90C48FDF75AFB002211464720FDF784
:10313000E1FC4720FDF7CEFC06B010BD004C00407E
:1031400040380240000002400010014000040240EC
:1031500000480040000802400014014070477047DA
:1031600000BFFEE730B50B46002100BF16E00A2481
:10317000B4EB107F05D9302404EB107403F8114030
:1031800005E0412404EB10740A3C03F811400001EF
:1031900000254C00641C1D554C1CE1B29142E6DB3D
:1031A00030BD000000B587B0142102A8FDF781F9F9
:1031B00000BF002001904848006840F004004649E4
:1031C00008600846006800F00400019000BF00BFDE
:1031D00000BF002001900846006840F080000860B1
:1031E0000846006800F08000019000BF00BF00BFEB
:1031F000002001900846006840F001000860084681
:10320000006800F00100019000BF00BF00BF002077
:1032100001900846006840F0020008600846006817
:1032200000F00200019000BF00BF002240F61851DC
:103230002A48FDF7CFFB00224FF482612848FDF7B2
:10324000C9FB012251022548FDF7C4FB01225102AE
:103250002348FDF7BFFB002220212248FDF7BAFBDF
:103260004FF40050029000200390049002A91B48E4
:10327000FDF7B4FA4FF4467002900120039000204D
:103280000490059002A91548FDF7A8FA4FF4C26012
:1032900002900120039000200490059002A910489C
:1032A000FDF79CFA4FF4406002900120039000204B
:1032B00004900320059002A90848FDF78FFA20200A
:1032C00002900120039000200490059002A9054877
:1032D000FDF784FA07B000BD303802400008024014
:1032E000000002400004024010B50E480E4908607C
:1032F0004FF48270486000210B488160C160016119
:1033000041614FF4007181611021C16100210162AE
:10331000416281620A21C162FFF766F808B1FDF7D8
:10332000C2F910BD003001405016002010B50B4806
:103330000B4908604FF4E130486000210848816083
:10334000C16001610C21416100218161C161FFF710
:103350009DFD08B1FDF7A7F910BD0000004C00402D
:10336000A816002010B50B480B4908604FF4E13057
:103370004860002108488160C16001610C21416101
:1033800000218161C161FFF781FD08B1FDF78BF973
:1033900010BD000000100140EC16002010B50B48D5
:1033A0000B4908604FF4964048600021084881604E
:1033B000C16001610C21416100218161C161FFF7A0
:1033C00065FD08B1FDF76FF910BD00000048004031
:1033D0003017002010B50B480B4908604FF4E1305E
:1033E0004860002108488160C16001610C21416191
:1033F00000218161C161FFF749FD08B1FDF753F973
:1034000010BD0000001401407417002010B5002208
:103410000D490E4801F08DFA08B1FDF744F90C4949
:103420000A4801F057FD08B1FDF73DF90949074881
:1034300000F0F9FE08B1FDF736F9044801F02CFE62
:1034400008B1FDF730F910BD44000020B817002086
:10345000C80000209400002000BFFEE7FEF75CFDDE
:1034600000BFFEE710B50248FDF767FD10BD000084
:10347000882C00202DE9F04704460D462668374683
:10348000D6F8408007F5306000EB4510D0F8089082
:10349000104880450BD909F40040B0F5004F06D123
:1034A0004FF4004107F5306000EB45108160204685
:1034B000FEF77BF90748804508D92069012805D126
:1034C00004F571720121206802F02EFB0020BDE896
:1034D000F08700000A30544F2DE9F04705460C46AE
:1034E000D5F800804646D8F8409006F5306000EBED
:1034F000441087682869012873D107F0080008285C
:103500000FD1524881450BD907F40040B0F5004F68
:1035100006D14FF4004106F5306000EB44108160A5
:1035200091E007F02000202806D1202106F5306028
:1035300000EB4410816086E007F0280000280ED1DF
:10354000424881450CD907F40040B0F5004F07D13F
:103550004FF4004106F5306000EB4410816072E0EA
:10356000C4EBC40105F5FE7000EB8100816806F52F
:10357000306000EB44100069C0F31200091AC4EB7C
:10358000C40205F5FE7000EB82008161C4EBC4014A
:1035900005F5FE7000EB8100C4EBC402C16805F5BF
:1035A000FE7000EB820080680144C4EBC40205F5A4
:1035B000FE7000EB8200C1606CB9C4EBC40105F57C
:1035C000FE7000EB8100406928B905F57172012198
:1035D000286802F0A9FAE1B22846FDF735FB32E08F
:1035E000FFE71B4881451BD107F40040B0F5004FB1
:1035F00007D14FF4004106F5306000EB44108160C4
:1036000021E007F02000202805D1202106F53060B8
:1036100000EB44108160E1B22846FDF715FB12E093
:103620006CB9C4EBC40105F5FE7000EB8100406984
:1036300028B905F571720021286802F075FAE1B227
:103640002846FDF701FB0020BDE8F0870A30544F03
:103650000A31544F2DE9F84F07460E46D7F800902F
:10366000C846C6EBC60107F13C0000EB8104D4E973
:103670000510884202D90120BDE8F88FD4E9050180
:10368000451AA068A84200D2A568E81C4FEA900A33
:1036900017E0D4E90501451AA068A84200D2A56840
:1036A000E81C4FEA900A387CABB2F2B20090484670
:1036B000E16802F02FFEE0682844E060A069284439
:1036C000A06108F5106000EB4610806980B250459B
:1036D00006D3D4E90510884202D260690028D8D107
:1036E000D4E9050188420ED806F00F01012000FA46
:1036F00001FB40F6340050F8080020EA0B0040F6C9
:10370000340141F808000020B6E77047F8B50446D8
:103710000E4615466068B0F5827F0DD1A068B0F501
:10372000004F03D0A068B0F5806F05D12068006815
:1037300020F04000216808606068B0F5827F1FD1EA
:10374000A068B0F5806F0DD033460022802120465E
:10375000009500F05BF808B3606D40F020006065F4
:103760000320F8BD3346002201212046009500F0D9
:103770004DF898B1606D40F0200060650320F0E7DF
:103780003346002201212046009500F03FF828B181
:10379000606D40F0200060650320E2E70020E0E774
:1037A0007CB504460D461646164800681821B0FB45
:1037B000F1F01549B0FBF1F04FF47A7148430190F4
:1037C0006068B0F5827F0DD12B4600228021204613
:1037D000009600F01BF898B1606D40F02000606525
:1037E00003207CBD00BF019800B908E00198401E8D
:1037F000019020688068C0F3C0100028F3D100BF9A
:103800000020EEE7B400002040420F002DE9F84F01
:1038100004460D4690461E46DDF82890FDF7E0F878
:10382000A0EB0900371AFDF7DBF882462C48006848
:10383000C0F3CB307843009045E0701C002842D0A4
:10384000FDF7CEF8A0EB0A00B84200D2A7BB206873
:10385000406820F0E000216848606068B0F5827F31
:103860000DD1A068B0F5004F03D0A068B0F5806F0F
:1038700005D12068006820F0400021680860A06A37
:10388000B0F5005F0DD100BF2068006820F4005043
:10389000216808602068006840F4005021680860D2
:1038A00000BF012084F8510000BF002084F85000C0
:1038B00000BF0320BDE8F88FFFE7009800B900279C
:1038C0000098401E0090206880682840A84201D1DE
:1038D000012000E000204045AFD10020EAE70000D1
:1038E000B400002070B504460D462003294602F0BE
:1038F0001DFE70BDF3B5ADF5017D0C46214681A8D6
:1039000002F046FF0646A6F58070C0F30F2522465A
:10391000294641A800F037F841AF0DE0681E80B29B
:1039200005460146224601A800F02DF84FF48072AA
:1039300001A941A8FCF783FD3868401C0028EDD19F
:103940000DF5037DF0BDF0B5C1B007460C46164637
:103950004FF4807101A8FCF7ACFD2546E01704EB9D
:1039600090408013A4EB8030010233464FF4807204
:1039700001A802F029FE4FF4807201A93846FCF735
:103980005EFD41B0F0BDF0B5C1B007460C4616462D
:103990004FF4807101A8FCF78CFD2546E01704EB7D
:1039A00090408013A4EB8030010233464FF48072C4
:1039B00001A802F009FE4FF4807101A8FCF756FE41
:1039C0004FF4807201A93846FCF739FD41B0F0BDD3
:1039D0000FB470B5459D449C21022B464FF4807274
:1039E00004A802F0F3FF70BC5DF814FB704730B51B
:1039F00001460A461378521C147843EA042030BD6D
:103A000010B5FCF7F3FF10BD00B593B0342106A844
:103A1000FCF74FFD142101A8FCF74BFD00BF00206F
:103A200000902548006840F080502349086008460F
:103A3000006800F08050009000BF00BF00BF002071
:103A400000901E48006840F440401C490860084649
:103A5000006800F44040009000BF00BF01200690C5
:103A60000004079002200C9041050D9106210E9153
:103A700060210F91022110910421119102211291D4
:103A800006A8FEF759FA08B1FCF70DFE0F200190C9
:103A900002200290002003904FF4805004900020F8
:103AA0000590032101A8FEF7F1F808B1FCF7FBFD32
:103AB000FEF7AEF913B000BD403802400070004080
:103AC0000348006840F47000014908607047000036
:103AD00088ED00E010B50248FFF768F810BD00005F
:103AE000A816002070B50546AC6B0020E085E08488
:103AF0002046FFF759F870BD00BF00BF02680C32C6
:103B000052E8002F22F4907102680C3242E8001350
:103B1000002BF3D100BF00BF00BF0268143252E88F
:103B2000002F22F001010268143242E80013002B3A
:103B3000F3D100BF016B01290ED100BF00BF0268A5
:103B40000C3252E8002F22F0100102680C3242E8D9
:103B50000013002BF3D100BF202180F83E1000217C
:103B60000163704710B504462068C06820F040002B
:103B70002168C860202084F83D002046FFF7EFFA56
:103B8000002010BDF8B5044694F83E00222873D1F9
:103B9000A068B0F5805F0CD1206950B90025A66AF5
:103BA00020684068C0F308003080A06A801CA062D2
:103BB00015E0A56A0026A068B0F5805F03D0A06874
:103BC00028B9206918B920684068287004E0206886
:103BD000406800F07F002870A06A401CA062E08D61
:103BE000401E80B2E085002844D12068C06820F0E3
:103BF00020002168C8602068C06820F480702168B7
:103C0000C8602068406920F00100216848612020D8
:103C100084F83E00206B012826D10020206300BFDD
:103C200000BF21680C3151E8001F21F0100021680D
:103C30000C3141E80002002AF3D100BF206800687F
:103C400000F0100010280AD100BF0020009020686A
:103C50000068009020684068009000BF00BFA18D00
:103C60002046FEF769FF02E02046FFF777FA0020C2
:103C7000F8BD01E00020FBE70220F9E72DE9F84F4D
:103C800004462068006920F44050E1680843216838
:103C900008612169A068084361690843E169084334
:103CA00000902068C06849F20C618843009908437D
:103CB0002168C8602068406920F44070A169084309
:103CC000216848617A49206888420BD07949206888
:103CD000884207D078492068884203D07749206815
:103CE000884203D1FEF7B0F8814602E0FEF79CF867
:103CF0008146E069B0F5004F6BD102206168A0FBFE
:103D0000015003461920A9FB007001462A46384697
:103D1000FCF7F2FA6421B0FBF1F04FEA001A02203E
:103D20006168A0FB01510B461920A9FB00712A46CE
:103D30003846FCF7E1FA834602206168A0FB015097
:103D400003461920A9FB00712A463846FCF7D4FA2D
:103D50006421B0FBF1F000EBC00101EB0010ABEB14
:103D60008000322101EBC0006421B0FBF1F000F0D3
:103D7000F8000AEB400A02206168A0FB01500346EC
:103D80001920A9FB00712A463846FCF7B5FA83468C
:103D900002206168A0FB015003461920A9FB0071B5
:103DA0002A463846FCF7A8FA6421B0FBF1F000EB94
:103DB000C00101EB0010ABEB8000322101EBC00031
:103DC0006421B0FBF1F000F00700504421688860E6
:103DD0006CE004206168A0FB01510B461920A9FB8F
:103DE00000712A463846FCF787FA8246042061684B
:103DF000A0FB015003461920A9FB007001462A468A
:103E00003846FCF779FA6421B0FBF1F000EBC00111
:103E100001EB0010AAEB8000322101EB00106421BD
:103E2000B0FBF1F000F0F00A04206168A0FB017023
:103E300003461920A9FB005001463A462846FCF7E4
:103E40005BFA6421B0FBF1F00AEB001A0420616810
:103E5000A0FB01511920A9FB007080462A460B46A1
:103E600038464146FCF748FA834604206168A0FBC7
:103E7000015003461920A9FB007001462A46384626
:103E8000FCF73AFA6421B0FBF1F000EBC00101EB62
:103E90000010ABEB8000322101EB00106421B0FB7D
:103EA000F1F000F00F00504421688860BDE8F88F01
:103EB000001001400014014000180140001C0140A6
:103EC00010B5034699629A85DA850020186422208D
:103ED00083F83E0000BF002083F83C0000BF186854
:103EE000C06840F480701C68E0601868406940F069
:103EF00001001C6860611868C06840F020001C6800
:103F0000E060002010BD014691F83D00212828D135
:103F10008868B0F5805F0BD1086948B90A6A1088D3
:103F2000C0F308000B685860086A801C086205E04E
:103F30000B6A581C086218780B685860C88C401EC1
:103F400080B2C88458B90868C06820F080000B6847
:103F5000D8600868C06840F040000B68D860002056
:103F600070470220FCE7000010B50248FEF71EFE75
:103F700010BD0000EC16002010B50248FEF716FE3A
:103F800010BD00003017002010B50248FEF70EFEED
:103F900010BD0000741700202DE9F04104460D46C5
:103FA000D4F8C472D4F8BC0210B90320BDE8F08183
:103FB000D4F8BC6205EB850104F1140000EB81002C
:103FC000406808B305EB850104F1140000EB8100A3
:103FD000C5EBC502416807F13C0000EB8200806838
:103FE000B1FBF0F200FB121070B9002105EB850265
:103FF00004F1140000EB8200416000231A462946B8
:10400000204600F034FF0FE00020C6F81402D4F878
:10401000C002006940B1D6F80802D4F8C0122A469E
:104020000B6906F5047198470020BFE770B5044698
:104030000E46D4F8BC52D4F8BC0208B9032070BDB7
:104040003146204600F083FDC5F80C02D5F8040285
:10405000D4F8C012CA6805F5037190470020EEE756
:1040600070B504460D468121204600F092FC0021E7
:1040700021870121204600F08CFC0021A4F8781152
:104080008221204600F085FC0021A4F84C10A4F801
:104090004E10D4F8BC0250B1D4F8C0124868804722
:1040A000D4F8BC0201F0A6F90020C4F8BC0200203C
:1040B00070BD70B50546D5F8BC420CB9032070BD83
:1040C000D5F8C00278B194F80002FF280BD094F81C
:1040D000012294F80002D5F8C0128B682146984757
:1040E000FF2084F800020020E9E7000001460A20D2
:1040F0000880014870470000BC00002001464320B2
:104100000880014870470000440100200146432018
:10411000088001487047000000010020014643204C
:1041200008800148704700008801002070B50446EF
:104130000E464FF4077001F05FF9054625B90020DF
:10414000C4F8BC02022070BDC4F8BC52207CA0B9E7
:104150004FF4007302228121204600F083FD0121EB
:1041600021874B020222204600F07CFD0121A4F8A9
:1041700078111021A4F84E1012E040230222812170
:10418000204600F06FFD01212187402302222046B6
:1041900000F068FD0121A4F878111021A4F84E1058
:1041A000082303228221204600F05CFD0121A4F8AF
:1041B0004C10D4F8C012086880470020C5F81402DB
:1041C000C5F81802207C40B94FF400730121204645
:1041D000D5F8042200F05EFD06E0402301212046D0
:1041E000D5F8042200F056FD0020ACE770B5044677
:1041F000D4F8BC52D4F8BC0208B9032070BD207CAE
:1042000040B94FF4007301212046D5F8042200F094
:1042100041FD06E0402301212046D5F8042200F0AC
:1042200039FD0020EAE7024609B903207047C2F8C9
:10423000C0120020FAE702460B46D2F8BC1209B9B8
:1042400003207047C1F804320020FAE710B5034696
:104250000C46D3F8BC1209B9032010BDC1F80842BE
:10426000C1F810220020F8E72DE9FC4105460C4674
:10427000D5F8BC62002001900090804616B903205A
:10428000BDE8FC81207800F0600078B320286FD171
:10429000E08818B3207800F0800098B1E288607858
:1042A000D5F8C0128B6831469847E088072801D9B5
:1042B000072000E0E08807463A463146284600F0ED
:1042C000F1F812E0607886F80002A07986F8010221
:1042D000E2883146284600F0C4F806E06078D5F858
:1042E000C01200228B682146984748E0FFE76078BB
:1042F00030B1012831D00A2813D00B282ED121E06B
:1043000095F89C02032805D102226946284600F050
:10431000C9F805E02146284600F097F84FF0030859
:1043200023E095F89C02032805D1012201A9284623
:1043300000F0B8F805E02146284600F086F84FF076
:10434000030812E095F89C02032805D02146284670
:1043500000F07BF84FF0030807E006E0214628460E
:1043600000F073F84FF0030800BF00BF07E0FFE75D
:104370002146284600F069F84FF0030800BF00BF4F
:1043800040467DE770B50546D5F8BC420126D5F814
:10439000BC0208B9032070BDD4F8140270B9012022
:1043A000C4F81402D4F81012E96281212846D4F826
:1043B0001032D4F8082200F05AFD00263046EAE711
:1043C00070B504460D46D4F8B80228B1D4F8B80246
:1043D0002946426820469047002070BD70B50446CB
:1043E0000D4694F89C02012804D0022803D003282B
:1043F0000CD101E000BF00BF6888012805D1002072
:10440000C4F8A402204600F05EF804E029462046E5
:1044100000F01BF800BF00BF70BD70B506460C462B
:1044200015462B4622460021304600F033FC002082
:1044300070BD70B506460C4615462B462246002137
:10444000304600F014FD002070BD70B504460D46E6
:104450008021204600F0DFFC0021204600F0DBFC3C
:1044600070BD70B504460E4615460320C4F894028C
:104470004FF4AC700551001D05512B46324600210A
:10448000204600F007FC002070BD10B50446052052
:10449000C4F8940200231A461946204600F0FAFB9D
:1044A000002010BD70B504460E4615460220C4F823
:1044B0009402A561E5612B4632460021204600F0BA
:1044C000D6FC002070BD10B504460420C4F8940248
:1044D00000231A461946204600F0C9FC002010BDF2
:1044E00070B505460C462DB92246064906A000F0D7
:1044F000E0F904E02246034903A000F0DAF901489C
:1045000070BD0000881A002043444320436F6E664C
:1045100069670000024612200880014870470000C9
:104520006000002070B505460C462DB922460649AC
:1045300006A000F0BEF904E02246034903A000F003
:10454000B8F9014870BD0000881A00204344432098
:10455000496E74657266616365000000024604205E
:1045600008800148704700007400002070B50546BF
:104570000C462246024903A000F09BF9004870BD9A
:10458000881A002053544D6963726F656C656374BB
:10459000726F6E696373000070B505460C462DB9E5
:1045A0002246064906A000F084F904E022460349A9
:1045B00003A000F07EF9014870BD0000881A0020B9
:1045C00053544D3332205669727475616C20436FB9
:1045D0006D506F727400000070B505460C461A20CD
:1045E0002080FCF763F8014870BD000078000020CF
:1045F00070B504460D46E888012804D029462046B7
:10460000FFF723FF1EE094F89C02012804D0022843
:1046100003D0032810D109E000BF0020A0600122D0
:1046200004F108012046FFF73DFF0AE00122211DA9
:104630002046FFF737FF04E029462046FFF705FF35
:1046400000BF00BF70BDF8B504460E4600200090C4
:104650000027002570880012082875D2DFE800F0D6
:10466000C7040C20C7C7A5B5207CD4F8B4120A68CB
:10467000694690470746C1E0207C40B9D4F8B802AB
:10468000816A6846884707460220787007E0D4F8B8
:10469000B802C16A68468847074602207870ADE0D4
:1046A000B078062878D2DFE800F00316293C506382
:1046B000D4F8B402406838B1207CD4F8B4124A6807
:1046C00069469047074605E031462046FFF7BDFEA4
:1046D000681CC5B267E0D4F8B402806838B1207CA9
:1046E000D4F8B4128A6869469047074605E0314617
:1046F0002046FFF7AAFE681CC5B254E0D4F8B40205
:10470000C06838B1207CD4F8B412CA6869469047B2
:10471000074605E031462046FFF797FE681CC5B204
:1047200041E0D4F8B402006938B1207CD4F8B41266
:104730000A6969469047074605E031462046FFF77B
:1047400084FE681CC5B22EE051E0D4F8B402406982
:1047500038B1207CD4F8B4124A69694690470746BC
:1047600005E031462046FFF770FE681CC5B21AE02E
:10477000D4F8B402806940B1207CD4F8B4128A69BC
:1047800069469047074606E006E031462046FFF7B7
:104790005CFE681CC5B206E031462046FFF755FEB8
:1047A000681CC5B200BF00BF28E0207C30B9D4F837
:1047B000B802416B68468847074605E03146204607
:1047C000FFF743FE681CC5B218E0207C40B9D4F85E
:1047D000B802016B6846884707460720787005E0F5
:1047E00031462046FFF731FE681CC5B206E031466F
:1047F0002046FFF72AFE681CC5B200BF00BF05B106
:10480000F8BDF088C0B1BDF8000080B1F088BDF8F7
:104810000010884202DDBDF8000000E0F088009042
:10482000BDF8002039462046FFF73CFE07E0314640
:104830002046FFF70AFE02E02046FFF744FE00BFD5
:10484000DEE7014600200A4602E0431CD8B2521CB3
:104850001378002BF9D1704770B504460D4694F8D3
:104860009C02012804D0022803D003281AD101E0B9
:1048700000BF00BFE888022804D029462046FFF781
:10488000E4FD14E00120E060D4F8A40218B1E0686F
:1048900040F00200E060022204F10C012046FFF724
:1048A00001FE04E029462046FFF7CFFD00BF00BF10
:1048B00070BD2DE9F04107460D46904600240FB922
:1048C000BDE8F0813E463046FFF7BBFF022101EB19
:1048D0004000A8F8000098F800002855601CC4B2F9
:1048E00003202855601CC4B208E030782855761C97
:1048F000601CC4B200202855601CC4B23078002867
:10490000F3D100BFDCE70146002031B1012906D018
:10491000022906D0032908D105E0002007E0032082
:1049200005E0012003E0032001E0032000BF00BFF9
:1049300070472DE9F04104460D46164614B9032090
:10494000BDE8F0810020C4F8B802C4F8C002C4F881
:10495000CC020DB1C4F8B452012084F89C02267038
:10496000204600F0FDF807463846E9E72DE9F0411A
:1049700004460D46002600272946D4F8C402FCF759
:10498000AFF906463046FFF7BEFF07463846BDE89A
:10499000F0812DE9F04104460D4600260027294606
:1049A000D4F8C402FCF767F906463046FFF7ABFFC0
:1049B00007463846BDE8F0812DE9F04104460F4630
:1049C0009046002F54D104F11405D4F89402022823
:1049D00043D1D5E9020188420FD9D5E90201401A35
:1049E000A86041462046AA68FFF723FD00231A4627
:1049F0001946204600F04EF92FE0D5E90210884212
:104A000017D1E9686868884213D36868D4F89812A7
:104A100088420ED2002211462046FFF70AFD0020F0
:104A2000C4F8980200231A461946204600F032F9CD
:104A300013E094F89C02032808D1D4F8B802C068A7
:104A400020B1D4F8B802C1682046884780212046AA
:104A500000F0E1F92046FFF718FD94F8A0020128C4
:104A600019D1204600F04DFA002084F8A00212E08F
:104A700094F89C0203280ED1D4F8B802406950B1D2
:104A8000D4F8B8023946426920469047064616B126
:104A90003046BDE8F0810020FBE72DE9F0410546F6
:104AA0000F4690465FBB05F5AA74D5F8940203281B
:104AB00038D1D4E90201884210D9D4E90201401A60
:104AC000A060D4E90201884201D2A06800E0E06859
:104AD000024641462846FFF7A0FC23E095F89C02D9
:104AE000032808D1D5F8B802006920B1D5F8B8027A
:104AF0000169284688472846FFF7E5FC12E095F84B
:104B00009C0203280ED1D5F8B802806950B1D5F8BF
:104B1000B8023946826928469047064616B13046A3
:104B2000BDE8F0810020FBE701460020704710B58A
:104B30000446012084F89C02D4F8B80228B12179F7
:104B4000D4F8B802426820469047002010BD70B5E6
:104B500004460D462946D4F8C402FCF7FFF870BDA0
:104B600010B50446207800282BD11748C0F804441B
:104B7000C4F8C4024FF0A040134908600620486002
:104B800002211148C16000210161022181610021DF
:104B9000C161016241628162C1620163FCF7AFFCE5
:104BA00008B1FBF780FD80210748FCF70AF8402296
:104BB00000210548FCF70AF8802201210248FCF791
:104BC00005F8002010BD0000882C002010B502461A
:104BD000D2F8C43201F08000802809D101F07F00B2
:104BE000C0EBC00403F13C0000EB8400807810BDF2
:104BF00001F07F00C0EBC00403F5FE7000EB840001
:104C00008078F4E770B504460D46D4F8B80208B9C8
:104C1000032070BD94F89C02032809D1D4F8B8028F
:104C2000006A28B1D4F8B8022946026A20469047A3
:104C30000020EEE770B504460D46D4F8B80208B976
:104C4000032070BD94F89C02032809D1D4F8B8025F
:104C5000406A28B1D4F8B8022946426A20469047F3
:104C60000020EEE72DE9F04704460F4615461E46A4
:104C70004FF00008C1462B4632463946D4F8C402EC
:104C8000FCF777F880464046FFF73DFE81464846F0
:104C9000BDE8F0872DE9F04704460D4616461F464D
:104CA0004FF00008C1463B4632462946D4F8C402BC
:104CB000FCF7A5F880464046FFF725FE81464846AA
:104CC000BDE8F08710B50446012084F89C0200205E
:104CD000C4F894026060C4F8A402D4F8B80208B919
:104CE000032010BDD4F8BC0248B1D4F8B802406823
:104CF00028B12179D4F8B802426820469047402371
:104D0000002211462046FFF7ADFF01214FF4B2709B
:104D100001534021001F01514023002280212046E1
:104D2000FFF7A0FF0121A184402121620020D8E7E4
:104D3000014691F89C02042803D191F89D0281F864
:104D40009C020020704710B50446D4F8B80208B998
:104D5000032010BD94F89C02032808D1D4F8B802AF
:104D6000C06920B1D4F8B802C16920468847002044
:104D7000EFE702461174002070472DE9F041044628
:104D80000D46002600272946D4F8C402FCF7F2FCA1
:104D900006463046FFF7B7FD07463846BDE8F081C6
:104DA00070B504460D46294604F2AA2000F077F8B3
:104DB0000120C4F894024FF42C70005BC4F89802F0
:104DC00094F8AA0200F01F0020B1012809D002289F
:104DD00015D10DE004F2AA21204600F063F9064641
:104DE00016E004F2AA21204600F0C5FA06460FE0BC
:104DF00004F2AA21204600F0A8F9064608E094F83B
:104E0000AA0200F08001204600F005F8064600BF27
:104E100000BF304670BD2DE9F04104460D46002626
:104E200000272946D4F8C402FCF715F80646304698
:104E3000FFF769FD07463846BDE8F08170B50446C6
:104E400000250026D4F8C402FCF7B8FC0546284625
:104E5000FFF759FD0646304670BD014691F89C02A9
:104E600081F89D02042081F89C02002070472DE902
:104E7000F04704460D4616461F464FF00008C1464F
:104E80003B4632462946D4F8C402FCF729F880464E
:104E90004046FFF738FD81464846BDE8F08770B5CB
:104EA00005460E46344620782870641C20786870C9
:104EB000641C2046FEF79BFD6880641C641C204631
:104EC000FEF795FDA880641C641C2046FEF78FFD4C
:104ED000E88070BD38B504460D46002000900DB93D
:104EE000032038BDC4F8B852D4F8B802C06A30B153
:104EF000D4F8B802C16A68468847C4F8CC020020DA
:104F0000EFE701460020704770B504460D46A888BB
:104F100010BBE88800BB688880281DD2A87800F004
:104F20007F0694F89C02032804D129462046FFF707
:104F30008CFA15E084F89E6231462046FFF71DFF8B
:104F40002046FFF7C0FA1EB1022084F89C0207E059
:104F5000012084F89C0203E029462046FFF775FAF9
:104F600070BD70B504460D460326D4F8B80230B1C2
:104F7000D4F8B802294602682046904706463046D3
:104F800070BD000070B504460E460025B0783B4960
:104F9000087008460078012805D931462046FFF7F9
:104FA00054FA032070BD94F89C02022802D0032812
:104FB00056D11CE031480078A8B1304800786060D4
:104FC0002E4801782046FFF7CCFF054625B1314633
:104FD0002046FFF73AFA09E02046FFF774FA03206B
:104FE00084F89C0202E02046FFF76DFA43E0234874
:104FF000007870B9022084F89C0220480078606034
:105000001E4801782046FFF7DBF92046FFF75BFAE0
:1050100025E01A490978606888421DD02179204628
:10502000FFF7CEF9154800786060144801782046F3
:10503000FFF797FF05465DB131462046FFF705FAB9
:1050400021792046FFF7BCF9022084F89C0206E093
:105050002046FFF738FA02E02046FFF734FA0AE06C
:1050600031462046FFF7F1F9044801782046FFF762
:10507000A7F9032500BF00BF284693E7B80000202A
:1050800070B505460C466088012804D1C5F8A40215
:105090002846FFF718FA70BD10B504462046FFF702
:1050A000CDFE10BD70B505460C460026207800F0F8
:1050B000600068B1202802D040283ED100E000BF47
:1050C000D5F8B8022146826828469047064639E05E
:1050D00060780A282AD2DFE800F01A24291F290A5A
:1050E0000529150F21462846FFF7ADFA23E0214692
:1050F0002846FFF709FF1EE021462846FFF742FF3A
:10510000064618E021462846FFF772FA13E02146CA
:105110002846FFF7A1FB0EE021462846FFF7B0FF27
:1051200009E021462846FFF759F904E021462846C0
:10513000FFF78BF900BF00BF04E021462846FFF7C8
:1051400084F900BF00BF304670BD2DE9F04105462F
:105150000E464FF000083479307800F0600068B1F6
:10516000202802D0402871D100E000BFD5F8B80255
:1051700031468268284690478046F8E070780028DB
:1051800065D001282FD0032870D195F89C02022801
:1051900002D0032820D110E054B1802C08D0214641
:1051A0002846FFF738FE80212846FFF734FE03E04B
:1051B00031462846FFF749F913E0708840B93CB101
:1051C000802C05D0F08818B921462846FFF723FE29
:1051D0002846FFF778F904E031462846FFF735F90D
:1051E00000BF00BFBCE095F89C02022802D0032853
:1051F00025D110E054B1802C08D021462846FFF775
:105200000AFE80212846FFF706FE03E031462846C5
:10521000FFF71BF918E0708880B904F07F0018B11F
:1052200021462846FFF7A2FB2846FFF74CF9D5F8A0
:10523000B8023146826828469047804604E03146ED
:105240002846FFF702F900BF00BF89E08AE095F821
:105250009C02022802D0032876D126E03CB1802CA3
:1052600005D031462846FFF7F0F872E073E004F00D
:105270008000802808D104F07F0000EB800105F158
:10528000140000EB810007E004F07F0000EB8001D8
:1052900005F5AA7000EB8100074600203860022265
:1052A00039462846FFF7FEF853E004F080008028D6
:1052B0000ED104F00F0000EB800105F1140000EBAB
:1052C0008100008A98B931462846FFF7BEF840E0D1
:1052D00004F00F0000EB800105F5AA7000EB8100DF
:1052E000008A20B931462846FFF7AFF831E004F0D4
:1052F0008000802808D104F07F0000EB800105F1D8
:10530000140000EB810007E004F07F0000EB800157
:1053100005F5AA7000EB810007460CB1802C02D184
:105320000020386009E021462846FFF74FFC10B105
:105330000120386001E0002038600222394628460A
:10534000FFF7B0F805E0FFE731462846FFF77DF8A4
:1053500000BF00BF04E031462846FFF776F800BFE3
:1053600000BF04E031462846FFF76FF800BF00BFDA
:105370004046BDE8F08170B505460C460026207811
:1053800000F0600030B1202802D040282AD100E08F
:1053900000BF00BF95F89C02012804D0022803D06A
:1053A000032818D101E000BF00BF207901280DD8E3
:1053B000D5F8B80221468268284690470646E0881C
:1053C00040B93EB92846FFF77EF803E0214628465B
:1053D000FFF73BF804E021462846FFF736F800BF08
:1053E00000BF04E021462846FFF72FF800BF00BFAA
:1053F000304670BD7047000001460148704700000C
:105400009030002070B504460B4622461978587833
:1054100001282CD140F61C0080581D7805F00F069D
:105420000125B540ADB2284340F61C05A85002F551
:10543000106000EB4110006800F40040F0BB1889D8
:10544000C0F30A00DD7840EA854040EA815040F030
:10545000805040F4004002F5106505EB41152D68C1
:10546000284302F5106505EB411528602DE040F654
:105470001C0080581D7805F00F060125B540144E1C
:1054800006EA0545284340F61C05A85002F53060A1
:1054900000EB4110006800F4004078B91889C0F3AF
:1054A0000A00DD7840EA854040F0805040F400403A
:1054B00002F5306505EB41152D6800E005E0284355
:1054C00002F5306505EB41152860002070BD000035
:1054D0000000FFFF01460A464FF410608058C30ADF
:1054E000DB024FF41060835040F60400805840F413
:1054F000807340F604008350002070470FB470B5ED
:1055000004460A98012817D1A06B20F48030A063CC
:10551000E0681A490840E060E06820F44010E0606C
:105520001198012803D1E06840F48010E060204623
:1055300000F026F8054612E0E06840F04000E06028
:10554000204600F01DF805460E9820B9A06B40F4E7
:105550008030A06303E0A06B20F48030A063089843
:10556000012807D1A06840F00600A060A06840F0C4
:105570002000A060284670BC5DF814FBBFFFBDFF93
:1055800008B501460020009000BF0098401C104A5A
:105590000090904201D9032008BD086900F0004046
:1055A0000028F2D000200090086940F00100086156
:1055B00000BF0098401C064A0090904201D9032089
:1055C000EAE7086900F001000028F2D100BFE3E734
:1055D000400D030070B504460B46224619785878F2
:1055E000012848D102F5106000EB4110006800F07E
:1055F0000040B0F1004F17D102F5106000EB4110F0
:10560000006840F0006502F5106000EB4110056095
:1056100002F5106000EB4110006840F0804502F593
:10562000106000EB4110056040F63C0080581D788A
:1056300005F00F060125B540ADB2A84340F63C0584
:10564000A85040F61C0080581D7805F00F06012573
:10565000B540ADB2A84340F61C05A85002F5106055
:1056600000EB411000682B4D284002F5106505EB5A
:10567000411528604BE002F5306000EB41100068F6
:1056800000F00040B0F1004F17D102F5306000EBA0
:105690004110006840F0006502F5306000EB4110F9
:1056A000056002F5306000EB4110006840F0804575
:1056B00002F5306000EB4110056040F63C00805878
:1056C0001D7805F00F060125B540134E06EA054585
:1056D000A84340F63C05A85040F61C0085581878B1
:1056E00000F00F060120B0400B4E06EA0040854353
:1056F00040F61C00855002F5306000EB4110006858
:10570000064D284002F5306505EB41152860002064
:1057100070BD0000007833EC0000FFFF0078F3EF6D
:1057200001460A46D2F8000E20F00300C2F8000E2F
:1057300040F60400805820F0020340F60400835035
:105740000020704701460A46D2F8000E20F0030000
:10575000C2F8000E40F60400805840F0020340F604
:1057600004008350002070470FB4F0B506460027B0
:105770003546002405E0002106F5827040F824102B
:10578000641C0F2CF7D31098A0B940F604004059C0
:1057900040F0020140F604004151B06B20F40010CB
:1057A000B063306840F040003060306840F0800006
:1057B000306003E0B06B40F40010B0630020C5F827
:1057C000000ED5F80008C5F800080B9801280BD189
:1057D000089820B90021304600F01EFD08E00121A4
:1057E000304600F019FD03E00321304600F014FDBF
:1057F0001021304600F026FC00B10127304600F0B1
:1058000009FC00B1012700214FF401604151001D46
:10581000415140F61C00415100242EE005F5106076
:1058200000EB4410006800F00040B0F1004F10D1D0
:105830003CB94FF0006105F5106000EB44100160C9
:105840000DE04FF0904105F5106000EB4410016051
:1058500005E0002105F5106000EB44100160002117
:1058600005F5106000EB441001614FF67F3105F53E
:10587000106000EB44108160641C0698A042CDD8F3
:1058800000242EE005F5306000EB4410006800F0C5
:105890000040B0F1004F10D13CB94FF0006105F568
:1058A000306000EB441001600DE04FF0904105F5D1
:1058B000306000EB4410016005E0002105F5306028
:1058C00000EB44100160002105F5306000EB44104E
:1058D00001614FF67F3105F5306000EB44108160C7
:1058E000641C0698A042CDD84FF40160405920F4C2
:1058F00080714FF4016041510020B0616FF0804031
:105900007061099818B9B06940F01000B061B069D1
:1059100009490843B0610C9818B1B06940F008001B
:10592000B0611098012803D1B06904490843B061FF
:105930003846F0BC5DF814FB00383C8004000040A1
:105940000146886820F00100886000207047000050
:10595000F0B505460B4614462A46197858780128B2
:1059600075D1586920BB02F5106000EB4110006949
:105970006C4E304002F5106606EB4116306102F5C0
:10598000106000EB4110006940F4002602F5106041
:1059900000EB4110066102F5106000EB4110006958
:1059A000C60CF60402F5106000EB4110066137E00A
:1059B00002F5106000EB41100069C60CF60402F518
:1059C000106000EB4110066102F5106000EB411021
:1059D0000069544E304002F5106606EB4116306106
:1059E0009E685869B04201D99868586102F5106004
:1059F00000EB4110006940F4002602F5106000EB56
:105A00004110066102F5106000EB411000695E690B
:105A1000C6F31206304302F5106606EB41163061FC
:105A2000012C15D1186928B102F5106000EB411066
:105A30001E69466102F5106000EB4110006840F0FD
:105A4000044602F5106000EB4110066068E01BE0C0
:105A500002F5106000EB4110006840F0044602F5CA
:105A6000106000EB411006605869002858D040F6DD
:105A7000340080581E7806F00F070126BE403043E0
:105A800040F63406B0504BE002F5306000EB4110B8
:105A90000069C60CF60402F5306000EB41100661A7
:105AA00002F5306000EB411000691E4E304002F5F7
:105AB000306606EB41163061586908B19868586144
:105AC00002F5306000EB4110006940F4002602F559
:105AD000306000EB4110066102F5306000EB4110D0
